{"abi":[{"inputs":[{"internalType":"string","name":"id","type":"string"},{"internalType":"string","name":"name","type":"string"},{"internalType":"string","name":"brandName","type":"string"}],"name":"addProduct","outputs":[],"stateMutability":"nonpayable","type":"function"},{"inputs":[{"internalType":"string","name":"sellerId","type":"string"}],"name":"addSellers","outputs":[],"stateMutability":"nonpayable","type":"function"},{"inputs":[{"internalType":"string","name":"","type":"string"}],"name":"allSellersInfo","outputs":[{"internalType":"string","name":"sellerId","type":"string"},{"internalType":"address","name":"sellerAddress","type":"address"}],"stateMutability":"view","type":"function"},{"inputs":[{"internalType":"string","name":"","type":"string"}],"name":"hasReachedToConsumer","outputs":[{"internalType":"bool","name":"","type":"bool"}],"stateMutability":"view","type":"function"},{"inputs":[{"internalType":"string","name":"","type":"string"}],"name":"hasReachedToSeller","outputs":[{"internalType":"string","name":"sellerId","type":"string"},{"internalType":"bool","name":"hasReached","type":"bool"}],"stateMutability":"view","type":"function"},{"inputs":[{"internalType":"string","name":"","type":"string"}],"name":"productStorage","outputs":[{"internalType":"string","name":"productId","type":"string"},{"internalType":"string","name":"name","type":"string"},{"internalType":"string","name":"brandName","type":"string"},{"internalType":"bool","name":"hasmade","type":"bool"},{"internalType":"uint32","name":"consumerCode","type":"uint32"}],"stateMutability":"view","type":"function"},{"inputs":[{"internalType":"string","name":"prodId","type":"string"},{"internalType":"uint32","name":"consumerCode","type":"uint32"}],"name":"productVerification","outputs":[{"internalType":"bool","name":"","type":"bool"}],"stateMutability":"view","type":"function"},{"inputs":[{"internalType":"string","name":"prodId","type":"string"},{"internalType":"uint32","name":"consumerCode","type":"uint32"}],"name":"sellToConsumer","outputs":[],"stateMutability":"nonpayable","type":"function"},{"inputs":[{"internalType":"string","name":"prodId","type":"string"},{"internalType":"string","name":"sellerId","type":"string"}],"name":"sellToSeller","outputs":[],"stateMutability":"nonpayable","type":"function"}],"devdoc":{"kind":"dev","methods":{},"version":1},"evm":{"assembly":"    /* \"FakeProdIden.sol\":652:3575  contract FakeProdIden... */\n  mstore(0x40, 0x80)\n  callvalue\n  dup1\n  iszero\n  tag_1\n  jumpi\n  0x00\n  dup1\n  revert\ntag_1:\n  pop\n  dataSize(sub_0)\n  dup1\n  dataOffset(sub_0)\n  0x00\n  codecopy\n  0x00\n  return\nstop\n\nsub_0: assembly {\n        /* \"FakeProdIden.sol\":652:3575  contract FakeProdIden... */\n      mstore(0x40, 0x80)\n      callvalue\n      dup1\n      iszero\n      tag_1\n      jumpi\n      0x00\n      dup1\n      revert\n    tag_1:\n      pop\n      jumpi(tag_2, lt(calldatasize, 0x04))\n      shr(0xe0, calldataload(0x00))\n      dup1\n      0xb15bf255\n      gt\n      tag_12\n      jumpi\n      dup1\n      0xb15bf255\n      eq\n      tag_7\n      jumpi\n      dup1\n      0xc0effb7d\n      eq\n      tag_8\n      jumpi\n      dup1\n      0xd8ce6572\n      eq\n      tag_9\n      jumpi\n      dup1\n      0xe47766ff\n      eq\n      tag_10\n      jumpi\n      dup1\n      0xea42c7ef\n      eq\n      tag_11\n      jumpi\n      jump(tag_2)\n    tag_12:\n      dup1\n      0x0e34b00e\n      eq\n      tag_3\n      jumpi\n      dup1\n      0x220f8ade\n      eq\n      tag_4\n      jumpi\n      dup1\n      0x7f975a37\n      eq\n      tag_5\n      jumpi\n      dup1\n      0x9ab1a6cc\n      eq\n      tag_6\n      jumpi\n    tag_2:\n      0x00\n      dup1\n      revert\n        /* \"FakeProdIden.sol\":1670:1897  function addProduct(string memory id, string memory name, string memory brandName) public... */\n    tag_3:\n      tag_13\n      0x04\n      dup1\n      calldatasize\n      sub\n      dup2\n      add\n      swap1\n      tag_14\n      swap2\n      swap1\n      tag_15\n      jump\t// in\n    tag_14:\n      tag_16\n      jump\t// in\n    tag_13:\n      stop\n        /* \"FakeProdIden.sol\":2965:3570  function productVerification(string memory prodId, uint32 consumerCode) public view returns(bool) ... */\n    tag_4:\n      tag_17\n      0x04\n      dup1\n      calldatasize\n      sub\n      dup2\n      add\n      swap1\n      tag_18\n      swap2\n      swap1\n      tag_19\n      jump\t// in\n    tag_18:\n      tag_20\n      jump\t// in\n    tag_17:\n      mload(0x40)\n      tag_21\n      swap2\n      swap1\n      tag_22\n      jump\t// in\n    tag_21:\n      mload(0x40)\n      dup1\n      swap2\n      sub\n      swap1\n      return\n        /* \"FakeProdIden.sol\":2596:2906  function sellToConsumer(string memory prodId, uint32 consumerCode) public ... */\n    tag_5:\n      tag_23\n      0x04\n      dup1\n      calldatasize\n      sub\n      dup2\n      add\n      swap1\n      tag_24\n      swap2\n      swap1\n      tag_19\n      jump\t// in\n    tag_24:\n      tag_25\n      jump\t// in\n    tag_23:\n      stop\n        /* \"FakeProdIden.sol\":1328:1379  mapping(string => bool) public hasReachedToConsumer */\n    tag_6:\n      tag_26\n      0x04\n      dup1\n      calldatasize\n      sub\n      dup2\n      add\n      swap1\n      tag_27\n      swap2\n      swap1\n      tag_28\n      jump\t// in\n    tag_27:\n      tag_29\n      jump\t// in\n    tag_26:\n      mload(0x40)\n      tag_30\n      swap2\n      swap1\n      tag_22\n      jump\t// in\n    tag_30:\n      mload(0x40)\n      dup1\n      swap2\n      sub\n      swap1\n      return\n        /* \"FakeProdIden.sol\":1418:1466  mapping(string => Product) public productStorage */\n    tag_7:\n      tag_31\n      0x04\n      dup1\n      calldatasize\n      sub\n      dup2\n      add\n      swap1\n      tag_32\n      swap2\n      swap1\n      tag_28\n      jump\t// in\n    tag_32:\n      tag_33\n      jump\t// in\n    tag_31:\n      mload(0x40)\n      tag_34\n      swap6\n      swap5\n      swap4\n      swap3\n      swap2\n      swap1\n      tag_35\n      jump\t// in\n    tag_34:\n      mload(0x40)\n      dup1\n      swap2\n      sub\n      swap1\n      return\n        /* \"FakeProdIden.sol\":1969:2297  function sellToSeller(string memory prodId, string memory sellerId) public ... */\n    tag_8:\n      tag_36\n      0x04\n      dup1\n      calldatasize\n      sub\n      dup2\n      add\n      swap1\n      tag_37\n      swap2\n      swap1\n      tag_38\n      jump\t// in\n    tag_37:\n      tag_39\n      jump\t// in\n    tag_36:\n      stop\n        /* \"FakeProdIden.sol\":1232:1288  mapping(string => reachSeller) public hasReachedToSeller */\n    tag_9:\n      tag_40\n      0x04\n      dup1\n      calldatasize\n      sub\n      dup2\n      add\n      swap1\n      tag_41\n      swap2\n      swap1\n      tag_28\n      jump\t// in\n    tag_41:\n      tag_42\n      jump\t// in\n    tag_40:\n      mload(0x40)\n      tag_43\n      swap3\n      swap2\n      swap1\n      tag_44\n      jump\t// in\n    tag_43:\n      mload(0x40)\n      dup1\n      swap2\n      sub\n      swap1\n      return\n        /* \"FakeProdIden.sol\":2391:2526  function addSellers(string memory sellerId) public ... */\n    tag_10:\n      tag_45\n      0x04\n      dup1\n      calldatasize\n      sub\n      dup2\n      add\n      swap1\n      tag_46\n      swap2\n      swap1\n      tag_28\n      jump\t// in\n    tag_46:\n      tag_47\n      jump\t// in\n    tag_45:\n      stop\n        /* \"FakeProdIden.sol\":1516:1567  mapping(string => SellerInfo) public allSellersInfo */\n    tag_11:\n      tag_48\n      0x04\n      dup1\n      calldatasize\n      sub\n      dup2\n      add\n      swap1\n      tag_49\n      swap2\n      swap1\n      tag_28\n      jump\t// in\n    tag_49:\n      tag_50\n      jump\t// in\n    tag_48:\n      mload(0x40)\n      tag_51\n      swap3\n      swap2\n      swap1\n      tag_52\n      jump\t// in\n    tag_51:\n      mload(0x40)\n      dup1\n      swap2\n      sub\n      swap1\n      return\n        /* \"FakeProdIden.sol\":1670:1897  function addProduct(string memory id, string memory name, string memory brandName) public... */\n    tag_16:\n        /* \"FakeProdIden.sol\":1814:1819  false */\n      0x00\n        /* \"FakeProdIden.sol\":1784:1819  productStorage[id].hasmade == false */\n      iszero\n      iszero\n        /* \"FakeProdIden.sol\":1784:1798  productStorage */\n      0x02\n        /* \"FakeProdIden.sol\":1799:1801  id */\n      dup5\n        /* \"FakeProdIden.sol\":1784:1802  productStorage[id] */\n      mload(0x40)\n      tag_54\n      swap2\n      swap1\n      tag_55\n      jump\t// in\n    tag_54:\n      swap1\n      dup2\n      mstore\n      0x20\n      add\n      mload(0x40)\n      dup1\n      swap2\n      sub\n      swap1\n      keccak256\n        /* \"FakeProdIden.sol\":1784:1810  productStorage[id].hasmade */\n      0x03\n      add\n      0x00\n      swap1\n      sload\n      swap1\n      0x0100\n      exp\n      swap1\n      div\n      0xff\n      and\n        /* \"FakeProdIden.sol\":1784:1819  productStorage[id].hasmade == false */\n      iszero\n      iszero\n      eq\n        /* \"FakeProdIden.sol\":1776:1820  require(productStorage[id].hasmade == false) */\n      tag_56\n      jumpi\n      0x00\n      dup1\n      revert\n    tag_56:\n        /* \"FakeProdIden.sol\":1852:1889  Product(id, name, brandName, true, 0) */\n      mload(0x40)\n      dup1\n      0xa0\n      add\n      0x40\n      mstore\n      dup1\n        /* \"FakeProdIden.sol\":1860:1862  id */\n      dup5\n        /* \"FakeProdIden.sol\":1852:1889  Product(id, name, brandName, true, 0) */\n      dup2\n      mstore\n      0x20\n      add\n        /* \"FakeProdIden.sol\":1864:1868  name */\n      dup4\n        /* \"FakeProdIden.sol\":1852:1889  Product(id, name, brandName, true, 0) */\n      dup2\n      mstore\n      0x20\n      add\n        /* \"FakeProdIden.sol\":1870:1879  brandName */\n      dup3\n        /* \"FakeProdIden.sol\":1852:1889  Product(id, name, brandName, true, 0) */\n      dup2\n      mstore\n      0x20\n      add\n        /* \"FakeProdIden.sol\":1881:1885  true */\n      0x01\n        /* \"FakeProdIden.sol\":1852:1889  Product(id, name, brandName, true, 0) */\n      iszero\n      iszero\n      dup2\n      mstore\n      0x20\n      add\n        /* \"FakeProdIden.sol\":1887:1888  0 */\n      0x00\n        /* \"FakeProdIden.sol\":1852:1889  Product(id, name, brandName, true, 0) */\n      0xffffffff\n      and\n      dup2\n      mstore\n      pop\n        /* \"FakeProdIden.sol\":1831:1845  productStorage */\n      0x02\n        /* \"FakeProdIden.sol\":1846:1848  id */\n      dup5\n        /* \"FakeProdIden.sol\":1831:1849  productStorage[id] */\n      mload(0x40)\n      tag_57\n      swap2\n      swap1\n      tag_55\n      jump\t// in\n    tag_57:\n      swap1\n      dup2\n      mstore\n      0x20\n      add\n      mload(0x40)\n      dup1\n      swap2\n      sub\n      swap1\n      keccak256\n        /* \"FakeProdIden.sol\":1831:1889  productStorage[id] = Product(id, name, brandName, true, 0) */\n      0x00\n      dup3\n      add\n      mload\n      dup2\n      0x00\n      add\n      swap1\n      dup2\n      tag_58\n      swap2\n      swap1\n      tag_59\n      jump\t// in\n    tag_58:\n      pop\n      0x20\n      dup3\n      add\n      mload\n      dup2\n      0x01\n      add\n      swap1\n      dup2\n      tag_60\n      swap2\n      swap1\n      tag_59\n      jump\t// in\n    tag_60:\n      pop\n      0x40\n      dup3\n      add\n      mload\n      dup2\n      0x02\n      add\n      swap1\n      dup2\n      tag_61\n      swap2\n      swap1\n      tag_59\n      jump\t// in\n    tag_61:\n      pop\n      0x60\n      dup3\n      add\n      mload\n      dup2\n      0x03\n      add\n      exp(0x0100, 0x00)\n      dup2\n      sload\n      dup2\n      0xff\n      mul\n      not\n      and\n      swap1\n      dup4\n      iszero\n      iszero\n      mul\n      or\n      swap1\n      sstore\n      pop\n      0x80\n      dup3\n      add\n      mload\n      dup2\n      0x03\n      add\n      exp(0x0100, 0x01)\n      dup2\n      sload\n      dup2\n      0xffffffff\n      mul\n      not\n      and\n      swap1\n      dup4\n      0xffffffff\n      and\n      mul\n      or\n      swap1\n      sstore\n      pop\n      swap1\n      pop\n      pop\n        /* \"FakeProdIden.sol\":1670:1897  function addProduct(string memory id, string memory name, string memory brandName) public... */\n      pop\n      pop\n      pop\n      jump\t// out\n        /* \"FakeProdIden.sol\":2965:3570  function productVerification(string memory prodId, uint32 consumerCode) public view returns(bool) ... */\n    tag_20:\n        /* \"FakeProdIden.sol\":3057:3061  bool */\n      0x00\n        /* \"FakeProdIden.sol\":3352:3356  true */\n      0x01\n        /* \"FakeProdIden.sol\":3311:3356  hasReachedToSeller[prodId].hasReached == true */\n      iszero\n      iszero\n        /* \"FakeProdIden.sol\":3311:3329  hasReachedToSeller */\n      0x00\n        /* \"FakeProdIden.sol\":3330:3336  prodId */\n      dup5\n        /* \"FakeProdIden.sol\":3311:3337  hasReachedToSeller[prodId] */\n      mload(0x40)\n      tag_63\n      swap2\n      swap1\n      tag_55\n      jump\t// in\n    tag_63:\n      swap1\n      dup2\n      mstore\n      0x20\n      add\n      mload(0x40)\n      dup1\n      swap2\n      sub\n      swap1\n      keccak256\n        /* \"FakeProdIden.sol\":3311:3348  hasReachedToSeller[prodId].hasReached */\n      0x01\n      add\n      0x00\n      swap1\n      sload\n      swap1\n      0x0100\n      exp\n      swap1\n      div\n      0xff\n      and\n        /* \"FakeProdIden.sol\":3311:3356  hasReachedToSeller[prodId].hasReached == true */\n      iszero\n      iszero\n      eq\n        /* \"FakeProdIden.sol\":3311:3396  hasReachedToSeller[prodId].hasReached == true && hasReachedToConsumer[prodId] == true */\n      dup1\n      iszero\n      tag_64\n      jumpi\n      pop\n        /* \"FakeProdIden.sol\":3392:3396  true */\n      0x01\n        /* \"FakeProdIden.sol\":3360:3396  hasReachedToConsumer[prodId] == true */\n      iszero\n      iszero\n        /* \"FakeProdIden.sol\":3360:3380  hasReachedToConsumer */\n      0x01\n        /* \"FakeProdIden.sol\":3381:3387  prodId */\n      dup5\n        /* \"FakeProdIden.sol\":3360:3388  hasReachedToConsumer[prodId] */\n      mload(0x40)\n      tag_65\n      swap2\n      swap1\n      tag_55\n      jump\t// in\n    tag_65:\n      swap1\n      dup2\n      mstore\n      0x20\n      add\n      mload(0x40)\n      dup1\n      swap2\n      sub\n      swap1\n      keccak256\n      0x00\n      swap1\n      sload\n      swap1\n      0x0100\n      exp\n      swap1\n      div\n      0xff\n      and\n        /* \"FakeProdIden.sol\":3360:3396  hasReachedToConsumer[prodId] == true */\n      iszero\n      iszero\n      eq\n        /* \"FakeProdIden.sol\":3311:3396  hasReachedToSeller[prodId].hasReached == true && hasReachedToConsumer[prodId] == true */\n    tag_64:\n        /* \"FakeProdIden.sol\":3311:3451  hasReachedToSeller[prodId].hasReached == true && hasReachedToConsumer[prodId] == true && productStorage[prodId].consumerCode == consumerCode */\n      dup1\n      iszero\n      tag_66\n      jumpi\n      pop\n        /* \"FakeProdIden.sol\":3439:3451  consumerCode */\n      dup2\n        /* \"FakeProdIden.sol\":3400:3451  productStorage[prodId].consumerCode == consumerCode */\n      0xffffffff\n      and\n        /* \"FakeProdIden.sol\":3400:3414  productStorage */\n      0x02\n        /* \"FakeProdIden.sol\":3415:3421  prodId */\n      dup5\n        /* \"FakeProdIden.sol\":3400:3422  productStorage[prodId] */\n      mload(0x40)\n      tag_67\n      swap2\n      swap1\n      tag_55\n      jump\t// in\n    tag_67:\n      swap1\n      dup2\n      mstore\n      0x20\n      add\n      mload(0x40)\n      dup1\n      swap2\n      sub\n      swap1\n      keccak256\n        /* \"FakeProdIden.sol\":3400:3435  productStorage[prodId].consumerCode */\n      0x03\n      add\n      0x01\n      swap1\n      sload\n      swap1\n      0x0100\n      exp\n      swap1\n      div\n      0xffffffff\n      and\n        /* \"FakeProdIden.sol\":3400:3451  productStorage[prodId].consumerCode == consumerCode */\n      0xffffffff\n      and\n      eq\n        /* \"FakeProdIden.sol\":3311:3451  hasReachedToSeller[prodId].hasReached == true && hasReachedToConsumer[prodId] == true && productStorage[prodId].consumerCode == consumerCode */\n    tag_66:\n        /* \"FakeProdIden.sol\":3308:3563  if(hasReachedToSeller[prodId].hasReached == true && hasReachedToConsumer[prodId] == true && productStorage[prodId].consumerCode == consumerCode)... */\n      iszero\n      tag_68\n      jumpi\n        /* \"FakeProdIden.sol\":3484:3488  true */\n      0x01\n        /* \"FakeProdIden.sol\":3477:3488  return true */\n      swap1\n      pop\n      jump(tag_62)\n        /* \"FakeProdIden.sol\":3308:3563  if(hasReachedToSeller[prodId].hasReached == true && hasReachedToConsumer[prodId] == true && productStorage[prodId].consumerCode == consumerCode)... */\n    tag_68:\n        /* \"FakeProdIden.sol\":3546:3551  false */\n      0x00\n        /* \"FakeProdIden.sol\":3539:3551  return false */\n      swap1\n      pop\n        /* \"FakeProdIden.sol\":2965:3570  function productVerification(string memory prodId, uint32 consumerCode) public view returns(bool) ... */\n    tag_62:\n      swap3\n      swap2\n      pop\n      pop\n      jump\t// out\n        /* \"FakeProdIden.sol\":2596:2906  function sellToConsumer(string memory prodId, uint32 consumerCode) public ... */\n    tag_25:\n        /* \"FakeProdIden.sol\":2729:2733  true */\n      0x01\n        /* \"FakeProdIden.sol\":2695:2733  productStorage[prodId].hasmade == true */\n      iszero\n      iszero\n        /* \"FakeProdIden.sol\":2695:2709  productStorage */\n      0x02\n        /* \"FakeProdIden.sol\":2710:2716  prodId */\n      dup4\n        /* \"FakeProdIden.sol\":2695:2717  productStorage[prodId] */\n      mload(0x40)\n      tag_71\n      swap2\n      swap1\n      tag_55\n      jump\t// in\n    tag_71:\n      swap1\n      dup2\n      mstore\n      0x20\n      add\n      mload(0x40)\n      dup1\n      swap2\n      sub\n      swap1\n      keccak256\n        /* \"FakeProdIden.sol\":2695:2725  productStorage[prodId].hasmade */\n      0x03\n      add\n      0x00\n      swap1\n      sload\n      swap1\n      0x0100\n      exp\n      swap1\n      div\n      0xff\n      and\n        /* \"FakeProdIden.sol\":2695:2733  productStorage[prodId].hasmade == true */\n      iszero\n      iszero\n      eq\n        /* \"FakeProdIden.sol\":2687:2734  require(productStorage[prodId].hasmade == true) */\n      tag_72\n      jumpi\n      0x00\n      dup1\n      revert\n    tag_72:\n        /* \"FakeProdIden.sol\":2785:2790  false */\n      0x00\n        /* \"FakeProdIden.sol\":2753:2790  hasReachedToConsumer[prodId] == false */\n      iszero\n      iszero\n        /* \"FakeProdIden.sol\":2753:2773  hasReachedToConsumer */\n      0x01\n        /* \"FakeProdIden.sol\":2774:2780  prodId */\n      dup4\n        /* \"FakeProdIden.sol\":2753:2781  hasReachedToConsumer[prodId] */\n      mload(0x40)\n      tag_73\n      swap2\n      swap1\n      tag_55\n      jump\t// in\n    tag_73:\n      swap1\n      dup2\n      mstore\n      0x20\n      add\n      mload(0x40)\n      dup1\n      swap2\n      sub\n      swap1\n      keccak256\n      0x00\n      swap1\n      sload\n      swap1\n      0x0100\n      exp\n      swap1\n      div\n      0xff\n      and\n        /* \"FakeProdIden.sol\":2753:2790  hasReachedToConsumer[prodId] == false */\n      iszero\n      iszero\n      eq\n        /* \"FakeProdIden.sol\":2745:2791  require(hasReachedToConsumer[prodId] == false) */\n      tag_74\n      jumpi\n      0x00\n      dup1\n      revert\n    tag_74:\n        /* \"FakeProdIden.sol\":2833:2837  true */\n      0x01\n        /* \"FakeProdIden.sol\":2802:2822  hasReachedToConsumer */\n      dup1\n        /* \"FakeProdIden.sol\":2823:2829  prodId */\n      dup4\n        /* \"FakeProdIden.sol\":2802:2830  hasReachedToConsumer[prodId] */\n      mload(0x40)\n      tag_75\n      swap2\n      swap1\n      tag_55\n      jump\t// in\n    tag_75:\n      swap1\n      dup2\n      mstore\n      0x20\n      add\n      mload(0x40)\n      dup1\n      swap2\n      sub\n      swap1\n      keccak256\n      0x00\n        /* \"FakeProdIden.sol\":2802:2837  hasReachedToConsumer[prodId] = true */\n      0x0100\n      exp\n      dup2\n      sload\n      dup2\n      0xff\n      mul\n      not\n      and\n      swap1\n      dup4\n      iszero\n      iszero\n      mul\n      or\n      swap1\n      sstore\n      pop\n        /* \"FakeProdIden.sol\":2886:2898  consumerCode */\n      dup1\n        /* \"FakeProdIden.sol\":2848:2862  productStorage */\n      0x02\n        /* \"FakeProdIden.sol\":2863:2869  prodId */\n      dup4\n        /* \"FakeProdIden.sol\":2848:2870  productStorage[prodId] */\n      mload(0x40)\n      tag_76\n      swap2\n      swap1\n      tag_55\n      jump\t// in\n    tag_76:\n      swap1\n      dup2\n      mstore\n      0x20\n      add\n      mload(0x40)\n      dup1\n      swap2\n      sub\n      swap1\n      keccak256\n        /* \"FakeProdIden.sol\":2848:2883  productStorage[prodId].consumerCode */\n      0x03\n      add\n      0x01\n        /* \"FakeProdIden.sol\":2848:2898  productStorage[prodId].consumerCode = consumerCode */\n      0x0100\n      exp\n      dup2\n      sload\n      dup2\n      0xffffffff\n      mul\n      not\n      and\n      swap1\n      dup4\n      0xffffffff\n      and\n      mul\n      or\n      swap1\n      sstore\n      pop\n        /* \"FakeProdIden.sol\":2596:2906  function sellToConsumer(string memory prodId, uint32 consumerCode) public ... */\n      pop\n      pop\n      jump\t// out\n        /* \"FakeProdIden.sol\":1328:1379  mapping(string => bool) public hasReachedToConsumer */\n    tag_29:\n      0x01\n      dup2\n      dup1\n      mload\n      0x20\n      dup2\n      add\n      dup3\n      add\n      dup1\n      mload\n      dup5\n      dup3\n      mstore\n      0x20\n      dup4\n      add\n      0x20\n      dup6\n      add\n      keccak256\n      dup2\n      dup4\n      mstore\n      dup1\n      swap6\n      pop\n      pop\n      pop\n      pop\n      pop\n      pop\n      0x00\n      swap2\n      pop\n      sload\n      swap1\n      0x0100\n      exp\n      swap1\n      div\n      0xff\n      and\n      dup2\n      jump\t// out\n        /* \"FakeProdIden.sol\":1418:1466  mapping(string => Product) public productStorage */\n    tag_33:\n      0x02\n      dup2\n      dup1\n      mload\n      0x20\n      dup2\n      add\n      dup3\n      add\n      dup1\n      mload\n      dup5\n      dup3\n      mstore\n      0x20\n      dup4\n      add\n      0x20\n      dup6\n      add\n      keccak256\n      dup2\n      dup4\n      mstore\n      dup1\n      swap6\n      pop\n      pop\n      pop\n      pop\n      pop\n      pop\n      0x00\n      swap2\n      pop\n      swap1\n      pop\n      dup1\n      0x00\n      add\n      dup1\n      sload\n      tag_77\n      swap1\n      tag_78\n      jump\t// in\n    tag_77:\n      dup1\n      0x1f\n      add\n      0x20\n      dup1\n      swap2\n      div\n      mul\n      0x20\n      add\n      mload(0x40)\n      swap1\n      dup2\n      add\n      0x40\n      mstore\n      dup1\n      swap3\n      swap2\n      swap1\n      dup2\n      dup2\n      mstore\n      0x20\n      add\n      dup3\n      dup1\n      sload\n      tag_79\n      swap1\n      tag_78\n      jump\t// in\n    tag_79:\n      dup1\n      iszero\n      tag_80\n      jumpi\n      dup1\n      0x1f\n      lt\n      tag_81\n      jumpi\n      0x0100\n      dup1\n      dup4\n      sload\n      div\n      mul\n      dup4\n      mstore\n      swap2\n      0x20\n      add\n      swap2\n      jump(tag_80)\n    tag_81:\n      dup3\n      add\n      swap2\n      swap1\n      0x00\n      mstore\n      keccak256(0x00, 0x20)\n      swap1\n    tag_82:\n      dup2\n      sload\n      dup2\n      mstore\n      swap1\n      0x01\n      add\n      swap1\n      0x20\n      add\n      dup1\n      dup4\n      gt\n      tag_82\n      jumpi\n      dup3\n      swap1\n      sub\n      0x1f\n      and\n      dup3\n      add\n      swap2\n    tag_80:\n      pop\n      pop\n      pop\n      pop\n      pop\n      swap1\n      dup1\n      0x01\n      add\n      dup1\n      sload\n      tag_83\n      swap1\n      tag_78\n      jump\t// in\n    tag_83:\n      dup1\n      0x1f\n      add\n      0x20\n      dup1\n      swap2\n      div\n      mul\n      0x20\n      add\n      mload(0x40)\n      swap1\n      dup2\n      add\n      0x40\n      mstore\n      dup1\n      swap3\n      swap2\n      swap1\n      dup2\n      dup2\n      mstore\n      0x20\n      add\n      dup3\n      dup1\n      sload\n      tag_84\n      swap1\n      tag_78\n      jump\t// in\n    tag_84:\n      dup1\n      iszero\n      tag_85\n      jumpi\n      dup1\n      0x1f\n      lt\n      tag_86\n      jumpi\n      0x0100\n      dup1\n      dup4\n      sload\n      div\n      mul\n      dup4\n      mstore\n      swap2\n      0x20\n      add\n      swap2\n      jump(tag_85)\n    tag_86:\n      dup3\n      add\n      swap2\n      swap1\n      0x00\n      mstore\n      keccak256(0x00, 0x20)\n      swap1\n    tag_87:\n      dup2\n      sload\n      dup2\n      mstore\n      swap1\n      0x01\n      add\n      swap1\n      0x20\n      add\n      dup1\n      dup4\n      gt\n      tag_87\n      jumpi\n      dup3\n      swap1\n      sub\n      0x1f\n      and\n      dup3\n      add\n      swap2\n    tag_85:\n      pop\n      pop\n      pop\n      pop\n      pop\n      swap1\n      dup1\n      0x02\n      add\n      dup1\n      sload\n      tag_88\n      swap1\n      tag_78\n      jump\t// in\n    tag_88:\n      dup1\n      0x1f\n      add\n      0x20\n      dup1\n      swap2\n      div\n      mul\n      0x20\n      add\n      mload(0x40)\n      swap1\n      dup2\n      add\n      0x40\n      mstore\n      dup1\n      swap3\n      swap2\n      swap1\n      dup2\n      dup2\n      mstore\n      0x20\n      add\n      dup3\n      dup1\n      sload\n      tag_89\n      swap1\n      tag_78\n      jump\t// in\n    tag_89:\n      dup1\n      iszero\n      tag_90\n      jumpi\n      dup1\n      0x1f\n      lt\n      tag_91\n      jumpi\n      0x0100\n      dup1\n      dup4\n      sload\n      div\n      mul\n      dup4\n      mstore\n      swap2\n      0x20\n      add\n      swap2\n      jump(tag_90)\n    tag_91:\n      dup3\n      add\n      swap2\n      swap1\n      0x00\n      mstore\n      keccak256(0x00, 0x20)\n      swap1\n    tag_92:\n      dup2\n      sload\n      dup2\n      mstore\n      swap1\n      0x01\n      add\n      swap1\n      0x20\n      add\n      dup1\n      dup4\n      gt\n      tag_92\n      jumpi\n      dup3\n      swap1\n      sub\n      0x1f\n      and\n      dup3\n      add\n      swap2\n    tag_90:\n      pop\n      pop\n      pop\n      pop\n      pop\n      swap1\n      dup1\n      0x03\n      add\n      0x00\n      swap1\n      sload\n      swap1\n      0x0100\n      exp\n      swap1\n      div\n      0xff\n      and\n      swap1\n      dup1\n      0x03\n      add\n      0x01\n      swap1\n      sload\n      swap1\n      0x0100\n      exp\n      swap1\n      div\n      0xffffffff\n      and\n      swap1\n      pop\n      dup6\n      jump\t// out\n        /* \"FakeProdIden.sol\":1969:2297  function sellToSeller(string memory prodId, string memory sellerId) public ... */\n    tag_39:\n        /* \"FakeProdIden.sol\":2103:2107  true */\n      0x01\n        /* \"FakeProdIden.sol\":2069:2107  productStorage[prodId].hasmade == true */\n      iszero\n      iszero\n        /* \"FakeProdIden.sol\":2069:2083  productStorage */\n      0x02\n        /* \"FakeProdIden.sol\":2084:2090  prodId */\n      dup4\n        /* \"FakeProdIden.sol\":2069:2091  productStorage[prodId] */\n      mload(0x40)\n      tag_94\n      swap2\n      swap1\n      tag_55\n      jump\t// in\n    tag_94:\n      swap1\n      dup2\n      mstore\n      0x20\n      add\n      mload(0x40)\n      dup1\n      swap2\n      sub\n      swap1\n      keccak256\n        /* \"FakeProdIden.sol\":2069:2099  productStorage[prodId].hasmade */\n      0x03\n      add\n      0x00\n      swap1\n      sload\n      swap1\n      0x0100\n      exp\n      swap1\n      div\n      0xff\n      and\n        /* \"FakeProdIden.sol\":2069:2107  productStorage[prodId].hasmade == true */\n      iszero\n      iszero\n      eq\n        /* \"FakeProdIden.sol\":2061:2108  require(productStorage[prodId].hasmade == true) */\n      tag_95\n      jumpi\n      0x00\n      dup1\n      revert\n    tag_95:\n        /* \"FakeProdIden.sol\":2168:2173  false */\n      0x00\n        /* \"FakeProdIden.sol\":2127:2173  hasReachedToSeller[prodId].hasReached == false */\n      iszero\n      iszero\n        /* \"FakeProdIden.sol\":2127:2145  hasReachedToSeller */\n      0x00\n        /* \"FakeProdIden.sol\":2146:2152  prodId */\n      dup4\n        /* \"FakeProdIden.sol\":2127:2153  hasReachedToSeller[prodId] */\n      mload(0x40)\n      tag_96\n      swap2\n      swap1\n      tag_55\n      jump\t// in\n    tag_96:\n      swap1\n      dup2\n      mstore\n      0x20\n      add\n      mload(0x40)\n      dup1\n      swap2\n      sub\n      swap1\n      keccak256\n        /* \"FakeProdIden.sol\":2127:2164  hasReachedToSeller[prodId].hasReached */\n      0x01\n      add\n      0x00\n      swap1\n      sload\n      swap1\n      0x0100\n      exp\n      swap1\n      div\n      0xff\n      and\n        /* \"FakeProdIden.sol\":2127:2173  hasReachedToSeller[prodId].hasReached == false */\n      iszero\n      iszero\n      eq\n        /* \"FakeProdIden.sol\":2119:2174  require(hasReachedToSeller[prodId].hasReached == false) */\n      tag_97\n      jumpi\n      0x00\n      dup1\n      revert\n    tag_97:\n        /* \"FakeProdIden.sol\":2223:2231  sellerId */\n      dup1\n        /* \"FakeProdIden.sol\":2185:2203  hasReachedToSeller */\n      0x00\n        /* \"FakeProdIden.sol\":2204:2210  prodId */\n      dup4\n        /* \"FakeProdIden.sol\":2185:2211  hasReachedToSeller[prodId] */\n      mload(0x40)\n      tag_98\n      swap2\n      swap1\n      tag_55\n      jump\t// in\n    tag_98:\n      swap1\n      dup2\n      mstore\n      0x20\n      add\n      mload(0x40)\n      dup1\n      swap2\n      sub\n      swap1\n      keccak256\n        /* \"FakeProdIden.sol\":2185:2220  hasReachedToSeller[prodId].sellerId */\n      0x00\n      add\n        /* \"FakeProdIden.sol\":2185:2231  hasReachedToSeller[prodId].sellerId = sellerId */\n      swap1\n      dup2\n      tag_99\n      swap2\n      swap1\n      tag_59\n      jump\t// in\n    tag_99:\n      pop\n        /* \"FakeProdIden.sol\":2282:2286  true */\n      0x01\n        /* \"FakeProdIden.sol\":2242:2260  hasReachedToSeller */\n      0x00\n        /* \"FakeProdIden.sol\":2261:2267  prodId */\n      dup4\n        /* \"FakeProdIden.sol\":2242:2268  hasReachedToSeller[prodId] */\n      mload(0x40)\n      tag_100\n      swap2\n      swap1\n      tag_55\n      jump\t// in\n    tag_100:\n      swap1\n      dup2\n      mstore\n      0x20\n      add\n      mload(0x40)\n      dup1\n      swap2\n      sub\n      swap1\n      keccak256\n        /* \"FakeProdIden.sol\":2242:2279  hasReachedToSeller[prodId].hasReached */\n      0x01\n      add\n      0x00\n        /* \"FakeProdIden.sol\":2242:2286  hasReachedToSeller[prodId].hasReached = true */\n      0x0100\n      exp\n      dup2\n      sload\n      dup2\n      0xff\n      mul\n      not\n      and\n      swap1\n      dup4\n      iszero\n      iszero\n      mul\n      or\n      swap1\n      sstore\n      pop\n        /* \"FakeProdIden.sol\":1969:2297  function sellToSeller(string memory prodId, string memory sellerId) public ... */\n      pop\n      pop\n      jump\t// out\n        /* \"FakeProdIden.sol\":1232:1288  mapping(string => reachSeller) public hasReachedToSeller */\n    tag_42:\n      0x00\n      dup2\n      dup1\n      mload\n      0x20\n      dup2\n      add\n      dup3\n      add\n      dup1\n      mload\n      dup5\n      dup3\n      mstore\n      0x20\n      dup4\n      add\n      0x20\n      dup6\n      add\n      keccak256\n      dup2\n      dup4\n      mstore\n      dup1\n      swap6\n      pop\n      pop\n      pop\n      pop\n      pop\n      pop\n      0x00\n      swap2\n      pop\n      swap1\n      pop\n      dup1\n      0x00\n      add\n      dup1\n      sload\n      tag_101\n      swap1\n      tag_78\n      jump\t// in\n    tag_101:\n      dup1\n      0x1f\n      add\n      0x20\n      dup1\n      swap2\n      div\n      mul\n      0x20\n      add\n      mload(0x40)\n      swap1\n      dup2\n      add\n      0x40\n      mstore\n      dup1\n      swap3\n      swap2\n      swap1\n      dup2\n      dup2\n      mstore\n      0x20\n      add\n      dup3\n      dup1\n      sload\n      tag_102\n      swap1\n      tag_78\n      jump\t// in\n    tag_102:\n      dup1\n      iszero\n      tag_103\n      jumpi\n      dup1\n      0x1f\n      lt\n      tag_104\n      jumpi\n      0x0100\n      dup1\n      dup4\n      sload\n      div\n      mul\n      dup4\n      mstore\n      swap2\n      0x20\n      add\n      swap2\n      jump(tag_103)\n    tag_104:\n      dup3\n      add\n      swap2\n      swap1\n      0x00\n      mstore\n      keccak256(0x00, 0x20)\n      swap1\n    tag_105:\n      dup2\n      sload\n      dup2\n      mstore\n      swap1\n      0x01\n      add\n      swap1\n      0x20\n      add\n      dup1\n      dup4\n      gt\n      tag_105\n      jumpi\n      dup3\n      swap1\n      sub\n      0x1f\n      and\n      dup3\n      add\n      swap2\n    tag_103:\n      pop\n      pop\n      pop\n      pop\n      pop\n      swap1\n      dup1\n      0x01\n      add\n      0x00\n      swap1\n      sload\n      swap1\n      0x0100\n      exp\n      swap1\n      div\n      0xff\n      and\n      swap1\n      pop\n      dup3\n      jump\t// out\n        /* \"FakeProdIden.sol\":2391:2526  function addSellers(string memory sellerId) public ... */\n    tag_47:\n        /* \"FakeProdIden.sol\":2486:2518  SellerInfo(sellerId, msg.sender) */\n      mload(0x40)\n      dup1\n      0x40\n      add\n      0x40\n      mstore\n      dup1\n        /* \"FakeProdIden.sol\":2497:2505  sellerId */\n      dup3\n        /* \"FakeProdIden.sol\":2486:2518  SellerInfo(sellerId, msg.sender) */\n      dup2\n      mstore\n      0x20\n      add\n        /* \"FakeProdIden.sol\":2507:2517  msg.sender */\n      caller\n        /* \"FakeProdIden.sol\":2486:2518  SellerInfo(sellerId, msg.sender) */\n      0xffffffffffffffffffffffffffffffffffffffff\n      and\n      dup2\n      mstore\n      pop\n        /* \"FakeProdIden.sol\":2459:2473  allSellersInfo */\n      0x03\n        /* \"FakeProdIden.sol\":2474:2482  sellerId */\n      dup3\n        /* \"FakeProdIden.sol\":2459:2483  allSellersInfo[sellerId] */\n      mload(0x40)\n      tag_107\n      swap2\n      swap1\n      tag_55\n      jump\t// in\n    tag_107:\n      swap1\n      dup2\n      mstore\n      0x20\n      add\n      mload(0x40)\n      dup1\n      swap2\n      sub\n      swap1\n      keccak256\n        /* \"FakeProdIden.sol\":2459:2518  allSellersInfo[sellerId] = SellerInfo(sellerId, msg.sender) */\n      0x00\n      dup3\n      add\n      mload\n      dup2\n      0x00\n      add\n      swap1\n      dup2\n      tag_108\n      swap2\n      swap1\n      tag_59\n      jump\t// in\n    tag_108:\n      pop\n      0x20\n      dup3\n      add\n      mload\n      dup2\n      0x01\n      add\n      exp(0x0100, 0x00)\n      dup2\n      sload\n      dup2\n      0xffffffffffffffffffffffffffffffffffffffff\n      mul\n      not\n      and\n      swap1\n      dup4\n      0xffffffffffffffffffffffffffffffffffffffff\n      and\n      mul\n      or\n      swap1\n      sstore\n      pop\n      swap1\n      pop\n      pop\n        /* \"FakeProdIden.sol\":2391:2526  function addSellers(string memory sellerId) public ... */\n      pop\n      jump\t// out\n        /* \"FakeProdIden.sol\":1516:1567  mapping(string => SellerInfo) public allSellersInfo */\n    tag_50:\n      0x03\n      dup2\n      dup1\n      mload\n      0x20\n      dup2\n      add\n      dup3\n      add\n      dup1\n      mload\n      dup5\n      dup3\n      mstore\n      0x20\n      dup4\n      add\n      0x20\n      dup6\n      add\n      keccak256\n      dup2\n      dup4\n      mstore\n      dup1\n      swap6\n      pop\n      pop\n      pop\n      pop\n      pop\n      pop\n      0x00\n      swap2\n      pop\n      swap1\n      pop\n      dup1\n      0x00\n      add\n      dup1\n      sload\n      tag_109\n      swap1\n      tag_78\n      jump\t// in\n    tag_109:\n      dup1\n      0x1f\n      add\n      0x20\n      dup1\n      swap2\n      div\n      mul\n      0x20\n      add\n      mload(0x40)\n      swap1\n      dup2\n      add\n      0x40\n      mstore\n      dup1\n      swap3\n      swap2\n      swap1\n      dup2\n      dup2\n      mstore\n      0x20\n      add\n      dup3\n      dup1\n      sload\n      tag_110\n      swap1\n      tag_78\n      jump\t// in\n    tag_110:\n      dup1\n      iszero\n      tag_111\n      jumpi\n      dup1\n      0x1f\n      lt\n      tag_112\n      jumpi\n      0x0100\n      dup1\n      dup4\n      sload\n      div\n      mul\n      dup4\n      mstore\n      swap2\n      0x20\n      add\n      swap2\n      jump(tag_111)\n    tag_112:\n      dup3\n      add\n      swap2\n      swap1\n      0x00\n      mstore\n      keccak256(0x00, 0x20)\n      swap1\n    tag_113:\n      dup2\n      sload\n      dup2\n      mstore\n      swap1\n      0x01\n      add\n      swap1\n      0x20\n      add\n      dup1\n      dup4\n      gt\n      tag_113\n      jumpi\n      dup3\n      swap1\n      sub\n      0x1f\n      and\n      dup3\n      add\n      swap2\n    tag_111:\n      pop\n      pop\n      pop\n      pop\n      pop\n      swap1\n      dup1\n      0x01\n      add\n      0x00\n      swap1\n      sload\n      swap1\n      0x0100\n      exp\n      swap1\n      div\n      0xffffffffffffffffffffffffffffffffffffffff\n      and\n      swap1\n      pop\n      dup3\n      jump\t// out\n        /* \"#utility.yul\":7:82   */\n    tag_114:\n        /* \"#utility.yul\":40:46   */\n      0x00\n        /* \"#utility.yul\":73:75   */\n      0x40\n        /* \"#utility.yul\":67:76   */\n      mload\n        /* \"#utility.yul\":57:76   */\n      swap1\n      pop\n        /* \"#utility.yul\":7:82   */\n      swap1\n      jump\t// out\n        /* \"#utility.yul\":88:205   */\n    tag_115:\n        /* \"#utility.yul\":197:198   */\n      0x00\n        /* \"#utility.yul\":194:195   */\n      dup1\n        /* \"#utility.yul\":187:199   */\n      revert\n        /* \"#utility.yul\":211:328   */\n    tag_116:\n        /* \"#utility.yul\":320:321   */\n      0x00\n        /* \"#utility.yul\":317:318   */\n      dup1\n        /* \"#utility.yul\":310:322   */\n      revert\n        /* \"#utility.yul\":334:451   */\n    tag_117:\n        /* \"#utility.yul\":443:444   */\n      0x00\n        /* \"#utility.yul\":440:441   */\n      dup1\n        /* \"#utility.yul\":433:445   */\n      revert\n        /* \"#utility.yul\":457:574   */\n    tag_118:\n        /* \"#utility.yul\":566:567   */\n      0x00\n        /* \"#utility.yul\":563:564   */\n      dup1\n        /* \"#utility.yul\":556:568   */\n      revert\n        /* \"#utility.yul\":580:682   */\n    tag_119:\n        /* \"#utility.yul\":621:627   */\n      0x00\n        /* \"#utility.yul\":672:674   */\n      0x1f\n        /* \"#utility.yul\":668:675   */\n      not\n        /* \"#utility.yul\":663:665   */\n      0x1f\n        /* \"#utility.yul\":656:661   */\n      dup4\n        /* \"#utility.yul\":652:666   */\n      add\n        /* \"#utility.yul\":648:676   */\n      and\n        /* \"#utility.yul\":638:676   */\n      swap1\n      pop\n        /* \"#utility.yul\":580:682   */\n      swap2\n      swap1\n      pop\n      jump\t// out\n        /* \"#utility.yul\":688:868   */\n    tag_120:\n        /* \"#utility.yul\":736:813   */\n      0x4e487b7100000000000000000000000000000000000000000000000000000000\n        /* \"#utility.yul\":733:734   */\n      0x00\n        /* \"#utility.yul\":726:814   */\n      mstore\n        /* \"#utility.yul\":833:837   */\n      0x41\n        /* \"#utility.yul\":830:831   */\n      0x04\n        /* \"#utility.yul\":823:838   */\n      mstore\n        /* \"#utility.yul\":857:861   */\n      0x24\n        /* \"#utility.yul\":854:855   */\n      0x00\n        /* \"#utility.yul\":847:862   */\n      revert\n        /* \"#utility.yul\":874:1155   */\n    tag_121:\n        /* \"#utility.yul\":957:984   */\n      tag_168\n        /* \"#utility.yul\":979:983   */\n      dup3\n        /* \"#utility.yul\":957:984   */\n      tag_119\n      jump\t// in\n    tag_168:\n        /* \"#utility.yul\":949:955   */\n      dup2\n        /* \"#utility.yul\":945:985   */\n      add\n        /* \"#utility.yul\":1087:1093   */\n      dup2\n        /* \"#utility.yul\":1075:1085   */\n      dup2\n        /* \"#utility.yul\":1072:1094   */\n      lt\n        /* \"#utility.yul\":1051:1069   */\n      0xffffffffffffffff\n        /* \"#utility.yul\":1039:1049   */\n      dup3\n        /* \"#utility.yul\":1036:1070   */\n      gt\n        /* \"#utility.yul\":1033:1095   */\n      or\n        /* \"#utility.yul\":1030:1118   */\n      iszero\n      tag_169\n      jumpi\n        /* \"#utility.yul\":1098:1116   */\n      tag_170\n      tag_120\n      jump\t// in\n    tag_170:\n        /* \"#utility.yul\":1030:1118   */\n    tag_169:\n        /* \"#utility.yul\":1138:1148   */\n      dup1\n        /* \"#utility.yul\":1134:1136   */\n      0x40\n        /* \"#utility.yul\":1127:1149   */\n      mstore\n        /* \"#utility.yul\":917:1155   */\n      pop\n        /* \"#utility.yul\":874:1155   */\n      pop\n      pop\n      jump\t// out\n        /* \"#utility.yul\":1161:1290   */\n    tag_122:\n        /* \"#utility.yul\":1195:1201   */\n      0x00\n        /* \"#utility.yul\":1222:1242   */\n      tag_172\n      tag_114\n      jump\t// in\n    tag_172:\n        /* \"#utility.yul\":1212:1242   */\n      swap1\n      pop\n        /* \"#utility.yul\":1251:1284   */\n      tag_173\n        /* \"#utility.yul\":1279:1283   */\n      dup3\n        /* \"#utility.yul\":1271:1277   */\n      dup3\n        /* \"#utility.yul\":1251:1284   */\n      tag_121\n      jump\t// in\n    tag_173:\n        /* \"#utility.yul\":1161:1290   */\n      swap2\n      swap1\n      pop\n      jump\t// out\n        /* \"#utility.yul\":1296:1604   */\n    tag_123:\n        /* \"#utility.yul\":1358:1362   */\n      0x00\n        /* \"#utility.yul\":1448:1466   */\n      0xffffffffffffffff\n        /* \"#utility.yul\":1440:1446   */\n      dup3\n        /* \"#utility.yul\":1437:1467   */\n      gt\n        /* \"#utility.yul\":1434:1490   */\n      iszero\n      tag_175\n      jumpi\n        /* \"#utility.yul\":1470:1488   */\n      tag_176\n      tag_120\n      jump\t// in\n    tag_176:\n        /* \"#utility.yul\":1434:1490   */\n    tag_175:\n        /* \"#utility.yul\":1508:1537   */\n      tag_177\n        /* \"#utility.yul\":1530:1536   */\n      dup3\n        /* \"#utility.yul\":1508:1537   */\n      tag_119\n      jump\t// in\n    tag_177:\n        /* \"#utility.yul\":1500:1537   */\n      swap1\n      pop\n        /* \"#utility.yul\":1592:1596   */\n      0x20\n        /* \"#utility.yul\":1586:1590   */\n      dup2\n        /* \"#utility.yul\":1582:1597   */\n      add\n        /* \"#utility.yul\":1574:1597   */\n      swap1\n      pop\n        /* \"#utility.yul\":1296:1604   */\n      swap2\n      swap1\n      pop\n      jump\t// out\n        /* \"#utility.yul\":1610:1756   */\n    tag_124:\n        /* \"#utility.yul\":1707:1713   */\n      dup3\n        /* \"#utility.yul\":1702:1705   */\n      dup2\n        /* \"#utility.yul\":1697:1700   */\n      dup4\n        /* \"#utility.yul\":1684:1714   */\n      calldatacopy\n        /* \"#utility.yul\":1748:1749   */\n      0x00\n        /* \"#utility.yul\":1739:1745   */\n      dup4\n        /* \"#utility.yul\":1734:1737   */\n      dup4\n        /* \"#utility.yul\":1730:1746   */\n      add\n        /* \"#utility.yul\":1723:1750   */\n      mstore\n        /* \"#utility.yul\":1610:1756   */\n      pop\n      pop\n      pop\n      jump\t// out\n        /* \"#utility.yul\":1762:2187   */\n    tag_125:\n        /* \"#utility.yul\":1840:1845   */\n      0x00\n        /* \"#utility.yul\":1865:1931   */\n      tag_180\n        /* \"#utility.yul\":1881:1930   */\n      tag_181\n        /* \"#utility.yul\":1923:1929   */\n      dup5\n        /* \"#utility.yul\":1881:1930   */\n      tag_123\n      jump\t// in\n    tag_181:\n        /* \"#utility.yul\":1865:1931   */\n      tag_122\n      jump\t// in\n    tag_180:\n        /* \"#utility.yul\":1856:1931   */\n      swap1\n      pop\n        /* \"#utility.yul\":1954:1960   */\n      dup3\n        /* \"#utility.yul\":1947:1952   */\n      dup2\n        /* \"#utility.yul\":1940:1961   */\n      mstore\n        /* \"#utility.yul\":1992:1996   */\n      0x20\n        /* \"#utility.yul\":1985:1990   */\n      dup2\n        /* \"#utility.yul\":1981:1997   */\n      add\n        /* \"#utility.yul\":2030:2033   */\n      dup5\n        /* \"#utility.yul\":2021:2027   */\n      dup5\n        /* \"#utility.yul\":2016:2019   */\n      dup5\n        /* \"#utility.yul\":2012:2028   */\n      add\n        /* \"#utility.yul\":2009:2034   */\n      gt\n        /* \"#utility.yul\":2006:2118   */\n      iszero\n      tag_182\n      jumpi\n        /* \"#utility.yul\":2037:2116   */\n      tag_183\n      tag_118\n      jump\t// in\n    tag_183:\n        /* \"#utility.yul\":2006:2118   */\n    tag_182:\n        /* \"#utility.yul\":2127:2181   */\n      tag_184\n        /* \"#utility.yul\":2174:2180   */\n      dup5\n        /* \"#utility.yul\":2169:2172   */\n      dup3\n        /* \"#utility.yul\":2164:2167   */\n      dup6\n        /* \"#utility.yul\":2127:2181   */\n      tag_124\n      jump\t// in\n    tag_184:\n        /* \"#utility.yul\":1846:2187   */\n      pop\n        /* \"#utility.yul\":1762:2187   */\n      swap4\n      swap3\n      pop\n      pop\n      pop\n      jump\t// out\n        /* \"#utility.yul\":2207:2547   */\n    tag_126:\n        /* \"#utility.yul\":2263:2268   */\n      0x00\n        /* \"#utility.yul\":2312:2315   */\n      dup3\n        /* \"#utility.yul\":2305:2309   */\n      0x1f\n        /* \"#utility.yul\":2297:2303   */\n      dup4\n        /* \"#utility.yul\":2293:2310   */\n      add\n        /* \"#utility.yul\":2289:2316   */\n      slt\n        /* \"#utility.yul\":2279:2401   */\n      tag_186\n      jumpi\n        /* \"#utility.yul\":2320:2399   */\n      tag_187\n      tag_117\n      jump\t// in\n    tag_187:\n        /* \"#utility.yul\":2279:2401   */\n    tag_186:\n        /* \"#utility.yul\":2437:2443   */\n      dup2\n        /* \"#utility.yul\":2424:2444   */\n      calldataload\n        /* \"#utility.yul\":2462:2541   */\n      tag_188\n        /* \"#utility.yul\":2537:2540   */\n      dup5\n        /* \"#utility.yul\":2529:2535   */\n      dup3\n        /* \"#utility.yul\":2522:2526   */\n      0x20\n        /* \"#utility.yul\":2514:2520   */\n      dup7\n        /* \"#utility.yul\":2510:2527   */\n      add\n        /* \"#utility.yul\":2462:2541   */\n      tag_125\n      jump\t// in\n    tag_188:\n        /* \"#utility.yul\":2453:2541   */\n      swap2\n      pop\n        /* \"#utility.yul\":2269:2547   */\n      pop\n        /* \"#utility.yul\":2207:2547   */\n      swap3\n      swap2\n      pop\n      pop\n      jump\t// out\n        /* \"#utility.yul\":2553:3712   */\n    tag_15:\n        /* \"#utility.yul\":2660:2666   */\n      0x00\n        /* \"#utility.yul\":2668:2674   */\n      dup1\n        /* \"#utility.yul\":2676:2682   */\n      0x00\n        /* \"#utility.yul\":2725:2727   */\n      0x60\n        /* \"#utility.yul\":2713:2722   */\n      dup5\n        /* \"#utility.yul\":2704:2711   */\n      dup7\n        /* \"#utility.yul\":2700:2723   */\n      sub\n        /* \"#utility.yul\":2696:2728   */\n      slt\n        /* \"#utility.yul\":2693:2812   */\n      iszero\n      tag_190\n      jumpi\n        /* \"#utility.yul\":2731:2810   */\n      tag_191\n      tag_115\n      jump\t// in\n    tag_191:\n        /* \"#utility.yul\":2693:2812   */\n    tag_190:\n        /* \"#utility.yul\":2879:2880   */\n      0x00\n        /* \"#utility.yul\":2868:2877   */\n      dup5\n        /* \"#utility.yul\":2864:2881   */\n      add\n        /* \"#utility.yul\":2851:2882   */\n      calldataload\n        /* \"#utility.yul\":2909:2927   */\n      0xffffffffffffffff\n        /* \"#utility.yul\":2901:2907   */\n      dup2\n        /* \"#utility.yul\":2898:2928   */\n      gt\n        /* \"#utility.yul\":2895:3012   */\n      iszero\n      tag_192\n      jumpi\n        /* \"#utility.yul\":2931:3010   */\n      tag_193\n      tag_116\n      jump\t// in\n    tag_193:\n        /* \"#utility.yul\":2895:3012   */\n    tag_192:\n        /* \"#utility.yul\":3036:3099   */\n      tag_194\n        /* \"#utility.yul\":3091:3098   */\n      dup7\n        /* \"#utility.yul\":3082:3088   */\n      dup3\n        /* \"#utility.yul\":3071:3080   */\n      dup8\n        /* \"#utility.yul\":3067:3089   */\n      add\n        /* \"#utility.yul\":3036:3099   */\n      tag_126\n      jump\t// in\n    tag_194:\n        /* \"#utility.yul\":3026:3099   */\n      swap4\n      pop\n        /* \"#utility.yul\":2822:3109   */\n      pop\n        /* \"#utility.yul\":3176:3178   */\n      0x20\n        /* \"#utility.yul\":3165:3174   */\n      dup5\n        /* \"#utility.yul\":3161:3179   */\n      add\n        /* \"#utility.yul\":3148:3180   */\n      calldataload\n        /* \"#utility.yul\":3207:3225   */\n      0xffffffffffffffff\n        /* \"#utility.yul\":3199:3205   */\n      dup2\n        /* \"#utility.yul\":3196:3226   */\n      gt\n        /* \"#utility.yul\":3193:3310   */\n      iszero\n      tag_195\n      jumpi\n        /* \"#utility.yul\":3229:3308   */\n      tag_196\n      tag_116\n      jump\t// in\n    tag_196:\n        /* \"#utility.yul\":3193:3310   */\n    tag_195:\n        /* \"#utility.yul\":3334:3397   */\n      tag_197\n        /* \"#utility.yul\":3389:3396   */\n      dup7\n        /* \"#utility.yul\":3380:3386   */\n      dup3\n        /* \"#utility.yul\":3369:3378   */\n      dup8\n        /* \"#utility.yul\":3365:3387   */\n      add\n        /* \"#utility.yul\":3334:3397   */\n      tag_126\n      jump\t// in\n    tag_197:\n        /* \"#utility.yul\":3324:3397   */\n      swap3\n      pop\n        /* \"#utility.yul\":3119:3407   */\n      pop\n        /* \"#utility.yul\":3474:3476   */\n      0x40\n        /* \"#utility.yul\":3463:3472   */\n      dup5\n        /* \"#utility.yul\":3459:3477   */\n      add\n        /* \"#utility.yul\":3446:3478   */\n      calldataload\n        /* \"#utility.yul\":3505:3523   */\n      0xffffffffffffffff\n        /* \"#utility.yul\":3497:3503   */\n      dup2\n        /* \"#utility.yul\":3494:3524   */\n      gt\n        /* \"#utility.yul\":3491:3608   */\n      iszero\n      tag_198\n      jumpi\n        /* \"#utility.yul\":3527:3606   */\n      tag_199\n      tag_116\n      jump\t// in\n    tag_199:\n        /* \"#utility.yul\":3491:3608   */\n    tag_198:\n        /* \"#utility.yul\":3632:3695   */\n      tag_200\n        /* \"#utility.yul\":3687:3694   */\n      dup7\n        /* \"#utility.yul\":3678:3684   */\n      dup3\n        /* \"#utility.yul\":3667:3676   */\n      dup8\n        /* \"#utility.yul\":3663:3685   */\n      add\n        /* \"#utility.yul\":3632:3695   */\n      tag_126\n      jump\t// in\n    tag_200:\n        /* \"#utility.yul\":3622:3695   */\n      swap2\n      pop\n        /* \"#utility.yul\":3417:3705   */\n      pop\n        /* \"#utility.yul\":2553:3712   */\n      swap3\n      pop\n      swap3\n      pop\n      swap3\n      jump\t// out\n        /* \"#utility.yul\":3718:3811   */\n    tag_127:\n        /* \"#utility.yul\":3754:3761   */\n      0x00\n        /* \"#utility.yul\":3794:3804   */\n      0xffffffff\n        /* \"#utility.yul\":3787:3792   */\n      dup3\n        /* \"#utility.yul\":3783:3805   */\n      and\n        /* \"#utility.yul\":3772:3805   */\n      swap1\n      pop\n        /* \"#utility.yul\":3718:3811   */\n      swap2\n      swap1\n      pop\n      jump\t// out\n        /* \"#utility.yul\":3817:3937   */\n    tag_128:\n        /* \"#utility.yul\":3889:3912   */\n      tag_203\n        /* \"#utility.yul\":3906:3911   */\n      dup2\n        /* \"#utility.yul\":3889:3912   */\n      tag_127\n      jump\t// in\n    tag_203:\n        /* \"#utility.yul\":3882:3887   */\n      dup2\n        /* \"#utility.yul\":3879:3913   */\n      eq\n        /* \"#utility.yul\":3869:3931   */\n      tag_204\n      jumpi\n        /* \"#utility.yul\":3927:3928   */\n      0x00\n        /* \"#utility.yul\":3924:3925   */\n      dup1\n        /* \"#utility.yul\":3917:3929   */\n      revert\n        /* \"#utility.yul\":3869:3931   */\n    tag_204:\n        /* \"#utility.yul\":3817:3937   */\n      pop\n      jump\t// out\n        /* \"#utility.yul\":3943:4080   */\n    tag_129:\n        /* \"#utility.yul\":3988:3993   */\n      0x00\n        /* \"#utility.yul\":4026:4032   */\n      dup2\n        /* \"#utility.yul\":4013:4033   */\n      calldataload\n        /* \"#utility.yul\":4004:4033   */\n      swap1\n      pop\n        /* \"#utility.yul\":4042:4074   */\n      tag_206\n        /* \"#utility.yul\":4068:4073   */\n      dup2\n        /* \"#utility.yul\":4042:4074   */\n      tag_128\n      jump\t// in\n    tag_206:\n        /* \"#utility.yul\":3943:4080   */\n      swap3\n      swap2\n      pop\n      pop\n      jump\t// out\n        /* \"#utility.yul\":4086:4738   */\n    tag_19:\n        /* \"#utility.yul\":4163:4169   */\n      0x00\n        /* \"#utility.yul\":4171:4177   */\n      dup1\n        /* \"#utility.yul\":4220:4222   */\n      0x40\n        /* \"#utility.yul\":4208:4217   */\n      dup4\n        /* \"#utility.yul\":4199:4206   */\n      dup6\n        /* \"#utility.yul\":4195:4218   */\n      sub\n        /* \"#utility.yul\":4191:4223   */\n      slt\n        /* \"#utility.yul\":4188:4307   */\n      iszero\n      tag_208\n      jumpi\n        /* \"#utility.yul\":4226:4305   */\n      tag_209\n      tag_115\n      jump\t// in\n    tag_209:\n        /* \"#utility.yul\":4188:4307   */\n    tag_208:\n        /* \"#utility.yul\":4374:4375   */\n      0x00\n        /* \"#utility.yul\":4363:4372   */\n      dup4\n        /* \"#utility.yul\":4359:4376   */\n      add\n        /* \"#utility.yul\":4346:4377   */\n      calldataload\n        /* \"#utility.yul\":4404:4422   */\n      0xffffffffffffffff\n        /* \"#utility.yul\":4396:4402   */\n      dup2\n        /* \"#utility.yul\":4393:4423   */\n      gt\n        /* \"#utility.yul\":4390:4507   */\n      iszero\n      tag_210\n      jumpi\n        /* \"#utility.yul\":4426:4505   */\n      tag_211\n      tag_116\n      jump\t// in\n    tag_211:\n        /* \"#utility.yul\":4390:4507   */\n    tag_210:\n        /* \"#utility.yul\":4531:4594   */\n      tag_212\n        /* \"#utility.yul\":4586:4593   */\n      dup6\n        /* \"#utility.yul\":4577:4583   */\n      dup3\n        /* \"#utility.yul\":4566:4575   */\n      dup7\n        /* \"#utility.yul\":4562:4584   */\n      add\n        /* \"#utility.yul\":4531:4594   */\n      tag_126\n      jump\t// in\n    tag_212:\n        /* \"#utility.yul\":4521:4594   */\n      swap3\n      pop\n        /* \"#utility.yul\":4317:4604   */\n      pop\n        /* \"#utility.yul\":4643:4645   */\n      0x20\n        /* \"#utility.yul\":4669:4721   */\n      tag_213\n        /* \"#utility.yul\":4713:4720   */\n      dup6\n        /* \"#utility.yul\":4704:4710   */\n      dup3\n        /* \"#utility.yul\":4693:4702   */\n      dup7\n        /* \"#utility.yul\":4689:4711   */\n      add\n        /* \"#utility.yul\":4669:4721   */\n      tag_129\n      jump\t// in\n    tag_213:\n        /* \"#utility.yul\":4659:4721   */\n      swap2\n      pop\n        /* \"#utility.yul\":4614:4731   */\n      pop\n        /* \"#utility.yul\":4086:4738   */\n      swap3\n      pop\n      swap3\n      swap1\n      pop\n      jump\t// out\n        /* \"#utility.yul\":4744:4834   */\n    tag_130:\n        /* \"#utility.yul\":4778:4785   */\n      0x00\n        /* \"#utility.yul\":4821:4826   */\n      dup2\n        /* \"#utility.yul\":4814:4827   */\n      iszero\n        /* \"#utility.yul\":4807:4828   */\n      iszero\n        /* \"#utility.yul\":4796:4828   */\n      swap1\n      pop\n        /* \"#utility.yul\":4744:4834   */\n      swap2\n      swap1\n      pop\n      jump\t// out\n        /* \"#utility.yul\":4840:4949   */\n    tag_131:\n        /* \"#utility.yul\":4921:4942   */\n      tag_216\n        /* \"#utility.yul\":4936:4941   */\n      dup2\n        /* \"#utility.yul\":4921:4942   */\n      tag_130\n      jump\t// in\n    tag_216:\n        /* \"#utility.yul\":4916:4919   */\n      dup3\n        /* \"#utility.yul\":4909:4943   */\n      mstore\n        /* \"#utility.yul\":4840:4949   */\n      pop\n      pop\n      jump\t// out\n        /* \"#utility.yul\":4955:5165   */\n    tag_22:\n        /* \"#utility.yul\":5042:5046   */\n      0x00\n        /* \"#utility.yul\":5080:5082   */\n      0x20\n        /* \"#utility.yul\":5069:5078   */\n      dup3\n        /* \"#utility.yul\":5065:5083   */\n      add\n        /* \"#utility.yul\":5057:5083   */\n      swap1\n      pop\n        /* \"#utility.yul\":5093:5158   */\n      tag_218\n        /* \"#utility.yul\":5155:5156   */\n      0x00\n        /* \"#utility.yul\":5144:5153   */\n      dup4\n        /* \"#utility.yul\":5140:5157   */\n      add\n        /* \"#utility.yul\":5131:5137   */\n      dup5\n        /* \"#utility.yul\":5093:5158   */\n      tag_131\n      jump\t// in\n    tag_218:\n        /* \"#utility.yul\":4955:5165   */\n      swap3\n      swap2\n      pop\n      pop\n      jump\t// out\n        /* \"#utility.yul\":5171:5680   */\n    tag_28:\n        /* \"#utility.yul\":5240:5246   */\n      0x00\n        /* \"#utility.yul\":5289:5291   */\n      0x20\n        /* \"#utility.yul\":5277:5286   */\n      dup3\n        /* \"#utility.yul\":5268:5275   */\n      dup5\n        /* \"#utility.yul\":5264:5287   */\n      sub\n        /* \"#utility.yul\":5260:5292   */\n      slt\n        /* \"#utility.yul\":5257:5376   */\n      iszero\n      tag_220\n      jumpi\n        /* \"#utility.yul\":5295:5374   */\n      tag_221\n      tag_115\n      jump\t// in\n    tag_221:\n        /* \"#utility.yul\":5257:5376   */\n    tag_220:\n        /* \"#utility.yul\":5443:5444   */\n      0x00\n        /* \"#utility.yul\":5432:5441   */\n      dup3\n        /* \"#utility.yul\":5428:5445   */\n      add\n        /* \"#utility.yul\":5415:5446   */\n      calldataload\n        /* \"#utility.yul\":5473:5491   */\n      0xffffffffffffffff\n        /* \"#utility.yul\":5465:5471   */\n      dup2\n        /* \"#utility.yul\":5462:5492   */\n      gt\n        /* \"#utility.yul\":5459:5576   */\n      iszero\n      tag_222\n      jumpi\n        /* \"#utility.yul\":5495:5574   */\n      tag_223\n      tag_116\n      jump\t// in\n    tag_223:\n        /* \"#utility.yul\":5459:5576   */\n    tag_222:\n        /* \"#utility.yul\":5600:5663   */\n      tag_224\n        /* \"#utility.yul\":5655:5662   */\n      dup5\n        /* \"#utility.yul\":5646:5652   */\n      dup3\n        /* \"#utility.yul\":5635:5644   */\n      dup6\n        /* \"#utility.yul\":5631:5653   */\n      add\n        /* \"#utility.yul\":5600:5663   */\n      tag_126\n      jump\t// in\n    tag_224:\n        /* \"#utility.yul\":5590:5663   */\n      swap2\n      pop\n        /* \"#utility.yul\":5386:5673   */\n      pop\n        /* \"#utility.yul\":5171:5680   */\n      swap3\n      swap2\n      pop\n      pop\n      jump\t// out\n        /* \"#utility.yul\":5686:5785   */\n    tag_132:\n        /* \"#utility.yul\":5738:5744   */\n      0x00\n        /* \"#utility.yul\":5772:5777   */\n      dup2\n        /* \"#utility.yul\":5766:5778   */\n      mload\n        /* \"#utility.yul\":5756:5778   */\n      swap1\n      pop\n        /* \"#utility.yul\":5686:5785   */\n      swap2\n      swap1\n      pop\n      jump\t// out\n        /* \"#utility.yul\":5791:5960   */\n    tag_133:\n        /* \"#utility.yul\":5875:5886   */\n      0x00\n        /* \"#utility.yul\":5909:5915   */\n      dup3\n        /* \"#utility.yul\":5904:5907   */\n      dup3\n        /* \"#utility.yul\":5897:5916   */\n      mstore\n        /* \"#utility.yul\":5949:5953   */\n      0x20\n        /* \"#utility.yul\":5944:5947   */\n      dup3\n        /* \"#utility.yul\":5940:5954   */\n      add\n        /* \"#utility.yul\":5925:5954   */\n      swap1\n      pop\n        /* \"#utility.yul\":5791:5960   */\n      swap3\n      swap2\n      pop\n      pop\n      jump\t// out\n        /* \"#utility.yul\":5966:6212   */\n    tag_134:\n        /* \"#utility.yul\":6047:6048   */\n      0x00\n        /* \"#utility.yul\":6057:6170   */\n    tag_228:\n        /* \"#utility.yul\":6071:6077   */\n      dup4\n        /* \"#utility.yul\":6068:6069   */\n      dup2\n        /* \"#utility.yul\":6065:6078   */\n      lt\n        /* \"#utility.yul\":6057:6170   */\n      iszero\n      tag_230\n      jumpi\n        /* \"#utility.yul\":6156:6157   */\n      dup1\n        /* \"#utility.yul\":6151:6154   */\n      dup3\n        /* \"#utility.yul\":6147:6158   */\n      add\n        /* \"#utility.yul\":6141:6159   */\n      mload\n        /* \"#utility.yul\":6137:6138   */\n      dup2\n        /* \"#utility.yul\":6132:6135   */\n      dup5\n        /* \"#utility.yul\":6128:6139   */\n      add\n        /* \"#utility.yul\":6121:6160   */\n      mstore\n        /* \"#utility.yul\":6093:6095   */\n      0x20\n        /* \"#utility.yul\":6090:6091   */\n      dup2\n        /* \"#utility.yul\":6086:6096   */\n      add\n        /* \"#utility.yul\":6081:6096   */\n      swap1\n      pop\n        /* \"#utility.yul\":6057:6170   */\n      jump(tag_228)\n    tag_230:\n        /* \"#utility.yul\":6204:6205   */\n      0x00\n        /* \"#utility.yul\":6195:6201   */\n      dup5\n        /* \"#utility.yul\":6190:6193   */\n      dup5\n        /* \"#utility.yul\":6186:6202   */\n      add\n        /* \"#utility.yul\":6179:6206   */\n      mstore\n        /* \"#utility.yul\":6028:6212   */\n      pop\n        /* \"#utility.yul\":5966:6212   */\n      pop\n      pop\n      pop\n      jump\t// out\n        /* \"#utility.yul\":6218:6595   */\n    tag_135:\n        /* \"#utility.yul\":6306:6309   */\n      0x00\n        /* \"#utility.yul\":6334:6373   */\n      tag_232\n        /* \"#utility.yul\":6367:6372   */\n      dup3\n        /* \"#utility.yul\":6334:6373   */\n      tag_132\n      jump\t// in\n    tag_232:\n        /* \"#utility.yul\":6389:6460   */\n      tag_233\n        /* \"#utility.yul\":6453:6459   */\n      dup2\n        /* \"#utility.yul\":6448:6451   */\n      dup6\n        /* \"#utility.yul\":6389:6460   */\n      tag_133\n      jump\t// in\n    tag_233:\n        /* \"#utility.yul\":6382:6460   */\n      swap4\n      pop\n        /* \"#utility.yul\":6469:6534   */\n      tag_234\n        /* \"#utility.yul\":6527:6533   */\n      dup2\n        /* \"#utility.yul\":6522:6525   */\n      dup6\n        /* \"#utility.yul\":6515:6519   */\n      0x20\n        /* \"#utility.yul\":6508:6513   */\n      dup7\n        /* \"#utility.yul\":6504:6520   */\n      add\n        /* \"#utility.yul\":6469:6534   */\n      tag_134\n      jump\t// in\n    tag_234:\n        /* \"#utility.yul\":6559:6588   */\n      tag_235\n        /* \"#utility.yul\":6581:6587   */\n      dup2\n        /* \"#utility.yul\":6559:6588   */\n      tag_119\n      jump\t// in\n    tag_235:\n        /* \"#utility.yul\":6554:6557   */\n      dup5\n        /* \"#utility.yul\":6550:6589   */\n      add\n        /* \"#utility.yul\":6543:6589   */\n      swap2\n      pop\n        /* \"#utility.yul\":6310:6595   */\n      pop\n        /* \"#utility.yul\":6218:6595   */\n      swap3\n      swap2\n      pop\n      pop\n      jump\t// out\n        /* \"#utility.yul\":6601:6716   */\n    tag_136:\n        /* \"#utility.yul\":6686:6709   */\n      tag_237\n        /* \"#utility.yul\":6703:6708   */\n      dup2\n        /* \"#utility.yul\":6686:6709   */\n      tag_127\n      jump\t// in\n    tag_237:\n        /* \"#utility.yul\":6681:6684   */\n      dup3\n        /* \"#utility.yul\":6674:6710   */\n      mstore\n        /* \"#utility.yul\":6601:6716   */\n      pop\n      pop\n      jump\t// out\n        /* \"#utility.yul\":6722:7643   */\n    tag_35:\n        /* \"#utility.yul\":6979:6983   */\n      0x00\n        /* \"#utility.yul\":7017:7020   */\n      0xa0\n        /* \"#utility.yul\":7006:7015   */\n      dup3\n        /* \"#utility.yul\":7002:7021   */\n      add\n        /* \"#utility.yul\":6994:7021   */\n      swap1\n      pop\n        /* \"#utility.yul\":7067:7076   */\n      dup2\n        /* \"#utility.yul\":7061:7065   */\n      dup2\n        /* \"#utility.yul\":7057:7077   */\n      sub\n        /* \"#utility.yul\":7053:7054   */\n      0x00\n        /* \"#utility.yul\":7042:7051   */\n      dup4\n        /* \"#utility.yul\":7038:7055   */\n      add\n        /* \"#utility.yul\":7031:7078   */\n      mstore\n        /* \"#utility.yul\":7095:7173   */\n      tag_239\n        /* \"#utility.yul\":7168:7172   */\n      dup2\n        /* \"#utility.yul\":7159:7165   */\n      dup9\n        /* \"#utility.yul\":7095:7173   */\n      tag_135\n      jump\t// in\n    tag_239:\n        /* \"#utility.yul\":7087:7173   */\n      swap1\n      pop\n        /* \"#utility.yul\":7220:7229   */\n      dup2\n        /* \"#utility.yul\":7214:7218   */\n      dup2\n        /* \"#utility.yul\":7210:7230   */\n      sub\n        /* \"#utility.yul\":7205:7207   */\n      0x20\n        /* \"#utility.yul\":7194:7203   */\n      dup4\n        /* \"#utility.yul\":7190:7208   */\n      add\n        /* \"#utility.yul\":7183:7231   */\n      mstore\n        /* \"#utility.yul\":7248:7326   */\n      tag_240\n        /* \"#utility.yul\":7321:7325   */\n      dup2\n        /* \"#utility.yul\":7312:7318   */\n      dup8\n        /* \"#utility.yul\":7248:7326   */\n      tag_135\n      jump\t// in\n    tag_240:\n        /* \"#utility.yul\":7240:7326   */\n      swap1\n      pop\n        /* \"#utility.yul\":7373:7382   */\n      dup2\n        /* \"#utility.yul\":7367:7371   */\n      dup2\n        /* \"#utility.yul\":7363:7383   */\n      sub\n        /* \"#utility.yul\":7358:7360   */\n      0x40\n        /* \"#utility.yul\":7347:7356   */\n      dup4\n        /* \"#utility.yul\":7343:7361   */\n      add\n        /* \"#utility.yul\":7336:7384   */\n      mstore\n        /* \"#utility.yul\":7401:7479   */\n      tag_241\n        /* \"#utility.yul\":7474:7478   */\n      dup2\n        /* \"#utility.yul\":7465:7471   */\n      dup7\n        /* \"#utility.yul\":7401:7479   */\n      tag_135\n      jump\t// in\n    tag_241:\n        /* \"#utility.yul\":7393:7479   */\n      swap1\n      pop\n        /* \"#utility.yul\":7489:7555   */\n      tag_242\n        /* \"#utility.yul\":7551:7553   */\n      0x60\n        /* \"#utility.yul\":7540:7549   */\n      dup4\n        /* \"#utility.yul\":7536:7554   */\n      add\n        /* \"#utility.yul\":7527:7533   */\n      dup6\n        /* \"#utility.yul\":7489:7555   */\n      tag_131\n      jump\t// in\n    tag_242:\n        /* \"#utility.yul\":7565:7636   */\n      tag_243\n        /* \"#utility.yul\":7631:7634   */\n      0x80\n        /* \"#utility.yul\":7620:7629   */\n      dup4\n        /* \"#utility.yul\":7616:7635   */\n      add\n        /* \"#utility.yul\":7607:7613   */\n      dup5\n        /* \"#utility.yul\":7565:7636   */\n      tag_136\n      jump\t// in\n    tag_243:\n        /* \"#utility.yul\":6722:7643   */\n      swap7\n      swap6\n      pop\n      pop\n      pop\n      pop\n      pop\n      pop\n      jump\t// out\n        /* \"#utility.yul\":7649:8483   */\n    tag_38:\n        /* \"#utility.yul\":7737:7743   */\n      0x00\n        /* \"#utility.yul\":7745:7751   */\n      dup1\n        /* \"#utility.yul\":7794:7796   */\n      0x40\n        /* \"#utility.yul\":7782:7791   */\n      dup4\n        /* \"#utility.yul\":7773:7780   */\n      dup6\n        /* \"#utility.yul\":7769:7792   */\n      sub\n        /* \"#utility.yul\":7765:7797   */\n      slt\n        /* \"#utility.yul\":7762:7881   */\n      iszero\n      tag_245\n      jumpi\n        /* \"#utility.yul\":7800:7879   */\n      tag_246\n      tag_115\n      jump\t// in\n    tag_246:\n        /* \"#utility.yul\":7762:7881   */\n    tag_245:\n        /* \"#utility.yul\":7948:7949   */\n      0x00\n        /* \"#utility.yul\":7937:7946   */\n      dup4\n        /* \"#utility.yul\":7933:7950   */\n      add\n        /* \"#utility.yul\":7920:7951   */\n      calldataload\n        /* \"#utility.yul\":7978:7996   */\n      0xffffffffffffffff\n        /* \"#utility.yul\":7970:7976   */\n      dup2\n        /* \"#utility.yul\":7967:7997   */\n      gt\n        /* \"#utility.yul\":7964:8081   */\n      iszero\n      tag_247\n      jumpi\n        /* \"#utility.yul\":8000:8079   */\n      tag_248\n      tag_116\n      jump\t// in\n    tag_248:\n        /* \"#utility.yul\":7964:8081   */\n    tag_247:\n        /* \"#utility.yul\":8105:8168   */\n      tag_249\n        /* \"#utility.yul\":8160:8167   */\n      dup6\n        /* \"#utility.yul\":8151:8157   */\n      dup3\n        /* \"#utility.yul\":8140:8149   */\n      dup7\n        /* \"#utility.yul\":8136:8158   */\n      add\n        /* \"#utility.yul\":8105:8168   */\n      tag_126\n      jump\t// in\n    tag_249:\n        /* \"#utility.yul\":8095:8168   */\n      swap3\n      pop\n        /* \"#utility.yul\":7891:8178   */\n      pop\n        /* \"#utility.yul\":8245:8247   */\n      0x20\n        /* \"#utility.yul\":8234:8243   */\n      dup4\n        /* \"#utility.yul\":8230:8248   */\n      add\n        /* \"#utility.yul\":8217:8249   */\n      calldataload\n        /* \"#utility.yul\":8276:8294   */\n      0xffffffffffffffff\n        /* \"#utility.yul\":8268:8274   */\n      dup2\n        /* \"#utility.yul\":8265:8295   */\n      gt\n        /* \"#utility.yul\":8262:8379   */\n      iszero\n      tag_250\n      jumpi\n        /* \"#utility.yul\":8298:8377   */\n      tag_251\n      tag_116\n      jump\t// in\n    tag_251:\n        /* \"#utility.yul\":8262:8379   */\n    tag_250:\n        /* \"#utility.yul\":8403:8466   */\n      tag_252\n        /* \"#utility.yul\":8458:8465   */\n      dup6\n        /* \"#utility.yul\":8449:8455   */\n      dup3\n        /* \"#utility.yul\":8438:8447   */\n      dup7\n        /* \"#utility.yul\":8434:8456   */\n      add\n        /* \"#utility.yul\":8403:8466   */\n      tag_126\n      jump\t// in\n    tag_252:\n        /* \"#utility.yul\":8393:8466   */\n      swap2\n      pop\n        /* \"#utility.yul\":8188:8476   */\n      pop\n        /* \"#utility.yul\":7649:8483   */\n      swap3\n      pop\n      swap3\n      swap1\n      pop\n      jump\t// out\n        /* \"#utility.yul\":8489:8900   */\n    tag_44:\n        /* \"#utility.yul\":8624:8628   */\n      0x00\n        /* \"#utility.yul\":8662:8664   */\n      0x40\n        /* \"#utility.yul\":8651:8660   */\n      dup3\n        /* \"#utility.yul\":8647:8665   */\n      add\n        /* \"#utility.yul\":8639:8665   */\n      swap1\n      pop\n        /* \"#utility.yul\":8711:8720   */\n      dup2\n        /* \"#utility.yul\":8705:8709   */\n      dup2\n        /* \"#utility.yul\":8701:8721   */\n      sub\n        /* \"#utility.yul\":8697:8698   */\n      0x00\n        /* \"#utility.yul\":8686:8695   */\n      dup4\n        /* \"#utility.yul\":8682:8699   */\n      add\n        /* \"#utility.yul\":8675:8722   */\n      mstore\n        /* \"#utility.yul\":8739:8817   */\n      tag_254\n        /* \"#utility.yul\":8812:8816   */\n      dup2\n        /* \"#utility.yul\":8803:8809   */\n      dup6\n        /* \"#utility.yul\":8739:8817   */\n      tag_135\n      jump\t// in\n    tag_254:\n        /* \"#utility.yul\":8731:8817   */\n      swap1\n      pop\n        /* \"#utility.yul\":8827:8893   */\n      tag_255\n        /* \"#utility.yul\":8889:8891   */\n      0x20\n        /* \"#utility.yul\":8878:8887   */\n      dup4\n        /* \"#utility.yul\":8874:8892   */\n      add\n        /* \"#utility.yul\":8865:8871   */\n      dup5\n        /* \"#utility.yul\":8827:8893   */\n      tag_131\n      jump\t// in\n    tag_255:\n        /* \"#utility.yul\":8489:8900   */\n      swap4\n      swap3\n      pop\n      pop\n      pop\n      jump\t// out\n        /* \"#utility.yul\":8906:9032   */\n    tag_137:\n        /* \"#utility.yul\":8943:8950   */\n      0x00\n        /* \"#utility.yul\":8983:9025   */\n      0xffffffffffffffffffffffffffffffffffffffff\n        /* \"#utility.yul\":8976:8981   */\n      dup3\n        /* \"#utility.yul\":8972:9026   */\n      and\n        /* \"#utility.yul\":8961:9026   */\n      swap1\n      pop\n        /* \"#utility.yul\":8906:9032   */\n      swap2\n      swap1\n      pop\n      jump\t// out\n        /* \"#utility.yul\":9038:9134   */\n    tag_138:\n        /* \"#utility.yul\":9075:9082   */\n      0x00\n        /* \"#utility.yul\":9104:9128   */\n      tag_258\n        /* \"#utility.yul\":9122:9127   */\n      dup3\n        /* \"#utility.yul\":9104:9128   */\n      tag_137\n      jump\t// in\n    tag_258:\n        /* \"#utility.yul\":9093:9128   */\n      swap1\n      pop\n        /* \"#utility.yul\":9038:9134   */\n      swap2\n      swap1\n      pop\n      jump\t// out\n        /* \"#utility.yul\":9140:9258   */\n    tag_139:\n        /* \"#utility.yul\":9227:9251   */\n      tag_260\n        /* \"#utility.yul\":9245:9250   */\n      dup2\n        /* \"#utility.yul\":9227:9251   */\n      tag_138\n      jump\t// in\n    tag_260:\n        /* \"#utility.yul\":9222:9225   */\n      dup3\n        /* \"#utility.yul\":9215:9252   */\n      mstore\n        /* \"#utility.yul\":9140:9258   */\n      pop\n      pop\n      jump\t// out\n        /* \"#utility.yul\":9264:9687   */\n    tag_52:\n        /* \"#utility.yul\":9405:9409   */\n      0x00\n        /* \"#utility.yul\":9443:9445   */\n      0x40\n        /* \"#utility.yul\":9432:9441   */\n      dup3\n        /* \"#utility.yul\":9428:9446   */\n      add\n        /* \"#utility.yul\":9420:9446   */\n      swap1\n      pop\n        /* \"#utility.yul\":9492:9501   */\n      dup2\n        /* \"#utility.yul\":9486:9490   */\n      dup2\n        /* \"#utility.yul\":9482:9502   */\n      sub\n        /* \"#utility.yul\":9478:9479   */\n      0x00\n        /* \"#utility.yul\":9467:9476   */\n      dup4\n        /* \"#utility.yul\":9463:9480   */\n      add\n        /* \"#utility.yul\":9456:9503   */\n      mstore\n        /* \"#utility.yul\":9520:9598   */\n      tag_262\n        /* \"#utility.yul\":9593:9597   */\n      dup2\n        /* \"#utility.yul\":9584:9590   */\n      dup6\n        /* \"#utility.yul\":9520:9598   */\n      tag_135\n      jump\t// in\n    tag_262:\n        /* \"#utility.yul\":9512:9598   */\n      swap1\n      pop\n        /* \"#utility.yul\":9608:9680   */\n      tag_263\n        /* \"#utility.yul\":9676:9678   */\n      0x20\n        /* \"#utility.yul\":9665:9674   */\n      dup4\n        /* \"#utility.yul\":9661:9679   */\n      add\n        /* \"#utility.yul\":9652:9658   */\n      dup5\n        /* \"#utility.yul\":9608:9680   */\n      tag_139\n      jump\t// in\n    tag_263:\n        /* \"#utility.yul\":9264:9687   */\n      swap4\n      swap3\n      pop\n      pop\n      pop\n      jump\t// out\n        /* \"#utility.yul\":9693:9841   */\n    tag_140:\n        /* \"#utility.yul\":9795:9806   */\n      0x00\n        /* \"#utility.yul\":9832:9835   */\n      dup2\n        /* \"#utility.yul\":9817:9835   */\n      swap1\n      pop\n        /* \"#utility.yul\":9693:9841   */\n      swap3\n      swap2\n      pop\n      pop\n      jump\t// out\n        /* \"#utility.yul\":9847:10237   */\n    tag_141:\n        /* \"#utility.yul\":9953:9956   */\n      0x00\n        /* \"#utility.yul\":9981:10020   */\n      tag_266\n        /* \"#utility.yul\":10014:10019   */\n      dup3\n        /* \"#utility.yul\":9981:10020   */\n      tag_132\n      jump\t// in\n    tag_266:\n        /* \"#utility.yul\":10036:10125   */\n      tag_267\n        /* \"#utility.yul\":10118:10124   */\n      dup2\n        /* \"#utility.yul\":10113:10116   */\n      dup6\n        /* \"#utility.yul\":10036:10125   */\n      tag_140\n      jump\t// in\n    tag_267:\n        /* \"#utility.yul\":10029:10125   */\n      swap4\n      pop\n        /* \"#utility.yul\":10134:10199   */\n      tag_268\n        /* \"#utility.yul\":10192:10198   */\n      dup2\n        /* \"#utility.yul\":10187:10190   */\n      dup6\n        /* \"#utility.yul\":10180:10184   */\n      0x20\n        /* \"#utility.yul\":10173:10178   */\n      dup7\n        /* \"#utility.yul\":10169:10185   */\n      add\n        /* \"#utility.yul\":10134:10199   */\n      tag_134\n      jump\t// in\n    tag_268:\n        /* \"#utility.yul\":10224:10230   */\n      dup1\n        /* \"#utility.yul\":10219:10222   */\n      dup5\n        /* \"#utility.yul\":10215:10231   */\n      add\n        /* \"#utility.yul\":10208:10231   */\n      swap2\n      pop\n        /* \"#utility.yul\":9957:10237   */\n      pop\n        /* \"#utility.yul\":9847:10237   */\n      swap3\n      swap2\n      pop\n      pop\n      jump\t// out\n        /* \"#utility.yul\":10243:10518   */\n    tag_55:\n        /* \"#utility.yul\":10375:10378   */\n      0x00\n        /* \"#utility.yul\":10397:10492   */\n      tag_270\n        /* \"#utility.yul\":10488:10491   */\n      dup3\n        /* \"#utility.yul\":10479:10485   */\n      dup5\n        /* \"#utility.yul\":10397:10492   */\n      tag_141\n      jump\t// in\n    tag_270:\n        /* \"#utility.yul\":10390:10492   */\n      swap2\n      pop\n        /* \"#utility.yul\":10509:10512   */\n      dup2\n        /* \"#utility.yul\":10502:10512   */\n      swap1\n      pop\n        /* \"#utility.yul\":10243:10518   */\n      swap3\n      swap2\n      pop\n      pop\n      jump\t// out\n        /* \"#utility.yul\":10524:10704   */\n    tag_142:\n        /* \"#utility.yul\":10572:10649   */\n      0x4e487b7100000000000000000000000000000000000000000000000000000000\n        /* \"#utility.yul\":10569:10570   */\n      0x00\n        /* \"#utility.yul\":10562:10650   */\n      mstore\n        /* \"#utility.yul\":10669:10673   */\n      0x22\n        /* \"#utility.yul\":10666:10667   */\n      0x04\n        /* \"#utility.yul\":10659:10674   */\n      mstore\n        /* \"#utility.yul\":10693:10697   */\n      0x24\n        /* \"#utility.yul\":10690:10691   */\n      0x00\n        /* \"#utility.yul\":10683:10698   */\n      revert\n        /* \"#utility.yul\":10710:11030   */\n    tag_78:\n        /* \"#utility.yul\":10754:10760   */\n      0x00\n        /* \"#utility.yul\":10791:10792   */\n      0x02\n        /* \"#utility.yul\":10785:10789   */\n      dup3\n        /* \"#utility.yul\":10781:10793   */\n      div\n        /* \"#utility.yul\":10771:10793   */\n      swap1\n      pop\n        /* \"#utility.yul\":10838:10839   */\n      0x01\n        /* \"#utility.yul\":10832:10836   */\n      dup3\n        /* \"#utility.yul\":10828:10840   */\n      and\n        /* \"#utility.yul\":10859:10877   */\n      dup1\n        /* \"#utility.yul\":10849:10930   */\n      tag_273\n      jumpi\n        /* \"#utility.yul\":10915:10919   */\n      0x7f\n        /* \"#utility.yul\":10907:10913   */\n      dup3\n        /* \"#utility.yul\":10903:10920   */\n      and\n        /* \"#utility.yul\":10893:10920   */\n      swap2\n      pop\n        /* \"#utility.yul\":10849:10930   */\n    tag_273:\n        /* \"#utility.yul\":10977:10979   */\n      0x20\n        /* \"#utility.yul\":10969:10975   */\n      dup3\n        /* \"#utility.yul\":10966:10980   */\n      lt\n        /* \"#utility.yul\":10946:10964   */\n      dup2\n        /* \"#utility.yul\":10943:10981   */\n      sub\n        /* \"#utility.yul\":10940:11024   */\n      tag_274\n      jumpi\n        /* \"#utility.yul\":10996:11014   */\n      tag_275\n      tag_142\n      jump\t// in\n    tag_275:\n        /* \"#utility.yul\":10940:11024   */\n    tag_274:\n        /* \"#utility.yul\":10761:11030   */\n      pop\n        /* \"#utility.yul\":10710:11030   */\n      swap2\n      swap1\n      pop\n      jump\t// out\n        /* \"#utility.yul\":11036:11177   */\n    tag_143:\n        /* \"#utility.yul\":11085:11089   */\n      0x00\n        /* \"#utility.yul\":11108:11111   */\n      dup2\n        /* \"#utility.yul\":11100:11111   */\n      swap1\n      pop\n        /* \"#utility.yul\":11131:11134   */\n      dup2\n        /* \"#utility.yul\":11128:11129   */\n      0x00\n        /* \"#utility.yul\":11121:11135   */\n      mstore\n        /* \"#utility.yul\":11165:11169   */\n      0x20\n        /* \"#utility.yul\":11162:11163   */\n      0x00\n        /* \"#utility.yul\":11152:11170   */\n      keccak256\n        /* \"#utility.yul\":11144:11170   */\n      swap1\n      pop\n        /* \"#utility.yul\":11036:11177   */\n      swap2\n      swap1\n      pop\n      jump\t// out\n        /* \"#utility.yul\":11183:11276   */\n    tag_144:\n        /* \"#utility.yul\":11220:11226   */\n      0x00\n        /* \"#utility.yul\":11267:11269   */\n      0x20\n        /* \"#utility.yul\":11262:11264   */\n      0x1f\n        /* \"#utility.yul\":11255:11260   */\n      dup4\n        /* \"#utility.yul\":11251:11265   */\n      add\n        /* \"#utility.yul\":11247:11270   */\n      div\n        /* \"#utility.yul\":11237:11270   */\n      swap1\n      pop\n        /* \"#utility.yul\":11183:11276   */\n      swap2\n      swap1\n      pop\n      jump\t// out\n        /* \"#utility.yul\":11282:11389   */\n    tag_145:\n        /* \"#utility.yul\":11326:11334   */\n      0x00\n        /* \"#utility.yul\":11376:11381   */\n      dup3\n        /* \"#utility.yul\":11370:11374   */\n      dup3\n        /* \"#utility.yul\":11366:11382   */\n      shl\n        /* \"#utility.yul\":11345:11382   */\n      swap1\n      pop\n        /* \"#utility.yul\":11282:11389   */\n      swap3\n      swap2\n      pop\n      pop\n      jump\t// out\n        /* \"#utility.yul\":11395:11788   */\n    tag_146:\n        /* \"#utility.yul\":11464:11470   */\n      0x00\n        /* \"#utility.yul\":11514:11515   */\n      0x08\n        /* \"#utility.yul\":11502:11512   */\n      dup4\n        /* \"#utility.yul\":11498:11516   */\n      mul\n        /* \"#utility.yul\":11537:11634   */\n      tag_280\n        /* \"#utility.yul\":11567:11633   */\n      0xffffffffffffffffffffffffffffffffffffffffffffffffffffffffffffffff\n        /* \"#utility.yul\":11556:11565   */\n      dup3\n        /* \"#utility.yul\":11537:11634   */\n      tag_145\n      jump\t// in\n    tag_280:\n        /* \"#utility.yul\":11655:11694   */\n      tag_281\n        /* \"#utility.yul\":11685:11693   */\n      dup7\n        /* \"#utility.yul\":11674:11683   */\n      dup4\n        /* \"#utility.yul\":11655:11694   */\n      tag_145\n      jump\t// in\n    tag_281:\n        /* \"#utility.yul\":11643:11694   */\n      swap6\n      pop\n        /* \"#utility.yul\":11727:11731   */\n      dup1\n        /* \"#utility.yul\":11723:11732   */\n      not\n        /* \"#utility.yul\":11716:11721   */\n      dup5\n        /* \"#utility.yul\":11712:11733   */\n      and\n        /* \"#utility.yul\":11703:11733   */\n      swap4\n      pop\n        /* \"#utility.yul\":11776:11780   */\n      dup1\n        /* \"#utility.yul\":11766:11774   */\n      dup7\n        /* \"#utility.yul\":11762:11781   */\n      and\n        /* \"#utility.yul\":11755:11760   */\n      dup5\n        /* \"#utility.yul\":11752:11782   */\n      or\n        /* \"#utility.yul\":11742:11782   */\n      swap3\n      pop\n        /* \"#utility.yul\":11471:11788   */\n      pop\n      pop\n        /* \"#utility.yul\":11395:11788   */\n      swap4\n      swap3\n      pop\n      pop\n      pop\n      jump\t// out\n        /* \"#utility.yul\":11794:11871   */\n    tag_147:\n        /* \"#utility.yul\":11831:11838   */\n      0x00\n        /* \"#utility.yul\":11860:11865   */\n      dup2\n        /* \"#utility.yul\":11849:11865   */\n      swap1\n      pop\n        /* \"#utility.yul\":11794:11871   */\n      swap2\n      swap1\n      pop\n      jump\t// out\n        /* \"#utility.yul\":11877:11937   */\n    tag_148:\n        /* \"#utility.yul\":11905:11908   */\n      0x00\n        /* \"#utility.yul\":11926:11931   */\n      dup2\n        /* \"#utility.yul\":11919:11931   */\n      swap1\n      pop\n        /* \"#utility.yul\":11877:11937   */\n      swap2\n      swap1\n      pop\n      jump\t// out\n        /* \"#utility.yul\":11943:12085   */\n    tag_149:\n        /* \"#utility.yul\":11993:12002   */\n      0x00\n        /* \"#utility.yul\":12026:12079   */\n      tag_285\n        /* \"#utility.yul\":12044:12078   */\n      tag_286\n        /* \"#utility.yul\":12053:12077   */\n      tag_287\n        /* \"#utility.yul\":12071:12076   */\n      dup5\n        /* \"#utility.yul\":12053:12077   */\n      tag_147\n      jump\t// in\n    tag_287:\n        /* \"#utility.yul\":12044:12078   */\n      tag_148\n      jump\t// in\n    tag_286:\n        /* \"#utility.yul\":12026:12079   */\n      tag_147\n      jump\t// in\n    tag_285:\n        /* \"#utility.yul\":12013:12079   */\n      swap1\n      pop\n        /* \"#utility.yul\":11943:12085   */\n      swap2\n      swap1\n      pop\n      jump\t// out\n        /* \"#utility.yul\":12091:12166   */\n    tag_150:\n        /* \"#utility.yul\":12134:12137   */\n      0x00\n        /* \"#utility.yul\":12155:12160   */\n      dup2\n        /* \"#utility.yul\":12148:12160   */\n      swap1\n      pop\n        /* \"#utility.yul\":12091:12166   */\n      swap2\n      swap1\n      pop\n      jump\t// out\n        /* \"#utility.yul\":12172:12441   */\n    tag_151:\n        /* \"#utility.yul\":12282:12321   */\n      tag_290\n        /* \"#utility.yul\":12313:12320   */\n      dup4\n        /* \"#utility.yul\":12282:12321   */\n      tag_149\n      jump\t// in\n    tag_290:\n        /* \"#utility.yul\":12343:12434   */\n      tag_291\n        /* \"#utility.yul\":12392:12433   */\n      tag_292\n        /* \"#utility.yul\":12416:12432   */\n      dup3\n        /* \"#utility.yul\":12392:12433   */\n      tag_150\n      jump\t// in\n    tag_292:\n        /* \"#utility.yul\":12384:12390   */\n      dup5\n        /* \"#utility.yul\":12377:12381   */\n      dup5\n        /* \"#utility.yul\":12371:12382   */\n      sload\n        /* \"#utility.yul\":12343:12434   */\n      tag_146\n      jump\t// in\n    tag_291:\n        /* \"#utility.yul\":12337:12341   */\n      dup3\n        /* \"#utility.yul\":12330:12435   */\n      sstore\n        /* \"#utility.yul\":12248:12441   */\n      pop\n        /* \"#utility.yul\":12172:12441   */\n      pop\n      pop\n      pop\n      jump\t// out\n        /* \"#utility.yul\":12447:12520   */\n    tag_152:\n        /* \"#utility.yul\":12492:12495   */\n      0x00\n        /* \"#utility.yul\":12447:12520   */\n      swap1\n      jump\t// out\n        /* \"#utility.yul\":12526:12715   */\n    tag_153:\n        /* \"#utility.yul\":12603:12635   */\n      tag_295\n      tag_152\n      jump\t// in\n    tag_295:\n        /* \"#utility.yul\":12644:12709   */\n      tag_296\n        /* \"#utility.yul\":12702:12708   */\n      dup2\n        /* \"#utility.yul\":12694:12700   */\n      dup5\n        /* \"#utility.yul\":12688:12692   */\n      dup5\n        /* \"#utility.yul\":12644:12709   */\n      tag_151\n      jump\t// in\n    tag_296:\n        /* \"#utility.yul\":12579:12715   */\n      pop\n        /* \"#utility.yul\":12526:12715   */\n      pop\n      pop\n      jump\t// out\n        /* \"#utility.yul\":12721:12907   */\n    tag_154:\n        /* \"#utility.yul\":12781:12901   */\n    tag_298:\n        /* \"#utility.yul\":12798:12801   */\n      dup2\n        /* \"#utility.yul\":12791:12796   */\n      dup2\n        /* \"#utility.yul\":12788:12802   */\n      lt\n        /* \"#utility.yul\":12781:12901   */\n      iszero\n      tag_300\n      jumpi\n        /* \"#utility.yul\":12852:12891   */\n      tag_301\n        /* \"#utility.yul\":12889:12890   */\n      0x00\n        /* \"#utility.yul\":12882:12887   */\n      dup3\n        /* \"#utility.yul\":12852:12891   */\n      tag_153\n      jump\t// in\n    tag_301:\n        /* \"#utility.yul\":12825:12826   */\n      0x01\n        /* \"#utility.yul\":12818:12823   */\n      dup2\n        /* \"#utility.yul\":12814:12827   */\n      add\n        /* \"#utility.yul\":12805:12827   */\n      swap1\n      pop\n        /* \"#utility.yul\":12781:12901   */\n      jump(tag_298)\n    tag_300:\n        /* \"#utility.yul\":12721:12907   */\n      pop\n      pop\n      jump\t// out\n        /* \"#utility.yul\":12913:13456   */\n    tag_155:\n        /* \"#utility.yul\":13014:13016   */\n      0x1f\n        /* \"#utility.yul\":13009:13012   */\n      dup3\n        /* \"#utility.yul\":13006:13017   */\n      gt\n        /* \"#utility.yul\":13003:13449   */\n      iszero\n      tag_303\n      jumpi\n        /* \"#utility.yul\":13048:13086   */\n      tag_304\n        /* \"#utility.yul\":13080:13085   */\n      dup2\n        /* \"#utility.yul\":13048:13086   */\n      tag_143\n      jump\t// in\n    tag_304:\n        /* \"#utility.yul\":13132:13161   */\n      tag_305\n        /* \"#utility.yul\":13150:13160   */\n      dup5\n        /* \"#utility.yul\":13132:13161   */\n      tag_144\n      jump\t// in\n    tag_305:\n        /* \"#utility.yul\":13122:13130   */\n      dup2\n        /* \"#utility.yul\":13118:13162   */\n      add\n        /* \"#utility.yul\":13315:13317   */\n      0x20\n        /* \"#utility.yul\":13303:13313   */\n      dup6\n        /* \"#utility.yul\":13300:13318   */\n      lt\n        /* \"#utility.yul\":13297:13346   */\n      iszero\n      tag_306\n      jumpi\n        /* \"#utility.yul\":13336:13344   */\n      dup2\n        /* \"#utility.yul\":13321:13344   */\n      swap1\n      pop\n        /* \"#utility.yul\":13297:13346   */\n    tag_306:\n        /* \"#utility.yul\":13359:13439   */\n      tag_307\n        /* \"#utility.yul\":13415:13437   */\n      tag_308\n        /* \"#utility.yul\":13433:13436   */\n      dup6\n        /* \"#utility.yul\":13415:13437   */\n      tag_144\n      jump\t// in\n    tag_308:\n        /* \"#utility.yul\":13405:13413   */\n      dup4\n        /* \"#utility.yul\":13401:13438   */\n      add\n        /* \"#utility.yul\":13388:13399   */\n      dup3\n        /* \"#utility.yul\":13359:13439   */\n      tag_154\n      jump\t// in\n    tag_307:\n        /* \"#utility.yul\":13018:13449   */\n      pop\n      pop\n        /* \"#utility.yul\":13003:13449   */\n    tag_303:\n        /* \"#utility.yul\":12913:13456   */\n      pop\n      pop\n      pop\n      jump\t// out\n        /* \"#utility.yul\":13462:13579   */\n    tag_156:\n        /* \"#utility.yul\":13516:13524   */\n      0x00\n        /* \"#utility.yul\":13566:13571   */\n      dup3\n        /* \"#utility.yul\":13560:13564   */\n      dup3\n        /* \"#utility.yul\":13556:13572   */\n      shr\n        /* \"#utility.yul\":13535:13572   */\n      swap1\n      pop\n        /* \"#utility.yul\":13462:13579   */\n      swap3\n      swap2\n      pop\n      pop\n      jump\t// out\n        /* \"#utility.yul\":13585:13754   */\n    tag_157:\n        /* \"#utility.yul\":13629:13635   */\n      0x00\n        /* \"#utility.yul\":13662:13713   */\n      tag_311\n        /* \"#utility.yul\":13710:13711   */\n      0x00\n        /* \"#utility.yul\":13706:13712   */\n      not\n        /* \"#utility.yul\":13698:13703   */\n      dup5\n        /* \"#utility.yul\":13695:13696   */\n      0x08\n        /* \"#utility.yul\":13691:13704   */\n      mul\n        /* \"#utility.yul\":13662:13713   */\n      tag_156\n      jump\t// in\n    tag_311:\n        /* \"#utility.yul\":13658:13714   */\n      not\n        /* \"#utility.yul\":13743:13747   */\n      dup1\n        /* \"#utility.yul\":13737:13741   */\n      dup4\n        /* \"#utility.yul\":13733:13748   */\n      and\n        /* \"#utility.yul\":13723:13748   */\n      swap2\n      pop\n        /* \"#utility.yul\":13636:13754   */\n      pop\n        /* \"#utility.yul\":13585:13754   */\n      swap3\n      swap2\n      pop\n      pop\n      jump\t// out\n        /* \"#utility.yul\":13759:14054   */\n    tag_158:\n        /* \"#utility.yul\":13835:13839   */\n      0x00\n        /* \"#utility.yul\":13981:14010   */\n      tag_313\n        /* \"#utility.yul\":14006:14009   */\n      dup4\n        /* \"#utility.yul\":14000:14004   */\n      dup4\n        /* \"#utility.yul\":13981:14010   */\n      tag_157\n      jump\t// in\n    tag_313:\n        /* \"#utility.yul\":13973:14010   */\n      swap2\n      pop\n        /* \"#utility.yul\":14043:14046   */\n      dup3\n        /* \"#utility.yul\":14040:14041   */\n      0x02\n        /* \"#utility.yul\":14036:14047   */\n      mul\n        /* \"#utility.yul\":14030:14034   */\n      dup3\n        /* \"#utility.yul\":14027:14048   */\n      or\n        /* \"#utility.yul\":14019:14048   */\n      swap1\n      pop\n        /* \"#utility.yul\":13759:14054   */\n      swap3\n      swap2\n      pop\n      pop\n      jump\t// out\n        /* \"#utility.yul\":14059:15454   */\n    tag_59:\n        /* \"#utility.yul\":14176:14213   */\n      tag_315\n        /* \"#utility.yul\":14209:14212   */\n      dup3\n        /* \"#utility.yul\":14176:14213   */\n      tag_132\n      jump\t// in\n    tag_315:\n        /* \"#utility.yul\":14278:14296   */\n      0xffffffffffffffff\n        /* \"#utility.yul\":14270:14276   */\n      dup2\n        /* \"#utility.yul\":14267:14297   */\n      gt\n        /* \"#utility.yul\":14264:14320   */\n      iszero\n      tag_316\n      jumpi\n        /* \"#utility.yul\":14300:14318   */\n      tag_317\n      tag_120\n      jump\t// in\n    tag_317:\n        /* \"#utility.yul\":14264:14320   */\n    tag_316:\n        /* \"#utility.yul\":14344:14382   */\n      tag_318\n        /* \"#utility.yul\":14376:14380   */\n      dup3\n        /* \"#utility.yul\":14370:14381   */\n      sload\n        /* \"#utility.yul\":14344:14382   */\n      tag_78\n      jump\t// in\n    tag_318:\n        /* \"#utility.yul\":14429:14496   */\n      tag_319\n        /* \"#utility.yul\":14489:14495   */\n      dup3\n        /* \"#utility.yul\":14481:14487   */\n      dup3\n        /* \"#utility.yul\":14475:14479   */\n      dup6\n        /* \"#utility.yul\":14429:14496   */\n      tag_155\n      jump\t// in\n    tag_319:\n        /* \"#utility.yul\":14523:14524   */\n      0x00\n        /* \"#utility.yul\":14547:14551   */\n      0x20\n        /* \"#utility.yul\":14534:14551   */\n      swap1\n      pop\n        /* \"#utility.yul\":14579:14581   */\n      0x1f\n        /* \"#utility.yul\":14571:14577   */\n      dup4\n        /* \"#utility.yul\":14568:14582   */\n      gt\n        /* \"#utility.yul\":14596:14597   */\n      0x01\n        /* \"#utility.yul\":14591:15209   */\n      dup2\n      eq\n      tag_321\n      jumpi\n        /* \"#utility.yul\":15253:15254   */\n      0x00\n        /* \"#utility.yul\":15270:15276   */\n      dup5\n        /* \"#utility.yul\":15267:15344   */\n      iszero\n      tag_322\n      jumpi\n        /* \"#utility.yul\":15319:15328   */\n      dup3\n        /* \"#utility.yul\":15314:15317   */\n      dup8\n        /* \"#utility.yul\":15310:15329   */\n      add\n        /* \"#utility.yul\":15304:15330   */\n      mload\n        /* \"#utility.yul\":15295:15330   */\n      swap1\n      pop\n        /* \"#utility.yul\":15267:15344   */\n    tag_322:\n        /* \"#utility.yul\":15370:15437   */\n      tag_323\n        /* \"#utility.yul\":15430:15436   */\n      dup6\n        /* \"#utility.yul\":15423:15428   */\n      dup3\n        /* \"#utility.yul\":15370:15437   */\n      tag_158\n      jump\t// in\n    tag_323:\n        /* \"#utility.yul\":15364:15368   */\n      dup7\n        /* \"#utility.yul\":15357:15438   */\n      sstore\n        /* \"#utility.yul\":15226:15448   */\n      pop\n        /* \"#utility.yul\":14561:15448   */\n      jump(tag_320)\n        /* \"#utility.yul\":14591:15209   */\n    tag_321:\n        /* \"#utility.yul\":14643:14647   */\n      0x1f\n        /* \"#utility.yul\":14639:14648   */\n      not\n        /* \"#utility.yul\":14631:14637   */\n      dup5\n        /* \"#utility.yul\":14627:14649   */\n      and\n        /* \"#utility.yul\":14677:14714   */\n      tag_324\n        /* \"#utility.yul\":14709:14713   */\n      dup7\n        /* \"#utility.yul\":14677:14714   */\n      tag_143\n      jump\t// in\n    tag_324:\n        /* \"#utility.yul\":14736:14737   */\n      0x00\n        /* \"#utility.yul\":14750:14958   */\n    tag_325:\n        /* \"#utility.yul\":14764:14771   */\n      dup3\n        /* \"#utility.yul\":14761:14762   */\n      dup2\n        /* \"#utility.yul\":14758:14772   */\n      lt\n        /* \"#utility.yul\":14750:14958   */\n      iszero\n      tag_327\n      jumpi\n        /* \"#utility.yul\":14843:14852   */\n      dup5\n        /* \"#utility.yul\":14838:14841   */\n      dup10\n        /* \"#utility.yul\":14834:14853   */\n      add\n        /* \"#utility.yul\":14828:14854   */\n      mload\n        /* \"#utility.yul\":14820:14826   */\n      dup3\n        /* \"#utility.yul\":14813:14855   */\n      sstore\n        /* \"#utility.yul\":14894:14895   */\n      0x01\n        /* \"#utility.yul\":14886:14892   */\n      dup3\n        /* \"#utility.yul\":14882:14896   */\n      add\n        /* \"#utility.yul\":14872:14896   */\n      swap2\n      pop\n        /* \"#utility.yul\":14941:14943   */\n      0x20\n        /* \"#utility.yul\":14930:14939   */\n      dup6\n        /* \"#utility.yul\":14926:14944   */\n      add\n        /* \"#utility.yul\":14913:14944   */\n      swap5\n      pop\n        /* \"#utility.yul\":14787:14791   */\n      0x20\n        /* \"#utility.yul\":14784:14785   */\n      dup2\n        /* \"#utility.yul\":14780:14792   */\n      add\n        /* \"#utility.yul\":14775:14792   */\n      swap1\n      pop\n        /* \"#utility.yul\":14750:14958   */\n      jump(tag_325)\n    tag_327:\n        /* \"#utility.yul\":14986:14992   */\n      dup7\n        /* \"#utility.yul\":14977:14984   */\n      dup4\n        /* \"#utility.yul\":14974:14993   */\n      lt\n        /* \"#utility.yul\":14971:15150   */\n      iszero\n      tag_328\n      jumpi\n        /* \"#utility.yul\":15044:15053   */\n      dup5\n        /* \"#utility.yul\":15039:15042   */\n      dup10\n        /* \"#utility.yul\":15035:15054   */\n      add\n        /* \"#utility.yul\":15029:15055   */\n      mload\n        /* \"#utility.yul\":15087:15135   */\n      tag_329\n        /* \"#utility.yul\":15129:15133   */\n      0x1f\n        /* \"#utility.yul\":15121:15127   */\n      dup10\n        /* \"#utility.yul\":15117:15134   */\n      and\n        /* \"#utility.yul\":15106:15115   */\n      dup3\n        /* \"#utility.yul\":15087:15135   */\n      tag_157\n      jump\t// in\n    tag_329:\n        /* \"#utility.yul\":15079:15085   */\n      dup4\n        /* \"#utility.yul\":15072:15136   */\n      sstore\n        /* \"#utility.yul\":14994:15150   */\n      pop\n        /* \"#utility.yul\":14971:15150   */\n    tag_328:\n        /* \"#utility.yul\":15196:15197   */\n      0x01\n        /* \"#utility.yul\":15192:15193   */\n      0x02\n        /* \"#utility.yul\":15184:15190   */\n      dup9\n        /* \"#utility.yul\":15180:15194   */\n      mul\n        /* \"#utility.yul\":15176:15198   */\n      add\n        /* \"#utility.yul\":15170:15174   */\n      dup9\n        /* \"#utility.yul\":15163:15199   */\n      sstore\n        /* \"#utility.yul\":14598:15209   */\n      pop\n      pop\n      pop\n        /* \"#utility.yul\":14561:15448   */\n    tag_320:\n      pop\n        /* \"#utility.yul\":14151:15454   */\n      pop\n      pop\n      pop\n        /* \"#utility.yul\":14059:15454   */\n      pop\n      pop\n      jump\t// out\n\n    auxdata: 0xa2646970667358221220f48d2cda154023eac868a39fe0d68bb98511ae9f9d8045a90a373fb6b5f4d64464736f6c63430008180033\n}\n","bytecode":{"linkReferences":{},"object":"608060405234801561000f575f80fd5b506112848061001d5f395ff3fe608060405234801561000f575f80fd5b5060043610610091575f3560e01c8063b15bf25511610064578063b15bf2551461012d578063c0effb7d14610161578063d8ce65721461017d578063e47766ff146101ae578063ea42c7ef146101ca57610091565b80630e34b00e14610095578063220f8ade146100b15780637f975a37146100e15780639ab1a6cc146100fd575b5f80fd5b6100af60048036038101906100aa9190610b7b565b6101fb565b005b6100cb60048036038101906100c69190610c58565b610313565b6040516100d89190610ccc565b60405180910390f35b6100fb60048036038101906100f69190610c58565b6103e2565b005b61011760048036038101906101129190610ce5565b6104d1565b6040516101249190610ccc565b60405180910390f35b61014760048036038101906101429190610ce5565b610506565b604051610158959493929190610db5565b60405180910390f35b61017b60048036038101906101769190610e1b565b6106fe565b005b61019760048036038101906101929190610ce5565b6107df565b6040516101a5929190610e91565b60405180910390f35b6101c860048036038101906101c39190610ce5565b6108a8565b005b6101e460048036038101906101df9190610ce5565b610951565b6040516101f2929190610efe565b60405180910390f35b5f151560028460405161020e9190610f66565b90815260200160405180910390206003015f9054906101000a900460ff16151514610237575f80fd5b6040518060a001604052808481526020018381526020018281526020016001151581526020015f63ffffffff168152506002846040516102779190610f66565b90815260200160405180910390205f820151815f019081610298919061117f565b5060208201518160010190816102ae919061117f565b5060408201518160020190816102c4919061117f565b506060820151816003015f6101000a81548160ff02191690831515021790555060808201518160030160016101000a81548163ffffffff021916908363ffffffff160217905550905050505050565b5f600115155f846040516103279190610f66565b90815260200160405180910390206001015f9054906101000a900460ff1615151480156103825750600115156001846040516103639190610f66565b90815260200160405180910390205f9054906101000a900460ff161515145b80156103ca57508163ffffffff166002846040516103a09190610f66565b908152602001604051809103902060030160019054906101000a900463ffffffff1663ffffffff16145b156103d857600190506103dc565b5f90505b92915050565b600115156002836040516103f69190610f66565b90815260200160405180910390206003015f9054906101000a900460ff1615151461041f575f80fd5b5f15156001836040516104329190610f66565b90815260200160405180910390205f9054906101000a900460ff16151514610458575f80fd5b600180836040516104699190610f66565b90815260200160405180910390205f6101000a81548160ff0219169083151502179055508060028360405161049e9190610f66565b908152602001604051809103902060030160016101000a81548163ffffffff021916908363ffffffff1602179055505050565b6001818051602081018201805184825260208301602085012081835280955050505050505f915054906101000a900460ff1681565b6002818051602081018201805184825260208301602085012081835280955050505050505f91509050805f01805461053d90610fa9565b80601f016020809104026020016040519081016040528092919081815260200182805461056990610fa9565b80156105b45780601f1061058b576101008083540402835291602001916105b4565b820191905f5260205f20905b81548152906001019060200180831161059757829003601f168201915b5050505050908060010180546105c990610fa9565b80601f01602080910402602001604051908101604052809291908181526020018280546105f590610fa9565b80156106405780601f1061061757610100808354040283529160200191610640565b820191905f5260205f20905b81548152906001019060200180831161062357829003601f168201915b50505050509080600201805461065590610fa9565b80601f016020809104026020016040519081016040528092919081815260200182805461068190610fa9565b80156106cc5780601f106106a3576101008083540402835291602001916106cc565b820191905f5260205f20905b8154815290600101906020018083116106af57829003601f168201915b505050505090806003015f9054906101000a900460ff16908060030160019054906101000a900463ffffffff16905085565b600115156002836040516107129190610f66565b90815260200160405180910390206003015f9054906101000a900460ff1615151461073b575f80fd5b5f15155f8360405161074d9190610f66565b90815260200160405180910390206001015f9054906101000a900460ff16151514610776575f80fd5b805f836040516107869190610f66565b90815260200160405180910390205f0190816107a2919061117f565b5060015f836040516107b49190610f66565b90815260200160405180910390206001015f6101000a81548160ff0219169083151502179055505050565b5f818051602081018201805184825260208301602085012081835280955050505050505f91509050805f01805461081590610fa9565b80601f016020809104026020016040519081016040528092919081815260200182805461084190610fa9565b801561088c5780601f106108635761010080835404028352916020019161088c565b820191905f5260205f20905b81548152906001019060200180831161086f57829003601f168201915b505050505090806001015f9054906101000a900460ff16905082565b60405180604001604052808281526020013373ffffffffffffffffffffffffffffffffffffffff168152506003826040516108e39190610f66565b90815260200160405180910390205f820151815f019081610904919061117f565b506020820151816001015f6101000a81548173ffffffffffffffffffffffffffffffffffffffff021916908373ffffffffffffffffffffffffffffffffffffffff16021790555090505050565b6003818051602081018201805184825260208301602085012081835280955050505050505f91509050805f01805461098890610fa9565b80601f01602080910402602001604051908101604052809291908181526020018280546109b490610fa9565b80156109ff5780601f106109d6576101008083540402835291602001916109ff565b820191905f5260205f20905b8154815290600101906020018083116109e257829003601f168201915b505050505090806001015f9054906101000a900473ffffffffffffffffffffffffffffffffffffffff16905082565b5f604051905090565b5f80fd5b5f80fd5b5f80fd5b5f80fd5b5f601f19601f8301169050919050565b7f4e487b71000000000000000000000000000000000000000000000000000000005f52604160045260245ffd5b610a8d82610a47565b810181811067ffffffffffffffff82111715610aac57610aab610a57565b5b80604052505050565b5f610abe610a2e565b9050610aca8282610a84565b919050565b5f67ffffffffffffffff821115610ae957610ae8610a57565b5b610af282610a47565b9050602081019050919050565b828183375f83830152505050565b5f610b1f610b1a84610acf565b610ab5565b905082815260208101848484011115610b3b57610b3a610a43565b5b610b46848285610aff565b509392505050565b5f82601f830112610b6257610b61610a3f565b5b8135610b72848260208601610b0d565b91505092915050565b5f805f60608486031215610b9257610b91610a37565b5b5f84013567ffffffffffffffff811115610baf57610bae610a3b565b5b610bbb86828701610b4e565b935050602084013567ffffffffffffffff811115610bdc57610bdb610a3b565b5b610be886828701610b4e565b925050604084013567ffffffffffffffff811115610c0957610c08610a3b565b5b610c1586828701610b4e565b9150509250925092565b5f63ffffffff82169050919050565b610c3781610c1f565b8114610c41575f80fd5b50565b5f81359050610c5281610c2e565b92915050565b5f8060408385031215610c6e57610c6d610a37565b5b5f83013567ffffffffffffffff811115610c8b57610c8a610a3b565b5b610c9785828601610b4e565b9250506020610ca885828601610c44565b9150509250929050565b5f8115159050919050565b610cc681610cb2565b82525050565b5f602082019050610cdf5f830184610cbd565b92915050565b5f60208284031215610cfa57610cf9610a37565b5b5f82013567ffffffffffffffff811115610d1757610d16610a3b565b5b610d2384828501610b4e565b91505092915050565b5f81519050919050565b5f82825260208201905092915050565b5f5b83811015610d63578082015181840152602081019050610d48565b5f8484015250505050565b5f610d7882610d2c565b610d828185610d36565b9350610d92818560208601610d46565b610d9b81610a47565b840191505092915050565b610daf81610c1f565b82525050565b5f60a0820190508181035f830152610dcd8188610d6e565b90508181036020830152610de18187610d6e565b90508181036040830152610df58186610d6e565b9050610e046060830185610cbd565b610e116080830184610da6565b9695505050505050565b5f8060408385031215610e3157610e30610a37565b5b5f83013567ffffffffffffffff811115610e4e57610e4d610a3b565b5b610e5a85828601610b4e565b925050602083013567ffffffffffffffff811115610e7b57610e7a610a3b565b5b610e8785828601610b4e565b9150509250929050565b5f6040820190508181035f830152610ea98185610d6e565b9050610eb86020830184610cbd565b9392505050565b5f73ffffffffffffffffffffffffffffffffffffffff82169050919050565b5f610ee882610ebf565b9050919050565b610ef881610ede565b82525050565b5f6040820190508181035f830152610f168185610d6e565b9050610f256020830184610eef565b9392505050565b5f81905092915050565b5f610f4082610d2c565b610f4a8185610f2c565b9350610f5a818560208601610d46565b80840191505092915050565b5f610f718284610f36565b915081905092915050565b7f4e487b71000000000000000000000000000000000000000000000000000000005f52602260045260245ffd5b5f6002820490506001821680610fc057607f821691505b602082108103610fd357610fd2610f7c565b5b50919050565b5f819050815f5260205f209050919050565b5f6020601f8301049050919050565b5f82821b905092915050565b5f600883026110357fffffffffffffffffffffffffffffffffffffffffffffffffffffffffffffffff82610ffa565b61103f8683610ffa565b95508019841693508086168417925050509392505050565b5f819050919050565b5f819050919050565b5f61108361107e61107984611057565b611060565b611057565b9050919050565b5f819050919050565b61109c83611069565b6110b06110a88261108a565b848454611006565b825550505050565b5f90565b6110c46110b8565b6110cf818484611093565b505050565b5b818110156110f2576110e75f826110bc565b6001810190506110d5565b5050565b601f8211156111375761110881610fd9565b61111184610feb565b81016020851015611120578190505b61113461112c85610feb565b8301826110d4565b50505b505050565b5f82821c905092915050565b5f6111575f198460080261113c565b1980831691505092915050565b5f61116f8383611148565b9150826002028217905092915050565b61118882610d2c565b67ffffffffffffffff8111156111a1576111a0610a57565b5b6111ab8254610fa9565b6111b68282856110f6565b5f60209050601f8311600181146111e7575f84156111d5578287015190505b6111df8582611164565b865550611246565b601f1984166111f586610fd9565b5f5b8281101561121c578489015182556001820191506020850194506020810190506111f7565b868310156112395784890151611235601f891682611148565b8355505b6001600288020188555050505b50505050505056fea2646970667358221220f48d2cda154023eac868a39fe0d68bb98511ae9f9d8045a90a373fb6b5f4d64464736f6c63430008180033","opcodes":"PUSH1 0x80 PUSH1 0x40 MSTORE CALLVALUE DUP1 ISZERO PUSH2 0xF JUMPI PUSH0 DUP1 REVERT JUMPDEST POP PUSH2 0x1284 DUP1 PUSH2 0x1D PUSH0 CODECOPY PUSH0 RETURN INVALID PUSH1 0x80 PUSH1 0x40 MSTORE CALLVALUE DUP1 ISZERO PUSH2 0xF JUMPI PUSH0 DUP1 REVERT JUMPDEST POP PUSH1 0x4 CALLDATASIZE LT PUSH2 0x91 JUMPI PUSH0 CALLDATALOAD PUSH1 0xE0 SHR DUP1 PUSH4 0xB15BF255 GT PUSH2 0x64 JUMPI DUP1 PUSH4 0xB15BF255 EQ PUSH2 0x12D JUMPI DUP1 PUSH4 0xC0EFFB7D EQ PUSH2 0x161 JUMPI DUP1 PUSH4 0xD8CE6572 EQ PUSH2 0x17D JUMPI DUP1 PUSH4 0xE47766FF EQ PUSH2 0x1AE JUMPI DUP1 PUSH4 0xEA42C7EF EQ PUSH2 0x1CA JUMPI PUSH2 0x91 JUMP JUMPDEST DUP1 PUSH4 0xE34B00E EQ PUSH2 0x95 JUMPI DUP1 PUSH4 0x220F8ADE EQ PUSH2 0xB1 JUMPI DUP1 PUSH4 0x7F975A37 EQ PUSH2 0xE1 JUMPI DUP1 PUSH4 0x9AB1A6CC EQ PUSH2 0xFD JUMPI JUMPDEST PUSH0 DUP1 REVERT JUMPDEST PUSH2 0xAF PUSH1 0x4 DUP1 CALLDATASIZE SUB DUP2 ADD SWAP1 PUSH2 0xAA SWAP2 SWAP1 PUSH2 0xB7B JUMP JUMPDEST PUSH2 0x1FB JUMP JUMPDEST STOP JUMPDEST PUSH2 0xCB PUSH1 0x4 DUP1 CALLDATASIZE SUB DUP2 ADD SWAP1 PUSH2 0xC6 SWAP2 SWAP1 PUSH2 0xC58 JUMP JUMPDEST PUSH2 0x313 JUMP JUMPDEST PUSH1 0x40 MLOAD PUSH2 0xD8 SWAP2 SWAP1 PUSH2 0xCCC JUMP JUMPDEST PUSH1 0x40 MLOAD DUP1 SWAP2 SUB SWAP1 RETURN JUMPDEST PUSH2 0xFB PUSH1 0x4 DUP1 CALLDATASIZE SUB DUP2 ADD SWAP1 PUSH2 0xF6 SWAP2 SWAP1 PUSH2 0xC58 JUMP JUMPDEST PUSH2 0x3E2 JUMP JUMPDEST STOP JUMPDEST PUSH2 0x117 PUSH1 0x4 DUP1 CALLDATASIZE SUB DUP2 ADD SWAP1 PUSH2 0x112 SWAP2 SWAP1 PUSH2 0xCE5 JUMP JUMPDEST PUSH2 0x4D1 JUMP JUMPDEST PUSH1 0x40 MLOAD PUSH2 0x124 SWAP2 SWAP1 PUSH2 0xCCC JUMP JUMPDEST PUSH1 0x40 MLOAD DUP1 SWAP2 SUB SWAP1 RETURN JUMPDEST PUSH2 0x147 PUSH1 0x4 DUP1 CALLDATASIZE SUB DUP2 ADD SWAP1 PUSH2 0x142 SWAP2 SWAP1 PUSH2 0xCE5 JUMP JUMPDEST PUSH2 0x506 JUMP JUMPDEST PUSH1 0x40 MLOAD PUSH2 0x158 SWAP6 SWAP5 SWAP4 SWAP3 SWAP2 SWAP1 PUSH2 0xDB5 JUMP JUMPDEST PUSH1 0x40 MLOAD DUP1 SWAP2 SUB SWAP1 RETURN JUMPDEST PUSH2 0x17B PUSH1 0x4 DUP1 CALLDATASIZE SUB DUP2 ADD SWAP1 PUSH2 0x176 SWAP2 SWAP1 PUSH2 0xE1B JUMP JUMPDEST PUSH2 0x6FE JUMP JUMPDEST STOP JUMPDEST PUSH2 0x197 PUSH1 0x4 DUP1 CALLDATASIZE SUB DUP2 ADD SWAP1 PUSH2 0x192 SWAP2 SWAP1 PUSH2 0xCE5 JUMP JUMPDEST PUSH2 0x7DF JUMP JUMPDEST PUSH1 0x40 MLOAD PUSH2 0x1A5 SWAP3 SWAP2 SWAP1 PUSH2 0xE91 JUMP JUMPDEST PUSH1 0x40 MLOAD DUP1 SWAP2 SUB SWAP1 RETURN JUMPDEST PUSH2 0x1C8 PUSH1 0x4 DUP1 CALLDATASIZE SUB DUP2 ADD SWAP1 PUSH2 0x1C3 SWAP2 SWAP1 PUSH2 0xCE5 JUMP JUMPDEST PUSH2 0x8A8 JUMP JUMPDEST STOP JUMPDEST PUSH2 0x1E4 PUSH1 0x4 DUP1 CALLDATASIZE SUB DUP2 ADD SWAP1 PUSH2 0x1DF SWAP2 SWAP1 PUSH2 0xCE5 JUMP JUMPDEST PUSH2 0x951 JUMP JUMPDEST PUSH1 0x40 MLOAD PUSH2 0x1F2 SWAP3 SWAP2 SWAP1 PUSH2 0xEFE JUMP JUMPDEST PUSH1 0x40 MLOAD DUP1 SWAP2 SUB SWAP1 RETURN JUMPDEST PUSH0 ISZERO ISZERO PUSH1 0x2 DUP5 PUSH1 0x40 MLOAD PUSH2 0x20E SWAP2 SWAP1 PUSH2 0xF66 JUMP JUMPDEST SWAP1 DUP2 MSTORE PUSH1 0x20 ADD PUSH1 0x40 MLOAD DUP1 SWAP2 SUB SWAP1 KECCAK256 PUSH1 0x3 ADD PUSH0 SWAP1 SLOAD SWAP1 PUSH2 0x100 EXP SWAP1 DIV PUSH1 0xFF AND ISZERO ISZERO EQ PUSH2 0x237 JUMPI PUSH0 DUP1 REVERT JUMPDEST PUSH1 0x40 MLOAD DUP1 PUSH1 0xA0 ADD PUSH1 0x40 MSTORE DUP1 DUP5 DUP2 MSTORE PUSH1 0x20 ADD DUP4 DUP2 MSTORE PUSH1 0x20 ADD DUP3 DUP2 MSTORE PUSH1 0x20 ADD PUSH1 0x1 ISZERO ISZERO DUP2 MSTORE PUSH1 0x20 ADD PUSH0 PUSH4 0xFFFFFFFF AND DUP2 MSTORE POP PUSH1 0x2 DUP5 PUSH1 0x40 MLOAD PUSH2 0x277 SWAP2 SWAP1 PUSH2 0xF66 JUMP JUMPDEST SWAP1 DUP2 MSTORE PUSH1 0x20 ADD PUSH1 0x40 MLOAD DUP1 SWAP2 SUB SWAP1 KECCAK256 PUSH0 DUP3 ADD MLOAD DUP2 PUSH0 ADD SWAP1 DUP2 PUSH2 0x298 SWAP2 SWAP1 PUSH2 0x117F JUMP JUMPDEST POP PUSH1 0x20 DUP3 ADD MLOAD DUP2 PUSH1 0x1 ADD SWAP1 DUP2 PUSH2 0x2AE SWAP2 SWAP1 PUSH2 0x117F JUMP JUMPDEST POP PUSH1 0x40 DUP3 ADD MLOAD DUP2 PUSH1 0x2 ADD SWAP1 DUP2 PUSH2 0x2C4 SWAP2 SWAP1 PUSH2 0x117F JUMP JUMPDEST POP PUSH1 0x60 DUP3 ADD MLOAD DUP2 PUSH1 0x3 ADD PUSH0 PUSH2 0x100 EXP DUP2 SLOAD DUP2 PUSH1 0xFF MUL NOT AND SWAP1 DUP4 ISZERO ISZERO MUL OR SWAP1 SSTORE POP PUSH1 0x80 DUP3 ADD MLOAD DUP2 PUSH1 0x3 ADD PUSH1 0x1 PUSH2 0x100 EXP DUP2 SLOAD DUP2 PUSH4 0xFFFFFFFF MUL NOT AND SWAP1 DUP4 PUSH4 0xFFFFFFFF AND MUL OR SWAP1 SSTORE POP SWAP1 POP POP POP POP POP JUMP JUMPDEST PUSH0 PUSH1 0x1 ISZERO ISZERO PUSH0 DUP5 PUSH1 0x40 MLOAD PUSH2 0x327 SWAP2 SWAP1 PUSH2 0xF66 JUMP JUMPDEST SWAP1 DUP2 MSTORE PUSH1 0x20 ADD PUSH1 0x40 MLOAD DUP1 SWAP2 SUB SWAP1 KECCAK256 PUSH1 0x1 ADD PUSH0 SWAP1 SLOAD SWAP1 PUSH2 0x100 EXP SWAP1 DIV PUSH1 0xFF AND ISZERO ISZERO EQ DUP1 ISZERO PUSH2 0x382 JUMPI POP PUSH1 0x1 ISZERO ISZERO PUSH1 0x1 DUP5 PUSH1 0x40 MLOAD PUSH2 0x363 SWAP2 SWAP1 PUSH2 0xF66 JUMP JUMPDEST SWAP1 DUP2 MSTORE PUSH1 0x20 ADD PUSH1 0x40 MLOAD DUP1 SWAP2 SUB SWAP1 KECCAK256 PUSH0 SWAP1 SLOAD SWAP1 PUSH2 0x100 EXP SWAP1 DIV PUSH1 0xFF AND ISZERO ISZERO EQ JUMPDEST DUP1 ISZERO PUSH2 0x3CA JUMPI POP DUP2 PUSH4 0xFFFFFFFF AND PUSH1 0x2 DUP5 PUSH1 0x40 MLOAD PUSH2 0x3A0 SWAP2 SWAP1 PUSH2 0xF66 JUMP JUMPDEST SWAP1 DUP2 MSTORE PUSH1 0x20 ADD PUSH1 0x40 MLOAD DUP1 SWAP2 SUB SWAP1 KECCAK256 PUSH1 0x3 ADD PUSH1 0x1 SWAP1 SLOAD SWAP1 PUSH2 0x100 EXP SWAP1 DIV PUSH4 0xFFFFFFFF AND PUSH4 0xFFFFFFFF AND EQ JUMPDEST ISZERO PUSH2 0x3D8 JUMPI PUSH1 0x1 SWAP1 POP PUSH2 0x3DC JUMP JUMPDEST PUSH0 SWAP1 POP JUMPDEST SWAP3 SWAP2 POP POP JUMP JUMPDEST PUSH1 0x1 ISZERO ISZERO PUSH1 0x2 DUP4 PUSH1 0x40 MLOAD PUSH2 0x3F6 SWAP2 SWAP1 PUSH2 0xF66 JUMP JUMPDEST SWAP1 DUP2 MSTORE PUSH1 0x20 ADD PUSH1 0x40 MLOAD DUP1 SWAP2 SUB SWAP1 KECCAK256 PUSH1 0x3 ADD PUSH0 SWAP1 SLOAD SWAP1 PUSH2 0x100 EXP SWAP1 DIV PUSH1 0xFF AND ISZERO ISZERO EQ PUSH2 0x41F JUMPI PUSH0 DUP1 REVERT JUMPDEST PUSH0 ISZERO ISZERO PUSH1 0x1 DUP4 PUSH1 0x40 MLOAD PUSH2 0x432 SWAP2 SWAP1 PUSH2 0xF66 JUMP JUMPDEST SWAP1 DUP2 MSTORE PUSH1 0x20 ADD PUSH1 0x40 MLOAD DUP1 SWAP2 SUB SWAP1 KECCAK256 PUSH0 SWAP1 SLOAD SWAP1 PUSH2 0x100 EXP SWAP1 DIV PUSH1 0xFF AND ISZERO ISZERO EQ PUSH2 0x458 JUMPI PUSH0 DUP1 REVERT JUMPDEST PUSH1 0x1 DUP1 DUP4 PUSH1 0x40 MLOAD PUSH2 0x469 SWAP2 SWAP1 PUSH2 0xF66 JUMP JUMPDEST SWAP1 DUP2 MSTORE PUSH1 0x20 ADD PUSH1 0x40 MLOAD DUP1 SWAP2 SUB SWAP1 KECCAK256 PUSH0 PUSH2 0x100 EXP DUP2 SLOAD DUP2 PUSH1 0xFF MUL NOT AND SWAP1 DUP4 ISZERO ISZERO MUL OR SWAP1 SSTORE POP DUP1 PUSH1 0x2 DUP4 PUSH1 0x40 MLOAD PUSH2 0x49E SWAP2 SWAP1 PUSH2 0xF66 JUMP JUMPDEST SWAP1 DUP2 MSTORE PUSH1 0x20 ADD PUSH1 0x40 MLOAD DUP1 SWAP2 SUB SWAP1 KECCAK256 PUSH1 0x3 ADD PUSH1 0x1 PUSH2 0x100 EXP DUP2 SLOAD DUP2 PUSH4 0xFFFFFFFF MUL NOT AND SWAP1 DUP4 PUSH4 0xFFFFFFFF AND MUL OR SWAP1 SSTORE POP POP POP JUMP JUMPDEST PUSH1 0x1 DUP2 DUP1 MLOAD PUSH1 0x20 DUP2 ADD DUP3 ADD DUP1 MLOAD DUP5 DUP3 MSTORE PUSH1 0x20 DUP4 ADD PUSH1 0x20 DUP6 ADD KECCAK256 DUP2 DUP4 MSTORE DUP1 SWAP6 POP POP POP POP POP POP PUSH0 SWAP2 POP SLOAD SWAP1 PUSH2 0x100 EXP SWAP1 DIV PUSH1 0xFF AND DUP2 JUMP JUMPDEST PUSH1 0x2 DUP2 DUP1 MLOAD PUSH1 0x20 DUP2 ADD DUP3 ADD DUP1 MLOAD DUP5 DUP3 MSTORE PUSH1 0x20 DUP4 ADD PUSH1 0x20 DUP6 ADD KECCAK256 DUP2 DUP4 MSTORE DUP1 SWAP6 POP POP POP POP POP POP PUSH0 SWAP2 POP SWAP1 POP DUP1 PUSH0 ADD DUP1 SLOAD PUSH2 0x53D SWAP1 PUSH2 0xFA9 JUMP JUMPDEST DUP1 PUSH1 0x1F ADD PUSH1 0x20 DUP1 SWAP2 DIV MUL PUSH1 0x20 ADD PUSH1 0x40 MLOAD SWAP1 DUP2 ADD PUSH1 0x40 MSTORE DUP1 SWAP3 SWAP2 SWAP1 DUP2 DUP2 MSTORE PUSH1 0x20 ADD DUP3 DUP1 SLOAD PUSH2 0x569 SWAP1 PUSH2 0xFA9 JUMP JUMPDEST DUP1 ISZERO PUSH2 0x5B4 JUMPI DUP1 PUSH1 0x1F LT PUSH2 0x58B JUMPI PUSH2 0x100 DUP1 DUP4 SLOAD DIV MUL DUP4 MSTORE SWAP2 PUSH1 0x20 ADD SWAP2 PUSH2 0x5B4 JUMP JUMPDEST DUP3 ADD SWAP2 SWAP1 PUSH0 MSTORE PUSH1 0x20 PUSH0 KECCAK256 SWAP1 JUMPDEST DUP2 SLOAD DUP2 MSTORE SWAP1 PUSH1 0x1 ADD SWAP1 PUSH1 0x20 ADD DUP1 DUP4 GT PUSH2 0x597 JUMPI DUP3 SWAP1 SUB PUSH1 0x1F AND DUP3 ADD SWAP2 JUMPDEST POP POP POP POP POP SWAP1 DUP1 PUSH1 0x1 ADD DUP1 SLOAD PUSH2 0x5C9 SWAP1 PUSH2 0xFA9 JUMP JUMPDEST DUP1 PUSH1 0x1F ADD PUSH1 0x20 DUP1 SWAP2 DIV MUL PUSH1 0x20 ADD PUSH1 0x40 MLOAD SWAP1 DUP2 ADD PUSH1 0x40 MSTORE DUP1 SWAP3 SWAP2 SWAP1 DUP2 DUP2 MSTORE PUSH1 0x20 ADD DUP3 DUP1 SLOAD PUSH2 0x5F5 SWAP1 PUSH2 0xFA9 JUMP JUMPDEST DUP1 ISZERO PUSH2 0x640 JUMPI DUP1 PUSH1 0x1F LT PUSH2 0x617 JUMPI PUSH2 0x100 DUP1 DUP4 SLOAD DIV MUL DUP4 MSTORE SWAP2 PUSH1 0x20 ADD SWAP2 PUSH2 0x640 JUMP JUMPDEST DUP3 ADD SWAP2 SWAP1 PUSH0 MSTORE PUSH1 0x20 PUSH0 KECCAK256 SWAP1 JUMPDEST DUP2 SLOAD DUP2 MSTORE SWAP1 PUSH1 0x1 ADD SWAP1 PUSH1 0x20 ADD DUP1 DUP4 GT PUSH2 0x623 JUMPI DUP3 SWAP1 SUB PUSH1 0x1F AND DUP3 ADD SWAP2 JUMPDEST POP POP POP POP POP SWAP1 DUP1 PUSH1 0x2 ADD DUP1 SLOAD PUSH2 0x655 SWAP1 PUSH2 0xFA9 JUMP JUMPDEST DUP1 PUSH1 0x1F ADD PUSH1 0x20 DUP1 SWAP2 DIV MUL PUSH1 0x20 ADD PUSH1 0x40 MLOAD SWAP1 DUP2 ADD PUSH1 0x40 MSTORE DUP1 SWAP3 SWAP2 SWAP1 DUP2 DUP2 MSTORE PUSH1 0x20 ADD DUP3 DUP1 SLOAD PUSH2 0x681 SWAP1 PUSH2 0xFA9 JUMP JUMPDEST DUP1 ISZERO PUSH2 0x6CC JUMPI DUP1 PUSH1 0x1F LT PUSH2 0x6A3 JUMPI PUSH2 0x100 DUP1 DUP4 SLOAD DIV MUL DUP4 MSTORE SWAP2 PUSH1 0x20 ADD SWAP2 PUSH2 0x6CC JUMP JUMPDEST DUP3 ADD SWAP2 SWAP1 PUSH0 MSTORE PUSH1 0x20 PUSH0 KECCAK256 SWAP1 JUMPDEST DUP2 SLOAD DUP2 MSTORE SWAP1 PUSH1 0x1 ADD SWAP1 PUSH1 0x20 ADD DUP1 DUP4 GT PUSH2 0x6AF JUMPI DUP3 SWAP1 SUB PUSH1 0x1F AND DUP3 ADD SWAP2 JUMPDEST POP POP POP POP POP SWAP1 DUP1 PUSH1 0x3 ADD PUSH0 SWAP1 SLOAD SWAP1 PUSH2 0x100 EXP SWAP1 DIV PUSH1 0xFF AND SWAP1 DUP1 PUSH1 0x3 ADD PUSH1 0x1 SWAP1 SLOAD SWAP1 PUSH2 0x100 EXP SWAP1 DIV PUSH4 0xFFFFFFFF AND SWAP1 POP DUP6 JUMP JUMPDEST PUSH1 0x1 ISZERO ISZERO PUSH1 0x2 DUP4 PUSH1 0x40 MLOAD PUSH2 0x712 SWAP2 SWAP1 PUSH2 0xF66 JUMP JUMPDEST SWAP1 DUP2 MSTORE PUSH1 0x20 ADD PUSH1 0x40 MLOAD DUP1 SWAP2 SUB SWAP1 KECCAK256 PUSH1 0x3 ADD PUSH0 SWAP1 SLOAD SWAP1 PUSH2 0x100 EXP SWAP1 DIV PUSH1 0xFF AND ISZERO ISZERO EQ PUSH2 0x73B JUMPI PUSH0 DUP1 REVERT JUMPDEST PUSH0 ISZERO ISZERO PUSH0 DUP4 PUSH1 0x40 MLOAD PUSH2 0x74D SWAP2 SWAP1 PUSH2 0xF66 JUMP JUMPDEST SWAP1 DUP2 MSTORE PUSH1 0x20 ADD PUSH1 0x40 MLOAD DUP1 SWAP2 SUB SWAP1 KECCAK256 PUSH1 0x1 ADD PUSH0 SWAP1 SLOAD SWAP1 PUSH2 0x100 EXP SWAP1 DIV PUSH1 0xFF AND ISZERO ISZERO EQ PUSH2 0x776 JUMPI PUSH0 DUP1 REVERT JUMPDEST DUP1 PUSH0 DUP4 PUSH1 0x40 MLOAD PUSH2 0x786 SWAP2 SWAP1 PUSH2 0xF66 JUMP JUMPDEST SWAP1 DUP2 MSTORE PUSH1 0x20 ADD PUSH1 0x40 MLOAD DUP1 SWAP2 SUB SWAP1 KECCAK256 PUSH0 ADD SWAP1 DUP2 PUSH2 0x7A2 SWAP2 SWAP1 PUSH2 0x117F JUMP JUMPDEST POP PUSH1 0x1 PUSH0 DUP4 PUSH1 0x40 MLOAD PUSH2 0x7B4 SWAP2 SWAP1 PUSH2 0xF66 JUMP JUMPDEST SWAP1 DUP2 MSTORE PUSH1 0x20 ADD PUSH1 0x40 MLOAD DUP1 SWAP2 SUB SWAP1 KECCAK256 PUSH1 0x1 ADD PUSH0 PUSH2 0x100 EXP DUP2 SLOAD DUP2 PUSH1 0xFF MUL NOT AND SWAP1 DUP4 ISZERO ISZERO MUL OR SWAP1 SSTORE POP POP POP JUMP JUMPDEST PUSH0 DUP2 DUP1 MLOAD PUSH1 0x20 DUP2 ADD DUP3 ADD DUP1 MLOAD DUP5 DUP3 MSTORE PUSH1 0x20 DUP4 ADD PUSH1 0x20 DUP6 ADD KECCAK256 DUP2 DUP4 MSTORE DUP1 SWAP6 POP POP POP POP POP POP PUSH0 SWAP2 POP SWAP1 POP DUP1 PUSH0 ADD DUP1 SLOAD PUSH2 0x815 SWAP1 PUSH2 0xFA9 JUMP JUMPDEST DUP1 PUSH1 0x1F ADD PUSH1 0x20 DUP1 SWAP2 DIV MUL PUSH1 0x20 ADD PUSH1 0x40 MLOAD SWAP1 DUP2 ADD PUSH1 0x40 MSTORE DUP1 SWAP3 SWAP2 SWAP1 DUP2 DUP2 MSTORE PUSH1 0x20 ADD DUP3 DUP1 SLOAD PUSH2 0x841 SWAP1 PUSH2 0xFA9 JUMP JUMPDEST DUP1 ISZERO PUSH2 0x88C JUMPI DUP1 PUSH1 0x1F LT PUSH2 0x863 JUMPI PUSH2 0x100 DUP1 DUP4 SLOAD DIV MUL DUP4 MSTORE SWAP2 PUSH1 0x20 ADD SWAP2 PUSH2 0x88C JUMP JUMPDEST DUP3 ADD SWAP2 SWAP1 PUSH0 MSTORE PUSH1 0x20 PUSH0 KECCAK256 SWAP1 JUMPDEST DUP2 SLOAD DUP2 MSTORE SWAP1 PUSH1 0x1 ADD SWAP1 PUSH1 0x20 ADD DUP1 DUP4 GT PUSH2 0x86F JUMPI DUP3 SWAP1 SUB PUSH1 0x1F AND DUP3 ADD SWAP2 JUMPDEST POP POP POP POP POP SWAP1 DUP1 PUSH1 0x1 ADD PUSH0 SWAP1 SLOAD SWAP1 PUSH2 0x100 EXP SWAP1 DIV PUSH1 0xFF AND SWAP1 POP DUP3 JUMP JUMPDEST PUSH1 0x40 MLOAD DUP1 PUSH1 0x40 ADD PUSH1 0x40 MSTORE DUP1 DUP3 DUP2 MSTORE PUSH1 0x20 ADD CALLER PUSH20 0xFFFFFFFFFFFFFFFFFFFFFFFFFFFFFFFFFFFFFFFF AND DUP2 MSTORE POP PUSH1 0x3 DUP3 PUSH1 0x40 MLOAD PUSH2 0x8E3 SWAP2 SWAP1 PUSH2 0xF66 JUMP JUMPDEST SWAP1 DUP2 MSTORE PUSH1 0x20 ADD PUSH1 0x40 MLOAD DUP1 SWAP2 SUB SWAP1 KECCAK256 PUSH0 DUP3 ADD MLOAD DUP2 PUSH0 ADD SWAP1 DUP2 PUSH2 0x904 SWAP2 SWAP1 PUSH2 0x117F JUMP JUMPDEST POP PUSH1 0x20 DUP3 ADD MLOAD DUP2 PUSH1 0x1 ADD PUSH0 PUSH2 0x100 EXP DUP2 SLOAD DUP2 PUSH20 0xFFFFFFFFFFFFFFFFFFFFFFFFFFFFFFFFFFFFFFFF MUL NOT AND SWAP1 DUP4 PUSH20 0xFFFFFFFFFFFFFFFFFFFFFFFFFFFFFFFFFFFFFFFF AND MUL OR SWAP1 SSTORE POP SWAP1 POP POP POP JUMP JUMPDEST PUSH1 0x3 DUP2 DUP1 MLOAD PUSH1 0x20 DUP2 ADD DUP3 ADD DUP1 MLOAD DUP5 DUP3 MSTORE PUSH1 0x20 DUP4 ADD PUSH1 0x20 DUP6 ADD KECCAK256 DUP2 DUP4 MSTORE DUP1 SWAP6 POP POP POP POP POP POP PUSH0 SWAP2 POP SWAP1 POP DUP1 PUSH0 ADD DUP1 SLOAD PUSH2 0x988 SWAP1 PUSH2 0xFA9 JUMP JUMPDEST DUP1 PUSH1 0x1F ADD PUSH1 0x20 DUP1 SWAP2 DIV MUL PUSH1 0x20 ADD PUSH1 0x40 MLOAD SWAP1 DUP2 ADD PUSH1 0x40 MSTORE DUP1 SWAP3 SWAP2 SWAP1 DUP2 DUP2 MSTORE PUSH1 0x20 ADD DUP3 DUP1 SLOAD PUSH2 0x9B4 SWAP1 PUSH2 0xFA9 JUMP JUMPDEST DUP1 ISZERO PUSH2 0x9FF JUMPI DUP1 PUSH1 0x1F LT PUSH2 0x9D6 JUMPI PUSH2 0x100 DUP1 DUP4 SLOAD DIV MUL DUP4 MSTORE SWAP2 PUSH1 0x20 ADD SWAP2 PUSH2 0x9FF JUMP JUMPDEST DUP3 ADD SWAP2 SWAP1 PUSH0 MSTORE PUSH1 0x20 PUSH0 KECCAK256 SWAP1 JUMPDEST DUP2 SLOAD DUP2 MSTORE SWAP1 PUSH1 0x1 ADD SWAP1 PUSH1 0x20 ADD DUP1 DUP4 GT PUSH2 0x9E2 JUMPI DUP3 SWAP1 SUB PUSH1 0x1F AND DUP3 ADD SWAP2 JUMPDEST POP POP POP POP POP SWAP1 DUP1 PUSH1 0x1 ADD PUSH0 SWAP1 SLOAD SWAP1 PUSH2 0x100 EXP SWAP1 DIV PUSH20 0xFFFFFFFFFFFFFFFFFFFFFFFFFFFFFFFFFFFFFFFF AND SWAP1 POP DUP3 JUMP JUMPDEST PUSH0 PUSH1 0x40 MLOAD SWAP1 POP SWAP1 JUMP JUMPDEST PUSH0 DUP1 REVERT JUMPDEST PUSH0 DUP1 REVERT JUMPDEST PUSH0 DUP1 REVERT JUMPDEST PUSH0 DUP1 REVERT JUMPDEST PUSH0 PUSH1 0x1F NOT PUSH1 0x1F DUP4 ADD AND SWAP1 POP SWAP2 SWAP1 POP JUMP JUMPDEST PUSH32 0x4E487B7100000000000000000000000000000000000000000000000000000000 PUSH0 MSTORE PUSH1 0x41 PUSH1 0x4 MSTORE PUSH1 0x24 PUSH0 REVERT JUMPDEST PUSH2 0xA8D DUP3 PUSH2 0xA47 JUMP JUMPDEST DUP2 ADD DUP2 DUP2 LT PUSH8 0xFFFFFFFFFFFFFFFF DUP3 GT OR ISZERO PUSH2 0xAAC JUMPI PUSH2 0xAAB PUSH2 0xA57 JUMP JUMPDEST JUMPDEST DUP1 PUSH1 0x40 MSTORE POP POP POP JUMP JUMPDEST PUSH0 PUSH2 0xABE PUSH2 0xA2E JUMP JUMPDEST SWAP1 POP PUSH2 0xACA DUP3 DUP3 PUSH2 0xA84 JUMP JUMPDEST SWAP2 SWAP1 POP JUMP JUMPDEST PUSH0 PUSH8 0xFFFFFFFFFFFFFFFF DUP3 GT ISZERO PUSH2 0xAE9 JUMPI PUSH2 0xAE8 PUSH2 0xA57 JUMP JUMPDEST JUMPDEST PUSH2 0xAF2 DUP3 PUSH2 0xA47 JUMP JUMPDEST SWAP1 POP PUSH1 0x20 DUP2 ADD SWAP1 POP SWAP2 SWAP1 POP JUMP JUMPDEST DUP3 DUP2 DUP4 CALLDATACOPY PUSH0 DUP4 DUP4 ADD MSTORE POP POP POP JUMP JUMPDEST PUSH0 PUSH2 0xB1F PUSH2 0xB1A DUP5 PUSH2 0xACF JUMP JUMPDEST PUSH2 0xAB5 JUMP JUMPDEST SWAP1 POP DUP3 DUP2 MSTORE PUSH1 0x20 DUP2 ADD DUP5 DUP5 DUP5 ADD GT ISZERO PUSH2 0xB3B JUMPI PUSH2 0xB3A PUSH2 0xA43 JUMP JUMPDEST JUMPDEST PUSH2 0xB46 DUP5 DUP3 DUP6 PUSH2 0xAFF JUMP JUMPDEST POP SWAP4 SWAP3 POP POP POP JUMP JUMPDEST PUSH0 DUP3 PUSH1 0x1F DUP4 ADD SLT PUSH2 0xB62 JUMPI PUSH2 0xB61 PUSH2 0xA3F JUMP JUMPDEST JUMPDEST DUP2 CALLDATALOAD PUSH2 0xB72 DUP5 DUP3 PUSH1 0x20 DUP7 ADD PUSH2 0xB0D JUMP JUMPDEST SWAP2 POP POP SWAP3 SWAP2 POP POP JUMP JUMPDEST PUSH0 DUP1 PUSH0 PUSH1 0x60 DUP5 DUP7 SUB SLT ISZERO PUSH2 0xB92 JUMPI PUSH2 0xB91 PUSH2 0xA37 JUMP JUMPDEST JUMPDEST PUSH0 DUP5 ADD CALLDATALOAD PUSH8 0xFFFFFFFFFFFFFFFF DUP2 GT ISZERO PUSH2 0xBAF JUMPI PUSH2 0xBAE PUSH2 0xA3B JUMP JUMPDEST JUMPDEST PUSH2 0xBBB DUP7 DUP3 DUP8 ADD PUSH2 0xB4E JUMP JUMPDEST SWAP4 POP POP PUSH1 0x20 DUP5 ADD CALLDATALOAD PUSH8 0xFFFFFFFFFFFFFFFF DUP2 GT ISZERO PUSH2 0xBDC JUMPI PUSH2 0xBDB PUSH2 0xA3B JUMP JUMPDEST JUMPDEST PUSH2 0xBE8 DUP7 DUP3 DUP8 ADD PUSH2 0xB4E JUMP JUMPDEST SWAP3 POP POP PUSH1 0x40 DUP5 ADD CALLDATALOAD PUSH8 0xFFFFFFFFFFFFFFFF DUP2 GT ISZERO PUSH2 0xC09 JUMPI PUSH2 0xC08 PUSH2 0xA3B JUMP JUMPDEST JUMPDEST PUSH2 0xC15 DUP7 DUP3 DUP8 ADD PUSH2 0xB4E JUMP JUMPDEST SWAP2 POP POP SWAP3 POP SWAP3 POP SWAP3 JUMP JUMPDEST PUSH0 PUSH4 0xFFFFFFFF DUP3 AND SWAP1 POP SWAP2 SWAP1 POP JUMP JUMPDEST PUSH2 0xC37 DUP2 PUSH2 0xC1F JUMP JUMPDEST DUP2 EQ PUSH2 0xC41 JUMPI PUSH0 DUP1 REVERT JUMPDEST POP JUMP JUMPDEST PUSH0 DUP2 CALLDATALOAD SWAP1 POP PUSH2 0xC52 DUP2 PUSH2 0xC2E JUMP JUMPDEST SWAP3 SWAP2 POP POP JUMP JUMPDEST PUSH0 DUP1 PUSH1 0x40 DUP4 DUP6 SUB SLT ISZERO PUSH2 0xC6E JUMPI PUSH2 0xC6D PUSH2 0xA37 JUMP JUMPDEST JUMPDEST PUSH0 DUP4 ADD CALLDATALOAD PUSH8 0xFFFFFFFFFFFFFFFF DUP2 GT ISZERO PUSH2 0xC8B JUMPI PUSH2 0xC8A PUSH2 0xA3B JUMP JUMPDEST JUMPDEST PUSH2 0xC97 DUP6 DUP3 DUP7 ADD PUSH2 0xB4E JUMP JUMPDEST SWAP3 POP POP PUSH1 0x20 PUSH2 0xCA8 DUP6 DUP3 DUP7 ADD PUSH2 0xC44 JUMP JUMPDEST SWAP2 POP POP SWAP3 POP SWAP3 SWAP1 POP JUMP JUMPDEST PUSH0 DUP2 ISZERO ISZERO SWAP1 POP SWAP2 SWAP1 POP JUMP JUMPDEST PUSH2 0xCC6 DUP2 PUSH2 0xCB2 JUMP JUMPDEST DUP3 MSTORE POP POP JUMP JUMPDEST PUSH0 PUSH1 0x20 DUP3 ADD SWAP1 POP PUSH2 0xCDF PUSH0 DUP4 ADD DUP5 PUSH2 0xCBD JUMP JUMPDEST SWAP3 SWAP2 POP POP JUMP JUMPDEST PUSH0 PUSH1 0x20 DUP3 DUP5 SUB SLT ISZERO PUSH2 0xCFA JUMPI PUSH2 0xCF9 PUSH2 0xA37 JUMP JUMPDEST JUMPDEST PUSH0 DUP3 ADD CALLDATALOAD PUSH8 0xFFFFFFFFFFFFFFFF DUP2 GT ISZERO PUSH2 0xD17 JUMPI PUSH2 0xD16 PUSH2 0xA3B JUMP JUMPDEST JUMPDEST PUSH2 0xD23 DUP5 DUP3 DUP6 ADD PUSH2 0xB4E JUMP JUMPDEST SWAP2 POP POP SWAP3 SWAP2 POP POP JUMP JUMPDEST PUSH0 DUP2 MLOAD SWAP1 POP SWAP2 SWAP1 POP JUMP JUMPDEST PUSH0 DUP3 DUP3 MSTORE PUSH1 0x20 DUP3 ADD SWAP1 POP SWAP3 SWAP2 POP POP JUMP JUMPDEST PUSH0 JUMPDEST DUP4 DUP2 LT ISZERO PUSH2 0xD63 JUMPI DUP1 DUP3 ADD MLOAD DUP2 DUP5 ADD MSTORE PUSH1 0x20 DUP2 ADD SWAP1 POP PUSH2 0xD48 JUMP JUMPDEST PUSH0 DUP5 DUP5 ADD MSTORE POP POP POP POP JUMP JUMPDEST PUSH0 PUSH2 0xD78 DUP3 PUSH2 0xD2C JUMP JUMPDEST PUSH2 0xD82 DUP2 DUP6 PUSH2 0xD36 JUMP JUMPDEST SWAP4 POP PUSH2 0xD92 DUP2 DUP6 PUSH1 0x20 DUP7 ADD PUSH2 0xD46 JUMP JUMPDEST PUSH2 0xD9B DUP2 PUSH2 0xA47 JUMP JUMPDEST DUP5 ADD SWAP2 POP POP SWAP3 SWAP2 POP POP JUMP JUMPDEST PUSH2 0xDAF DUP2 PUSH2 0xC1F JUMP JUMPDEST DUP3 MSTORE POP POP JUMP JUMPDEST PUSH0 PUSH1 0xA0 DUP3 ADD SWAP1 POP DUP2 DUP2 SUB PUSH0 DUP4 ADD MSTORE PUSH2 0xDCD DUP2 DUP9 PUSH2 0xD6E JUMP JUMPDEST SWAP1 POP DUP2 DUP2 SUB PUSH1 0x20 DUP4 ADD MSTORE PUSH2 0xDE1 DUP2 DUP8 PUSH2 0xD6E JUMP JUMPDEST SWAP1 POP DUP2 DUP2 SUB PUSH1 0x40 DUP4 ADD MSTORE PUSH2 0xDF5 DUP2 DUP7 PUSH2 0xD6E JUMP JUMPDEST SWAP1 POP PUSH2 0xE04 PUSH1 0x60 DUP4 ADD DUP6 PUSH2 0xCBD JUMP JUMPDEST PUSH2 0xE11 PUSH1 0x80 DUP4 ADD DUP5 PUSH2 0xDA6 JUMP JUMPDEST SWAP7 SWAP6 POP POP POP POP POP POP JUMP JUMPDEST PUSH0 DUP1 PUSH1 0x40 DUP4 DUP6 SUB SLT ISZERO PUSH2 0xE31 JUMPI PUSH2 0xE30 PUSH2 0xA37 JUMP JUMPDEST JUMPDEST PUSH0 DUP4 ADD CALLDATALOAD PUSH8 0xFFFFFFFFFFFFFFFF DUP2 GT ISZERO PUSH2 0xE4E JUMPI PUSH2 0xE4D PUSH2 0xA3B JUMP JUMPDEST JUMPDEST PUSH2 0xE5A DUP6 DUP3 DUP7 ADD PUSH2 0xB4E JUMP JUMPDEST SWAP3 POP POP PUSH1 0x20 DUP4 ADD CALLDATALOAD PUSH8 0xFFFFFFFFFFFFFFFF DUP2 GT ISZERO PUSH2 0xE7B JUMPI PUSH2 0xE7A PUSH2 0xA3B JUMP JUMPDEST JUMPDEST PUSH2 0xE87 DUP6 DUP3 DUP7 ADD PUSH2 0xB4E JUMP JUMPDEST SWAP2 POP POP SWAP3 POP SWAP3 SWAP1 POP JUMP JUMPDEST PUSH0 PUSH1 0x40 DUP3 ADD SWAP1 POP DUP2 DUP2 SUB PUSH0 DUP4 ADD MSTORE PUSH2 0xEA9 DUP2 DUP6 PUSH2 0xD6E JUMP JUMPDEST SWAP1 POP PUSH2 0xEB8 PUSH1 0x20 DUP4 ADD DUP5 PUSH2 0xCBD JUMP JUMPDEST SWAP4 SWAP3 POP POP POP JUMP JUMPDEST PUSH0 PUSH20 0xFFFFFFFFFFFFFFFFFFFFFFFFFFFFFFFFFFFFFFFF DUP3 AND SWAP1 POP SWAP2 SWAP1 POP JUMP JUMPDEST PUSH0 PUSH2 0xEE8 DUP3 PUSH2 0xEBF JUMP JUMPDEST SWAP1 POP SWAP2 SWAP1 POP JUMP JUMPDEST PUSH2 0xEF8 DUP2 PUSH2 0xEDE JUMP JUMPDEST DUP3 MSTORE POP POP JUMP JUMPDEST PUSH0 PUSH1 0x40 DUP3 ADD SWAP1 POP DUP2 DUP2 SUB PUSH0 DUP4 ADD MSTORE PUSH2 0xF16 DUP2 DUP6 PUSH2 0xD6E JUMP JUMPDEST SWAP1 POP PUSH2 0xF25 PUSH1 0x20 DUP4 ADD DUP5 PUSH2 0xEEF JUMP JUMPDEST SWAP4 SWAP3 POP POP POP JUMP JUMPDEST PUSH0 DUP2 SWAP1 POP SWAP3 SWAP2 POP POP JUMP JUMPDEST PUSH0 PUSH2 0xF40 DUP3 PUSH2 0xD2C JUMP JUMPDEST PUSH2 0xF4A DUP2 DUP6 PUSH2 0xF2C JUMP JUMPDEST SWAP4 POP PUSH2 0xF5A DUP2 DUP6 PUSH1 0x20 DUP7 ADD PUSH2 0xD46 JUMP JUMPDEST DUP1 DUP5 ADD SWAP2 POP POP SWAP3 SWAP2 POP POP JUMP JUMPDEST PUSH0 PUSH2 0xF71 DUP3 DUP5 PUSH2 0xF36 JUMP JUMPDEST SWAP2 POP DUP2 SWAP1 POP SWAP3 SWAP2 POP POP JUMP JUMPDEST PUSH32 0x4E487B7100000000000000000000000000000000000000000000000000000000 PUSH0 MSTORE PUSH1 0x22 PUSH1 0x4 MSTORE PUSH1 0x24 PUSH0 REVERT JUMPDEST PUSH0 PUSH1 0x2 DUP3 DIV SWAP1 POP PUSH1 0x1 DUP3 AND DUP1 PUSH2 0xFC0 JUMPI PUSH1 0x7F DUP3 AND SWAP2 POP JUMPDEST PUSH1 0x20 DUP3 LT DUP2 SUB PUSH2 0xFD3 JUMPI PUSH2 0xFD2 PUSH2 0xF7C JUMP JUMPDEST JUMPDEST POP SWAP2 SWAP1 POP JUMP JUMPDEST PUSH0 DUP2 SWAP1 POP DUP2 PUSH0 MSTORE PUSH1 0x20 PUSH0 KECCAK256 SWAP1 POP SWAP2 SWAP1 POP JUMP JUMPDEST PUSH0 PUSH1 0x20 PUSH1 0x1F DUP4 ADD DIV SWAP1 POP SWAP2 SWAP1 POP JUMP JUMPDEST PUSH0 DUP3 DUP3 SHL SWAP1 POP SWAP3 SWAP2 POP POP JUMP JUMPDEST PUSH0 PUSH1 0x8 DUP4 MUL PUSH2 0x1035 PUSH32 0xFFFFFFFFFFFFFFFFFFFFFFFFFFFFFFFFFFFFFFFFFFFFFFFFFFFFFFFFFFFFFFFF DUP3 PUSH2 0xFFA JUMP JUMPDEST PUSH2 0x103F DUP7 DUP4 PUSH2 0xFFA JUMP JUMPDEST SWAP6 POP DUP1 NOT DUP5 AND SWAP4 POP DUP1 DUP7 AND DUP5 OR SWAP3 POP POP POP SWAP4 SWAP3 POP POP POP JUMP JUMPDEST PUSH0 DUP2 SWAP1 POP SWAP2 SWAP1 POP JUMP JUMPDEST PUSH0 DUP2 SWAP1 POP SWAP2 SWAP1 POP JUMP JUMPDEST PUSH0 PUSH2 0x1083 PUSH2 0x107E PUSH2 0x1079 DUP5 PUSH2 0x1057 JUMP JUMPDEST PUSH2 0x1060 JUMP JUMPDEST PUSH2 0x1057 JUMP JUMPDEST SWAP1 POP SWAP2 SWAP1 POP JUMP JUMPDEST PUSH0 DUP2 SWAP1 POP SWAP2 SWAP1 POP JUMP JUMPDEST PUSH2 0x109C DUP4 PUSH2 0x1069 JUMP JUMPDEST PUSH2 0x10B0 PUSH2 0x10A8 DUP3 PUSH2 0x108A JUMP JUMPDEST DUP5 DUP5 SLOAD PUSH2 0x1006 JUMP JUMPDEST DUP3 SSTORE POP POP POP POP JUMP JUMPDEST PUSH0 SWAP1 JUMP JUMPDEST PUSH2 0x10C4 PUSH2 0x10B8 JUMP JUMPDEST PUSH2 0x10CF DUP2 DUP5 DUP5 PUSH2 0x1093 JUMP JUMPDEST POP POP POP JUMP JUMPDEST JUMPDEST DUP2 DUP2 LT ISZERO PUSH2 0x10F2 JUMPI PUSH2 0x10E7 PUSH0 DUP3 PUSH2 0x10BC JUMP JUMPDEST PUSH1 0x1 DUP2 ADD SWAP1 POP PUSH2 0x10D5 JUMP JUMPDEST POP POP JUMP JUMPDEST PUSH1 0x1F DUP3 GT ISZERO PUSH2 0x1137 JUMPI PUSH2 0x1108 DUP2 PUSH2 0xFD9 JUMP JUMPDEST PUSH2 0x1111 DUP5 PUSH2 0xFEB JUMP JUMPDEST DUP2 ADD PUSH1 0x20 DUP6 LT ISZERO PUSH2 0x1120 JUMPI DUP2 SWAP1 POP JUMPDEST PUSH2 0x1134 PUSH2 0x112C DUP6 PUSH2 0xFEB JUMP JUMPDEST DUP4 ADD DUP3 PUSH2 0x10D4 JUMP JUMPDEST POP POP JUMPDEST POP POP POP JUMP JUMPDEST PUSH0 DUP3 DUP3 SHR SWAP1 POP SWAP3 SWAP2 POP POP JUMP JUMPDEST PUSH0 PUSH2 0x1157 PUSH0 NOT DUP5 PUSH1 0x8 MUL PUSH2 0x113C JUMP JUMPDEST NOT DUP1 DUP4 AND SWAP2 POP POP SWAP3 SWAP2 POP POP JUMP JUMPDEST PUSH0 PUSH2 0x116F DUP4 DUP4 PUSH2 0x1148 JUMP JUMPDEST SWAP2 POP DUP3 PUSH1 0x2 MUL DUP3 OR SWAP1 POP SWAP3 SWAP2 POP POP JUMP JUMPDEST PUSH2 0x1188 DUP3 PUSH2 0xD2C JUMP JUMPDEST PUSH8 0xFFFFFFFFFFFFFFFF DUP2 GT ISZERO PUSH2 0x11A1 JUMPI PUSH2 0x11A0 PUSH2 0xA57 JUMP JUMPDEST JUMPDEST PUSH2 0x11AB DUP3 SLOAD PUSH2 0xFA9 JUMP JUMPDEST PUSH2 0x11B6 DUP3 DUP3 DUP6 PUSH2 0x10F6 JUMP JUMPDEST PUSH0 PUSH1 0x20 SWAP1 POP PUSH1 0x1F DUP4 GT PUSH1 0x1 DUP2 EQ PUSH2 0x11E7 JUMPI PUSH0 DUP5 ISZERO PUSH2 0x11D5 JUMPI DUP3 DUP8 ADD MLOAD SWAP1 POP JUMPDEST PUSH2 0x11DF DUP6 DUP3 PUSH2 0x1164 JUMP JUMPDEST DUP7 SSTORE POP PUSH2 0x1246 JUMP JUMPDEST PUSH1 0x1F NOT DUP5 AND PUSH2 0x11F5 DUP7 PUSH2 0xFD9 JUMP JUMPDEST PUSH0 JUMPDEST DUP3 DUP2 LT ISZERO PUSH2 0x121C JUMPI DUP5 DUP10 ADD MLOAD DUP3 SSTORE PUSH1 0x1 DUP3 ADD SWAP2 POP PUSH1 0x20 DUP6 ADD SWAP5 POP PUSH1 0x20 DUP2 ADD SWAP1 POP PUSH2 0x11F7 JUMP JUMPDEST DUP7 DUP4 LT ISZERO PUSH2 0x1239 JUMPI DUP5 DUP10 ADD MLOAD PUSH2 0x1235 PUSH1 0x1F DUP10 AND DUP3 PUSH2 0x1148 JUMP JUMPDEST DUP4 SSTORE POP JUMPDEST PUSH1 0x1 PUSH1 0x2 DUP9 MUL ADD DUP9 SSTORE POP POP POP JUMPDEST POP POP POP POP POP POP JUMP INVALID LOG2 PUSH5 0x6970667358 0x22 SLT KECCAK256 DELEGATECALL DUP14 0x2C 0xDA ISZERO BLOCKHASH 0x23 0xEA 0xC8 PUSH9 0xA39FE0D68BB98511AE SWAP16 SWAP14 DUP1 GASLIMIT 0xA9 EXP CALLDATACOPY EXTCODEHASH 0xB6 0xB5 DELEGATECALL 0xD6 PREVRANDAO PUSH5 0x736F6C6343 STOP ADDMOD XOR STOP CALLER "},"gasEstimates":{"creation":{"codeDepositCost":"948000","executionCost":"986","totalCost":"948986"},"external":{"addProduct(string,string,string)":"infinite","addSellers(string)":"infinite","allSellersInfo(string)":"infinite","hasReachedToConsumer(string)":"infinite","hasReachedToSeller(string)":"infinite","productStorage(string)":"infinite","productVerification(string,uint32)":"infinite","sellToConsumer(string,uint32)":"infinite","sellToSeller(string,string)":"infinite"}},"methodIdentifiers":{"addProduct(string,string,string)":"0e34b00e","addSellers(string)":"e47766ff","allSellersInfo(string)":"ea42c7ef","hasReachedToConsumer(string)":"9ab1a6cc","hasReachedToSeller(string)":"d8ce6572","productStorage(string)":"b15bf255","productVerification(string,uint32)":"220f8ade","sellToConsumer(string,uint32)":"7f975a37","sellToSeller(string,string)":"c0effb7d"}},"storageLayout":{"storage":[{"astId":78,"contract":"FakeProdIden.sol:FakeProdIden","label":"hasReachedToSeller","offset":0,"slot":"0","type":"t_mapping(t_string_memory_ptr,t_struct(reachSeller)68_storage)"},{"astId":82,"contract":"FakeProdIden.sol:FakeProdIden","label":"hasReachedToConsumer","offset":0,"slot":"1","type":"t_mapping(t_string_memory_ptr,t_bool)"},{"astId":87,"contract":"FakeProdIden.sol:FakeProdIden","label":"productStorage","offset":0,"slot":"2","type":"t_mapping(t_string_memory_ptr,t_struct(Product)63_storage)"},{"astId":92,"contract":"FakeProdIden.sol:FakeProdIden","label":"allSellersInfo","offset":0,"slot":"3","type":"t_mapping(t_string_memory_ptr,t_struct(SellerInfo)73_storage)"}],"types":{"t_address":{"encoding":"inplace","label":"address","numberOfBytes":"20"},"t_bool":{"encoding":"inplace","label":"bool","numberOfBytes":"1"},"t_mapping(t_string_memory_ptr,t_bool)":{"encoding":"mapping","key":"t_string_memory_ptr","label":"mapping(string => bool)","numberOfBytes":"32","value":"t_bool"},"t_mapping(t_string_memory_ptr,t_struct(Product)63_storage)":{"encoding":"mapping","key":"t_string_memory_ptr","label":"mapping(string => struct FakeProdIden.Product)","numberOfBytes":"32","value":"t_struct(Product)63_storage"},"t_mapping(t_string_memory_ptr,t_struct(SellerInfo)73_storage)":{"encoding":"mapping","key":"t_string_memory_ptr","label":"mapping(string => struct FakeProdIden.SellerInfo)","numberOfBytes":"32","value":"t_struct(SellerInfo)73_storage"},"t_mapping(t_string_memory_ptr,t_struct(reachSeller)68_storage)":{"encoding":"mapping","key":"t_string_memory_ptr","label":"mapping(string => struct FakeProdIden.reachSeller)","numberOfBytes":"32","value":"t_struct(reachSeller)68_storage"},"t_string_memory_ptr":{"encoding":"bytes","label":"string","numberOfBytes":"32"},"t_string_storage":{"encoding":"bytes","label":"string","numberOfBytes":"32"},"t_struct(Product)63_storage":{"encoding":"inplace","label":"struct FakeProdIden.Product","members":[{"astId":54,"contract":"FakeProdIden.sol:FakeProdIden","label":"productId","offset":0,"slot":"0","type":"t_string_storage"},{"astId":56,"contract":"FakeProdIden.sol:FakeProdIden","label":"name","offset":0,"slot":"1","type":"t_string_storage"},{"astId":58,"contract":"FakeProdIden.sol:FakeProdIden","label":"brandName","offset":0,"slot":"2","type":"t_string_storage"},{"astId":60,"contract":"FakeProdIden.sol:FakeProdIden","label":"hasmade","offset":0,"slot":"3","type":"t_bool"},{"astId":62,"contract":"FakeProdIden.sol:FakeProdIden","label":"consumerCode","offset":1,"slot":"3","type":"t_uint32"}],"numberOfBytes":"128"},"t_struct(SellerInfo)73_storage":{"encoding":"inplace","label":"struct FakeProdIden.SellerInfo","members":[{"astId":70,"contract":"FakeProdIden.sol:FakeProdIden","label":"sellerId","offset":0,"slot":"0","type":"t_string_storage"},{"astId":72,"contract":"FakeProdIden.sol:FakeProdIden","label":"sellerAddress","offset":0,"slot":"1","type":"t_address"}],"numberOfBytes":"64"},"t_struct(reachSeller)68_storage":{"encoding":"inplace","label":"struct FakeProdIden.reachSeller","members":[{"astId":65,"contract":"FakeProdIden.sol:FakeProdIden","label":"sellerId","offset":0,"slot":"0","type":"t_string_storage"},{"astId":67,"contract":"FakeProdIden.sol:FakeProdIden","label":"hasReached","offset":0,"slot":"1","type":"t_bool"}],"numberOfBytes":"64"},"t_uint32":{"encoding":"inplace","label":"uint32","numberOfBytes":"4"}}},"userdoc":{"kind":"user","methods":{},"version":1}}