{"abi":[{"inputs":[{"internalType":"string","name":"id","type":"string"},{"internalType":"string","name":"brandName","type":"string"}],"name":"createManufacturer","outputs":[],"stateMutability":"nonpayable","type":"function"},{"inputs":[{"internalType":"string","name":"brandName","type":"string"}],"name":"getManufacturerInstance","outputs":[{"internalType":"address","name":"","type":"address"}],"stateMutability":"view","type":"function"},{"inputs":[{"internalType":"string","name":"","type":"string"}],"name":"manufacturersField","outputs":[{"internalType":"string","name":"id","type":"string"},{"internalType":"address","name":"instance","type":"address"}],"stateMutability":"view","type":"function"}],"devdoc":{"kind":"dev","methods":{},"version":1},"evm":{"assembly":"    /* \"FakeProdIden.sol\":57:626  contract manufacturerFactory... */\n  mstore(0x40, 0x80)\n  callvalue\n  dup1\n  iszero\n  tag_1\n  jumpi\n  0x00\n  dup1\n  revert\ntag_1:\n  pop\n  dataSize(sub_0)\n  dup1\n  dataOffset(sub_0)\n  0x00\n  codecopy\n  0x00\n  return\nstop\n\nsub_0: assembly {\n        /* \"FakeProdIden.sol\":57:626  contract manufacturerFactory... */\n      mstore(0x40, 0x80)\n      callvalue\n      dup1\n      iszero\n      tag_1\n      jumpi\n      0x00\n      dup1\n      revert\n    tag_1:\n      pop\n      jumpi(tag_2, lt(calldatasize, 0x04))\n      shr(0xe0, calldataload(0x00))\n      dup1\n      0x08ac800c\n      eq\n      tag_3\n      jumpi\n      dup1\n      0x80b29bec\n      eq\n      tag_4\n      jumpi\n      dup1\n      0xc0900bea\n      eq\n      tag_5\n      jumpi\n    tag_2:\n      0x00\n      dup1\n      revert\n        /* \"FakeProdIden.sol\":470:624  function getManufacturerInstance(string memory brandName) public view returns (address)... */\n    tag_3:\n      tag_6\n      0x04\n      dup1\n      calldatasize\n      sub\n      dup2\n      add\n      swap1\n      tag_7\n      swap2\n      swap1\n      tag_8\n      jump\t// in\n    tag_7:\n      tag_9\n      jump\t// in\n    tag_6:\n      mload(0x40)\n      tag_10\n      swap2\n      swap1\n      tag_11\n      jump\t// in\n    tag_10:\n      mload(0x40)\n      dup1\n      swap2\n      sub\n      swap1\n      return\n        /* \"FakeProdIden.sol\":237:464  function createManufacturer(string memory id, string memory brandName) public ... */\n    tag_4:\n      tag_12\n      0x04\n      dup1\n      calldatasize\n      sub\n      dup2\n      add\n      swap1\n      tag_13\n      swap2\n      swap1\n      tag_14\n      jump\t// in\n    tag_13:\n      tag_15\n      jump\t// in\n    tag_12:\n      stop\n        /* \"FakeProdIden.sol\":173:230  mapping(string => manufacturer) public manufacturersField */\n    tag_5:\n      tag_16\n      0x04\n      dup1\n      calldatasize\n      sub\n      dup2\n      add\n      swap1\n      tag_17\n      swap2\n      swap1\n      tag_8\n      jump\t// in\n    tag_17:\n      tag_18\n      jump\t// in\n    tag_16:\n      mload(0x40)\n      tag_19\n      swap3\n      swap2\n      swap1\n      tag_20\n      jump\t// in\n    tag_19:\n      mload(0x40)\n      dup1\n      swap2\n      sub\n      swap1\n      return\n        /* \"FakeProdIden.sol\":470:624  function getManufacturerInstance(string memory brandName) public view returns (address)... */\n    tag_9:\n        /* \"FakeProdIden.sol\":549:556  address */\n      0x00\n        /* \"FakeProdIden.sol\":579:597  manufacturersField */\n      dup1\n        /* \"FakeProdIden.sol\":598:607  brandName */\n      dup3\n        /* \"FakeProdIden.sol\":579:608  manufacturersField[brandName] */\n      mload(0x40)\n      tag_22\n      swap2\n      swap1\n      tag_23\n      jump\t// in\n    tag_22:\n      swap1\n      dup2\n      mstore\n      0x20\n      add\n      mload(0x40)\n      dup1\n      swap2\n      sub\n      swap1\n      keccak256\n        /* \"FakeProdIden.sol\":579:617  manufacturersField[brandName].instance */\n      0x01\n      add\n      0x00\n      swap1\n      sload\n      swap1\n      0x0100\n      exp\n      swap1\n      div\n      0xffffffffffffffffffffffffffffffffffffffff\n      and\n        /* \"FakeProdIden.sol\":572:617  return manufacturersField[brandName].instance */\n      swap1\n      pop\n        /* \"FakeProdIden.sol\":470:624  function getManufacturerInstance(string memory brandName) public view returns (address)... */\n      swap2\n      swap1\n      pop\n      jump\t// out\n        /* \"FakeProdIden.sol\":237:464  function createManufacturer(string memory id, string memory brandName) public ... */\n    tag_15:\n        /* \"FakeProdIden.sol\":330:353  address newManufacturer */\n      0x00\n        /* \"FakeProdIden.sol\":364:382  new FakeProdIden() */\n      mload(0x40)\n      tag_25\n      swap1\n      tag_26\n      jump\t// in\n    tag_25:\n      mload(0x40)\n      dup1\n      swap2\n      sub\n      swap1\n      0x00\n      create\n      dup1\n      iszero\n      dup1\n      iszero\n      tag_27\n      jumpi\n      returndatasize\n      0x00\n      dup1\n      returndatacopy\n      revert(0x00, returndatasize)\n    tag_27:\n      pop\n        /* \"FakeProdIden.sol\":330:383  address newManufacturer = address(new FakeProdIden()) */\n      swap1\n      pop\n        /* \"FakeProdIden.sol\":425:457  manufacturer(id,newManufacturer) */\n      mload(0x40)\n      dup1\n      0x40\n      add\n      0x40\n      mstore\n      dup1\n        /* \"FakeProdIden.sol\":438:440  id */\n      dup5\n        /* \"FakeProdIden.sol\":425:457  manufacturer(id,newManufacturer) */\n      dup2\n      mstore\n      0x20\n      add\n        /* \"FakeProdIden.sol\":441:456  newManufacturer */\n      dup3\n        /* \"FakeProdIden.sol\":425:457  manufacturer(id,newManufacturer) */\n      0xffffffffffffffffffffffffffffffffffffffff\n      and\n      dup2\n      mstore\n      pop\n        /* \"FakeProdIden.sol\":393:411  manufacturersField */\n      0x00\n        /* \"FakeProdIden.sol\":412:421  brandName */\n      dup4\n        /* \"FakeProdIden.sol\":393:422  manufacturersField[brandName] */\n      mload(0x40)\n      tag_28\n      swap2\n      swap1\n      tag_23\n      jump\t// in\n    tag_28:\n      swap1\n      dup2\n      mstore\n      0x20\n      add\n      mload(0x40)\n      dup1\n      swap2\n      sub\n      swap1\n      keccak256\n        /* \"FakeProdIden.sol\":393:457  manufacturersField[brandName] = manufacturer(id,newManufacturer) */\n      0x00\n      dup3\n      add\n      mload\n      dup2\n      0x00\n      add\n      swap1\n      dup2\n      tag_29\n      swap2\n      swap1\n      tag_30\n      jump\t// in\n    tag_29:\n      pop\n      0x20\n      dup3\n      add\n      mload\n      dup2\n      0x01\n      add\n      exp(0x0100, 0x00)\n      dup2\n      sload\n      dup2\n      0xffffffffffffffffffffffffffffffffffffffff\n      mul\n      not\n      and\n      swap1\n      dup4\n      0xffffffffffffffffffffffffffffffffffffffff\n      and\n      mul\n      or\n      swap1\n      sstore\n      pop\n      swap1\n      pop\n      pop\n        /* \"FakeProdIden.sol\":320:464  {... */\n      pop\n        /* \"FakeProdIden.sol\":237:464  function createManufacturer(string memory id, string memory brandName) public ... */\n      pop\n      pop\n      jump\t// out\n        /* \"FakeProdIden.sol\":173:230  mapping(string => manufacturer) public manufacturersField */\n    tag_18:\n      0x00\n      dup2\n      dup1\n      mload\n      0x20\n      dup2\n      add\n      dup3\n      add\n      dup1\n      mload\n      dup5\n      dup3\n      mstore\n      0x20\n      dup4\n      add\n      0x20\n      dup6\n      add\n      keccak256\n      dup2\n      dup4\n      mstore\n      dup1\n      swap6\n      pop\n      pop\n      pop\n      pop\n      pop\n      pop\n      0x00\n      swap2\n      pop\n      swap1\n      pop\n      dup1\n      0x00\n      add\n      dup1\n      sload\n      tag_31\n      swap1\n      tag_32\n      jump\t// in\n    tag_31:\n      dup1\n      0x1f\n      add\n      0x20\n      dup1\n      swap2\n      div\n      mul\n      0x20\n      add\n      mload(0x40)\n      swap1\n      dup2\n      add\n      0x40\n      mstore\n      dup1\n      swap3\n      swap2\n      swap1\n      dup2\n      dup2\n      mstore\n      0x20\n      add\n      dup3\n      dup1\n      sload\n      tag_33\n      swap1\n      tag_32\n      jump\t// in\n    tag_33:\n      dup1\n      iszero\n      tag_34\n      jumpi\n      dup1\n      0x1f\n      lt\n      tag_35\n      jumpi\n      0x0100\n      dup1\n      dup4\n      sload\n      div\n      mul\n      dup4\n      mstore\n      swap2\n      0x20\n      add\n      swap2\n      jump(tag_34)\n    tag_35:\n      dup3\n      add\n      swap2\n      swap1\n      0x00\n      mstore\n      keccak256(0x00, 0x20)\n      swap1\n    tag_36:\n      dup2\n      sload\n      dup2\n      mstore\n      swap1\n      0x01\n      add\n      swap1\n      0x20\n      add\n      dup1\n      dup4\n      gt\n      tag_36\n      jumpi\n      dup3\n      swap1\n      sub\n      0x1f\n      and\n      dup3\n      add\n      swap2\n    tag_34:\n      pop\n      pop\n      pop\n      pop\n      pop\n      swap1\n      dup1\n      0x01\n      add\n      0x00\n      swap1\n      sload\n      swap1\n      0x0100\n      exp\n      swap1\n      div\n      0xffffffffffffffffffffffffffffffffffffffff\n      and\n      swap1\n      pop\n      dup3\n      jump\t// out\n    tag_26:\n      dataSize(sub_0)\n      dup1\n      dataOffset(sub_0)\n      dup4\n      codecopy\n      add\n      swap1\n      jump\t// out\n        /* \"#utility.yul\":7:82   */\n    tag_37:\n        /* \"#utility.yul\":40:46   */\n      0x00\n        /* \"#utility.yul\":73:75   */\n      0x40\n        /* \"#utility.yul\":67:76   */\n      mload\n        /* \"#utility.yul\":57:76   */\n      swap1\n      pop\n        /* \"#utility.yul\":7:82   */\n      swap1\n      jump\t// out\n        /* \"#utility.yul\":88:205   */\n    tag_38:\n        /* \"#utility.yul\":197:198   */\n      0x00\n        /* \"#utility.yul\":194:195   */\n      dup1\n        /* \"#utility.yul\":187:199   */\n      revert\n        /* \"#utility.yul\":211:328   */\n    tag_39:\n        /* \"#utility.yul\":320:321   */\n      0x00\n        /* \"#utility.yul\":317:318   */\n      dup1\n        /* \"#utility.yul\":310:322   */\n      revert\n        /* \"#utility.yul\":334:451   */\n    tag_40:\n        /* \"#utility.yul\":443:444   */\n      0x00\n        /* \"#utility.yul\":440:441   */\n      dup1\n        /* \"#utility.yul\":433:445   */\n      revert\n        /* \"#utility.yul\":457:574   */\n    tag_41:\n        /* \"#utility.yul\":566:567   */\n      0x00\n        /* \"#utility.yul\":563:564   */\n      dup1\n        /* \"#utility.yul\":556:568   */\n      revert\n        /* \"#utility.yul\":580:682   */\n    tag_42:\n        /* \"#utility.yul\":621:627   */\n      0x00\n        /* \"#utility.yul\":672:674   */\n      0x1f\n        /* \"#utility.yul\":668:675   */\n      not\n        /* \"#utility.yul\":663:665   */\n      0x1f\n        /* \"#utility.yul\":656:661   */\n      dup4\n        /* \"#utility.yul\":652:666   */\n      add\n        /* \"#utility.yul\":648:676   */\n      and\n        /* \"#utility.yul\":638:676   */\n      swap1\n      pop\n        /* \"#utility.yul\":580:682   */\n      swap2\n      swap1\n      pop\n      jump\t// out\n        /* \"#utility.yul\":688:868   */\n    tag_43:\n        /* \"#utility.yul\":736:813   */\n      0x4e487b7100000000000000000000000000000000000000000000000000000000\n        /* \"#utility.yul\":733:734   */\n      0x00\n        /* \"#utility.yul\":726:814   */\n      mstore\n        /* \"#utility.yul\":833:837   */\n      0x41\n        /* \"#utility.yul\":830:831   */\n      0x04\n        /* \"#utility.yul\":823:838   */\n      mstore\n        /* \"#utility.yul\":857:861   */\n      0x24\n        /* \"#utility.yul\":854:855   */\n      0x00\n        /* \"#utility.yul\":847:862   */\n      revert\n        /* \"#utility.yul\":874:1155   */\n    tag_44:\n        /* \"#utility.yul\":957:984   */\n      tag_85\n        /* \"#utility.yul\":979:983   */\n      dup3\n        /* \"#utility.yul\":957:984   */\n      tag_42\n      jump\t// in\n    tag_85:\n        /* \"#utility.yul\":949:955   */\n      dup2\n        /* \"#utility.yul\":945:985   */\n      add\n        /* \"#utility.yul\":1087:1093   */\n      dup2\n        /* \"#utility.yul\":1075:1085   */\n      dup2\n        /* \"#utility.yul\":1072:1094   */\n      lt\n        /* \"#utility.yul\":1051:1069   */\n      0xffffffffffffffff\n        /* \"#utility.yul\":1039:1049   */\n      dup3\n        /* \"#utility.yul\":1036:1070   */\n      gt\n        /* \"#utility.yul\":1033:1095   */\n      or\n        /* \"#utility.yul\":1030:1118   */\n      iszero\n      tag_86\n      jumpi\n        /* \"#utility.yul\":1098:1116   */\n      tag_87\n      tag_43\n      jump\t// in\n    tag_87:\n        /* \"#utility.yul\":1030:1118   */\n    tag_86:\n        /* \"#utility.yul\":1138:1148   */\n      dup1\n        /* \"#utility.yul\":1134:1136   */\n      0x40\n        /* \"#utility.yul\":1127:1149   */\n      mstore\n        /* \"#utility.yul\":917:1155   */\n      pop\n        /* \"#utility.yul\":874:1155   */\n      pop\n      pop\n      jump\t// out\n        /* \"#utility.yul\":1161:1290   */\n    tag_45:\n        /* \"#utility.yul\":1195:1201   */\n      0x00\n        /* \"#utility.yul\":1222:1242   */\n      tag_89\n      tag_37\n      jump\t// in\n    tag_89:\n        /* \"#utility.yul\":1212:1242   */\n      swap1\n      pop\n        /* \"#utility.yul\":1251:1284   */\n      tag_90\n        /* \"#utility.yul\":1279:1283   */\n      dup3\n        /* \"#utility.yul\":1271:1277   */\n      dup3\n        /* \"#utility.yul\":1251:1284   */\n      tag_44\n      jump\t// in\n    tag_90:\n        /* \"#utility.yul\":1161:1290   */\n      swap2\n      swap1\n      pop\n      jump\t// out\n        /* \"#utility.yul\":1296:1604   */\n    tag_46:\n        /* \"#utility.yul\":1358:1362   */\n      0x00\n        /* \"#utility.yul\":1448:1466   */\n      0xffffffffffffffff\n        /* \"#utility.yul\":1440:1446   */\n      dup3\n        /* \"#utility.yul\":1437:1467   */\n      gt\n        /* \"#utility.yul\":1434:1490   */\n      iszero\n      tag_92\n      jumpi\n        /* \"#utility.yul\":1470:1488   */\n      tag_93\n      tag_43\n      jump\t// in\n    tag_93:\n        /* \"#utility.yul\":1434:1490   */\n    tag_92:\n        /* \"#utility.yul\":1508:1537   */\n      tag_94\n        /* \"#utility.yul\":1530:1536   */\n      dup3\n        /* \"#utility.yul\":1508:1537   */\n      tag_42\n      jump\t// in\n    tag_94:\n        /* \"#utility.yul\":1500:1537   */\n      swap1\n      pop\n        /* \"#utility.yul\":1592:1596   */\n      0x20\n        /* \"#utility.yul\":1586:1590   */\n      dup2\n        /* \"#utility.yul\":1582:1597   */\n      add\n        /* \"#utility.yul\":1574:1597   */\n      swap1\n      pop\n        /* \"#utility.yul\":1296:1604   */\n      swap2\n      swap1\n      pop\n      jump\t// out\n        /* \"#utility.yul\":1610:1756   */\n    tag_47:\n        /* \"#utility.yul\":1707:1713   */\n      dup3\n        /* \"#utility.yul\":1702:1705   */\n      dup2\n        /* \"#utility.yul\":1697:1700   */\n      dup4\n        /* \"#utility.yul\":1684:1714   */\n      calldatacopy\n        /* \"#utility.yul\":1748:1749   */\n      0x00\n        /* \"#utility.yul\":1739:1745   */\n      dup4\n        /* \"#utility.yul\":1734:1737   */\n      dup4\n        /* \"#utility.yul\":1730:1746   */\n      add\n        /* \"#utility.yul\":1723:1750   */\n      mstore\n        /* \"#utility.yul\":1610:1756   */\n      pop\n      pop\n      pop\n      jump\t// out\n        /* \"#utility.yul\":1762:2187   */\n    tag_48:\n        /* \"#utility.yul\":1840:1845   */\n      0x00\n        /* \"#utility.yul\":1865:1931   */\n      tag_97\n        /* \"#utility.yul\":1881:1930   */\n      tag_98\n        /* \"#utility.yul\":1923:1929   */\n      dup5\n        /* \"#utility.yul\":1881:1930   */\n      tag_46\n      jump\t// in\n    tag_98:\n        /* \"#utility.yul\":1865:1931   */\n      tag_45\n      jump\t// in\n    tag_97:\n        /* \"#utility.yul\":1856:1931   */\n      swap1\n      pop\n        /* \"#utility.yul\":1954:1960   */\n      dup3\n        /* \"#utility.yul\":1947:1952   */\n      dup2\n        /* \"#utility.yul\":1940:1961   */\n      mstore\n        /* \"#utility.yul\":1992:1996   */\n      0x20\n        /* \"#utility.yul\":1985:1990   */\n      dup2\n        /* \"#utility.yul\":1981:1997   */\n      add\n        /* \"#utility.yul\":2030:2033   */\n      dup5\n        /* \"#utility.yul\":2021:2027   */\n      dup5\n        /* \"#utility.yul\":2016:2019   */\n      dup5\n        /* \"#utility.yul\":2012:2028   */\n      add\n        /* \"#utility.yul\":2009:2034   */\n      gt\n        /* \"#utility.yul\":2006:2118   */\n      iszero\n      tag_99\n      jumpi\n        /* \"#utility.yul\":2037:2116   */\n      tag_100\n      tag_41\n      jump\t// in\n    tag_100:\n        /* \"#utility.yul\":2006:2118   */\n    tag_99:\n        /* \"#utility.yul\":2127:2181   */\n      tag_101\n        /* \"#utility.yul\":2174:2180   */\n      dup5\n        /* \"#utility.yul\":2169:2172   */\n      dup3\n        /* \"#utility.yul\":2164:2167   */\n      dup6\n        /* \"#utility.yul\":2127:2181   */\n      tag_47\n      jump\t// in\n    tag_101:\n        /* \"#utility.yul\":1846:2187   */\n      pop\n        /* \"#utility.yul\":1762:2187   */\n      swap4\n      swap3\n      pop\n      pop\n      pop\n      jump\t// out\n        /* \"#utility.yul\":2207:2547   */\n    tag_49:\n        /* \"#utility.yul\":2263:2268   */\n      0x00\n        /* \"#utility.yul\":2312:2315   */\n      dup3\n        /* \"#utility.yul\":2305:2309   */\n      0x1f\n        /* \"#utility.yul\":2297:2303   */\n      dup4\n        /* \"#utility.yul\":2293:2310   */\n      add\n        /* \"#utility.yul\":2289:2316   */\n      slt\n        /* \"#utility.yul\":2279:2401   */\n      tag_103\n      jumpi\n        /* \"#utility.yul\":2320:2399   */\n      tag_104\n      tag_40\n      jump\t// in\n    tag_104:\n        /* \"#utility.yul\":2279:2401   */\n    tag_103:\n        /* \"#utility.yul\":2437:2443   */\n      dup2\n        /* \"#utility.yul\":2424:2444   */\n      calldataload\n        /* \"#utility.yul\":2462:2541   */\n      tag_105\n        /* \"#utility.yul\":2537:2540   */\n      dup5\n        /* \"#utility.yul\":2529:2535   */\n      dup3\n        /* \"#utility.yul\":2522:2526   */\n      0x20\n        /* \"#utility.yul\":2514:2520   */\n      dup7\n        /* \"#utility.yul\":2510:2527   */\n      add\n        /* \"#utility.yul\":2462:2541   */\n      tag_48\n      jump\t// in\n    tag_105:\n        /* \"#utility.yul\":2453:2541   */\n      swap2\n      pop\n        /* \"#utility.yul\":2269:2547   */\n      pop\n        /* \"#utility.yul\":2207:2547   */\n      swap3\n      swap2\n      pop\n      pop\n      jump\t// out\n        /* \"#utility.yul\":2553:3062   */\n    tag_8:\n        /* \"#utility.yul\":2622:2628   */\n      0x00\n        /* \"#utility.yul\":2671:2673   */\n      0x20\n        /* \"#utility.yul\":2659:2668   */\n      dup3\n        /* \"#utility.yul\":2650:2657   */\n      dup5\n        /* \"#utility.yul\":2646:2669   */\n      sub\n        /* \"#utility.yul\":2642:2674   */\n      slt\n        /* \"#utility.yul\":2639:2758   */\n      iszero\n      tag_107\n      jumpi\n        /* \"#utility.yul\":2677:2756   */\n      tag_108\n      tag_38\n      jump\t// in\n    tag_108:\n        /* \"#utility.yul\":2639:2758   */\n    tag_107:\n        /* \"#utility.yul\":2825:2826   */\n      0x00\n        /* \"#utility.yul\":2814:2823   */\n      dup3\n        /* \"#utility.yul\":2810:2827   */\n      add\n        /* \"#utility.yul\":2797:2828   */\n      calldataload\n        /* \"#utility.yul\":2855:2873   */\n      0xffffffffffffffff\n        /* \"#utility.yul\":2847:2853   */\n      dup2\n        /* \"#utility.yul\":2844:2874   */\n      gt\n        /* \"#utility.yul\":2841:2958   */\n      iszero\n      tag_109\n      jumpi\n        /* \"#utility.yul\":2877:2956   */\n      tag_110\n      tag_39\n      jump\t// in\n    tag_110:\n        /* \"#utility.yul\":2841:2958   */\n    tag_109:\n        /* \"#utility.yul\":2982:3045   */\n      tag_111\n        /* \"#utility.yul\":3037:3044   */\n      dup5\n        /* \"#utility.yul\":3028:3034   */\n      dup3\n        /* \"#utility.yul\":3017:3026   */\n      dup6\n        /* \"#utility.yul\":3013:3035   */\n      add\n        /* \"#utility.yul\":2982:3045   */\n      tag_49\n      jump\t// in\n    tag_111:\n        /* \"#utility.yul\":2972:3045   */\n      swap2\n      pop\n        /* \"#utility.yul\":2768:3055   */\n      pop\n        /* \"#utility.yul\":2553:3062   */\n      swap3\n      swap2\n      pop\n      pop\n      jump\t// out\n        /* \"#utility.yul\":3068:3194   */\n    tag_50:\n        /* \"#utility.yul\":3105:3112   */\n      0x00\n        /* \"#utility.yul\":3145:3187   */\n      0xffffffffffffffffffffffffffffffffffffffff\n        /* \"#utility.yul\":3138:3143   */\n      dup3\n        /* \"#utility.yul\":3134:3188   */\n      and\n        /* \"#utility.yul\":3123:3188   */\n      swap1\n      pop\n        /* \"#utility.yul\":3068:3194   */\n      swap2\n      swap1\n      pop\n      jump\t// out\n        /* \"#utility.yul\":3200:3296   */\n    tag_51:\n        /* \"#utility.yul\":3237:3244   */\n      0x00\n        /* \"#utility.yul\":3266:3290   */\n      tag_114\n        /* \"#utility.yul\":3284:3289   */\n      dup3\n        /* \"#utility.yul\":3266:3290   */\n      tag_50\n      jump\t// in\n    tag_114:\n        /* \"#utility.yul\":3255:3290   */\n      swap1\n      pop\n        /* \"#utility.yul\":3200:3296   */\n      swap2\n      swap1\n      pop\n      jump\t// out\n        /* \"#utility.yul\":3302:3420   */\n    tag_52:\n        /* \"#utility.yul\":3389:3413   */\n      tag_116\n        /* \"#utility.yul\":3407:3412   */\n      dup2\n        /* \"#utility.yul\":3389:3413   */\n      tag_51\n      jump\t// in\n    tag_116:\n        /* \"#utility.yul\":3384:3387   */\n      dup3\n        /* \"#utility.yul\":3377:3414   */\n      mstore\n        /* \"#utility.yul\":3302:3420   */\n      pop\n      pop\n      jump\t// out\n        /* \"#utility.yul\":3426:3648   */\n    tag_11:\n        /* \"#utility.yul\":3519:3523   */\n      0x00\n        /* \"#utility.yul\":3557:3559   */\n      0x20\n        /* \"#utility.yul\":3546:3555   */\n      dup3\n        /* \"#utility.yul\":3542:3560   */\n      add\n        /* \"#utility.yul\":3534:3560   */\n      swap1\n      pop\n        /* \"#utility.yul\":3570:3641   */\n      tag_118\n        /* \"#utility.yul\":3638:3639   */\n      0x00\n        /* \"#utility.yul\":3627:3636   */\n      dup4\n        /* \"#utility.yul\":3623:3640   */\n      add\n        /* \"#utility.yul\":3614:3620   */\n      dup5\n        /* \"#utility.yul\":3570:3641   */\n      tag_52\n      jump\t// in\n    tag_118:\n        /* \"#utility.yul\":3426:3648   */\n      swap3\n      swap2\n      pop\n      pop\n      jump\t// out\n        /* \"#utility.yul\":3654:4488   */\n    tag_14:\n        /* \"#utility.yul\":3742:3748   */\n      0x00\n        /* \"#utility.yul\":3750:3756   */\n      dup1\n        /* \"#utility.yul\":3799:3801   */\n      0x40\n        /* \"#utility.yul\":3787:3796   */\n      dup4\n        /* \"#utility.yul\":3778:3785   */\n      dup6\n        /* \"#utility.yul\":3774:3797   */\n      sub\n        /* \"#utility.yul\":3770:3802   */\n      slt\n        /* \"#utility.yul\":3767:3886   */\n      iszero\n      tag_120\n      jumpi\n        /* \"#utility.yul\":3805:3884   */\n      tag_121\n      tag_38\n      jump\t// in\n    tag_121:\n        /* \"#utility.yul\":3767:3886   */\n    tag_120:\n        /* \"#utility.yul\":3953:3954   */\n      0x00\n        /* \"#utility.yul\":3942:3951   */\n      dup4\n        /* \"#utility.yul\":3938:3955   */\n      add\n        /* \"#utility.yul\":3925:3956   */\n      calldataload\n        /* \"#utility.yul\":3983:4001   */\n      0xffffffffffffffff\n        /* \"#utility.yul\":3975:3981   */\n      dup2\n        /* \"#utility.yul\":3972:4002   */\n      gt\n        /* \"#utility.yul\":3969:4086   */\n      iszero\n      tag_122\n      jumpi\n        /* \"#utility.yul\":4005:4084   */\n      tag_123\n      tag_39\n      jump\t// in\n    tag_123:\n        /* \"#utility.yul\":3969:4086   */\n    tag_122:\n        /* \"#utility.yul\":4110:4173   */\n      tag_124\n        /* \"#utility.yul\":4165:4172   */\n      dup6\n        /* \"#utility.yul\":4156:4162   */\n      dup3\n        /* \"#utility.yul\":4145:4154   */\n      dup7\n        /* \"#utility.yul\":4141:4163   */\n      add\n        /* \"#utility.yul\":4110:4173   */\n      tag_49\n      jump\t// in\n    tag_124:\n        /* \"#utility.yul\":4100:4173   */\n      swap3\n      pop\n        /* \"#utility.yul\":3896:4183   */\n      pop\n        /* \"#utility.yul\":4250:4252   */\n      0x20\n        /* \"#utility.yul\":4239:4248   */\n      dup4\n        /* \"#utility.yul\":4235:4253   */\n      add\n        /* \"#utility.yul\":4222:4254   */\n      calldataload\n        /* \"#utility.yul\":4281:4299   */\n      0xffffffffffffffff\n        /* \"#utility.yul\":4273:4279   */\n      dup2\n        /* \"#utility.yul\":4270:4300   */\n      gt\n        /* \"#utility.yul\":4267:4384   */\n      iszero\n      tag_125\n      jumpi\n        /* \"#utility.yul\":4303:4382   */\n      tag_126\n      tag_39\n      jump\t// in\n    tag_126:\n        /* \"#utility.yul\":4267:4384   */\n    tag_125:\n        /* \"#utility.yul\":4408:4471   */\n      tag_127\n        /* \"#utility.yul\":4463:4470   */\n      dup6\n        /* \"#utility.yul\":4454:4460   */\n      dup3\n        /* \"#utility.yul\":4443:4452   */\n      dup7\n        /* \"#utility.yul\":4439:4461   */\n      add\n        /* \"#utility.yul\":4408:4471   */\n      tag_49\n      jump\t// in\n    tag_127:\n        /* \"#utility.yul\":4398:4471   */\n      swap2\n      pop\n        /* \"#utility.yul\":4193:4481   */\n      pop\n        /* \"#utility.yul\":3654:4488   */\n      swap3\n      pop\n      swap3\n      swap1\n      pop\n      jump\t// out\n        /* \"#utility.yul\":4494:4593   */\n    tag_53:\n        /* \"#utility.yul\":4546:4552   */\n      0x00\n        /* \"#utility.yul\":4580:4585   */\n      dup2\n        /* \"#utility.yul\":4574:4586   */\n      mload\n        /* \"#utility.yul\":4564:4586   */\n      swap1\n      pop\n        /* \"#utility.yul\":4494:4593   */\n      swap2\n      swap1\n      pop\n      jump\t// out\n        /* \"#utility.yul\":4599:4768   */\n    tag_54:\n        /* \"#utility.yul\":4683:4694   */\n      0x00\n        /* \"#utility.yul\":4717:4723   */\n      dup3\n        /* \"#utility.yul\":4712:4715   */\n      dup3\n        /* \"#utility.yul\":4705:4724   */\n      mstore\n        /* \"#utility.yul\":4757:4761   */\n      0x20\n        /* \"#utility.yul\":4752:4755   */\n      dup3\n        /* \"#utility.yul\":4748:4762   */\n      add\n        /* \"#utility.yul\":4733:4762   */\n      swap1\n      pop\n        /* \"#utility.yul\":4599:4768   */\n      swap3\n      swap2\n      pop\n      pop\n      jump\t// out\n        /* \"#utility.yul\":4774:5020   */\n    tag_55:\n        /* \"#utility.yul\":4855:4856   */\n      0x00\n        /* \"#utility.yul\":4865:4978   */\n    tag_131:\n        /* \"#utility.yul\":4879:4885   */\n      dup4\n        /* \"#utility.yul\":4876:4877   */\n      dup2\n        /* \"#utility.yul\":4873:4886   */\n      lt\n        /* \"#utility.yul\":4865:4978   */\n      iszero\n      tag_133\n      jumpi\n        /* \"#utility.yul\":4964:4965   */\n      dup1\n        /* \"#utility.yul\":4959:4962   */\n      dup3\n        /* \"#utility.yul\":4955:4966   */\n      add\n        /* \"#utility.yul\":4949:4967   */\n      mload\n        /* \"#utility.yul\":4945:4946   */\n      dup2\n        /* \"#utility.yul\":4940:4943   */\n      dup5\n        /* \"#utility.yul\":4936:4947   */\n      add\n        /* \"#utility.yul\":4929:4968   */\n      mstore\n        /* \"#utility.yul\":4901:4903   */\n      0x20\n        /* \"#utility.yul\":4898:4899   */\n      dup2\n        /* \"#utility.yul\":4894:4904   */\n      add\n        /* \"#utility.yul\":4889:4904   */\n      swap1\n      pop\n        /* \"#utility.yul\":4865:4978   */\n      jump(tag_131)\n    tag_133:\n        /* \"#utility.yul\":5012:5013   */\n      0x00\n        /* \"#utility.yul\":5003:5009   */\n      dup5\n        /* \"#utility.yul\":4998:5001   */\n      dup5\n        /* \"#utility.yul\":4994:5010   */\n      add\n        /* \"#utility.yul\":4987:5014   */\n      mstore\n        /* \"#utility.yul\":4836:5020   */\n      pop\n        /* \"#utility.yul\":4774:5020   */\n      pop\n      pop\n      pop\n      jump\t// out\n        /* \"#utility.yul\":5026:5403   */\n    tag_56:\n        /* \"#utility.yul\":5114:5117   */\n      0x00\n        /* \"#utility.yul\":5142:5181   */\n      tag_135\n        /* \"#utility.yul\":5175:5180   */\n      dup3\n        /* \"#utility.yul\":5142:5181   */\n      tag_53\n      jump\t// in\n    tag_135:\n        /* \"#utility.yul\":5197:5268   */\n      tag_136\n        /* \"#utility.yul\":5261:5267   */\n      dup2\n        /* \"#utility.yul\":5256:5259   */\n      dup6\n        /* \"#utility.yul\":5197:5268   */\n      tag_54\n      jump\t// in\n    tag_136:\n        /* \"#utility.yul\":5190:5268   */\n      swap4\n      pop\n        /* \"#utility.yul\":5277:5342   */\n      tag_137\n        /* \"#utility.yul\":5335:5341   */\n      dup2\n        /* \"#utility.yul\":5330:5333   */\n      dup6\n        /* \"#utility.yul\":5323:5327   */\n      0x20\n        /* \"#utility.yul\":5316:5321   */\n      dup7\n        /* \"#utility.yul\":5312:5328   */\n      add\n        /* \"#utility.yul\":5277:5342   */\n      tag_55\n      jump\t// in\n    tag_137:\n        /* \"#utility.yul\":5367:5396   */\n      tag_138\n        /* \"#utility.yul\":5389:5395   */\n      dup2\n        /* \"#utility.yul\":5367:5396   */\n      tag_42\n      jump\t// in\n    tag_138:\n        /* \"#utility.yul\":5362:5365   */\n      dup5\n        /* \"#utility.yul\":5358:5397   */\n      add\n        /* \"#utility.yul\":5351:5397   */\n      swap2\n      pop\n        /* \"#utility.yul\":5118:5403   */\n      pop\n        /* \"#utility.yul\":5026:5403   */\n      swap3\n      swap2\n      pop\n      pop\n      jump\t// out\n        /* \"#utility.yul\":5409:5832   */\n    tag_20:\n        /* \"#utility.yul\":5550:5554   */\n      0x00\n        /* \"#utility.yul\":5588:5590   */\n      0x40\n        /* \"#utility.yul\":5577:5586   */\n      dup3\n        /* \"#utility.yul\":5573:5591   */\n      add\n        /* \"#utility.yul\":5565:5591   */\n      swap1\n      pop\n        /* \"#utility.yul\":5637:5646   */\n      dup2\n        /* \"#utility.yul\":5631:5635   */\n      dup2\n        /* \"#utility.yul\":5627:5647   */\n      sub\n        /* \"#utility.yul\":5623:5624   */\n      0x00\n        /* \"#utility.yul\":5612:5621   */\n      dup4\n        /* \"#utility.yul\":5608:5625   */\n      add\n        /* \"#utility.yul\":5601:5648   */\n      mstore\n        /* \"#utility.yul\":5665:5743   */\n      tag_140\n        /* \"#utility.yul\":5738:5742   */\n      dup2\n        /* \"#utility.yul\":5729:5735   */\n      dup6\n        /* \"#utility.yul\":5665:5743   */\n      tag_56\n      jump\t// in\n    tag_140:\n        /* \"#utility.yul\":5657:5743   */\n      swap1\n      pop\n        /* \"#utility.yul\":5753:5825   */\n      tag_141\n        /* \"#utility.yul\":5821:5823   */\n      0x20\n        /* \"#utility.yul\":5810:5819   */\n      dup4\n        /* \"#utility.yul\":5806:5824   */\n      add\n        /* \"#utility.yul\":5797:5803   */\n      dup5\n        /* \"#utility.yul\":5753:5825   */\n      tag_52\n      jump\t// in\n    tag_141:\n        /* \"#utility.yul\":5409:5832   */\n      swap4\n      swap3\n      pop\n      pop\n      pop\n      jump\t// out\n        /* \"#utility.yul\":5838:5986   */\n    tag_57:\n        /* \"#utility.yul\":5940:5951   */\n      0x00\n        /* \"#utility.yul\":5977:5980   */\n      dup2\n        /* \"#utility.yul\":5962:5980   */\n      swap1\n      pop\n        /* \"#utility.yul\":5838:5986   */\n      swap3\n      swap2\n      pop\n      pop\n      jump\t// out\n        /* \"#utility.yul\":5992:6382   */\n    tag_58:\n        /* \"#utility.yul\":6098:6101   */\n      0x00\n        /* \"#utility.yul\":6126:6165   */\n      tag_144\n        /* \"#utility.yul\":6159:6164   */\n      dup3\n        /* \"#utility.yul\":6126:6165   */\n      tag_53\n      jump\t// in\n    tag_144:\n        /* \"#utility.yul\":6181:6270   */\n      tag_145\n        /* \"#utility.yul\":6263:6269   */\n      dup2\n        /* \"#utility.yul\":6258:6261   */\n      dup6\n        /* \"#utility.yul\":6181:6270   */\n      tag_57\n      jump\t// in\n    tag_145:\n        /* \"#utility.yul\":6174:6270   */\n      swap4\n      pop\n        /* \"#utility.yul\":6279:6344   */\n      tag_146\n        /* \"#utility.yul\":6337:6343   */\n      dup2\n        /* \"#utility.yul\":6332:6335   */\n      dup6\n        /* \"#utility.yul\":6325:6329   */\n      0x20\n        /* \"#utility.yul\":6318:6323   */\n      dup7\n        /* \"#utility.yul\":6314:6330   */\n      add\n        /* \"#utility.yul\":6279:6344   */\n      tag_55\n      jump\t// in\n    tag_146:\n        /* \"#utility.yul\":6369:6375   */\n      dup1\n        /* \"#utility.yul\":6364:6367   */\n      dup5\n        /* \"#utility.yul\":6360:6376   */\n      add\n        /* \"#utility.yul\":6353:6376   */\n      swap2\n      pop\n        /* \"#utility.yul\":6102:6382   */\n      pop\n        /* \"#utility.yul\":5992:6382   */\n      swap3\n      swap2\n      pop\n      pop\n      jump\t// out\n        /* \"#utility.yul\":6388:6663   */\n    tag_23:\n        /* \"#utility.yul\":6520:6523   */\n      0x00\n        /* \"#utility.yul\":6542:6637   */\n      tag_148\n        /* \"#utility.yul\":6633:6636   */\n      dup3\n        /* \"#utility.yul\":6624:6630   */\n      dup5\n        /* \"#utility.yul\":6542:6637   */\n      tag_58\n      jump\t// in\n    tag_148:\n        /* \"#utility.yul\":6535:6637   */\n      swap2\n      pop\n        /* \"#utility.yul\":6654:6657   */\n      dup2\n        /* \"#utility.yul\":6647:6657   */\n      swap1\n      pop\n        /* \"#utility.yul\":6388:6663   */\n      swap3\n      swap2\n      pop\n      pop\n      jump\t// out\n        /* \"#utility.yul\":6669:6849   */\n    tag_59:\n        /* \"#utility.yul\":6717:6794   */\n      0x4e487b7100000000000000000000000000000000000000000000000000000000\n        /* \"#utility.yul\":6714:6715   */\n      0x00\n        /* \"#utility.yul\":6707:6795   */\n      mstore\n        /* \"#utility.yul\":6814:6818   */\n      0x22\n        /* \"#utility.yul\":6811:6812   */\n      0x04\n        /* \"#utility.yul\":6804:6819   */\n      mstore\n        /* \"#utility.yul\":6838:6842   */\n      0x24\n        /* \"#utility.yul\":6835:6836   */\n      0x00\n        /* \"#utility.yul\":6828:6843   */\n      revert\n        /* \"#utility.yul\":6855:7175   */\n    tag_32:\n        /* \"#utility.yul\":6899:6905   */\n      0x00\n        /* \"#utility.yul\":6936:6937   */\n      0x02\n        /* \"#utility.yul\":6930:6934   */\n      dup3\n        /* \"#utility.yul\":6926:6938   */\n      div\n        /* \"#utility.yul\":6916:6938   */\n      swap1\n      pop\n        /* \"#utility.yul\":6983:6984   */\n      0x01\n        /* \"#utility.yul\":6977:6981   */\n      dup3\n        /* \"#utility.yul\":6973:6985   */\n      and\n        /* \"#utility.yul\":7004:7022   */\n      dup1\n        /* \"#utility.yul\":6994:7075   */\n      tag_151\n      jumpi\n        /* \"#utility.yul\":7060:7064   */\n      0x7f\n        /* \"#utility.yul\":7052:7058   */\n      dup3\n        /* \"#utility.yul\":7048:7065   */\n      and\n        /* \"#utility.yul\":7038:7065   */\n      swap2\n      pop\n        /* \"#utility.yul\":6994:7075   */\n    tag_151:\n        /* \"#utility.yul\":7122:7124   */\n      0x20\n        /* \"#utility.yul\":7114:7120   */\n      dup3\n        /* \"#utility.yul\":7111:7125   */\n      lt\n        /* \"#utility.yul\":7091:7109   */\n      dup2\n        /* \"#utility.yul\":7088:7126   */\n      sub\n        /* \"#utility.yul\":7085:7169   */\n      tag_152\n      jumpi\n        /* \"#utility.yul\":7141:7159   */\n      tag_153\n      tag_59\n      jump\t// in\n    tag_153:\n        /* \"#utility.yul\":7085:7169   */\n    tag_152:\n        /* \"#utility.yul\":6906:7175   */\n      pop\n        /* \"#utility.yul\":6855:7175   */\n      swap2\n      swap1\n      pop\n      jump\t// out\n        /* \"#utility.yul\":7181:7322   */\n    tag_60:\n        /* \"#utility.yul\":7230:7234   */\n      0x00\n        /* \"#utility.yul\":7253:7256   */\n      dup2\n        /* \"#utility.yul\":7245:7256   */\n      swap1\n      pop\n        /* \"#utility.yul\":7276:7279   */\n      dup2\n        /* \"#utility.yul\":7273:7274   */\n      0x00\n        /* \"#utility.yul\":7266:7280   */\n      mstore\n        /* \"#utility.yul\":7310:7314   */\n      0x20\n        /* \"#utility.yul\":7307:7308   */\n      0x00\n        /* \"#utility.yul\":7297:7315   */\n      keccak256\n        /* \"#utility.yul\":7289:7315   */\n      swap1\n      pop\n        /* \"#utility.yul\":7181:7322   */\n      swap2\n      swap1\n      pop\n      jump\t// out\n        /* \"#utility.yul\":7328:7421   */\n    tag_61:\n        /* \"#utility.yul\":7365:7371   */\n      0x00\n        /* \"#utility.yul\":7412:7414   */\n      0x20\n        /* \"#utility.yul\":7407:7409   */\n      0x1f\n        /* \"#utility.yul\":7400:7405   */\n      dup4\n        /* \"#utility.yul\":7396:7410   */\n      add\n        /* \"#utility.yul\":7392:7415   */\n      div\n        /* \"#utility.yul\":7382:7415   */\n      swap1\n      pop\n        /* \"#utility.yul\":7328:7421   */\n      swap2\n      swap1\n      pop\n      jump\t// out\n        /* \"#utility.yul\":7427:7534   */\n    tag_62:\n        /* \"#utility.yul\":7471:7479   */\n      0x00\n        /* \"#utility.yul\":7521:7526   */\n      dup3\n        /* \"#utility.yul\":7515:7519   */\n      dup3\n        /* \"#utility.yul\":7511:7527   */\n      shl\n        /* \"#utility.yul\":7490:7527   */\n      swap1\n      pop\n        /* \"#utility.yul\":7427:7534   */\n      swap3\n      swap2\n      pop\n      pop\n      jump\t// out\n        /* \"#utility.yul\":7540:7933   */\n    tag_63:\n        /* \"#utility.yul\":7609:7615   */\n      0x00\n        /* \"#utility.yul\":7659:7660   */\n      0x08\n        /* \"#utility.yul\":7647:7657   */\n      dup4\n        /* \"#utility.yul\":7643:7661   */\n      mul\n        /* \"#utility.yul\":7682:7779   */\n      tag_158\n        /* \"#utility.yul\":7712:7778   */\n      0xffffffffffffffffffffffffffffffffffffffffffffffffffffffffffffffff\n        /* \"#utility.yul\":7701:7710   */\n      dup3\n        /* \"#utility.yul\":7682:7779   */\n      tag_62\n      jump\t// in\n    tag_158:\n        /* \"#utility.yul\":7800:7839   */\n      tag_159\n        /* \"#utility.yul\":7830:7838   */\n      dup7\n        /* \"#utility.yul\":7819:7828   */\n      dup4\n        /* \"#utility.yul\":7800:7839   */\n      tag_62\n      jump\t// in\n    tag_159:\n        /* \"#utility.yul\":7788:7839   */\n      swap6\n      pop\n        /* \"#utility.yul\":7872:7876   */\n      dup1\n        /* \"#utility.yul\":7868:7877   */\n      not\n        /* \"#utility.yul\":7861:7866   */\n      dup5\n        /* \"#utility.yul\":7857:7878   */\n      and\n        /* \"#utility.yul\":7848:7878   */\n      swap4\n      pop\n        /* \"#utility.yul\":7921:7925   */\n      dup1\n        /* \"#utility.yul\":7911:7919   */\n      dup7\n        /* \"#utility.yul\":7907:7926   */\n      and\n        /* \"#utility.yul\":7900:7905   */\n      dup5\n        /* \"#utility.yul\":7897:7927   */\n      or\n        /* \"#utility.yul\":7887:7927   */\n      swap3\n      pop\n        /* \"#utility.yul\":7616:7933   */\n      pop\n      pop\n        /* \"#utility.yul\":7540:7933   */\n      swap4\n      swap3\n      pop\n      pop\n      pop\n      jump\t// out\n        /* \"#utility.yul\":7939:8016   */\n    tag_64:\n        /* \"#utility.yul\":7976:7983   */\n      0x00\n        /* \"#utility.yul\":8005:8010   */\n      dup2\n        /* \"#utility.yul\":7994:8010   */\n      swap1\n      pop\n        /* \"#utility.yul\":7939:8016   */\n      swap2\n      swap1\n      pop\n      jump\t// out\n        /* \"#utility.yul\":8022:8082   */\n    tag_65:\n        /* \"#utility.yul\":8050:8053   */\n      0x00\n        /* \"#utility.yul\":8071:8076   */\n      dup2\n        /* \"#utility.yul\":8064:8076   */\n      swap1\n      pop\n        /* \"#utility.yul\":8022:8082   */\n      swap2\n      swap1\n      pop\n      jump\t// out\n        /* \"#utility.yul\":8088:8230   */\n    tag_66:\n        /* \"#utility.yul\":8138:8147   */\n      0x00\n        /* \"#utility.yul\":8171:8224   */\n      tag_163\n        /* \"#utility.yul\":8189:8223   */\n      tag_164\n        /* \"#utility.yul\":8198:8222   */\n      tag_165\n        /* \"#utility.yul\":8216:8221   */\n      dup5\n        /* \"#utility.yul\":8198:8222   */\n      tag_64\n      jump\t// in\n    tag_165:\n        /* \"#utility.yul\":8189:8223   */\n      tag_65\n      jump\t// in\n    tag_164:\n        /* \"#utility.yul\":8171:8224   */\n      tag_64\n      jump\t// in\n    tag_163:\n        /* \"#utility.yul\":8158:8224   */\n      swap1\n      pop\n        /* \"#utility.yul\":8088:8230   */\n      swap2\n      swap1\n      pop\n      jump\t// out\n        /* \"#utility.yul\":8236:8311   */\n    tag_67:\n        /* \"#utility.yul\":8279:8282   */\n      0x00\n        /* \"#utility.yul\":8300:8305   */\n      dup2\n        /* \"#utility.yul\":8293:8305   */\n      swap1\n      pop\n        /* \"#utility.yul\":8236:8311   */\n      swap2\n      swap1\n      pop\n      jump\t// out\n        /* \"#utility.yul\":8317:8586   */\n    tag_68:\n        /* \"#utility.yul\":8427:8466   */\n      tag_168\n        /* \"#utility.yul\":8458:8465   */\n      dup4\n        /* \"#utility.yul\":8427:8466   */\n      tag_66\n      jump\t// in\n    tag_168:\n        /* \"#utility.yul\":8488:8579   */\n      tag_169\n        /* \"#utility.yul\":8537:8578   */\n      tag_170\n        /* \"#utility.yul\":8561:8577   */\n      dup3\n        /* \"#utility.yul\":8537:8578   */\n      tag_67\n      jump\t// in\n    tag_170:\n        /* \"#utility.yul\":8529:8535   */\n      dup5\n        /* \"#utility.yul\":8522:8526   */\n      dup5\n        /* \"#utility.yul\":8516:8527   */\n      sload\n        /* \"#utility.yul\":8488:8579   */\n      tag_63\n      jump\t// in\n    tag_169:\n        /* \"#utility.yul\":8482:8486   */\n      dup3\n        /* \"#utility.yul\":8475:8580   */\n      sstore\n        /* \"#utility.yul\":8393:8586   */\n      pop\n        /* \"#utility.yul\":8317:8586   */\n      pop\n      pop\n      pop\n      jump\t// out\n        /* \"#utility.yul\":8592:8665   */\n    tag_69:\n        /* \"#utility.yul\":8637:8640   */\n      0x00\n        /* \"#utility.yul\":8592:8665   */\n      swap1\n      jump\t// out\n        /* \"#utility.yul\":8671:8860   */\n    tag_70:\n        /* \"#utility.yul\":8748:8780   */\n      tag_173\n      tag_69\n      jump\t// in\n    tag_173:\n        /* \"#utility.yul\":8789:8854   */\n      tag_174\n        /* \"#utility.yul\":8847:8853   */\n      dup2\n        /* \"#utility.yul\":8839:8845   */\n      dup5\n        /* \"#utility.yul\":8833:8837   */\n      dup5\n        /* \"#utility.yul\":8789:8854   */\n      tag_68\n      jump\t// in\n    tag_174:\n        /* \"#utility.yul\":8724:8860   */\n      pop\n        /* \"#utility.yul\":8671:8860   */\n      pop\n      pop\n      jump\t// out\n        /* \"#utility.yul\":8866:9052   */\n    tag_71:\n        /* \"#utility.yul\":8926:9046   */\n    tag_176:\n        /* \"#utility.yul\":8943:8946   */\n      dup2\n        /* \"#utility.yul\":8936:8941   */\n      dup2\n        /* \"#utility.yul\":8933:8947   */\n      lt\n        /* \"#utility.yul\":8926:9046   */\n      iszero\n      tag_178\n      jumpi\n        /* \"#utility.yul\":8997:9036   */\n      tag_179\n        /* \"#utility.yul\":9034:9035   */\n      0x00\n        /* \"#utility.yul\":9027:9032   */\n      dup3\n        /* \"#utility.yul\":8997:9036   */\n      tag_70\n      jump\t// in\n    tag_179:\n        /* \"#utility.yul\":8970:8971   */\n      0x01\n        /* \"#utility.yul\":8963:8968   */\n      dup2\n        /* \"#utility.yul\":8959:8972   */\n      add\n        /* \"#utility.yul\":8950:8972   */\n      swap1\n      pop\n        /* \"#utility.yul\":8926:9046   */\n      jump(tag_176)\n    tag_178:\n        /* \"#utility.yul\":8866:9052   */\n      pop\n      pop\n      jump\t// out\n        /* \"#utility.yul\":9058:9601   */\n    tag_72:\n        /* \"#utility.yul\":9159:9161   */\n      0x1f\n        /* \"#utility.yul\":9154:9157   */\n      dup3\n        /* \"#utility.yul\":9151:9162   */\n      gt\n        /* \"#utility.yul\":9148:9594   */\n      iszero\n      tag_181\n      jumpi\n        /* \"#utility.yul\":9193:9231   */\n      tag_182\n        /* \"#utility.yul\":9225:9230   */\n      dup2\n        /* \"#utility.yul\":9193:9231   */\n      tag_60\n      jump\t// in\n    tag_182:\n        /* \"#utility.yul\":9277:9306   */\n      tag_183\n        /* \"#utility.yul\":9295:9305   */\n      dup5\n        /* \"#utility.yul\":9277:9306   */\n      tag_61\n      jump\t// in\n    tag_183:\n        /* \"#utility.yul\":9267:9275   */\n      dup2\n        /* \"#utility.yul\":9263:9307   */\n      add\n        /* \"#utility.yul\":9460:9462   */\n      0x20\n        /* \"#utility.yul\":9448:9458   */\n      dup6\n        /* \"#utility.yul\":9445:9463   */\n      lt\n        /* \"#utility.yul\":9442:9491   */\n      iszero\n      tag_184\n      jumpi\n        /* \"#utility.yul\":9481:9489   */\n      dup2\n        /* \"#utility.yul\":9466:9489   */\n      swap1\n      pop\n        /* \"#utility.yul\":9442:9491   */\n    tag_184:\n        /* \"#utility.yul\":9504:9584   */\n      tag_185\n        /* \"#utility.yul\":9560:9582   */\n      tag_186\n        /* \"#utility.yul\":9578:9581   */\n      dup6\n        /* \"#utility.yul\":9560:9582   */\n      tag_61\n      jump\t// in\n    tag_186:\n        /* \"#utility.yul\":9550:9558   */\n      dup4\n        /* \"#utility.yul\":9546:9583   */\n      add\n        /* \"#utility.yul\":9533:9544   */\n      dup3\n        /* \"#utility.yul\":9504:9584   */\n      tag_71\n      jump\t// in\n    tag_185:\n        /* \"#utility.yul\":9163:9594   */\n      pop\n      pop\n        /* \"#utility.yul\":9148:9594   */\n    tag_181:\n        /* \"#utility.yul\":9058:9601   */\n      pop\n      pop\n      pop\n      jump\t// out\n        /* \"#utility.yul\":9607:9724   */\n    tag_73:\n        /* \"#utility.yul\":9661:9669   */\n      0x00\n        /* \"#utility.yul\":9711:9716   */\n      dup3\n        /* \"#utility.yul\":9705:9709   */\n      dup3\n        /* \"#utility.yul\":9701:9717   */\n      shr\n        /* \"#utility.yul\":9680:9717   */\n      swap1\n      pop\n        /* \"#utility.yul\":9607:9724   */\n      swap3\n      swap2\n      pop\n      pop\n      jump\t// out\n        /* \"#utility.yul\":9730:9899   */\n    tag_74:\n        /* \"#utility.yul\":9774:9780   */\n      0x00\n        /* \"#utility.yul\":9807:9858   */\n      tag_189\n        /* \"#utility.yul\":9855:9856   */\n      0x00\n        /* \"#utility.yul\":9851:9857   */\n      not\n        /* \"#utility.yul\":9843:9848   */\n      dup5\n        /* \"#utility.yul\":9840:9841   */\n      0x08\n        /* \"#utility.yul\":9836:9849   */\n      mul\n        /* \"#utility.yul\":9807:9858   */\n      tag_73\n      jump\t// in\n    tag_189:\n        /* \"#utility.yul\":9803:9859   */\n      not\n        /* \"#utility.yul\":9888:9892   */\n      dup1\n        /* \"#utility.yul\":9882:9886   */\n      dup4\n        /* \"#utility.yul\":9878:9893   */\n      and\n        /* \"#utility.yul\":9868:9893   */\n      swap2\n      pop\n        /* \"#utility.yul\":9781:9899   */\n      pop\n        /* \"#utility.yul\":9730:9899   */\n      swap3\n      swap2\n      pop\n      pop\n      jump\t// out\n        /* \"#utility.yul\":9904:10199   */\n    tag_75:\n        /* \"#utility.yul\":9980:9984   */\n      0x00\n        /* \"#utility.yul\":10126:10155   */\n      tag_191\n        /* \"#utility.yul\":10151:10154   */\n      dup4\n        /* \"#utility.yul\":10145:10149   */\n      dup4\n        /* \"#utility.yul\":10126:10155   */\n      tag_74\n      jump\t// in\n    tag_191:\n        /* \"#utility.yul\":10118:10155   */\n      swap2\n      pop\n        /* \"#utility.yul\":10188:10191   */\n      dup3\n        /* \"#utility.yul\":10185:10186   */\n      0x02\n        /* \"#utility.yul\":10181:10192   */\n      mul\n        /* \"#utility.yul\":10175:10179   */\n      dup3\n        /* \"#utility.yul\":10172:10193   */\n      or\n        /* \"#utility.yul\":10164:10193   */\n      swap1\n      pop\n        /* \"#utility.yul\":9904:10199   */\n      swap3\n      swap2\n      pop\n      pop\n      jump\t// out\n        /* \"#utility.yul\":10204:11599   */\n    tag_30:\n        /* \"#utility.yul\":10321:10358   */\n      tag_193\n        /* \"#utility.yul\":10354:10357   */\n      dup3\n        /* \"#utility.yul\":10321:10358   */\n      tag_53\n      jump\t// in\n    tag_193:\n        /* \"#utility.yul\":10423:10441   */\n      0xffffffffffffffff\n        /* \"#utility.yul\":10415:10421   */\n      dup2\n        /* \"#utility.yul\":10412:10442   */\n      gt\n        /* \"#utility.yul\":10409:10465   */\n      iszero\n      tag_194\n      jumpi\n        /* \"#utility.yul\":10445:10463   */\n      tag_195\n      tag_43\n      jump\t// in\n    tag_195:\n        /* \"#utility.yul\":10409:10465   */\n    tag_194:\n        /* \"#utility.yul\":10489:10527   */\n      tag_196\n        /* \"#utility.yul\":10521:10525   */\n      dup3\n        /* \"#utility.yul\":10515:10526   */\n      sload\n        /* \"#utility.yul\":10489:10527   */\n      tag_32\n      jump\t// in\n    tag_196:\n        /* \"#utility.yul\":10574:10641   */\n      tag_197\n        /* \"#utility.yul\":10634:10640   */\n      dup3\n        /* \"#utility.yul\":10626:10632   */\n      dup3\n        /* \"#utility.yul\":10620:10624   */\n      dup6\n        /* \"#utility.yul\":10574:10641   */\n      tag_72\n      jump\t// in\n    tag_197:\n        /* \"#utility.yul\":10668:10669   */\n      0x00\n        /* \"#utility.yul\":10692:10696   */\n      0x20\n        /* \"#utility.yul\":10679:10696   */\n      swap1\n      pop\n        /* \"#utility.yul\":10724:10726   */\n      0x1f\n        /* \"#utility.yul\":10716:10722   */\n      dup4\n        /* \"#utility.yul\":10713:10727   */\n      gt\n        /* \"#utility.yul\":10741:10742   */\n      0x01\n        /* \"#utility.yul\":10736:11354   */\n      dup2\n      eq\n      tag_199\n      jumpi\n        /* \"#utility.yul\":11398:11399   */\n      0x00\n        /* \"#utility.yul\":11415:11421   */\n      dup5\n        /* \"#utility.yul\":11412:11489   */\n      iszero\n      tag_200\n      jumpi\n        /* \"#utility.yul\":11464:11473   */\n      dup3\n        /* \"#utility.yul\":11459:11462   */\n      dup8\n        /* \"#utility.yul\":11455:11474   */\n      add\n        /* \"#utility.yul\":11449:11475   */\n      mload\n        /* \"#utility.yul\":11440:11475   */\n      swap1\n      pop\n        /* \"#utility.yul\":11412:11489   */\n    tag_200:\n        /* \"#utility.yul\":11515:11582   */\n      tag_201\n        /* \"#utility.yul\":11575:11581   */\n      dup6\n        /* \"#utility.yul\":11568:11573   */\n      dup3\n        /* \"#utility.yul\":11515:11582   */\n      tag_75\n      jump\t// in\n    tag_201:\n        /* \"#utility.yul\":11509:11513   */\n      dup7\n        /* \"#utility.yul\":11502:11583   */\n      sstore\n        /* \"#utility.yul\":11371:11593   */\n      pop\n        /* \"#utility.yul\":10706:11593   */\n      jump(tag_198)\n        /* \"#utility.yul\":10736:11354   */\n    tag_199:\n        /* \"#utility.yul\":10788:10792   */\n      0x1f\n        /* \"#utility.yul\":10784:10793   */\n      not\n        /* \"#utility.yul\":10776:10782   */\n      dup5\n        /* \"#utility.yul\":10772:10794   */\n      and\n        /* \"#utility.yul\":10822:10859   */\n      tag_202\n        /* \"#utility.yul\":10854:10858   */\n      dup7\n        /* \"#utility.yul\":10822:10859   */\n      tag_60\n      jump\t// in\n    tag_202:\n        /* \"#utility.yul\":10881:10882   */\n      0x00\n        /* \"#utility.yul\":10895:11103   */\n    tag_203:\n        /* \"#utility.yul\":10909:10916   */\n      dup3\n        /* \"#utility.yul\":10906:10907   */\n      dup2\n        /* \"#utility.yul\":10903:10917   */\n      lt\n        /* \"#utility.yul\":10895:11103   */\n      iszero\n      tag_205\n      jumpi\n        /* \"#utility.yul\":10988:10997   */\n      dup5\n        /* \"#utility.yul\":10983:10986   */\n      dup10\n        /* \"#utility.yul\":10979:10998   */\n      add\n        /* \"#utility.yul\":10973:10999   */\n      mload\n        /* \"#utility.yul\":10965:10971   */\n      dup3\n        /* \"#utility.yul\":10958:11000   */\n      sstore\n        /* \"#utility.yul\":11039:11040   */\n      0x01\n        /* \"#utility.yul\":11031:11037   */\n      dup3\n        /* \"#utility.yul\":11027:11041   */\n      add\n        /* \"#utility.yul\":11017:11041   */\n      swap2\n      pop\n        /* \"#utility.yul\":11086:11088   */\n      0x20\n        /* \"#utility.yul\":11075:11084   */\n      dup6\n        /* \"#utility.yul\":11071:11089   */\n      add\n        /* \"#utility.yul\":11058:11089   */\n      swap5\n      pop\n        /* \"#utility.yul\":10932:10936   */\n      0x20\n        /* \"#utility.yul\":10929:10930   */\n      dup2\n        /* \"#utility.yul\":10925:10937   */\n      add\n        /* \"#utility.yul\":10920:10937   */\n      swap1\n      pop\n        /* \"#utility.yul\":10895:11103   */\n      jump(tag_203)\n    tag_205:\n        /* \"#utility.yul\":11131:11137   */\n      dup7\n        /* \"#utility.yul\":11122:11129   */\n      dup4\n        /* \"#utility.yul\":11119:11138   */\n      lt\n        /* \"#utility.yul\":11116:11295   */\n      iszero\n      tag_206\n      jumpi\n        /* \"#utility.yul\":11189:11198   */\n      dup5\n        /* \"#utility.yul\":11184:11187   */\n      dup10\n        /* \"#utility.yul\":11180:11199   */\n      add\n        /* \"#utility.yul\":11174:11200   */\n      mload\n        /* \"#utility.yul\":11232:11280   */\n      tag_207\n        /* \"#utility.yul\":11274:11278   */\n      0x1f\n        /* \"#utility.yul\":11266:11272   */\n      dup10\n        /* \"#utility.yul\":11262:11279   */\n      and\n        /* \"#utility.yul\":11251:11260   */\n      dup3\n        /* \"#utility.yul\":11232:11280   */\n      tag_74\n      jump\t// in\n    tag_207:\n        /* \"#utility.yul\":11224:11230   */\n      dup4\n        /* \"#utility.yul\":11217:11281   */\n      sstore\n        /* \"#utility.yul\":11139:11295   */\n      pop\n        /* \"#utility.yul\":11116:11295   */\n    tag_206:\n        /* \"#utility.yul\":11341:11342   */\n      0x01\n        /* \"#utility.yul\":11337:11338   */\n      0x02\n        /* \"#utility.yul\":11329:11335   */\n      dup9\n        /* \"#utility.yul\":11325:11339   */\n      mul\n        /* \"#utility.yul\":11321:11343   */\n      add\n        /* \"#utility.yul\":11315:11319   */\n      dup9\n        /* \"#utility.yul\":11308:11344   */\n      sstore\n        /* \"#utility.yul\":10743:11354   */\n      pop\n      pop\n      pop\n        /* \"#utility.yul\":10706:11593   */\n    tag_198:\n      pop\n        /* \"#utility.yul\":10296:11599   */\n      pop\n      pop\n      pop\n        /* \"#utility.yul\":10204:11599   */\n      pop\n      pop\n      jump\t// out\n    stop\n\n    sub_0: assembly {\n            /* \"FakeProdIden.sol\":628:4446  contract FakeProdIden... */\n          mstore(0x40, 0x80)\n          callvalue\n          dup1\n          iszero\n          tag_1\n          jumpi\n          0x00\n          dup1\n          revert\n        tag_1:\n          pop\n          dataSize(sub_0)\n          dup1\n          dataOffset(sub_0)\n          0x00\n          codecopy\n          0x00\n          return\n        stop\n\n        sub_0: assembly {\n                /* \"FakeProdIden.sol\":628:4446  contract FakeProdIden... */\n              mstore(0x40, 0x80)\n              callvalue\n              dup1\n              iszero\n              tag_1\n              jumpi\n              0x00\n              dup1\n              revert\n            tag_1:\n              pop\n              jumpi(tag_2, lt(calldatasize, 0x04))\n              shr(0xe0, calldataload(0x00))\n              dup1\n              0x9ab1a6cc\n              gt\n              tag_15\n              jumpi\n              dup1\n              0x9ab1a6cc\n              eq\n              tag_9\n              jumpi\n              dup1\n              0xb15bf255\n              eq\n              tag_10\n              jumpi\n              dup1\n              0xc0effb7d\n              eq\n              tag_11\n              jumpi\n              dup1\n              0xd8ce6572\n              eq\n              tag_12\n              jumpi\n              dup1\n              0xe47766ff\n              eq\n              tag_13\n              jumpi\n              dup1\n              0xea42c7ef\n              eq\n              tag_14\n              jumpi\n              jump(tag_2)\n            tag_15:\n              dup1\n              0x0e34b00e\n              eq\n              tag_3\n              jumpi\n              dup1\n              0x19fd360c\n              eq\n              tag_4\n              jumpi\n              dup1\n              0x220f8ade\n              eq\n              tag_5\n              jumpi\n              dup1\n              0x67027df6\n              eq\n              tag_6\n              jumpi\n              dup1\n              0x733a744a\n              eq\n              tag_7\n              jumpi\n              dup1\n              0x7f975a37\n              eq\n              tag_8\n              jumpi\n            tag_2:\n              0x00\n              dup1\n              revert\n                /* \"FakeProdIden.sol\":1615:1838  function addProduct(string memory id, string memory name, string memory brandName) public... */\n            tag_3:\n              tag_16\n              0x04\n              dup1\n              calldatasize\n              sub\n              dup2\n              add\n              swap1\n              tag_17\n              swap2\n              swap1\n              tag_18\n              jump\t// in\n            tag_17:\n              tag_19\n              jump\t// in\n            tag_16:\n              stop\n                /* \"FakeProdIden.sol\":3523:3858  function addProductsBatch(string[] memory ids, string[] memory names, string[] memory brandNames) public {... */\n            tag_4:\n              tag_20\n              0x04\n              dup1\n              calldatasize\n              sub\n              dup2\n              add\n              swap1\n              tag_21\n              swap2\n              swap1\n              tag_22\n              jump\t// in\n            tag_21:\n              tag_23\n              jump\t// in\n            tag_20:\n              stop\n                /* \"FakeProdIden.sol\":2878:3468  function productVerification(string memory prodId, uint32 consumerCode) public view returns(bool) ... */\n            tag_5:\n              tag_24\n              0x04\n              dup1\n              calldatasize\n              sub\n              dup2\n              add\n              swap1\n              tag_25\n              swap2\n              swap1\n              tag_26\n              jump\t// in\n            tag_25:\n              tag_27\n              jump\t// in\n            tag_24:\n              mload(0x40)\n              tag_28\n              swap2\n              swap1\n              tag_29\n              jump\t// in\n            tag_28:\n              mload(0x40)\n              dup1\n              swap2\n              sub\n              swap1\n              return\n                /* \"FakeProdIden.sol\":3934:4221  function sellToSellersBatch(string[] memory prodIds, string[] memory sellerIds) public {... */\n            tag_6:\n              tag_30\n              0x04\n              dup1\n              calldatasize\n              sub\n              dup2\n              add\n              swap1\n              tag_31\n              swap2\n              swap1\n              tag_32\n              jump\t// in\n            tag_31:\n              tag_33\n              jump\t// in\n            tag_30:\n              stop\n                /* \"FakeProdIden.sol\":4275:4443  function addSellersBatch(string[] memory sellerIds) public {... */\n            tag_7:\n              tag_34\n              0x04\n              dup1\n              calldatasize\n              sub\n              dup2\n              add\n              swap1\n              tag_35\n              swap2\n              swap1\n              tag_36\n              jump\t// in\n            tag_35:\n              tag_37\n              jump\t// in\n            tag_34:\n              stop\n                /* \"FakeProdIden.sol\":2518:2822  function sellToConsumer(string memory prodId, uint32 consumerCode) public ... */\n            tag_8:\n              tag_38\n              0x04\n              dup1\n              calldatasize\n              sub\n              dup2\n              add\n              swap1\n              tag_39\n              swap2\n              swap1\n              tag_26\n              jump\t// in\n            tag_39:\n              tag_40\n              jump\t// in\n            tag_38:\n              stop\n                /* \"FakeProdIden.sol\":1278:1329  mapping(string => bool) public hasReachedToConsumer */\n            tag_9:\n              tag_41\n              0x04\n              dup1\n              calldatasize\n              sub\n              dup2\n              add\n              swap1\n              tag_42\n              swap2\n              swap1\n              tag_43\n              jump\t// in\n            tag_42:\n              tag_44\n              jump\t// in\n            tag_41:\n              mload(0x40)\n              tag_45\n              swap2\n              swap1\n              tag_29\n              jump\t// in\n            tag_45:\n              mload(0x40)\n              dup1\n              swap2\n              sub\n              swap1\n              return\n                /* \"FakeProdIden.sol\":1367:1415  mapping(string => Product) public productStorage */\n            tag_10:\n              tag_46\n              0x04\n              dup1\n              calldatasize\n              sub\n              dup2\n              add\n              swap1\n              tag_47\n              swap2\n              swap1\n              tag_43\n              jump\t// in\n            tag_47:\n              tag_48\n              jump\t// in\n            tag_46:\n              mload(0x40)\n              tag_49\n              swap6\n              swap5\n              swap4\n              swap3\n              swap2\n              swap1\n              tag_50\n              jump\t// in\n            tag_49:\n              mload(0x40)\n              dup1\n              swap2\n              sub\n              swap1\n              return\n                /* \"FakeProdIden.sol\":1907:2228  function sellToSeller(string memory prodId, string memory sellerId) public ... */\n            tag_11:\n              tag_51\n              0x04\n              dup1\n              calldatasize\n              sub\n              dup2\n              add\n              swap1\n              tag_52\n              swap2\n              swap1\n              tag_53\n              jump\t// in\n            tag_52:\n              tag_54\n              jump\t// in\n            tag_51:\n              stop\n                /* \"FakeProdIden.sol\":1183:1239  mapping(string => reachSeller) public hasReachedToSeller */\n            tag_12:\n              tag_55\n              0x04\n              dup1\n              calldatasize\n              sub\n              dup2\n              add\n              swap1\n              tag_56\n              swap2\n              swap1\n              tag_43\n              jump\t// in\n            tag_56:\n              tag_57\n              jump\t// in\n            tag_55:\n              mload(0x40)\n              tag_58\n              swap3\n              swap2\n              swap1\n              tag_59\n              jump\t// in\n            tag_58:\n              mload(0x40)\n              dup1\n              swap2\n              sub\n              swap1\n              return\n                /* \"FakeProdIden.sol\":2319:2451  function addSellers(string memory sellerId) public ... */\n            tag_13:\n              tag_60\n              0x04\n              dup1\n              calldatasize\n              sub\n              dup2\n              add\n              swap1\n              tag_61\n              swap2\n              swap1\n              tag_43\n              jump\t// in\n            tag_61:\n              tag_62\n              jump\t// in\n            tag_60:\n              stop\n                /* \"FakeProdIden.sol\":1464:1515  mapping(string => SellerInfo) public allSellersInfo */\n            tag_14:\n              tag_63\n              0x04\n              dup1\n              calldatasize\n              sub\n              dup2\n              add\n              swap1\n              tag_64\n              swap2\n              swap1\n              tag_43\n              jump\t// in\n            tag_64:\n              tag_65\n              jump\t// in\n            tag_63:\n              mload(0x40)\n              tag_66\n              swap3\n              swap2\n              swap1\n              tag_67\n              jump\t// in\n            tag_66:\n              mload(0x40)\n              dup1\n              swap2\n              sub\n              swap1\n              return\n                /* \"FakeProdIden.sol\":1615:1838  function addProduct(string memory id, string memory name, string memory brandName) public... */\n            tag_19:\n                /* \"FakeProdIden.sol\":1757:1762  false */\n              0x00\n                /* \"FakeProdIden.sol\":1727:1762  productStorage[id].hasmade == false */\n              iszero\n              iszero\n                /* \"FakeProdIden.sol\":1727:1741  productStorage */\n              0x02\n                /* \"FakeProdIden.sol\":1742:1744  id */\n              dup5\n                /* \"FakeProdIden.sol\":1727:1745  productStorage[id] */\n              mload(0x40)\n              tag_69\n              swap2\n              swap1\n              tag_70\n              jump\t// in\n            tag_69:\n              swap1\n              dup2\n              mstore\n              0x20\n              add\n              mload(0x40)\n              dup1\n              swap2\n              sub\n              swap1\n              keccak256\n                /* \"FakeProdIden.sol\":1727:1753  productStorage[id].hasmade */\n              0x03\n              add\n              0x00\n              swap1\n              sload\n              swap1\n              0x0100\n              exp\n              swap1\n              div\n              0xff\n              and\n                /* \"FakeProdIden.sol\":1727:1762  productStorage[id].hasmade == false */\n              iszero\n              iszero\n              eq\n                /* \"FakeProdIden.sol\":1719:1763  require(productStorage[id].hasmade == false) */\n              tag_71\n              jumpi\n              0x00\n              dup1\n              revert\n            tag_71:\n                /* \"FakeProdIden.sol\":1794:1831  Product(id, name, brandName, true, 0) */\n              mload(0x40)\n              dup1\n              0xa0\n              add\n              0x40\n              mstore\n              dup1\n                /* \"FakeProdIden.sol\":1802:1804  id */\n              dup5\n                /* \"FakeProdIden.sol\":1794:1831  Product(id, name, brandName, true, 0) */\n              dup2\n              mstore\n              0x20\n              add\n                /* \"FakeProdIden.sol\":1806:1810  name */\n              dup4\n                /* \"FakeProdIden.sol\":1794:1831  Product(id, name, brandName, true, 0) */\n              dup2\n              mstore\n              0x20\n              add\n                /* \"FakeProdIden.sol\":1812:1821  brandName */\n              dup3\n                /* \"FakeProdIden.sol\":1794:1831  Product(id, name, brandName, true, 0) */\n              dup2\n              mstore\n              0x20\n              add\n                /* \"FakeProdIden.sol\":1823:1827  true */\n              0x01\n                /* \"FakeProdIden.sol\":1794:1831  Product(id, name, brandName, true, 0) */\n              iszero\n              iszero\n              dup2\n              mstore\n              0x20\n              add\n                /* \"FakeProdIden.sol\":1829:1830  0 */\n              0x00\n                /* \"FakeProdIden.sol\":1794:1831  Product(id, name, brandName, true, 0) */\n              0xffffffff\n              and\n              dup2\n              mstore\n              pop\n                /* \"FakeProdIden.sol\":1773:1787  productStorage */\n              0x02\n                /* \"FakeProdIden.sol\":1788:1790  id */\n              dup5\n                /* \"FakeProdIden.sol\":1773:1791  productStorage[id] */\n              mload(0x40)\n              tag_72\n              swap2\n              swap1\n              tag_70\n              jump\t// in\n            tag_72:\n              swap1\n              dup2\n              mstore\n              0x20\n              add\n              mload(0x40)\n              dup1\n              swap2\n              sub\n              swap1\n              keccak256\n                /* \"FakeProdIden.sol\":1773:1831  productStorage[id] = Product(id, name, brandName, true, 0) */\n              0x00\n              dup3\n              add\n              mload\n              dup2\n              0x00\n              add\n              swap1\n              dup2\n              tag_73\n              swap2\n              swap1\n              tag_74\n              jump\t// in\n            tag_73:\n              pop\n              0x20\n              dup3\n              add\n              mload\n              dup2\n              0x01\n              add\n              swap1\n              dup2\n              tag_75\n              swap2\n              swap1\n              tag_74\n              jump\t// in\n            tag_75:\n              pop\n              0x40\n              dup3\n              add\n              mload\n              dup2\n              0x02\n              add\n              swap1\n              dup2\n              tag_76\n              swap2\n              swap1\n              tag_74\n              jump\t// in\n            tag_76:\n              pop\n              0x60\n              dup3\n              add\n              mload\n              dup2\n              0x03\n              add\n              exp(0x0100, 0x00)\n              dup2\n              sload\n              dup2\n              0xff\n              mul\n              not\n              and\n              swap1\n              dup4\n              iszero\n              iszero\n              mul\n              or\n              swap1\n              sstore\n              pop\n              0x80\n              dup3\n              add\n              mload\n              dup2\n              0x03\n              add\n              exp(0x0100, 0x01)\n              dup2\n              sload\n              dup2\n              0xffffffff\n              mul\n              not\n              and\n              swap1\n              dup4\n              0xffffffff\n              and\n              mul\n              or\n              swap1\n              sstore\n              pop\n              swap1\n              pop\n              pop\n                /* \"FakeProdIden.sol\":1615:1838  function addProduct(string memory id, string memory name, string memory brandName) public... */\n              pop\n              pop\n              pop\n              jump\t// out\n                /* \"FakeProdIden.sol\":3523:3858  function addProductsBatch(string[] memory ids, string[] memory names, string[] memory brandNames) public {... */\n            tag_23:\n                /* \"FakeProdIden.sol\":3660:3665  names */\n              dup2\n                /* \"FakeProdIden.sol\":3660:3672  names.length */\n              mload\n                /* \"FakeProdIden.sol\":3646:3649  ids */\n              dup4\n                /* \"FakeProdIden.sol\":3646:3656  ids.length */\n              mload\n                /* \"FakeProdIden.sol\":3646:3672  ids.length == names.length */\n              eq\n                /* \"FakeProdIden.sol\":3646:3709  ids.length == names.length && names.length == brandNames.length */\n              dup1\n              iszero\n              tag_78\n              jumpi\n              pop\n                /* \"FakeProdIden.sol\":3692:3702  brandNames */\n              dup1\n                /* \"FakeProdIden.sol\":3692:3709  brandNames.length */\n              mload\n                /* \"FakeProdIden.sol\":3676:3681  names */\n              dup3\n                /* \"FakeProdIden.sol\":3676:3688  names.length */\n              mload\n                /* \"FakeProdIden.sol\":3676:3709  names.length == brandNames.length */\n              eq\n                /* \"FakeProdIden.sol\":3646:3709  ids.length == names.length && names.length == brandNames.length */\n            tag_78:\n                /* \"FakeProdIden.sol\":3638:3736  require(ids.length == names.length && names.length == brandNames.length, \"Arrays length mismatch\") */\n              tag_79\n              jumpi\n              mload(0x40)\n              0x08c379a000000000000000000000000000000000000000000000000000000000\n              dup2\n              mstore\n              0x04\n              add\n              tag_80\n              swap1\n              tag_81\n              jump\t// in\n            tag_80:\n              mload(0x40)\n              dup1\n              swap2\n              sub\n              swap1\n              revert\n            tag_79:\n                /* \"FakeProdIden.sol\":3751:3757  uint i */\n              0x00\n                /* \"FakeProdIden.sol\":3746:3852  for (uint i = 0; i < ids.length; i++) {... */\n            tag_82:\n                /* \"FakeProdIden.sol\":3767:3770  ids */\n              dup4\n                /* \"FakeProdIden.sol\":3767:3777  ids.length */\n              mload\n                /* \"FakeProdIden.sol\":3763:3764  i */\n              dup2\n                /* \"FakeProdIden.sol\":3763:3777  i < ids.length */\n              lt\n                /* \"FakeProdIden.sol\":3746:3852  for (uint i = 0; i < ids.length; i++) {... */\n              iszero\n              tag_83\n              jumpi\n                /* \"FakeProdIden.sol\":3798:3841  addProduct(ids[i], names[i], brandNames[i]) */\n              tag_85\n                /* \"FakeProdIden.sol\":3809:3812  ids */\n              dup5\n                /* \"FakeProdIden.sol\":3813:3814  i */\n              dup3\n                /* \"FakeProdIden.sol\":3809:3815  ids[i] */\n              dup2\n              mload\n              dup2\n              lt\n              tag_86\n              jumpi\n              tag_87\n              tag_88\n              jump\t// in\n            tag_87:\n            tag_86:\n              0x20\n              mul\n              0x20\n              add\n              add\n              mload\n                /* \"FakeProdIden.sol\":3817:3822  names */\n              dup5\n                /* \"FakeProdIden.sol\":3823:3824  i */\n              dup4\n                /* \"FakeProdIden.sol\":3817:3825  names[i] */\n              dup2\n              mload\n              dup2\n              lt\n              tag_89\n              jumpi\n              tag_90\n              tag_88\n              jump\t// in\n            tag_90:\n            tag_89:\n              0x20\n              mul\n              0x20\n              add\n              add\n              mload\n                /* \"FakeProdIden.sol\":3827:3837  brandNames */\n              dup5\n                /* \"FakeProdIden.sol\":3838:3839  i */\n              dup5\n                /* \"FakeProdIden.sol\":3827:3840  brandNames[i] */\n              dup2\n              mload\n              dup2\n              lt\n              tag_91\n              jumpi\n              tag_92\n              tag_88\n              jump\t// in\n            tag_92:\n            tag_91:\n              0x20\n              mul\n              0x20\n              add\n              add\n              mload\n                /* \"FakeProdIden.sol\":3798:3808  addProduct */\n              tag_19\n                /* \"FakeProdIden.sol\":3798:3841  addProduct(ids[i], names[i], brandNames[i]) */\n              jump\t// in\n            tag_85:\n                /* \"FakeProdIden.sol\":3779:3782  i++ */\n              dup1\n              dup1\n              0x01\n              add\n              swap2\n              pop\n              pop\n                /* \"FakeProdIden.sol\":3746:3852  for (uint i = 0; i < ids.length; i++) {... */\n              jump(tag_82)\n            tag_83:\n              pop\n                /* \"FakeProdIden.sol\":3523:3858  function addProductsBatch(string[] memory ids, string[] memory names, string[] memory brandNames) public {... */\n              pop\n              pop\n              pop\n              jump\t// out\n                /* \"FakeProdIden.sol\":2878:3468  function productVerification(string memory prodId, uint32 consumerCode) public view returns(bool) ... */\n            tag_27:\n                /* \"FakeProdIden.sol\":2970:2974  bool */\n              0x00\n                /* \"FakeProdIden.sol\":3258:3262  true */\n              0x01\n                /* \"FakeProdIden.sol\":3217:3262  hasReachedToSeller[prodId].hasReached == true */\n              iszero\n              iszero\n                /* \"FakeProdIden.sol\":3217:3235  hasReachedToSeller */\n              0x00\n                /* \"FakeProdIden.sol\":3236:3242  prodId */\n              dup5\n                /* \"FakeProdIden.sol\":3217:3243  hasReachedToSeller[prodId] */\n              mload(0x40)\n              tag_94\n              swap2\n              swap1\n              tag_70\n              jump\t// in\n            tag_94:\n              swap1\n              dup2\n              mstore\n              0x20\n              add\n              mload(0x40)\n              dup1\n              swap2\n              sub\n              swap1\n              keccak256\n                /* \"FakeProdIden.sol\":3217:3254  hasReachedToSeller[prodId].hasReached */\n              0x01\n              add\n              0x00\n              swap1\n              sload\n              swap1\n              0x0100\n              exp\n              swap1\n              div\n              0xff\n              and\n                /* \"FakeProdIden.sol\":3217:3262  hasReachedToSeller[prodId].hasReached == true */\n              iszero\n              iszero\n              eq\n                /* \"FakeProdIden.sol\":3217:3302  hasReachedToSeller[prodId].hasReached == true && hasReachedToConsumer[prodId] == true */\n              dup1\n              iszero\n              tag_95\n              jumpi\n              pop\n                /* \"FakeProdIden.sol\":3298:3302  true */\n              0x01\n                /* \"FakeProdIden.sol\":3266:3302  hasReachedToConsumer[prodId] == true */\n              iszero\n              iszero\n                /* \"FakeProdIden.sol\":3266:3286  hasReachedToConsumer */\n              0x01\n                /* \"FakeProdIden.sol\":3287:3293  prodId */\n              dup5\n                /* \"FakeProdIden.sol\":3266:3294  hasReachedToConsumer[prodId] */\n              mload(0x40)\n              tag_96\n              swap2\n              swap1\n              tag_70\n              jump\t// in\n            tag_96:\n              swap1\n              dup2\n              mstore\n              0x20\n              add\n              mload(0x40)\n              dup1\n              swap2\n              sub\n              swap1\n              keccak256\n              0x00\n              swap1\n              sload\n              swap1\n              0x0100\n              exp\n              swap1\n              div\n              0xff\n              and\n                /* \"FakeProdIden.sol\":3266:3302  hasReachedToConsumer[prodId] == true */\n              iszero\n              iszero\n              eq\n                /* \"FakeProdIden.sol\":3217:3302  hasReachedToSeller[prodId].hasReached == true && hasReachedToConsumer[prodId] == true */\n            tag_95:\n                /* \"FakeProdIden.sol\":3217:3357  hasReachedToSeller[prodId].hasReached == true && hasReachedToConsumer[prodId] == true && productStorage[prodId].consumerCode == consumerCode */\n              dup1\n              iszero\n              tag_97\n              jumpi\n              pop\n                /* \"FakeProdIden.sol\":3345:3357  consumerCode */\n              dup2\n                /* \"FakeProdIden.sol\":3306:3357  productStorage[prodId].consumerCode == consumerCode */\n              0xffffffff\n              and\n                /* \"FakeProdIden.sol\":3306:3320  productStorage */\n              0x02\n                /* \"FakeProdIden.sol\":3321:3327  prodId */\n              dup5\n                /* \"FakeProdIden.sol\":3306:3328  productStorage[prodId] */\n              mload(0x40)\n              tag_98\n              swap2\n              swap1\n              tag_70\n              jump\t// in\n            tag_98:\n              swap1\n              dup2\n              mstore\n              0x20\n              add\n              mload(0x40)\n              dup1\n              swap2\n              sub\n              swap1\n              keccak256\n                /* \"FakeProdIden.sol\":3306:3341  productStorage[prodId].consumerCode */\n              0x03\n              add\n              0x01\n              swap1\n              sload\n              swap1\n              0x0100\n              exp\n              swap1\n              div\n              0xffffffff\n              and\n                /* \"FakeProdIden.sol\":3306:3357  productStorage[prodId].consumerCode == consumerCode */\n              0xffffffff\n              and\n              eq\n                /* \"FakeProdIden.sol\":3217:3357  hasReachedToSeller[prodId].hasReached == true && hasReachedToConsumer[prodId] == true && productStorage[prodId].consumerCode == consumerCode */\n            tag_97:\n                /* \"FakeProdIden.sol\":3214:3462  if(hasReachedToSeller[prodId].hasReached == true && hasReachedToConsumer[prodId] == true && productStorage[prodId].consumerCode == consumerCode)... */\n              iszero\n              tag_99\n              jumpi\n                /* \"FakeProdIden.sol\":3388:3392  true */\n              0x01\n                /* \"FakeProdIden.sol\":3381:3392  return true */\n              swap1\n              pop\n              jump(tag_93)\n                /* \"FakeProdIden.sol\":3214:3462  if(hasReachedToSeller[prodId].hasReached == true && hasReachedToConsumer[prodId] == true && productStorage[prodId].consumerCode == consumerCode)... */\n            tag_99:\n                /* \"FakeProdIden.sol\":3446:3451  false */\n              0x00\n                /* \"FakeProdIden.sol\":3439:3451  return false */\n              swap1\n              pop\n                /* \"FakeProdIden.sol\":2878:3468  function productVerification(string memory prodId, uint32 consumerCode) public view returns(bool) ... */\n            tag_93:\n              swap3\n              swap2\n              pop\n              pop\n              jump\t// out\n                /* \"FakeProdIden.sol\":3934:4221  function sellToSellersBatch(string[] memory prodIds, string[] memory sellerIds) public {... */\n            tag_33:\n                /* \"FakeProdIden.sol\":4057:4066  sellerIds */\n              dup1\n                /* \"FakeProdIden.sol\":4057:4073  sellerIds.length */\n              mload\n                /* \"FakeProdIden.sol\":4039:4046  prodIds */\n              dup3\n                /* \"FakeProdIden.sol\":4039:4053  prodIds.length */\n              mload\n                /* \"FakeProdIden.sol\":4039:4073  prodIds.length == sellerIds.length */\n              eq\n                /* \"FakeProdIden.sol\":4031:4100  require(prodIds.length == sellerIds.length, \"Arrays length mismatch\") */\n              tag_102\n              jumpi\n              mload(0x40)\n              0x08c379a000000000000000000000000000000000000000000000000000000000\n              dup2\n              mstore\n              0x04\n              add\n              tag_103\n              swap1\n              tag_81\n              jump\t// in\n            tag_103:\n              mload(0x40)\n              dup1\n              swap2\n              sub\n              swap1\n              revert\n            tag_102:\n                /* \"FakeProdIden.sol\":4115:4121  uint i */\n              0x00\n                /* \"FakeProdIden.sol\":4110:4215  for (uint i = 0; i < prodIds.length; i++) {... */\n            tag_104:\n                /* \"FakeProdIden.sol\":4131:4138  prodIds */\n              dup3\n                /* \"FakeProdIden.sol\":4131:4145  prodIds.length */\n              mload\n                /* \"FakeProdIden.sol\":4127:4128  i */\n              dup2\n                /* \"FakeProdIden.sol\":4127:4145  i < prodIds.length */\n              lt\n                /* \"FakeProdIden.sol\":4110:4215  for (uint i = 0; i < prodIds.length; i++) {... */\n              iszero\n              tag_105\n              jumpi\n                /* \"FakeProdIden.sol\":4166:4204  sellToSeller(prodIds[i], sellerIds[i]) */\n              tag_107\n                /* \"FakeProdIden.sol\":4179:4186  prodIds */\n              dup4\n                /* \"FakeProdIden.sol\":4187:4188  i */\n              dup3\n                /* \"FakeProdIden.sol\":4179:4189  prodIds[i] */\n              dup2\n              mload\n              dup2\n              lt\n              tag_108\n              jumpi\n              tag_109\n              tag_88\n              jump\t// in\n            tag_109:\n            tag_108:\n              0x20\n              mul\n              0x20\n              add\n              add\n              mload\n                /* \"FakeProdIden.sol\":4191:4200  sellerIds */\n              dup4\n                /* \"FakeProdIden.sol\":4201:4202  i */\n              dup4\n                /* \"FakeProdIden.sol\":4191:4203  sellerIds[i] */\n              dup2\n              mload\n              dup2\n              lt\n              tag_110\n              jumpi\n              tag_111\n              tag_88\n              jump\t// in\n            tag_111:\n            tag_110:\n              0x20\n              mul\n              0x20\n              add\n              add\n              mload\n                /* \"FakeProdIden.sol\":4166:4178  sellToSeller */\n              tag_54\n                /* \"FakeProdIden.sol\":4166:4204  sellToSeller(prodIds[i], sellerIds[i]) */\n              jump\t// in\n            tag_107:\n                /* \"FakeProdIden.sol\":4147:4150  i++ */\n              dup1\n              dup1\n              0x01\n              add\n              swap2\n              pop\n              pop\n                /* \"FakeProdIden.sol\":4110:4215  for (uint i = 0; i < prodIds.length; i++) {... */\n              jump(tag_104)\n            tag_105:\n              pop\n                /* \"FakeProdIden.sol\":3934:4221  function sellToSellersBatch(string[] memory prodIds, string[] memory sellerIds) public {... */\n              pop\n              pop\n              jump\t// out\n                /* \"FakeProdIden.sol\":4275:4443  function addSellersBatch(string[] memory sellerIds) public {... */\n            tag_37:\n                /* \"FakeProdIden.sol\":4349:4355  uint i */\n              0x00\n                /* \"FakeProdIden.sol\":4344:4437  for (uint i = 0; i < sellerIds.length; i++) {... */\n            tag_113:\n                /* \"FakeProdIden.sol\":4365:4374  sellerIds */\n              dup2\n                /* \"FakeProdIden.sol\":4365:4381  sellerIds.length */\n              mload\n                /* \"FakeProdIden.sol\":4361:4362  i */\n              dup2\n                /* \"FakeProdIden.sol\":4361:4381  i < sellerIds.length */\n              lt\n                /* \"FakeProdIden.sol\":4344:4437  for (uint i = 0; i < sellerIds.length; i++) {... */\n              iszero\n              tag_114\n              jumpi\n                /* \"FakeProdIden.sol\":4402:4426  addSellers(sellerIds[i]) */\n              tag_116\n                /* \"FakeProdIden.sol\":4413:4422  sellerIds */\n              dup3\n                /* \"FakeProdIden.sol\":4423:4424  i */\n              dup3\n                /* \"FakeProdIden.sol\":4413:4425  sellerIds[i] */\n              dup2\n              mload\n              dup2\n              lt\n              tag_117\n              jumpi\n              tag_118\n              tag_88\n              jump\t// in\n            tag_118:\n            tag_117:\n              0x20\n              mul\n              0x20\n              add\n              add\n              mload\n                /* \"FakeProdIden.sol\":4402:4412  addSellers */\n              tag_62\n                /* \"FakeProdIden.sol\":4402:4426  addSellers(sellerIds[i]) */\n              jump\t// in\n            tag_116:\n                /* \"FakeProdIden.sol\":4383:4386  i++ */\n              dup1\n              dup1\n              0x01\n              add\n              swap2\n              pop\n              pop\n                /* \"FakeProdIden.sol\":4344:4437  for (uint i = 0; i < sellerIds.length; i++) {... */\n              jump(tag_113)\n            tag_114:\n              pop\n                /* \"FakeProdIden.sol\":4275:4443  function addSellersBatch(string[] memory sellerIds) public {... */\n              pop\n              jump\t// out\n                /* \"FakeProdIden.sol\":2518:2822  function sellToConsumer(string memory prodId, uint32 consumerCode) public ... */\n            tag_40:\n                /* \"FakeProdIden.sol\":2649:2653  true */\n              0x01\n                /* \"FakeProdIden.sol\":2615:2653  productStorage[prodId].hasmade == true */\n              iszero\n              iszero\n                /* \"FakeProdIden.sol\":2615:2629  productStorage */\n              0x02\n                /* \"FakeProdIden.sol\":2630:2636  prodId */\n              dup4\n                /* \"FakeProdIden.sol\":2615:2637  productStorage[prodId] */\n              mload(0x40)\n              tag_120\n              swap2\n              swap1\n              tag_70\n              jump\t// in\n            tag_120:\n              swap1\n              dup2\n              mstore\n              0x20\n              add\n              mload(0x40)\n              dup1\n              swap2\n              sub\n              swap1\n              keccak256\n                /* \"FakeProdIden.sol\":2615:2645  productStorage[prodId].hasmade */\n              0x03\n              add\n              0x00\n              swap1\n              sload\n              swap1\n              0x0100\n              exp\n              swap1\n              div\n              0xff\n              and\n                /* \"FakeProdIden.sol\":2615:2653  productStorage[prodId].hasmade == true */\n              iszero\n              iszero\n              eq\n                /* \"FakeProdIden.sol\":2607:2654  require(productStorage[prodId].hasmade == true) */\n              tag_121\n              jumpi\n              0x00\n              dup1\n              revert\n            tag_121:\n                /* \"FakeProdIden.sol\":2704:2709  false */\n              0x00\n                /* \"FakeProdIden.sol\":2672:2709  hasReachedToConsumer[prodId] == false */\n              iszero\n              iszero\n                /* \"FakeProdIden.sol\":2672:2692  hasReachedToConsumer */\n              0x01\n                /* \"FakeProdIden.sol\":2693:2699  prodId */\n              dup4\n                /* \"FakeProdIden.sol\":2672:2700  hasReachedToConsumer[prodId] */\n              mload(0x40)\n              tag_122\n              swap2\n              swap1\n              tag_70\n              jump\t// in\n            tag_122:\n              swap1\n              dup2\n              mstore\n              0x20\n              add\n              mload(0x40)\n              dup1\n              swap2\n              sub\n              swap1\n              keccak256\n              0x00\n              swap1\n              sload\n              swap1\n              0x0100\n              exp\n              swap1\n              div\n              0xff\n              and\n                /* \"FakeProdIden.sol\":2672:2709  hasReachedToConsumer[prodId] == false */\n              iszero\n              iszero\n              eq\n                /* \"FakeProdIden.sol\":2664:2710  require(hasReachedToConsumer[prodId] == false) */\n              tag_123\n              jumpi\n              0x00\n              dup1\n              revert\n            tag_123:\n                /* \"FakeProdIden.sol\":2751:2755  true */\n              0x01\n                /* \"FakeProdIden.sol\":2720:2740  hasReachedToConsumer */\n              dup1\n                /* \"FakeProdIden.sol\":2741:2747  prodId */\n              dup4\n                /* \"FakeProdIden.sol\":2720:2748  hasReachedToConsumer[prodId] */\n              mload(0x40)\n              tag_124\n              swap2\n              swap1\n              tag_70\n              jump\t// in\n            tag_124:\n              swap1\n              dup2\n              mstore\n              0x20\n              add\n              mload(0x40)\n              dup1\n              swap2\n              sub\n              swap1\n              keccak256\n              0x00\n                /* \"FakeProdIden.sol\":2720:2755  hasReachedToConsumer[prodId] = true */\n              0x0100\n              exp\n              dup2\n              sload\n              dup2\n              0xff\n              mul\n              not\n              and\n              swap1\n              dup4\n              iszero\n              iszero\n              mul\n              or\n              swap1\n              sstore\n              pop\n                /* \"FakeProdIden.sol\":2803:2815  consumerCode */\n              dup1\n                /* \"FakeProdIden.sol\":2765:2779  productStorage */\n              0x02\n                /* \"FakeProdIden.sol\":2780:2786  prodId */\n              dup4\n                /* \"FakeProdIden.sol\":2765:2787  productStorage[prodId] */\n              mload(0x40)\n              tag_125\n              swap2\n              swap1\n              tag_70\n              jump\t// in\n            tag_125:\n              swap1\n              dup2\n              mstore\n              0x20\n              add\n              mload(0x40)\n              dup1\n              swap2\n              sub\n              swap1\n              keccak256\n                /* \"FakeProdIden.sol\":2765:2800  productStorage[prodId].consumerCode */\n              0x03\n              add\n              0x01\n                /* \"FakeProdIden.sol\":2765:2815  productStorage[prodId].consumerCode = consumerCode */\n              0x0100\n              exp\n              dup2\n              sload\n              dup2\n              0xffffffff\n              mul\n              not\n              and\n              swap1\n              dup4\n              0xffffffff\n              and\n              mul\n              or\n              swap1\n              sstore\n              pop\n                /* \"FakeProdIden.sol\":2518:2822  function sellToConsumer(string memory prodId, uint32 consumerCode) public ... */\n              pop\n              pop\n              jump\t// out\n                /* \"FakeProdIden.sol\":1278:1329  mapping(string => bool) public hasReachedToConsumer */\n            tag_44:\n              0x01\n              dup2\n              dup1\n              mload\n              0x20\n              dup2\n              add\n              dup3\n              add\n              dup1\n              mload\n              dup5\n              dup3\n              mstore\n              0x20\n              dup4\n              add\n              0x20\n              dup6\n              add\n              keccak256\n              dup2\n              dup4\n              mstore\n              dup1\n              swap6\n              pop\n              pop\n              pop\n              pop\n              pop\n              pop\n              0x00\n              swap2\n              pop\n              sload\n              swap1\n              0x0100\n              exp\n              swap1\n              div\n              0xff\n              and\n              dup2\n              jump\t// out\n                /* \"FakeProdIden.sol\":1367:1415  mapping(string => Product) public productStorage */\n            tag_48:\n              0x02\n              dup2\n              dup1\n              mload\n              0x20\n              dup2\n              add\n              dup3\n              add\n              dup1\n              mload\n              dup5\n              dup3\n              mstore\n              0x20\n              dup4\n              add\n              0x20\n              dup6\n              add\n              keccak256\n              dup2\n              dup4\n              mstore\n              dup1\n              swap6\n              pop\n              pop\n              pop\n              pop\n              pop\n              pop\n              0x00\n              swap2\n              pop\n              swap1\n              pop\n              dup1\n              0x00\n              add\n              dup1\n              sload\n              tag_126\n              swap1\n              tag_127\n              jump\t// in\n            tag_126:\n              dup1\n              0x1f\n              add\n              0x20\n              dup1\n              swap2\n              div\n              mul\n              0x20\n              add\n              mload(0x40)\n              swap1\n              dup2\n              add\n              0x40\n              mstore\n              dup1\n              swap3\n              swap2\n              swap1\n              dup2\n              dup2\n              mstore\n              0x20\n              add\n              dup3\n              dup1\n              sload\n              tag_128\n              swap1\n              tag_127\n              jump\t// in\n            tag_128:\n              dup1\n              iszero\n              tag_129\n              jumpi\n              dup1\n              0x1f\n              lt\n              tag_130\n              jumpi\n              0x0100\n              dup1\n              dup4\n              sload\n              div\n              mul\n              dup4\n              mstore\n              swap2\n              0x20\n              add\n              swap2\n              jump(tag_129)\n            tag_130:\n              dup3\n              add\n              swap2\n              swap1\n              0x00\n              mstore\n              keccak256(0x00, 0x20)\n              swap1\n            tag_131:\n              dup2\n              sload\n              dup2\n              mstore\n              swap1\n              0x01\n              add\n              swap1\n              0x20\n              add\n              dup1\n              dup4\n              gt\n              tag_131\n              jumpi\n              dup3\n              swap1\n              sub\n              0x1f\n              and\n              dup3\n              add\n              swap2\n            tag_129:\n              pop\n              pop\n              pop\n              pop\n              pop\n              swap1\n              dup1\n              0x01\n              add\n              dup1\n              sload\n              tag_132\n              swap1\n              tag_127\n              jump\t// in\n            tag_132:\n              dup1\n              0x1f\n              add\n              0x20\n              dup1\n              swap2\n              div\n              mul\n              0x20\n              add\n              mload(0x40)\n              swap1\n              dup2\n              add\n              0x40\n              mstore\n              dup1\n              swap3\n              swap2\n              swap1\n              dup2\n              dup2\n              mstore\n              0x20\n              add\n              dup3\n              dup1\n              sload\n              tag_133\n              swap1\n              tag_127\n              jump\t// in\n            tag_133:\n              dup1\n              iszero\n              tag_134\n              jumpi\n              dup1\n              0x1f\n              lt\n              tag_135\n              jumpi\n              0x0100\n              dup1\n              dup4\n              sload\n              div\n              mul\n              dup4\n              mstore\n              swap2\n              0x20\n              add\n              swap2\n              jump(tag_134)\n            tag_135:\n              dup3\n              add\n              swap2\n              swap1\n              0x00\n              mstore\n              keccak256(0x00, 0x20)\n              swap1\n            tag_136:\n              dup2\n              sload\n              dup2\n              mstore\n              swap1\n              0x01\n              add\n              swap1\n              0x20\n              add\n              dup1\n              dup4\n              gt\n              tag_136\n              jumpi\n              dup3\n              swap1\n              sub\n              0x1f\n              and\n              dup3\n              add\n              swap2\n            tag_134:\n              pop\n              pop\n              pop\n              pop\n              pop\n              swap1\n              dup1\n              0x02\n              add\n              dup1\n              sload\n              tag_137\n              swap1\n              tag_127\n              jump\t// in\n            tag_137:\n              dup1\n              0x1f\n              add\n              0x20\n              dup1\n              swap2\n              div\n              mul\n              0x20\n              add\n              mload(0x40)\n              swap1\n              dup2\n              add\n              0x40\n              mstore\n              dup1\n              swap3\n              swap2\n              swap1\n              dup2\n              dup2\n              mstore\n              0x20\n              add\n              dup3\n              dup1\n              sload\n              tag_138\n              swap1\n              tag_127\n              jump\t// in\n            tag_138:\n              dup1\n              iszero\n              tag_139\n              jumpi\n              dup1\n              0x1f\n              lt\n              tag_140\n              jumpi\n              0x0100\n              dup1\n              dup4\n              sload\n              div\n              mul\n              dup4\n              mstore\n              swap2\n              0x20\n              add\n              swap2\n              jump(tag_139)\n            tag_140:\n              dup3\n              add\n              swap2\n              swap1\n              0x00\n              mstore\n              keccak256(0x00, 0x20)\n              swap1\n            tag_141:\n              dup2\n              sload\n              dup2\n              mstore\n              swap1\n              0x01\n              add\n              swap1\n              0x20\n              add\n              dup1\n              dup4\n              gt\n              tag_141\n              jumpi\n              dup3\n              swap1\n              sub\n              0x1f\n              and\n              dup3\n              add\n              swap2\n            tag_139:\n              pop\n              pop\n              pop\n              pop\n              pop\n              swap1\n              dup1\n              0x03\n              add\n              0x00\n              swap1\n              sload\n              swap1\n              0x0100\n              exp\n              swap1\n              div\n              0xff\n              and\n              swap1\n              dup1\n              0x03\n              add\n              0x01\n              swap1\n              sload\n              swap1\n              0x0100\n              exp\n              swap1\n              div\n              0xffffffff\n              and\n              swap1\n              pop\n              dup6\n              jump\t// out\n                /* \"FakeProdIden.sol\":1907:2228  function sellToSeller(string memory prodId, string memory sellerId) public ... */\n            tag_54:\n                /* \"FakeProdIden.sol\":2039:2043  true */\n              0x01\n                /* \"FakeProdIden.sol\":2005:2043  productStorage[prodId].hasmade == true */\n              iszero\n              iszero\n                /* \"FakeProdIden.sol\":2005:2019  productStorage */\n              0x02\n                /* \"FakeProdIden.sol\":2020:2026  prodId */\n              dup4\n                /* \"FakeProdIden.sol\":2005:2027  productStorage[prodId] */\n              mload(0x40)\n              tag_143\n              swap2\n              swap1\n              tag_70\n              jump\t// in\n            tag_143:\n              swap1\n              dup2\n              mstore\n              0x20\n              add\n              mload(0x40)\n              dup1\n              swap2\n              sub\n              swap1\n              keccak256\n                /* \"FakeProdIden.sol\":2005:2035  productStorage[prodId].hasmade */\n              0x03\n              add\n              0x00\n              swap1\n              sload\n              swap1\n              0x0100\n              exp\n              swap1\n              div\n              0xff\n              and\n                /* \"FakeProdIden.sol\":2005:2043  productStorage[prodId].hasmade == true */\n              iszero\n              iszero\n              eq\n                /* \"FakeProdIden.sol\":1997:2044  require(productStorage[prodId].hasmade == true) */\n              tag_144\n              jumpi\n              0x00\n              dup1\n              revert\n            tag_144:\n                /* \"FakeProdIden.sol\":2103:2108  false */\n              0x00\n                /* \"FakeProdIden.sol\":2062:2108  hasReachedToSeller[prodId].hasReached == false */\n              iszero\n              iszero\n                /* \"FakeProdIden.sol\":2062:2080  hasReachedToSeller */\n              0x00\n                /* \"FakeProdIden.sol\":2081:2087  prodId */\n              dup4\n                /* \"FakeProdIden.sol\":2062:2088  hasReachedToSeller[prodId] */\n              mload(0x40)\n              tag_145\n              swap2\n              swap1\n              tag_70\n              jump\t// in\n            tag_145:\n              swap1\n              dup2\n              mstore\n              0x20\n              add\n              mload(0x40)\n              dup1\n              swap2\n              sub\n              swap1\n              keccak256\n                /* \"FakeProdIden.sol\":2062:2099  hasReachedToSeller[prodId].hasReached */\n              0x01\n              add\n              0x00\n              swap1\n              sload\n              swap1\n              0x0100\n              exp\n              swap1\n              div\n              0xff\n              and\n                /* \"FakeProdIden.sol\":2062:2108  hasReachedToSeller[prodId].hasReached == false */\n              iszero\n              iszero\n              eq\n                /* \"FakeProdIden.sol\":2054:2109  require(hasReachedToSeller[prodId].hasReached == false) */\n              tag_146\n              jumpi\n              0x00\n              dup1\n              revert\n            tag_146:\n                /* \"FakeProdIden.sol\":2157:2165  sellerId */\n              dup1\n                /* \"FakeProdIden.sol\":2119:2137  hasReachedToSeller */\n              0x00\n                /* \"FakeProdIden.sol\":2138:2144  prodId */\n              dup4\n                /* \"FakeProdIden.sol\":2119:2145  hasReachedToSeller[prodId] */\n              mload(0x40)\n              tag_147\n              swap2\n              swap1\n              tag_70\n              jump\t// in\n            tag_147:\n              swap1\n              dup2\n              mstore\n              0x20\n              add\n              mload(0x40)\n              dup1\n              swap2\n              sub\n              swap1\n              keccak256\n                /* \"FakeProdIden.sol\":2119:2154  hasReachedToSeller[prodId].sellerId */\n              0x00\n              add\n                /* \"FakeProdIden.sol\":2119:2165  hasReachedToSeller[prodId].sellerId = sellerId */\n              swap1\n              dup2\n              tag_148\n              swap2\n              swap1\n              tag_74\n              jump\t// in\n            tag_148:\n              pop\n                /* \"FakeProdIden.sol\":2215:2219  true */\n              0x01\n                /* \"FakeProdIden.sol\":2175:2193  hasReachedToSeller */\n              0x00\n                /* \"FakeProdIden.sol\":2194:2200  prodId */\n              dup4\n                /* \"FakeProdIden.sol\":2175:2201  hasReachedToSeller[prodId] */\n              mload(0x40)\n              tag_149\n              swap2\n              swap1\n              tag_70\n              jump\t// in\n            tag_149:\n              swap1\n              dup2\n              mstore\n              0x20\n              add\n              mload(0x40)\n              dup1\n              swap2\n              sub\n              swap1\n              keccak256\n                /* \"FakeProdIden.sol\":2175:2212  hasReachedToSeller[prodId].hasReached */\n              0x01\n              add\n              0x00\n                /* \"FakeProdIden.sol\":2175:2219  hasReachedToSeller[prodId].hasReached = true */\n              0x0100\n              exp\n              dup2\n              sload\n              dup2\n              0xff\n              mul\n              not\n              and\n              swap1\n              dup4\n              iszero\n              iszero\n              mul\n              or\n              swap1\n              sstore\n              pop\n                /* \"FakeProdIden.sol\":1907:2228  function sellToSeller(string memory prodId, string memory sellerId) public ... */\n              pop\n              pop\n              jump\t// out\n                /* \"FakeProdIden.sol\":1183:1239  mapping(string => reachSeller) public hasReachedToSeller */\n            tag_57:\n              0x00\n              dup2\n              dup1\n              mload\n              0x20\n              dup2\n              add\n              dup3\n              add\n              dup1\n              mload\n              dup5\n              dup3\n              mstore\n              0x20\n              dup4\n              add\n              0x20\n              dup6\n              add\n              keccak256\n              dup2\n              dup4\n              mstore\n              dup1\n              swap6\n              pop\n              pop\n              pop\n              pop\n              pop\n              pop\n              0x00\n              swap2\n              pop\n              swap1\n              pop\n              dup1\n              0x00\n              add\n              dup1\n              sload\n              tag_150\n              swap1\n              tag_127\n              jump\t// in\n            tag_150:\n              dup1\n              0x1f\n              add\n              0x20\n              dup1\n              swap2\n              div\n              mul\n              0x20\n              add\n              mload(0x40)\n              swap1\n              dup2\n              add\n              0x40\n              mstore\n              dup1\n              swap3\n              swap2\n              swap1\n              dup2\n              dup2\n              mstore\n              0x20\n              add\n              dup3\n              dup1\n              sload\n              tag_151\n              swap1\n              tag_127\n              jump\t// in\n            tag_151:\n              dup1\n              iszero\n              tag_152\n              jumpi\n              dup1\n              0x1f\n              lt\n              tag_153\n              jumpi\n              0x0100\n              dup1\n              dup4\n              sload\n              div\n              mul\n              dup4\n              mstore\n              swap2\n              0x20\n              add\n              swap2\n              jump(tag_152)\n            tag_153:\n              dup3\n              add\n              swap2\n              swap1\n              0x00\n              mstore\n              keccak256(0x00, 0x20)\n              swap1\n            tag_154:\n              dup2\n              sload\n              dup2\n              mstore\n              swap1\n              0x01\n              add\n              swap1\n              0x20\n              add\n              dup1\n              dup4\n              gt\n              tag_154\n              jumpi\n              dup3\n              swap1\n              sub\n              0x1f\n              and\n              dup3\n              add\n              swap2\n            tag_152:\n              pop\n              pop\n              pop\n              pop\n              pop\n              swap1\n              dup1\n              0x01\n              add\n              0x00\n              swap1\n              sload\n              swap1\n              0x0100\n              exp\n              swap1\n              div\n              0xff\n              and\n              swap1\n              pop\n              dup3\n              jump\t// out\n                /* \"FakeProdIden.sol\":2319:2451  function addSellers(string memory sellerId) public ... */\n            tag_62:\n                /* \"FakeProdIden.sol\":2412:2444  SellerInfo(sellerId, msg.sender) */\n              mload(0x40)\n              dup1\n              0x40\n              add\n              0x40\n              mstore\n              dup1\n                /* \"FakeProdIden.sol\":2423:2431  sellerId */\n              dup3\n                /* \"FakeProdIden.sol\":2412:2444  SellerInfo(sellerId, msg.sender) */\n              dup2\n              mstore\n              0x20\n              add\n                /* \"FakeProdIden.sol\":2433:2443  msg.sender */\n              caller\n                /* \"FakeProdIden.sol\":2412:2444  SellerInfo(sellerId, msg.sender) */\n              0xffffffffffffffffffffffffffffffffffffffff\n              and\n              dup2\n              mstore\n              pop\n                /* \"FakeProdIden.sol\":2385:2399  allSellersInfo */\n              0x03\n                /* \"FakeProdIden.sol\":2400:2408  sellerId */\n              dup3\n                /* \"FakeProdIden.sol\":2385:2409  allSellersInfo[sellerId] */\n              mload(0x40)\n              tag_156\n              swap2\n              swap1\n              tag_70\n              jump\t// in\n            tag_156:\n              swap1\n              dup2\n              mstore\n              0x20\n              add\n              mload(0x40)\n              dup1\n              swap2\n              sub\n              swap1\n              keccak256\n                /* \"FakeProdIden.sol\":2385:2444  allSellersInfo[sellerId] = SellerInfo(sellerId, msg.sender) */\n              0x00\n              dup3\n              add\n              mload\n              dup2\n              0x00\n              add\n              swap1\n              dup2\n              tag_157\n              swap2\n              swap1\n              tag_74\n              jump\t// in\n            tag_157:\n              pop\n              0x20\n              dup3\n              add\n              mload\n              dup2\n              0x01\n              add\n              exp(0x0100, 0x00)\n              dup2\n              sload\n              dup2\n              0xffffffffffffffffffffffffffffffffffffffff\n              mul\n              not\n              and\n              swap1\n              dup4\n              0xffffffffffffffffffffffffffffffffffffffff\n              and\n              mul\n              or\n              swap1\n              sstore\n              pop\n              swap1\n              pop\n              pop\n                /* \"FakeProdIden.sol\":2319:2451  function addSellers(string memory sellerId) public ... */\n              pop\n              jump\t// out\n                /* \"FakeProdIden.sol\":1464:1515  mapping(string => SellerInfo) public allSellersInfo */\n            tag_65:\n              0x03\n              dup2\n              dup1\n              mload\n              0x20\n              dup2\n              add\n              dup3\n              add\n              dup1\n              mload\n              dup5\n              dup3\n              mstore\n              0x20\n              dup4\n              add\n              0x20\n              dup6\n              add\n              keccak256\n              dup2\n              dup4\n              mstore\n              dup1\n              swap6\n              pop\n              pop\n              pop\n              pop\n              pop\n              pop\n              0x00\n              swap2\n              pop\n              swap1\n              pop\n              dup1\n              0x00\n              add\n              dup1\n              sload\n              tag_158\n              swap1\n              tag_127\n              jump\t// in\n            tag_158:\n              dup1\n              0x1f\n              add\n              0x20\n              dup1\n              swap2\n              div\n              mul\n              0x20\n              add\n              mload(0x40)\n              swap1\n              dup2\n              add\n              0x40\n              mstore\n              dup1\n              swap3\n              swap2\n              swap1\n              dup2\n              dup2\n              mstore\n              0x20\n              add\n              dup3\n              dup1\n              sload\n              tag_159\n              swap1\n              tag_127\n              jump\t// in\n            tag_159:\n              dup1\n              iszero\n              tag_160\n              jumpi\n              dup1\n              0x1f\n              lt\n              tag_161\n              jumpi\n              0x0100\n              dup1\n              dup4\n              sload\n              div\n              mul\n              dup4\n              mstore\n              swap2\n              0x20\n              add\n              swap2\n              jump(tag_160)\n            tag_161:\n              dup3\n              add\n              swap2\n              swap1\n              0x00\n              mstore\n              keccak256(0x00, 0x20)\n              swap1\n            tag_162:\n              dup2\n              sload\n              dup2\n              mstore\n              swap1\n              0x01\n              add\n              swap1\n              0x20\n              add\n              dup1\n              dup4\n              gt\n              tag_162\n              jumpi\n              dup3\n              swap1\n              sub\n              0x1f\n              and\n              dup3\n              add\n              swap2\n            tag_160:\n              pop\n              pop\n              pop\n              pop\n              pop\n              swap1\n              dup1\n              0x01\n              add\n              0x00\n              swap1\n              sload\n              swap1\n              0x0100\n              exp\n              swap1\n              div\n              0xffffffffffffffffffffffffffffffffffffffff\n              and\n              swap1\n              pop\n              dup3\n              jump\t// out\n                /* \"#utility.yul\":7:82   */\n            tag_163:\n                /* \"#utility.yul\":40:46   */\n              0x00\n                /* \"#utility.yul\":73:75   */\n              0x40\n                /* \"#utility.yul\":67:76   */\n              mload\n                /* \"#utility.yul\":57:76   */\n              swap1\n              pop\n                /* \"#utility.yul\":7:82   */\n              swap1\n              jump\t// out\n                /* \"#utility.yul\":88:205   */\n            tag_164:\n                /* \"#utility.yul\":197:198   */\n              0x00\n                /* \"#utility.yul\":194:195   */\n              dup1\n                /* \"#utility.yul\":187:199   */\n              revert\n                /* \"#utility.yul\":211:328   */\n            tag_165:\n                /* \"#utility.yul\":320:321   */\n              0x00\n                /* \"#utility.yul\":317:318   */\n              dup1\n                /* \"#utility.yul\":310:322   */\n              revert\n                /* \"#utility.yul\":334:451   */\n            tag_166:\n                /* \"#utility.yul\":443:444   */\n              0x00\n                /* \"#utility.yul\":440:441   */\n              dup1\n                /* \"#utility.yul\":433:445   */\n              revert\n                /* \"#utility.yul\":457:574   */\n            tag_167:\n                /* \"#utility.yul\":566:567   */\n              0x00\n                /* \"#utility.yul\":563:564   */\n              dup1\n                /* \"#utility.yul\":556:568   */\n              revert\n                /* \"#utility.yul\":580:682   */\n            tag_168:\n                /* \"#utility.yul\":621:627   */\n              0x00\n                /* \"#utility.yul\":672:674   */\n              0x1f\n                /* \"#utility.yul\":668:675   */\n              not\n                /* \"#utility.yul\":663:665   */\n              0x1f\n                /* \"#utility.yul\":656:661   */\n              dup4\n                /* \"#utility.yul\":652:666   */\n              add\n                /* \"#utility.yul\":648:676   */\n              and\n                /* \"#utility.yul\":638:676   */\n              swap1\n              pop\n                /* \"#utility.yul\":580:682   */\n              swap2\n              swap1\n              pop\n              jump\t// out\n                /* \"#utility.yul\":688:868   */\n            tag_169:\n                /* \"#utility.yul\":736:813   */\n              0x4e487b7100000000000000000000000000000000000000000000000000000000\n                /* \"#utility.yul\":733:734   */\n              0x00\n                /* \"#utility.yul\":726:814   */\n              mstore\n                /* \"#utility.yul\":833:837   */\n              0x41\n                /* \"#utility.yul\":830:831   */\n              0x04\n                /* \"#utility.yul\":823:838   */\n              mstore\n                /* \"#utility.yul\":857:861   */\n              0x24\n                /* \"#utility.yul\":854:855   */\n              0x00\n                /* \"#utility.yul\":847:862   */\n              revert\n                /* \"#utility.yul\":874:1155   */\n            tag_170:\n                /* \"#utility.yul\":957:984   */\n              tag_223\n                /* \"#utility.yul\":979:983   */\n              dup3\n                /* \"#utility.yul\":957:984   */\n              tag_168\n              jump\t// in\n            tag_223:\n                /* \"#utility.yul\":949:955   */\n              dup2\n                /* \"#utility.yul\":945:985   */\n              add\n                /* \"#utility.yul\":1087:1093   */\n              dup2\n                /* \"#utility.yul\":1075:1085   */\n              dup2\n                /* \"#utility.yul\":1072:1094   */\n              lt\n                /* \"#utility.yul\":1051:1069   */\n              0xffffffffffffffff\n                /* \"#utility.yul\":1039:1049   */\n              dup3\n                /* \"#utility.yul\":1036:1070   */\n              gt\n                /* \"#utility.yul\":1033:1095   */\n              or\n                /* \"#utility.yul\":1030:1118   */\n              iszero\n              tag_224\n              jumpi\n                /* \"#utility.yul\":1098:1116   */\n              tag_225\n              tag_169\n              jump\t// in\n            tag_225:\n                /* \"#utility.yul\":1030:1118   */\n            tag_224:\n                /* \"#utility.yul\":1138:1148   */\n              dup1\n                /* \"#utility.yul\":1134:1136   */\n              0x40\n                /* \"#utility.yul\":1127:1149   */\n              mstore\n                /* \"#utility.yul\":917:1155   */\n              pop\n                /* \"#utility.yul\":874:1155   */\n              pop\n              pop\n              jump\t// out\n                /* \"#utility.yul\":1161:1290   */\n            tag_171:\n                /* \"#utility.yul\":1195:1201   */\n              0x00\n                /* \"#utility.yul\":1222:1242   */\n              tag_227\n              tag_163\n              jump\t// in\n            tag_227:\n                /* \"#utility.yul\":1212:1242   */\n              swap1\n              pop\n                /* \"#utility.yul\":1251:1284   */\n              tag_228\n                /* \"#utility.yul\":1279:1283   */\n              dup3\n                /* \"#utility.yul\":1271:1277   */\n              dup3\n                /* \"#utility.yul\":1251:1284   */\n              tag_170\n              jump\t// in\n            tag_228:\n                /* \"#utility.yul\":1161:1290   */\n              swap2\n              swap1\n              pop\n              jump\t// out\n                /* \"#utility.yul\":1296:1604   */\n            tag_172:\n                /* \"#utility.yul\":1358:1362   */\n              0x00\n                /* \"#utility.yul\":1448:1466   */\n              0xffffffffffffffff\n                /* \"#utility.yul\":1440:1446   */\n              dup3\n                /* \"#utility.yul\":1437:1467   */\n              gt\n                /* \"#utility.yul\":1434:1490   */\n              iszero\n              tag_230\n              jumpi\n                /* \"#utility.yul\":1470:1488   */\n              tag_231\n              tag_169\n              jump\t// in\n            tag_231:\n                /* \"#utility.yul\":1434:1490   */\n            tag_230:\n                /* \"#utility.yul\":1508:1537   */\n              tag_232\n                /* \"#utility.yul\":1530:1536   */\n              dup3\n                /* \"#utility.yul\":1508:1537   */\n              tag_168\n              jump\t// in\n            tag_232:\n                /* \"#utility.yul\":1500:1537   */\n              swap1\n              pop\n                /* \"#utility.yul\":1592:1596   */\n              0x20\n                /* \"#utility.yul\":1586:1590   */\n              dup2\n                /* \"#utility.yul\":1582:1597   */\n              add\n                /* \"#utility.yul\":1574:1597   */\n              swap1\n              pop\n                /* \"#utility.yul\":1296:1604   */\n              swap2\n              swap1\n              pop\n              jump\t// out\n                /* \"#utility.yul\":1610:1756   */\n            tag_173:\n                /* \"#utility.yul\":1707:1713   */\n              dup3\n                /* \"#utility.yul\":1702:1705   */\n              dup2\n                /* \"#utility.yul\":1697:1700   */\n              dup4\n                /* \"#utility.yul\":1684:1714   */\n              calldatacopy\n                /* \"#utility.yul\":1748:1749   */\n              0x00\n                /* \"#utility.yul\":1739:1745   */\n              dup4\n                /* \"#utility.yul\":1734:1737   */\n              dup4\n                /* \"#utility.yul\":1730:1746   */\n              add\n                /* \"#utility.yul\":1723:1750   */\n              mstore\n                /* \"#utility.yul\":1610:1756   */\n              pop\n              pop\n              pop\n              jump\t// out\n                /* \"#utility.yul\":1762:2187   */\n            tag_174:\n                /* \"#utility.yul\":1840:1845   */\n              0x00\n                /* \"#utility.yul\":1865:1931   */\n              tag_235\n                /* \"#utility.yul\":1881:1930   */\n              tag_236\n                /* \"#utility.yul\":1923:1929   */\n              dup5\n                /* \"#utility.yul\":1881:1930   */\n              tag_172\n              jump\t// in\n            tag_236:\n                /* \"#utility.yul\":1865:1931   */\n              tag_171\n              jump\t// in\n            tag_235:\n                /* \"#utility.yul\":1856:1931   */\n              swap1\n              pop\n                /* \"#utility.yul\":1954:1960   */\n              dup3\n                /* \"#utility.yul\":1947:1952   */\n              dup2\n                /* \"#utility.yul\":1940:1961   */\n              mstore\n                /* \"#utility.yul\":1992:1996   */\n              0x20\n                /* \"#utility.yul\":1985:1990   */\n              dup2\n                /* \"#utility.yul\":1981:1997   */\n              add\n                /* \"#utility.yul\":2030:2033   */\n              dup5\n                /* \"#utility.yul\":2021:2027   */\n              dup5\n                /* \"#utility.yul\":2016:2019   */\n              dup5\n                /* \"#utility.yul\":2012:2028   */\n              add\n                /* \"#utility.yul\":2009:2034   */\n              gt\n                /* \"#utility.yul\":2006:2118   */\n              iszero\n              tag_237\n              jumpi\n                /* \"#utility.yul\":2037:2116   */\n              tag_238\n              tag_167\n              jump\t// in\n            tag_238:\n                /* \"#utility.yul\":2006:2118   */\n            tag_237:\n                /* \"#utility.yul\":2127:2181   */\n              tag_239\n                /* \"#utility.yul\":2174:2180   */\n              dup5\n                /* \"#utility.yul\":2169:2172   */\n              dup3\n                /* \"#utility.yul\":2164:2167   */\n              dup6\n                /* \"#utility.yul\":2127:2181   */\n              tag_173\n              jump\t// in\n            tag_239:\n                /* \"#utility.yul\":1846:2187   */\n              pop\n                /* \"#utility.yul\":1762:2187   */\n              swap4\n              swap3\n              pop\n              pop\n              pop\n              jump\t// out\n                /* \"#utility.yul\":2207:2547   */\n            tag_175:\n                /* \"#utility.yul\":2263:2268   */\n              0x00\n                /* \"#utility.yul\":2312:2315   */\n              dup3\n                /* \"#utility.yul\":2305:2309   */\n              0x1f\n                /* \"#utility.yul\":2297:2303   */\n              dup4\n                /* \"#utility.yul\":2293:2310   */\n              add\n                /* \"#utility.yul\":2289:2316   */\n              slt\n                /* \"#utility.yul\":2279:2401   */\n              tag_241\n              jumpi\n                /* \"#utility.yul\":2320:2399   */\n              tag_242\n              tag_166\n              jump\t// in\n            tag_242:\n                /* \"#utility.yul\":2279:2401   */\n            tag_241:\n                /* \"#utility.yul\":2437:2443   */\n              dup2\n                /* \"#utility.yul\":2424:2444   */\n              calldataload\n                /* \"#utility.yul\":2462:2541   */\n              tag_243\n                /* \"#utility.yul\":2537:2540   */\n              dup5\n                /* \"#utility.yul\":2529:2535   */\n              dup3\n                /* \"#utility.yul\":2522:2526   */\n              0x20\n                /* \"#utility.yul\":2514:2520   */\n              dup7\n                /* \"#utility.yul\":2510:2527   */\n              add\n                /* \"#utility.yul\":2462:2541   */\n              tag_174\n              jump\t// in\n            tag_243:\n                /* \"#utility.yul\":2453:2541   */\n              swap2\n              pop\n                /* \"#utility.yul\":2269:2547   */\n              pop\n                /* \"#utility.yul\":2207:2547   */\n              swap3\n              swap2\n              pop\n              pop\n              jump\t// out\n                /* \"#utility.yul\":2553:3712   */\n            tag_18:\n                /* \"#utility.yul\":2660:2666   */\n              0x00\n                /* \"#utility.yul\":2668:2674   */\n              dup1\n                /* \"#utility.yul\":2676:2682   */\n              0x00\n                /* \"#utility.yul\":2725:2727   */\n              0x60\n                /* \"#utility.yul\":2713:2722   */\n              dup5\n                /* \"#utility.yul\":2704:2711   */\n              dup7\n                /* \"#utility.yul\":2700:2723   */\n              sub\n                /* \"#utility.yul\":2696:2728   */\n              slt\n                /* \"#utility.yul\":2693:2812   */\n              iszero\n              tag_245\n              jumpi\n                /* \"#utility.yul\":2731:2810   */\n              tag_246\n              tag_164\n              jump\t// in\n            tag_246:\n                /* \"#utility.yul\":2693:2812   */\n            tag_245:\n                /* \"#utility.yul\":2879:2880   */\n              0x00\n                /* \"#utility.yul\":2868:2877   */\n              dup5\n                /* \"#utility.yul\":2864:2881   */\n              add\n                /* \"#utility.yul\":2851:2882   */\n              calldataload\n                /* \"#utility.yul\":2909:2927   */\n              0xffffffffffffffff\n                /* \"#utility.yul\":2901:2907   */\n              dup2\n                /* \"#utility.yul\":2898:2928   */\n              gt\n                /* \"#utility.yul\":2895:3012   */\n              iszero\n              tag_247\n              jumpi\n                /* \"#utility.yul\":2931:3010   */\n              tag_248\n              tag_165\n              jump\t// in\n            tag_248:\n                /* \"#utility.yul\":2895:3012   */\n            tag_247:\n                /* \"#utility.yul\":3036:3099   */\n              tag_249\n                /* \"#utility.yul\":3091:3098   */\n              dup7\n                /* \"#utility.yul\":3082:3088   */\n              dup3\n                /* \"#utility.yul\":3071:3080   */\n              dup8\n                /* \"#utility.yul\":3067:3089   */\n              add\n                /* \"#utility.yul\":3036:3099   */\n              tag_175\n              jump\t// in\n            tag_249:\n                /* \"#utility.yul\":3026:3099   */\n              swap4\n              pop\n                /* \"#utility.yul\":2822:3109   */\n              pop\n                /* \"#utility.yul\":3176:3178   */\n              0x20\n                /* \"#utility.yul\":3165:3174   */\n              dup5\n                /* \"#utility.yul\":3161:3179   */\n              add\n                /* \"#utility.yul\":3148:3180   */\n              calldataload\n                /* \"#utility.yul\":3207:3225   */\n              0xffffffffffffffff\n                /* \"#utility.yul\":3199:3205   */\n              dup2\n                /* \"#utility.yul\":3196:3226   */\n              gt\n                /* \"#utility.yul\":3193:3310   */\n              iszero\n              tag_250\n              jumpi\n                /* \"#utility.yul\":3229:3308   */\n              tag_251\n              tag_165\n              jump\t// in\n            tag_251:\n                /* \"#utility.yul\":3193:3310   */\n            tag_250:\n                /* \"#utility.yul\":3334:3397   */\n              tag_252\n                /* \"#utility.yul\":3389:3396   */\n              dup7\n                /* \"#utility.yul\":3380:3386   */\n              dup3\n                /* \"#utility.yul\":3369:3378   */\n              dup8\n                /* \"#utility.yul\":3365:3387   */\n              add\n                /* \"#utility.yul\":3334:3397   */\n              tag_175\n              jump\t// in\n            tag_252:\n                /* \"#utility.yul\":3324:3397   */\n              swap3\n              pop\n                /* \"#utility.yul\":3119:3407   */\n              pop\n                /* \"#utility.yul\":3474:3476   */\n              0x40\n                /* \"#utility.yul\":3463:3472   */\n              dup5\n                /* \"#utility.yul\":3459:3477   */\n              add\n                /* \"#utility.yul\":3446:3478   */\n              calldataload\n                /* \"#utility.yul\":3505:3523   */\n              0xffffffffffffffff\n                /* \"#utility.yul\":3497:3503   */\n              dup2\n                /* \"#utility.yul\":3494:3524   */\n              gt\n                /* \"#utility.yul\":3491:3608   */\n              iszero\n              tag_253\n              jumpi\n                /* \"#utility.yul\":3527:3606   */\n              tag_254\n              tag_165\n              jump\t// in\n            tag_254:\n                /* \"#utility.yul\":3491:3608   */\n            tag_253:\n                /* \"#utility.yul\":3632:3695   */\n              tag_255\n                /* \"#utility.yul\":3687:3694   */\n              dup7\n                /* \"#utility.yul\":3678:3684   */\n              dup3\n                /* \"#utility.yul\":3667:3676   */\n              dup8\n                /* \"#utility.yul\":3663:3685   */\n              add\n                /* \"#utility.yul\":3632:3695   */\n              tag_175\n              jump\t// in\n            tag_255:\n                /* \"#utility.yul\":3622:3695   */\n              swap2\n              pop\n                /* \"#utility.yul\":3417:3705   */\n              pop\n                /* \"#utility.yul\":2553:3712   */\n              swap3\n              pop\n              swap3\n              pop\n              swap3\n              jump\t// out\n                /* \"#utility.yul\":3718:4039   */\n            tag_176:\n                /* \"#utility.yul\":3805:3809   */\n              0x00\n                /* \"#utility.yul\":3895:3913   */\n              0xffffffffffffffff\n                /* \"#utility.yul\":3887:3893   */\n              dup3\n                /* \"#utility.yul\":3884:3914   */\n              gt\n                /* \"#utility.yul\":3881:3937   */\n              iszero\n              tag_257\n              jumpi\n                /* \"#utility.yul\":3917:3935   */\n              tag_258\n              tag_169\n              jump\t// in\n            tag_258:\n                /* \"#utility.yul\":3881:3937   */\n            tag_257:\n                /* \"#utility.yul\":3967:3971   */\n              0x20\n                /* \"#utility.yul\":3959:3965   */\n              dup3\n                /* \"#utility.yul\":3955:3972   */\n              mul\n                /* \"#utility.yul\":3947:3972   */\n              swap1\n              pop\n                /* \"#utility.yul\":4027:4031   */\n              0x20\n                /* \"#utility.yul\":4021:4025   */\n              dup2\n                /* \"#utility.yul\":4017:4032   */\n              add\n                /* \"#utility.yul\":4009:4032   */\n              swap1\n              pop\n                /* \"#utility.yul\":3718:4039   */\n              swap2\n              swap1\n              pop\n              jump\t// out\n                /* \"#utility.yul\":4045:4162   */\n            tag_177:\n                /* \"#utility.yul\":4154:4155   */\n              0x00\n                /* \"#utility.yul\":4151:4152   */\n              dup1\n                /* \"#utility.yul\":4144:4156   */\n              revert\n                /* \"#utility.yul\":4184:5129   */\n            tag_178:\n                /* \"#utility.yul\":4290:4295   */\n              0x00\n                /* \"#utility.yul\":4315:4406   */\n              tag_261\n                /* \"#utility.yul\":4331:4405   */\n              tag_262\n                /* \"#utility.yul\":4398:4404   */\n              dup5\n                /* \"#utility.yul\":4331:4405   */\n              tag_176\n              jump\t// in\n            tag_262:\n                /* \"#utility.yul\":4315:4406   */\n              tag_171\n              jump\t// in\n            tag_261:\n                /* \"#utility.yul\":4306:4406   */\n              swap1\n              pop\n                /* \"#utility.yul\":4426:4431   */\n              dup1\n                /* \"#utility.yul\":4455:4461   */\n              dup4\n                /* \"#utility.yul\":4448:4453   */\n              dup3\n                /* \"#utility.yul\":4441:4462   */\n              mstore\n                /* \"#utility.yul\":4489:4493   */\n              0x20\n                /* \"#utility.yul\":4482:4487   */\n              dup3\n                /* \"#utility.yul\":4478:4494   */\n              add\n                /* \"#utility.yul\":4471:4494   */\n              swap1\n              pop\n                /* \"#utility.yul\":4542:4546   */\n              0x20\n                /* \"#utility.yul\":4534:4540   */\n              dup5\n                /* \"#utility.yul\":4530:4547   */\n              mul\n                /* \"#utility.yul\":4522:4528   */\n              dup4\n                /* \"#utility.yul\":4518:4548   */\n              add\n                /* \"#utility.yul\":4571:4574   */\n              dup6\n                /* \"#utility.yul\":4563:4569   */\n              dup2\n                /* \"#utility.yul\":4560:4575   */\n              gt\n                /* \"#utility.yul\":4557:4679   */\n              iszero\n              tag_263\n              jumpi\n                /* \"#utility.yul\":4590:4669   */\n              tag_264\n              tag_177\n              jump\t// in\n            tag_264:\n                /* \"#utility.yul\":4557:4679   */\n            tag_263:\n                /* \"#utility.yul\":4705:4711   */\n              dup4\n                /* \"#utility.yul\":4688:5123   */\n            tag_265:\n                /* \"#utility.yul\":4722:4728   */\n              dup2\n                /* \"#utility.yul\":4717:4720   */\n              dup2\n                /* \"#utility.yul\":4714:4729   */\n              lt\n                /* \"#utility.yul\":4688:5123   */\n              iszero\n              tag_267\n              jumpi\n                /* \"#utility.yul\":4811:4814   */\n              dup1\n                /* \"#utility.yul\":4798:4815   */\n              calldataload\n                /* \"#utility.yul\":4847:4865   */\n              0xffffffffffffffff\n                /* \"#utility.yul\":4834:4845   */\n              dup2\n                /* \"#utility.yul\":4831:4866   */\n              gt\n                /* \"#utility.yul\":4828:4950   */\n              iszero\n              tag_268\n              jumpi\n                /* \"#utility.yul\":4869:4948   */\n              tag_269\n              tag_166\n              jump\t// in\n            tag_269:\n                /* \"#utility.yul\":4828:4950   */\n            tag_268:\n                /* \"#utility.yul\":4993:5004   */\n              dup1\n                /* \"#utility.yul\":4985:4991   */\n              dup7\n                /* \"#utility.yul\":4981:5005   */\n              add\n                /* \"#utility.yul\":5031:5078   */\n              tag_270\n                /* \"#utility.yul\":5074:5077   */\n              dup10\n                /* \"#utility.yul\":5062:5072   */\n              dup3\n                /* \"#utility.yul\":5031:5078   */\n              tag_175\n              jump\t// in\n            tag_270:\n                /* \"#utility.yul\":5026:5029   */\n              dup6\n                /* \"#utility.yul\":5019:5079   */\n              mstore\n                /* \"#utility.yul\":5108:5112   */\n              0x20\n                /* \"#utility.yul\":5103:5106   */\n              dup6\n                /* \"#utility.yul\":5099:5113   */\n              add\n                /* \"#utility.yul\":5092:5113   */\n              swap5\n              pop\n                /* \"#utility.yul\":4764:5123   */\n              pop\n              pop\n                /* \"#utility.yul\":4748:4752   */\n              0x20\n                /* \"#utility.yul\":4743:4746   */\n              dup2\n                /* \"#utility.yul\":4739:4753   */\n              add\n                /* \"#utility.yul\":4732:4753   */\n              swap1\n              pop\n                /* \"#utility.yul\":4688:5123   */\n              jump(tag_265)\n            tag_267:\n                /* \"#utility.yul\":4692:4713   */\n              pop\n                /* \"#utility.yul\":4296:5129   */\n              pop\n              pop\n                /* \"#utility.yul\":4184:5129   */\n              swap4\n              swap3\n              pop\n              pop\n              pop\n              jump\t// out\n                /* \"#utility.yul\":5151:5541   */\n            tag_179:\n                /* \"#utility.yul\":5232:5237   */\n              0x00\n                /* \"#utility.yul\":5281:5284   */\n              dup3\n                /* \"#utility.yul\":5274:5278   */\n              0x1f\n                /* \"#utility.yul\":5266:5272   */\n              dup4\n                /* \"#utility.yul\":5262:5279   */\n              add\n                /* \"#utility.yul\":5258:5285   */\n              slt\n                /* \"#utility.yul\":5248:5370   */\n              tag_272\n              jumpi\n                /* \"#utility.yul\":5289:5368   */\n              tag_273\n              tag_166\n              jump\t// in\n            tag_273:\n                /* \"#utility.yul\":5248:5370   */\n            tag_272:\n                /* \"#utility.yul\":5406:5412   */\n              dup2\n                /* \"#utility.yul\":5393:5413   */\n              calldataload\n                /* \"#utility.yul\":5431:5535   */\n              tag_274\n                /* \"#utility.yul\":5531:5534   */\n              dup5\n                /* \"#utility.yul\":5523:5529   */\n              dup3\n                /* \"#utility.yul\":5516:5520   */\n              0x20\n                /* \"#utility.yul\":5508:5514   */\n              dup7\n                /* \"#utility.yul\":5504:5521   */\n              add\n                /* \"#utility.yul\":5431:5535   */\n              tag_178\n              jump\t// in\n            tag_274:\n                /* \"#utility.yul\":5422:5535   */\n              swap2\n              pop\n                /* \"#utility.yul\":5238:5541   */\n              pop\n                /* \"#utility.yul\":5151:5541   */\n              swap3\n              swap2\n              pop\n              pop\n              jump\t// out\n                /* \"#utility.yul\":5547:6856   */\n            tag_22:\n                /* \"#utility.yul\":5729:5735   */\n              0x00\n                /* \"#utility.yul\":5737:5743   */\n              dup1\n                /* \"#utility.yul\":5745:5751   */\n              0x00\n                /* \"#utility.yul\":5794:5796   */\n              0x60\n                /* \"#utility.yul\":5782:5791   */\n              dup5\n                /* \"#utility.yul\":5773:5780   */\n              dup7\n                /* \"#utility.yul\":5769:5792   */\n              sub\n                /* \"#utility.yul\":5765:5797   */\n              slt\n                /* \"#utility.yul\":5762:5881   */\n              iszero\n              tag_276\n              jumpi\n                /* \"#utility.yul\":5800:5879   */\n              tag_277\n              tag_164\n              jump\t// in\n            tag_277:\n                /* \"#utility.yul\":5762:5881   */\n            tag_276:\n                /* \"#utility.yul\":5948:5949   */\n              0x00\n                /* \"#utility.yul\":5937:5946   */\n              dup5\n                /* \"#utility.yul\":5933:5950   */\n              add\n                /* \"#utility.yul\":5920:5951   */\n              calldataload\n                /* \"#utility.yul\":5978:5996   */\n              0xffffffffffffffff\n                /* \"#utility.yul\":5970:5976   */\n              dup2\n                /* \"#utility.yul\":5967:5997   */\n              gt\n                /* \"#utility.yul\":5964:6081   */\n              iszero\n              tag_278\n              jumpi\n                /* \"#utility.yul\":6000:6079   */\n              tag_279\n              tag_165\n              jump\t// in\n            tag_279:\n                /* \"#utility.yul\":5964:6081   */\n            tag_278:\n                /* \"#utility.yul\":6105:6193   */\n              tag_280\n                /* \"#utility.yul\":6185:6192   */\n              dup7\n                /* \"#utility.yul\":6176:6182   */\n              dup3\n                /* \"#utility.yul\":6165:6174   */\n              dup8\n                /* \"#utility.yul\":6161:6183   */\n              add\n                /* \"#utility.yul\":6105:6193   */\n              tag_179\n              jump\t// in\n            tag_280:\n                /* \"#utility.yul\":6095:6193   */\n              swap4\n              pop\n                /* \"#utility.yul\":5891:6203   */\n              pop\n                /* \"#utility.yul\":6270:6272   */\n              0x20\n                /* \"#utility.yul\":6259:6268   */\n              dup5\n                /* \"#utility.yul\":6255:6273   */\n              add\n                /* \"#utility.yul\":6242:6274   */\n              calldataload\n                /* \"#utility.yul\":6301:6319   */\n              0xffffffffffffffff\n                /* \"#utility.yul\":6293:6299   */\n              dup2\n                /* \"#utility.yul\":6290:6320   */\n              gt\n                /* \"#utility.yul\":6287:6404   */\n              iszero\n              tag_281\n              jumpi\n                /* \"#utility.yul\":6323:6402   */\n              tag_282\n              tag_165\n              jump\t// in\n            tag_282:\n                /* \"#utility.yul\":6287:6404   */\n            tag_281:\n                /* \"#utility.yul\":6428:6516   */\n              tag_283\n                /* \"#utility.yul\":6508:6515   */\n              dup7\n                /* \"#utility.yul\":6499:6505   */\n              dup3\n                /* \"#utility.yul\":6488:6497   */\n              dup8\n                /* \"#utility.yul\":6484:6506   */\n              add\n                /* \"#utility.yul\":6428:6516   */\n              tag_179\n              jump\t// in\n            tag_283:\n                /* \"#utility.yul\":6418:6516   */\n              swap3\n              pop\n                /* \"#utility.yul\":6213:6526   */\n              pop\n                /* \"#utility.yul\":6593:6595   */\n              0x40\n                /* \"#utility.yul\":6582:6591   */\n              dup5\n                /* \"#utility.yul\":6578:6596   */\n              add\n                /* \"#utility.yul\":6565:6597   */\n              calldataload\n                /* \"#utility.yul\":6624:6642   */\n              0xffffffffffffffff\n                /* \"#utility.yul\":6616:6622   */\n              dup2\n                /* \"#utility.yul\":6613:6643   */\n              gt\n                /* \"#utility.yul\":6610:6727   */\n              iszero\n              tag_284\n              jumpi\n                /* \"#utility.yul\":6646:6725   */\n              tag_285\n              tag_165\n              jump\t// in\n            tag_285:\n                /* \"#utility.yul\":6610:6727   */\n            tag_284:\n                /* \"#utility.yul\":6751:6839   */\n              tag_286\n                /* \"#utility.yul\":6831:6838   */\n              dup7\n                /* \"#utility.yul\":6822:6828   */\n              dup3\n                /* \"#utility.yul\":6811:6820   */\n              dup8\n                /* \"#utility.yul\":6807:6829   */\n              add\n                /* \"#utility.yul\":6751:6839   */\n              tag_179\n              jump\t// in\n            tag_286:\n                /* \"#utility.yul\":6741:6839   */\n              swap2\n              pop\n                /* \"#utility.yul\":6536:6849   */\n              pop\n                /* \"#utility.yul\":5547:6856   */\n              swap3\n              pop\n              swap3\n              pop\n              swap3\n              jump\t// out\n                /* \"#utility.yul\":6862:6955   */\n            tag_180:\n                /* \"#utility.yul\":6898:6905   */\n              0x00\n                /* \"#utility.yul\":6938:6948   */\n              0xffffffff\n                /* \"#utility.yul\":6931:6936   */\n              dup3\n                /* \"#utility.yul\":6927:6949   */\n              and\n                /* \"#utility.yul\":6916:6949   */\n              swap1\n              pop\n                /* \"#utility.yul\":6862:6955   */\n              swap2\n              swap1\n              pop\n              jump\t// out\n                /* \"#utility.yul\":6961:7081   */\n            tag_181:\n                /* \"#utility.yul\":7033:7056   */\n              tag_289\n                /* \"#utility.yul\":7050:7055   */\n              dup2\n                /* \"#utility.yul\":7033:7056   */\n              tag_180\n              jump\t// in\n            tag_289:\n                /* \"#utility.yul\":7026:7031   */\n              dup2\n                /* \"#utility.yul\":7023:7057   */\n              eq\n                /* \"#utility.yul\":7013:7075   */\n              tag_290\n              jumpi\n                /* \"#utility.yul\":7071:7072   */\n              0x00\n                /* \"#utility.yul\":7068:7069   */\n              dup1\n                /* \"#utility.yul\":7061:7073   */\n              revert\n                /* \"#utility.yul\":7013:7075   */\n            tag_290:\n                /* \"#utility.yul\":6961:7081   */\n              pop\n              jump\t// out\n                /* \"#utility.yul\":7087:7224   */\n            tag_182:\n                /* \"#utility.yul\":7132:7137   */\n              0x00\n                /* \"#utility.yul\":7170:7176   */\n              dup2\n                /* \"#utility.yul\":7157:7177   */\n              calldataload\n                /* \"#utility.yul\":7148:7177   */\n              swap1\n              pop\n                /* \"#utility.yul\":7186:7218   */\n              tag_292\n                /* \"#utility.yul\":7212:7217   */\n              dup2\n                /* \"#utility.yul\":7186:7218   */\n              tag_181\n              jump\t// in\n            tag_292:\n                /* \"#utility.yul\":7087:7224   */\n              swap3\n              swap2\n              pop\n              pop\n              jump\t// out\n                /* \"#utility.yul\":7230:7882   */\n            tag_26:\n                /* \"#utility.yul\":7307:7313   */\n              0x00\n                /* \"#utility.yul\":7315:7321   */\n              dup1\n                /* \"#utility.yul\":7364:7366   */\n              0x40\n                /* \"#utility.yul\":7352:7361   */\n              dup4\n                /* \"#utility.yul\":7343:7350   */\n              dup6\n                /* \"#utility.yul\":7339:7362   */\n              sub\n                /* \"#utility.yul\":7335:7367   */\n              slt\n                /* \"#utility.yul\":7332:7451   */\n              iszero\n              tag_294\n              jumpi\n                /* \"#utility.yul\":7370:7449   */\n              tag_295\n              tag_164\n              jump\t// in\n            tag_295:\n                /* \"#utility.yul\":7332:7451   */\n            tag_294:\n                /* \"#utility.yul\":7518:7519   */\n              0x00\n                /* \"#utility.yul\":7507:7516   */\n              dup4\n                /* \"#utility.yul\":7503:7520   */\n              add\n                /* \"#utility.yul\":7490:7521   */\n              calldataload\n                /* \"#utility.yul\":7548:7566   */\n              0xffffffffffffffff\n                /* \"#utility.yul\":7540:7546   */\n              dup2\n                /* \"#utility.yul\":7537:7567   */\n              gt\n                /* \"#utility.yul\":7534:7651   */\n              iszero\n              tag_296\n              jumpi\n                /* \"#utility.yul\":7570:7649   */\n              tag_297\n              tag_165\n              jump\t// in\n            tag_297:\n                /* \"#utility.yul\":7534:7651   */\n            tag_296:\n                /* \"#utility.yul\":7675:7738   */\n              tag_298\n                /* \"#utility.yul\":7730:7737   */\n              dup6\n                /* \"#utility.yul\":7721:7727   */\n              dup3\n                /* \"#utility.yul\":7710:7719   */\n              dup7\n                /* \"#utility.yul\":7706:7728   */\n              add\n                /* \"#utility.yul\":7675:7738   */\n              tag_175\n              jump\t// in\n            tag_298:\n                /* \"#utility.yul\":7665:7738   */\n              swap3\n              pop\n                /* \"#utility.yul\":7461:7748   */\n              pop\n                /* \"#utility.yul\":7787:7789   */\n              0x20\n                /* \"#utility.yul\":7813:7865   */\n              tag_299\n                /* \"#utility.yul\":7857:7864   */\n              dup6\n                /* \"#utility.yul\":7848:7854   */\n              dup3\n                /* \"#utility.yul\":7837:7846   */\n              dup7\n                /* \"#utility.yul\":7833:7855   */\n              add\n                /* \"#utility.yul\":7813:7865   */\n              tag_182\n              jump\t// in\n            tag_299:\n                /* \"#utility.yul\":7803:7865   */\n              swap2\n              pop\n                /* \"#utility.yul\":7758:7875   */\n              pop\n                /* \"#utility.yul\":7230:7882   */\n              swap3\n              pop\n              swap3\n              swap1\n              pop\n              jump\t// out\n                /* \"#utility.yul\":7888:7978   */\n            tag_183:\n                /* \"#utility.yul\":7922:7929   */\n              0x00\n                /* \"#utility.yul\":7965:7970   */\n              dup2\n                /* \"#utility.yul\":7958:7971   */\n              iszero\n                /* \"#utility.yul\":7951:7972   */\n              iszero\n                /* \"#utility.yul\":7940:7972   */\n              swap1\n              pop\n                /* \"#utility.yul\":7888:7978   */\n              swap2\n              swap1\n              pop\n              jump\t// out\n                /* \"#utility.yul\":7984:8093   */\n            tag_184:\n                /* \"#utility.yul\":8065:8086   */\n              tag_302\n                /* \"#utility.yul\":8080:8085   */\n              dup2\n                /* \"#utility.yul\":8065:8086   */\n              tag_183\n              jump\t// in\n            tag_302:\n                /* \"#utility.yul\":8060:8063   */\n              dup3\n                /* \"#utility.yul\":8053:8087   */\n              mstore\n                /* \"#utility.yul\":7984:8093   */\n              pop\n              pop\n              jump\t// out\n                /* \"#utility.yul\":8099:8309   */\n            tag_29:\n                /* \"#utility.yul\":8186:8190   */\n              0x00\n                /* \"#utility.yul\":8224:8226   */\n              0x20\n                /* \"#utility.yul\":8213:8222   */\n              dup3\n                /* \"#utility.yul\":8209:8227   */\n              add\n                /* \"#utility.yul\":8201:8227   */\n              swap1\n              pop\n                /* \"#utility.yul\":8237:8302   */\n              tag_304\n                /* \"#utility.yul\":8299:8300   */\n              0x00\n                /* \"#utility.yul\":8288:8297   */\n              dup4\n                /* \"#utility.yul\":8284:8301   */\n              add\n                /* \"#utility.yul\":8275:8281   */\n              dup5\n                /* \"#utility.yul\":8237:8302   */\n              tag_184\n              jump\t// in\n            tag_304:\n                /* \"#utility.yul\":8099:8309   */\n              swap3\n              swap2\n              pop\n              pop\n              jump\t// out\n                /* \"#utility.yul\":8315:9249   */\n            tag_32:\n                /* \"#utility.yul\":8453:8459   */\n              0x00\n                /* \"#utility.yul\":8461:8467   */\n              dup1\n                /* \"#utility.yul\":8510:8512   */\n              0x40\n                /* \"#utility.yul\":8498:8507   */\n              dup4\n                /* \"#utility.yul\":8489:8496   */\n              dup6\n                /* \"#utility.yul\":8485:8508   */\n              sub\n                /* \"#utility.yul\":8481:8513   */\n              slt\n                /* \"#utility.yul\":8478:8597   */\n              iszero\n              tag_306\n              jumpi\n                /* \"#utility.yul\":8516:8595   */\n              tag_307\n              tag_164\n              jump\t// in\n            tag_307:\n                /* \"#utility.yul\":8478:8597   */\n            tag_306:\n                /* \"#utility.yul\":8664:8665   */\n              0x00\n                /* \"#utility.yul\":8653:8662   */\n              dup4\n                /* \"#utility.yul\":8649:8666   */\n              add\n                /* \"#utility.yul\":8636:8667   */\n              calldataload\n                /* \"#utility.yul\":8694:8712   */\n              0xffffffffffffffff\n                /* \"#utility.yul\":8686:8692   */\n              dup2\n                /* \"#utility.yul\":8683:8713   */\n              gt\n                /* \"#utility.yul\":8680:8797   */\n              iszero\n              tag_308\n              jumpi\n                /* \"#utility.yul\":8716:8795   */\n              tag_309\n              tag_165\n              jump\t// in\n            tag_309:\n                /* \"#utility.yul\":8680:8797   */\n            tag_308:\n                /* \"#utility.yul\":8821:8909   */\n              tag_310\n                /* \"#utility.yul\":8901:8908   */\n              dup6\n                /* \"#utility.yul\":8892:8898   */\n              dup3\n                /* \"#utility.yul\":8881:8890   */\n              dup7\n                /* \"#utility.yul\":8877:8899   */\n              add\n                /* \"#utility.yul\":8821:8909   */\n              tag_179\n              jump\t// in\n            tag_310:\n                /* \"#utility.yul\":8811:8909   */\n              swap3\n              pop\n                /* \"#utility.yul\":8607:8919   */\n              pop\n                /* \"#utility.yul\":8986:8988   */\n              0x20\n                /* \"#utility.yul\":8975:8984   */\n              dup4\n                /* \"#utility.yul\":8971:8989   */\n              add\n                /* \"#utility.yul\":8958:8990   */\n              calldataload\n                /* \"#utility.yul\":9017:9035   */\n              0xffffffffffffffff\n                /* \"#utility.yul\":9009:9015   */\n              dup2\n                /* \"#utility.yul\":9006:9036   */\n              gt\n                /* \"#utility.yul\":9003:9120   */\n              iszero\n              tag_311\n              jumpi\n                /* \"#utility.yul\":9039:9118   */\n              tag_312\n              tag_165\n              jump\t// in\n            tag_312:\n                /* \"#utility.yul\":9003:9120   */\n            tag_311:\n                /* \"#utility.yul\":9144:9232   */\n              tag_313\n                /* \"#utility.yul\":9224:9231   */\n              dup6\n                /* \"#utility.yul\":9215:9221   */\n              dup3\n                /* \"#utility.yul\":9204:9213   */\n              dup7\n                /* \"#utility.yul\":9200:9222   */\n              add\n                /* \"#utility.yul\":9144:9232   */\n              tag_179\n              jump\t// in\n            tag_313:\n                /* \"#utility.yul\":9134:9232   */\n              swap2\n              pop\n                /* \"#utility.yul\":8929:9242   */\n              pop\n                /* \"#utility.yul\":8315:9249   */\n              swap3\n              pop\n              swap3\n              swap1\n              pop\n              jump\t// out\n                /* \"#utility.yul\":9255:9814   */\n            tag_36:\n                /* \"#utility.yul\":9349:9355   */\n              0x00\n                /* \"#utility.yul\":9398:9400   */\n              0x20\n                /* \"#utility.yul\":9386:9395   */\n              dup3\n                /* \"#utility.yul\":9377:9384   */\n              dup5\n                /* \"#utility.yul\":9373:9396   */\n              sub\n                /* \"#utility.yul\":9369:9401   */\n              slt\n                /* \"#utility.yul\":9366:9485   */\n              iszero\n              tag_315\n              jumpi\n                /* \"#utility.yul\":9404:9483   */\n              tag_316\n              tag_164\n              jump\t// in\n            tag_316:\n                /* \"#utility.yul\":9366:9485   */\n            tag_315:\n                /* \"#utility.yul\":9552:9553   */\n              0x00\n                /* \"#utility.yul\":9541:9550   */\n              dup3\n                /* \"#utility.yul\":9537:9554   */\n              add\n                /* \"#utility.yul\":9524:9555   */\n              calldataload\n                /* \"#utility.yul\":9582:9600   */\n              0xffffffffffffffff\n                /* \"#utility.yul\":9574:9580   */\n              dup2\n                /* \"#utility.yul\":9571:9601   */\n              gt\n                /* \"#utility.yul\":9568:9685   */\n              iszero\n              tag_317\n              jumpi\n                /* \"#utility.yul\":9604:9683   */\n              tag_318\n              tag_165\n              jump\t// in\n            tag_318:\n                /* \"#utility.yul\":9568:9685   */\n            tag_317:\n                /* \"#utility.yul\":9709:9797   */\n              tag_319\n                /* \"#utility.yul\":9789:9796   */\n              dup5\n                /* \"#utility.yul\":9780:9786   */\n              dup3\n                /* \"#utility.yul\":9769:9778   */\n              dup6\n                /* \"#utility.yul\":9765:9787   */\n              add\n                /* \"#utility.yul\":9709:9797   */\n              tag_179\n              jump\t// in\n            tag_319:\n                /* \"#utility.yul\":9699:9797   */\n              swap2\n              pop\n                /* \"#utility.yul\":9495:9807   */\n              pop\n                /* \"#utility.yul\":9255:9814   */\n              swap3\n              swap2\n              pop\n              pop\n              jump\t// out\n                /* \"#utility.yul\":9820:10329   */\n            tag_43:\n                /* \"#utility.yul\":9889:9895   */\n              0x00\n                /* \"#utility.yul\":9938:9940   */\n              0x20\n                /* \"#utility.yul\":9926:9935   */\n              dup3\n                /* \"#utility.yul\":9917:9924   */\n              dup5\n                /* \"#utility.yul\":9913:9936   */\n              sub\n                /* \"#utility.yul\":9909:9941   */\n              slt\n                /* \"#utility.yul\":9906:10025   */\n              iszero\n              tag_321\n              jumpi\n                /* \"#utility.yul\":9944:10023   */\n              tag_322\n              tag_164\n              jump\t// in\n            tag_322:\n                /* \"#utility.yul\":9906:10025   */\n            tag_321:\n                /* \"#utility.yul\":10092:10093   */\n              0x00\n                /* \"#utility.yul\":10081:10090   */\n              dup3\n                /* \"#utility.yul\":10077:10094   */\n              add\n                /* \"#utility.yul\":10064:10095   */\n              calldataload\n                /* \"#utility.yul\":10122:10140   */\n              0xffffffffffffffff\n                /* \"#utility.yul\":10114:10120   */\n              dup2\n                /* \"#utility.yul\":10111:10141   */\n              gt\n                /* \"#utility.yul\":10108:10225   */\n              iszero\n              tag_323\n              jumpi\n                /* \"#utility.yul\":10144:10223   */\n              tag_324\n              tag_165\n              jump\t// in\n            tag_324:\n                /* \"#utility.yul\":10108:10225   */\n            tag_323:\n                /* \"#utility.yul\":10249:10312   */\n              tag_325\n                /* \"#utility.yul\":10304:10311   */\n              dup5\n                /* \"#utility.yul\":10295:10301   */\n              dup3\n                /* \"#utility.yul\":10284:10293   */\n              dup6\n                /* \"#utility.yul\":10280:10302   */\n              add\n                /* \"#utility.yul\":10249:10312   */\n              tag_175\n              jump\t// in\n            tag_325:\n                /* \"#utility.yul\":10239:10312   */\n              swap2\n              pop\n                /* \"#utility.yul\":10035:10322   */\n              pop\n                /* \"#utility.yul\":9820:10329   */\n              swap3\n              swap2\n              pop\n              pop\n              jump\t// out\n                /* \"#utility.yul\":10335:10434   */\n            tag_185:\n                /* \"#utility.yul\":10387:10393   */\n              0x00\n                /* \"#utility.yul\":10421:10426   */\n              dup2\n                /* \"#utility.yul\":10415:10427   */\n              mload\n                /* \"#utility.yul\":10405:10427   */\n              swap1\n              pop\n                /* \"#utility.yul\":10335:10434   */\n              swap2\n              swap1\n              pop\n              jump\t// out\n                /* \"#utility.yul\":10440:10609   */\n            tag_186:\n                /* \"#utility.yul\":10524:10535   */\n              0x00\n                /* \"#utility.yul\":10558:10564   */\n              dup3\n                /* \"#utility.yul\":10553:10556   */\n              dup3\n                /* \"#utility.yul\":10546:10565   */\n              mstore\n                /* \"#utility.yul\":10598:10602   */\n              0x20\n                /* \"#utility.yul\":10593:10596   */\n              dup3\n                /* \"#utility.yul\":10589:10603   */\n              add\n                /* \"#utility.yul\":10574:10603   */\n              swap1\n              pop\n                /* \"#utility.yul\":10440:10609   */\n              swap3\n              swap2\n              pop\n              pop\n              jump\t// out\n                /* \"#utility.yul\":10615:10861   */\n            tag_187:\n                /* \"#utility.yul\":10696:10697   */\n              0x00\n                /* \"#utility.yul\":10706:10819   */\n            tag_329:\n                /* \"#utility.yul\":10720:10726   */\n              dup4\n                /* \"#utility.yul\":10717:10718   */\n              dup2\n                /* \"#utility.yul\":10714:10727   */\n              lt\n                /* \"#utility.yul\":10706:10819   */\n              iszero\n              tag_331\n              jumpi\n                /* \"#utility.yul\":10805:10806   */\n              dup1\n                /* \"#utility.yul\":10800:10803   */\n              dup3\n                /* \"#utility.yul\":10796:10807   */\n              add\n                /* \"#utility.yul\":10790:10808   */\n              mload\n                /* \"#utility.yul\":10786:10787   */\n              dup2\n                /* \"#utility.yul\":10781:10784   */\n              dup5\n                /* \"#utility.yul\":10777:10788   */\n              add\n                /* \"#utility.yul\":10770:10809   */\n              mstore\n                /* \"#utility.yul\":10742:10744   */\n              0x20\n                /* \"#utility.yul\":10739:10740   */\n              dup2\n                /* \"#utility.yul\":10735:10745   */\n              add\n                /* \"#utility.yul\":10730:10745   */\n              swap1\n              pop\n                /* \"#utility.yul\":10706:10819   */\n              jump(tag_329)\n            tag_331:\n                /* \"#utility.yul\":10853:10854   */\n              0x00\n                /* \"#utility.yul\":10844:10850   */\n              dup5\n                /* \"#utility.yul\":10839:10842   */\n              dup5\n                /* \"#utility.yul\":10835:10851   */\n              add\n                /* \"#utility.yul\":10828:10855   */\n              mstore\n                /* \"#utility.yul\":10677:10861   */\n              pop\n                /* \"#utility.yul\":10615:10861   */\n              pop\n              pop\n              pop\n              jump\t// out\n                /* \"#utility.yul\":10867:11244   */\n            tag_188:\n                /* \"#utility.yul\":10955:10958   */\n              0x00\n                /* \"#utility.yul\":10983:11022   */\n              tag_333\n                /* \"#utility.yul\":11016:11021   */\n              dup3\n                /* \"#utility.yul\":10983:11022   */\n              tag_185\n              jump\t// in\n            tag_333:\n                /* \"#utility.yul\":11038:11109   */\n              tag_334\n                /* \"#utility.yul\":11102:11108   */\n              dup2\n                /* \"#utility.yul\":11097:11100   */\n              dup6\n                /* \"#utility.yul\":11038:11109   */\n              tag_186\n              jump\t// in\n            tag_334:\n                /* \"#utility.yul\":11031:11109   */\n              swap4\n              pop\n                /* \"#utility.yul\":11118:11183   */\n              tag_335\n                /* \"#utility.yul\":11176:11182   */\n              dup2\n                /* \"#utility.yul\":11171:11174   */\n              dup6\n                /* \"#utility.yul\":11164:11168   */\n              0x20\n                /* \"#utility.yul\":11157:11162   */\n              dup7\n                /* \"#utility.yul\":11153:11169   */\n              add\n                /* \"#utility.yul\":11118:11183   */\n              tag_187\n              jump\t// in\n            tag_335:\n                /* \"#utility.yul\":11208:11237   */\n              tag_336\n                /* \"#utility.yul\":11230:11236   */\n              dup2\n                /* \"#utility.yul\":11208:11237   */\n              tag_168\n              jump\t// in\n            tag_336:\n                /* \"#utility.yul\":11203:11206   */\n              dup5\n                /* \"#utility.yul\":11199:11238   */\n              add\n                /* \"#utility.yul\":11192:11238   */\n              swap2\n              pop\n                /* \"#utility.yul\":10959:11244   */\n              pop\n                /* \"#utility.yul\":10867:11244   */\n              swap3\n              swap2\n              pop\n              pop\n              jump\t// out\n                /* \"#utility.yul\":11250:11365   */\n            tag_189:\n                /* \"#utility.yul\":11335:11358   */\n              tag_338\n                /* \"#utility.yul\":11352:11357   */\n              dup2\n                /* \"#utility.yul\":11335:11358   */\n              tag_180\n              jump\t// in\n            tag_338:\n                /* \"#utility.yul\":11330:11333   */\n              dup3\n                /* \"#utility.yul\":11323:11359   */\n              mstore\n                /* \"#utility.yul\":11250:11365   */\n              pop\n              pop\n              jump\t// out\n                /* \"#utility.yul\":11371:12292   */\n            tag_50:\n                /* \"#utility.yul\":11628:11632   */\n              0x00\n                /* \"#utility.yul\":11666:11669   */\n              0xa0\n                /* \"#utility.yul\":11655:11664   */\n              dup3\n                /* \"#utility.yul\":11651:11670   */\n              add\n                /* \"#utility.yul\":11643:11670   */\n              swap1\n              pop\n                /* \"#utility.yul\":11716:11725   */\n              dup2\n                /* \"#utility.yul\":11710:11714   */\n              dup2\n                /* \"#utility.yul\":11706:11726   */\n              sub\n                /* \"#utility.yul\":11702:11703   */\n              0x00\n                /* \"#utility.yul\":11691:11700   */\n              dup4\n                /* \"#utility.yul\":11687:11704   */\n              add\n                /* \"#utility.yul\":11680:11727   */\n              mstore\n                /* \"#utility.yul\":11744:11822   */\n              tag_340\n                /* \"#utility.yul\":11817:11821   */\n              dup2\n                /* \"#utility.yul\":11808:11814   */\n              dup9\n                /* \"#utility.yul\":11744:11822   */\n              tag_188\n              jump\t// in\n            tag_340:\n                /* \"#utility.yul\":11736:11822   */\n              swap1\n              pop\n                /* \"#utility.yul\":11869:11878   */\n              dup2\n                /* \"#utility.yul\":11863:11867   */\n              dup2\n                /* \"#utility.yul\":11859:11879   */\n              sub\n                /* \"#utility.yul\":11854:11856   */\n              0x20\n                /* \"#utility.yul\":11843:11852   */\n              dup4\n                /* \"#utility.yul\":11839:11857   */\n              add\n                /* \"#utility.yul\":11832:11880   */\n              mstore\n                /* \"#utility.yul\":11897:11975   */\n              tag_341\n                /* \"#utility.yul\":11970:11974   */\n              dup2\n                /* \"#utility.yul\":11961:11967   */\n              dup8\n                /* \"#utility.yul\":11897:11975   */\n              tag_188\n              jump\t// in\n            tag_341:\n                /* \"#utility.yul\":11889:11975   */\n              swap1\n              pop\n                /* \"#utility.yul\":12022:12031   */\n              dup2\n                /* \"#utility.yul\":12016:12020   */\n              dup2\n                /* \"#utility.yul\":12012:12032   */\n              sub\n                /* \"#utility.yul\":12007:12009   */\n              0x40\n                /* \"#utility.yul\":11996:12005   */\n              dup4\n                /* \"#utility.yul\":11992:12010   */\n              add\n                /* \"#utility.yul\":11985:12033   */\n              mstore\n                /* \"#utility.yul\":12050:12128   */\n              tag_342\n                /* \"#utility.yul\":12123:12127   */\n              dup2\n                /* \"#utility.yul\":12114:12120   */\n              dup7\n                /* \"#utility.yul\":12050:12128   */\n              tag_188\n              jump\t// in\n            tag_342:\n                /* \"#utility.yul\":12042:12128   */\n              swap1\n              pop\n                /* \"#utility.yul\":12138:12204   */\n              tag_343\n                /* \"#utility.yul\":12200:12202   */\n              0x60\n                /* \"#utility.yul\":12189:12198   */\n              dup4\n                /* \"#utility.yul\":12185:12203   */\n              add\n                /* \"#utility.yul\":12176:12182   */\n              dup6\n                /* \"#utility.yul\":12138:12204   */\n              tag_184\n              jump\t// in\n            tag_343:\n                /* \"#utility.yul\":12214:12285   */\n              tag_344\n                /* \"#utility.yul\":12280:12283   */\n              0x80\n                /* \"#utility.yul\":12269:12278   */\n              dup4\n                /* \"#utility.yul\":12265:12284   */\n              add\n                /* \"#utility.yul\":12256:12262   */\n              dup5\n                /* \"#utility.yul\":12214:12285   */\n              tag_189\n              jump\t// in\n            tag_344:\n                /* \"#utility.yul\":11371:12292   */\n              swap7\n              swap6\n              pop\n              pop\n              pop\n              pop\n              pop\n              pop\n              jump\t// out\n                /* \"#utility.yul\":12298:13132   */\n            tag_53:\n                /* \"#utility.yul\":12386:12392   */\n              0x00\n                /* \"#utility.yul\":12394:12400   */\n              dup1\n                /* \"#utility.yul\":12443:12445   */\n              0x40\n                /* \"#utility.yul\":12431:12440   */\n              dup4\n                /* \"#utility.yul\":12422:12429   */\n              dup6\n                /* \"#utility.yul\":12418:12441   */\n              sub\n                /* \"#utility.yul\":12414:12446   */\n              slt\n                /* \"#utility.yul\":12411:12530   */\n              iszero\n              tag_346\n              jumpi\n                /* \"#utility.yul\":12449:12528   */\n              tag_347\n              tag_164\n              jump\t// in\n            tag_347:\n                /* \"#utility.yul\":12411:12530   */\n            tag_346:\n                /* \"#utility.yul\":12597:12598   */\n              0x00\n                /* \"#utility.yul\":12586:12595   */\n              dup4\n                /* \"#utility.yul\":12582:12599   */\n              add\n                /* \"#utility.yul\":12569:12600   */\n              calldataload\n                /* \"#utility.yul\":12627:12645   */\n              0xffffffffffffffff\n                /* \"#utility.yul\":12619:12625   */\n              dup2\n                /* \"#utility.yul\":12616:12646   */\n              gt\n                /* \"#utility.yul\":12613:12730   */\n              iszero\n              tag_348\n              jumpi\n                /* \"#utility.yul\":12649:12728   */\n              tag_349\n              tag_165\n              jump\t// in\n            tag_349:\n                /* \"#utility.yul\":12613:12730   */\n            tag_348:\n                /* \"#utility.yul\":12754:12817   */\n              tag_350\n                /* \"#utility.yul\":12809:12816   */\n              dup6\n                /* \"#utility.yul\":12800:12806   */\n              dup3\n                /* \"#utility.yul\":12789:12798   */\n              dup7\n                /* \"#utility.yul\":12785:12807   */\n              add\n                /* \"#utility.yul\":12754:12817   */\n              tag_175\n              jump\t// in\n            tag_350:\n                /* \"#utility.yul\":12744:12817   */\n              swap3\n              pop\n                /* \"#utility.yul\":12540:12827   */\n              pop\n                /* \"#utility.yul\":12894:12896   */\n              0x20\n                /* \"#utility.yul\":12883:12892   */\n              dup4\n                /* \"#utility.yul\":12879:12897   */\n              add\n                /* \"#utility.yul\":12866:12898   */\n              calldataload\n                /* \"#utility.yul\":12925:12943   */\n              0xffffffffffffffff\n                /* \"#utility.yul\":12917:12923   */\n              dup2\n                /* \"#utility.yul\":12914:12944   */\n              gt\n                /* \"#utility.yul\":12911:13028   */\n              iszero\n              tag_351\n              jumpi\n                /* \"#utility.yul\":12947:13026   */\n              tag_352\n              tag_165\n              jump\t// in\n            tag_352:\n                /* \"#utility.yul\":12911:13028   */\n            tag_351:\n                /* \"#utility.yul\":13052:13115   */\n              tag_353\n                /* \"#utility.yul\":13107:13114   */\n              dup6\n                /* \"#utility.yul\":13098:13104   */\n              dup3\n                /* \"#utility.yul\":13087:13096   */\n              dup7\n                /* \"#utility.yul\":13083:13105   */\n              add\n                /* \"#utility.yul\":13052:13115   */\n              tag_175\n              jump\t// in\n            tag_353:\n                /* \"#utility.yul\":13042:13115   */\n              swap2\n              pop\n                /* \"#utility.yul\":12837:13125   */\n              pop\n                /* \"#utility.yul\":12298:13132   */\n              swap3\n              pop\n              swap3\n              swap1\n              pop\n              jump\t// out\n                /* \"#utility.yul\":13138:13549   */\n            tag_59:\n                /* \"#utility.yul\":13273:13277   */\n              0x00\n                /* \"#utility.yul\":13311:13313   */\n              0x40\n                /* \"#utility.yul\":13300:13309   */\n              dup3\n                /* \"#utility.yul\":13296:13314   */\n              add\n                /* \"#utility.yul\":13288:13314   */\n              swap1\n              pop\n                /* \"#utility.yul\":13360:13369   */\n              dup2\n                /* \"#utility.yul\":13354:13358   */\n              dup2\n                /* \"#utility.yul\":13350:13370   */\n              sub\n                /* \"#utility.yul\":13346:13347   */\n              0x00\n                /* \"#utility.yul\":13335:13344   */\n              dup4\n                /* \"#utility.yul\":13331:13348   */\n              add\n                /* \"#utility.yul\":13324:13371   */\n              mstore\n                /* \"#utility.yul\":13388:13466   */\n              tag_355\n                /* \"#utility.yul\":13461:13465   */\n              dup2\n                /* \"#utility.yul\":13452:13458   */\n              dup6\n                /* \"#utility.yul\":13388:13466   */\n              tag_188\n              jump\t// in\n            tag_355:\n                /* \"#utility.yul\":13380:13466   */\n              swap1\n              pop\n                /* \"#utility.yul\":13476:13542   */\n              tag_356\n                /* \"#utility.yul\":13538:13540   */\n              0x20\n                /* \"#utility.yul\":13527:13536   */\n              dup4\n                /* \"#utility.yul\":13523:13541   */\n              add\n                /* \"#utility.yul\":13514:13520   */\n              dup5\n                /* \"#utility.yul\":13476:13542   */\n              tag_184\n              jump\t// in\n            tag_356:\n                /* \"#utility.yul\":13138:13549   */\n              swap4\n              swap3\n              pop\n              pop\n              pop\n              jump\t// out\n                /* \"#utility.yul\":13555:13681   */\n            tag_190:\n                /* \"#utility.yul\":13592:13599   */\n              0x00\n                /* \"#utility.yul\":13632:13674   */\n              0xffffffffffffffffffffffffffffffffffffffff\n                /* \"#utility.yul\":13625:13630   */\n              dup3\n                /* \"#utility.yul\":13621:13675   */\n              and\n                /* \"#utility.yul\":13610:13675   */\n              swap1\n              pop\n                /* \"#utility.yul\":13555:13681   */\n              swap2\n              swap1\n              pop\n              jump\t// out\n                /* \"#utility.yul\":13687:13783   */\n            tag_191:\n                /* \"#utility.yul\":13724:13731   */\n              0x00\n                /* \"#utility.yul\":13753:13777   */\n              tag_359\n                /* \"#utility.yul\":13771:13776   */\n              dup3\n                /* \"#utility.yul\":13753:13777   */\n              tag_190\n              jump\t// in\n            tag_359:\n                /* \"#utility.yul\":13742:13777   */\n              swap1\n              pop\n                /* \"#utility.yul\":13687:13783   */\n              swap2\n              swap1\n              pop\n              jump\t// out\n                /* \"#utility.yul\":13789:13907   */\n            tag_192:\n                /* \"#utility.yul\":13876:13900   */\n              tag_361\n                /* \"#utility.yul\":13894:13899   */\n              dup2\n                /* \"#utility.yul\":13876:13900   */\n              tag_191\n              jump\t// in\n            tag_361:\n                /* \"#utility.yul\":13871:13874   */\n              dup3\n                /* \"#utility.yul\":13864:13901   */\n              mstore\n                /* \"#utility.yul\":13789:13907   */\n              pop\n              pop\n              jump\t// out\n                /* \"#utility.yul\":13913:14336   */\n            tag_67:\n                /* \"#utility.yul\":14054:14058   */\n              0x00\n                /* \"#utility.yul\":14092:14094   */\n              0x40\n                /* \"#utility.yul\":14081:14090   */\n              dup3\n                /* \"#utility.yul\":14077:14095   */\n              add\n                /* \"#utility.yul\":14069:14095   */\n              swap1\n              pop\n                /* \"#utility.yul\":14141:14150   */\n              dup2\n                /* \"#utility.yul\":14135:14139   */\n              dup2\n                /* \"#utility.yul\":14131:14151   */\n              sub\n                /* \"#utility.yul\":14127:14128   */\n              0x00\n                /* \"#utility.yul\":14116:14125   */\n              dup4\n                /* \"#utility.yul\":14112:14129   */\n              add\n                /* \"#utility.yul\":14105:14152   */\n              mstore\n                /* \"#utility.yul\":14169:14247   */\n              tag_363\n                /* \"#utility.yul\":14242:14246   */\n              dup2\n                /* \"#utility.yul\":14233:14239   */\n              dup6\n                /* \"#utility.yul\":14169:14247   */\n              tag_188\n              jump\t// in\n            tag_363:\n                /* \"#utility.yul\":14161:14247   */\n              swap1\n              pop\n                /* \"#utility.yul\":14257:14329   */\n              tag_364\n                /* \"#utility.yul\":14325:14327   */\n              0x20\n                /* \"#utility.yul\":14314:14323   */\n              dup4\n                /* \"#utility.yul\":14310:14328   */\n              add\n                /* \"#utility.yul\":14301:14307   */\n              dup5\n                /* \"#utility.yul\":14257:14329   */\n              tag_192\n              jump\t// in\n            tag_364:\n                /* \"#utility.yul\":13913:14336   */\n              swap4\n              swap3\n              pop\n              pop\n              pop\n              jump\t// out\n                /* \"#utility.yul\":14342:14490   */\n            tag_193:\n                /* \"#utility.yul\":14444:14455   */\n              0x00\n                /* \"#utility.yul\":14481:14484   */\n              dup2\n                /* \"#utility.yul\":14466:14484   */\n              swap1\n              pop\n                /* \"#utility.yul\":14342:14490   */\n              swap3\n              swap2\n              pop\n              pop\n              jump\t// out\n                /* \"#utility.yul\":14496:14886   */\n            tag_194:\n                /* \"#utility.yul\":14602:14605   */\n              0x00\n                /* \"#utility.yul\":14630:14669   */\n              tag_367\n                /* \"#utility.yul\":14663:14668   */\n              dup3\n                /* \"#utility.yul\":14630:14669   */\n              tag_185\n              jump\t// in\n            tag_367:\n                /* \"#utility.yul\":14685:14774   */\n              tag_368\n                /* \"#utility.yul\":14767:14773   */\n              dup2\n                /* \"#utility.yul\":14762:14765   */\n              dup6\n                /* \"#utility.yul\":14685:14774   */\n              tag_193\n              jump\t// in\n            tag_368:\n                /* \"#utility.yul\":14678:14774   */\n              swap4\n              pop\n                /* \"#utility.yul\":14783:14848   */\n              tag_369\n                /* \"#utility.yul\":14841:14847   */\n              dup2\n                /* \"#utility.yul\":14836:14839   */\n              dup6\n                /* \"#utility.yul\":14829:14833   */\n              0x20\n                /* \"#utility.yul\":14822:14827   */\n              dup7\n                /* \"#utility.yul\":14818:14834   */\n              add\n                /* \"#utility.yul\":14783:14848   */\n              tag_187\n              jump\t// in\n            tag_369:\n                /* \"#utility.yul\":14873:14879   */\n              dup1\n                /* \"#utility.yul\":14868:14871   */\n              dup5\n                /* \"#utility.yul\":14864:14880   */\n              add\n                /* \"#utility.yul\":14857:14880   */\n              swap2\n              pop\n                /* \"#utility.yul\":14606:14886   */\n              pop\n                /* \"#utility.yul\":14496:14886   */\n              swap3\n              swap2\n              pop\n              pop\n              jump\t// out\n                /* \"#utility.yul\":14892:15167   */\n            tag_70:\n                /* \"#utility.yul\":15024:15027   */\n              0x00\n                /* \"#utility.yul\":15046:15141   */\n              tag_371\n                /* \"#utility.yul\":15137:15140   */\n              dup3\n                /* \"#utility.yul\":15128:15134   */\n              dup5\n                /* \"#utility.yul\":15046:15141   */\n              tag_194\n              jump\t// in\n            tag_371:\n                /* \"#utility.yul\":15039:15141   */\n              swap2\n              pop\n                /* \"#utility.yul\":15158:15161   */\n              dup2\n                /* \"#utility.yul\":15151:15161   */\n              swap1\n              pop\n                /* \"#utility.yul\":14892:15167   */\n              swap3\n              swap2\n              pop\n              pop\n              jump\t// out\n                /* \"#utility.yul\":15173:15353   */\n            tag_195:\n                /* \"#utility.yul\":15221:15298   */\n              0x4e487b7100000000000000000000000000000000000000000000000000000000\n                /* \"#utility.yul\":15218:15219   */\n              0x00\n                /* \"#utility.yul\":15211:15299   */\n              mstore\n                /* \"#utility.yul\":15318:15322   */\n              0x22\n                /* \"#utility.yul\":15315:15316   */\n              0x04\n                /* \"#utility.yul\":15308:15323   */\n              mstore\n                /* \"#utility.yul\":15342:15346   */\n              0x24\n                /* \"#utility.yul\":15339:15340   */\n              0x00\n                /* \"#utility.yul\":15332:15347   */\n              revert\n                /* \"#utility.yul\":15359:15679   */\n            tag_127:\n                /* \"#utility.yul\":15403:15409   */\n              0x00\n                /* \"#utility.yul\":15440:15441   */\n              0x02\n                /* \"#utility.yul\":15434:15438   */\n              dup3\n                /* \"#utility.yul\":15430:15442   */\n              div\n                /* \"#utility.yul\":15420:15442   */\n              swap1\n              pop\n                /* \"#utility.yul\":15487:15488   */\n              0x01\n                /* \"#utility.yul\":15481:15485   */\n              dup3\n                /* \"#utility.yul\":15477:15489   */\n              and\n                /* \"#utility.yul\":15508:15526   */\n              dup1\n                /* \"#utility.yul\":15498:15579   */\n              tag_374\n              jumpi\n                /* \"#utility.yul\":15564:15568   */\n              0x7f\n                /* \"#utility.yul\":15556:15562   */\n              dup3\n                /* \"#utility.yul\":15552:15569   */\n              and\n                /* \"#utility.yul\":15542:15569   */\n              swap2\n              pop\n                /* \"#utility.yul\":15498:15579   */\n            tag_374:\n                /* \"#utility.yul\":15626:15628   */\n              0x20\n                /* \"#utility.yul\":15618:15624   */\n              dup3\n                /* \"#utility.yul\":15615:15629   */\n              lt\n                /* \"#utility.yul\":15595:15613   */\n              dup2\n                /* \"#utility.yul\":15592:15630   */\n              sub\n                /* \"#utility.yul\":15589:15673   */\n              tag_375\n              jumpi\n                /* \"#utility.yul\":15645:15663   */\n              tag_376\n              tag_195\n              jump\t// in\n            tag_376:\n                /* \"#utility.yul\":15589:15673   */\n            tag_375:\n                /* \"#utility.yul\":15410:15679   */\n              pop\n                /* \"#utility.yul\":15359:15679   */\n              swap2\n              swap1\n              pop\n              jump\t// out\n                /* \"#utility.yul\":15685:15826   */\n            tag_196:\n                /* \"#utility.yul\":15734:15738   */\n              0x00\n                /* \"#utility.yul\":15757:15760   */\n              dup2\n                /* \"#utility.yul\":15749:15760   */\n              swap1\n              pop\n                /* \"#utility.yul\":15780:15783   */\n              dup2\n                /* \"#utility.yul\":15777:15778   */\n              0x00\n                /* \"#utility.yul\":15770:15784   */\n              mstore\n                /* \"#utility.yul\":15814:15818   */\n              0x20\n                /* \"#utility.yul\":15811:15812   */\n              0x00\n                /* \"#utility.yul\":15801:15819   */\n              keccak256\n                /* \"#utility.yul\":15793:15819   */\n              swap1\n              pop\n                /* \"#utility.yul\":15685:15826   */\n              swap2\n              swap1\n              pop\n              jump\t// out\n                /* \"#utility.yul\":15832:15925   */\n            tag_197:\n                /* \"#utility.yul\":15869:15875   */\n              0x00\n                /* \"#utility.yul\":15916:15918   */\n              0x20\n                /* \"#utility.yul\":15911:15913   */\n              0x1f\n                /* \"#utility.yul\":15904:15909   */\n              dup4\n                /* \"#utility.yul\":15900:15914   */\n              add\n                /* \"#utility.yul\":15896:15919   */\n              div\n                /* \"#utility.yul\":15886:15919   */\n              swap1\n              pop\n                /* \"#utility.yul\":15832:15925   */\n              swap2\n              swap1\n              pop\n              jump\t// out\n                /* \"#utility.yul\":15931:16038   */\n            tag_198:\n                /* \"#utility.yul\":15975:15983   */\n              0x00\n                /* \"#utility.yul\":16025:16030   */\n              dup3\n                /* \"#utility.yul\":16019:16023   */\n              dup3\n                /* \"#utility.yul\":16015:16031   */\n              shl\n                /* \"#utility.yul\":15994:16031   */\n              swap1\n              pop\n                /* \"#utility.yul\":15931:16038   */\n              swap3\n              swap2\n              pop\n              pop\n              jump\t// out\n                /* \"#utility.yul\":16044:16437   */\n            tag_199:\n                /* \"#utility.yul\":16113:16119   */\n              0x00\n                /* \"#utility.yul\":16163:16164   */\n              0x08\n                /* \"#utility.yul\":16151:16161   */\n              dup4\n                /* \"#utility.yul\":16147:16165   */\n              mul\n                /* \"#utility.yul\":16186:16283   */\n              tag_381\n                /* \"#utility.yul\":16216:16282   */\n              0xffffffffffffffffffffffffffffffffffffffffffffffffffffffffffffffff\n                /* \"#utility.yul\":16205:16214   */\n              dup3\n                /* \"#utility.yul\":16186:16283   */\n              tag_198\n              jump\t// in\n            tag_381:\n                /* \"#utility.yul\":16304:16343   */\n              tag_382\n                /* \"#utility.yul\":16334:16342   */\n              dup7\n                /* \"#utility.yul\":16323:16332   */\n              dup4\n                /* \"#utility.yul\":16304:16343   */\n              tag_198\n              jump\t// in\n            tag_382:\n                /* \"#utility.yul\":16292:16343   */\n              swap6\n              pop\n                /* \"#utility.yul\":16376:16380   */\n              dup1\n                /* \"#utility.yul\":16372:16381   */\n              not\n                /* \"#utility.yul\":16365:16370   */\n              dup5\n                /* \"#utility.yul\":16361:16382   */\n              and\n                /* \"#utility.yul\":16352:16382   */\n              swap4\n              pop\n                /* \"#utility.yul\":16425:16429   */\n              dup1\n                /* \"#utility.yul\":16415:16423   */\n              dup7\n                /* \"#utility.yul\":16411:16430   */\n              and\n                /* \"#utility.yul\":16404:16409   */\n              dup5\n                /* \"#utility.yul\":16401:16431   */\n              or\n                /* \"#utility.yul\":16391:16431   */\n              swap3\n              pop\n                /* \"#utility.yul\":16120:16437   */\n              pop\n              pop\n                /* \"#utility.yul\":16044:16437   */\n              swap4\n              swap3\n              pop\n              pop\n              pop\n              jump\t// out\n                /* \"#utility.yul\":16443:16520   */\n            tag_200:\n                /* \"#utility.yul\":16480:16487   */\n              0x00\n                /* \"#utility.yul\":16509:16514   */\n              dup2\n                /* \"#utility.yul\":16498:16514   */\n              swap1\n              pop\n                /* \"#utility.yul\":16443:16520   */\n              swap2\n              swap1\n              pop\n              jump\t// out\n                /* \"#utility.yul\":16526:16586   */\n            tag_201:\n                /* \"#utility.yul\":16554:16557   */\n              0x00\n                /* \"#utility.yul\":16575:16580   */\n              dup2\n                /* \"#utility.yul\":16568:16580   */\n              swap1\n              pop\n                /* \"#utility.yul\":16526:16586   */\n              swap2\n              swap1\n              pop\n              jump\t// out\n                /* \"#utility.yul\":16592:16734   */\n            tag_202:\n                /* \"#utility.yul\":16642:16651   */\n              0x00\n                /* \"#utility.yul\":16675:16728   */\n              tag_386\n                /* \"#utility.yul\":16693:16727   */\n              tag_387\n                /* \"#utility.yul\":16702:16726   */\n              tag_388\n                /* \"#utility.yul\":16720:16725   */\n              dup5\n                /* \"#utility.yul\":16702:16726   */\n              tag_200\n              jump\t// in\n            tag_388:\n                /* \"#utility.yul\":16693:16727   */\n              tag_201\n              jump\t// in\n            tag_387:\n                /* \"#utility.yul\":16675:16728   */\n              tag_200\n              jump\t// in\n            tag_386:\n                /* \"#utility.yul\":16662:16728   */\n              swap1\n              pop\n                /* \"#utility.yul\":16592:16734   */\n              swap2\n              swap1\n              pop\n              jump\t// out\n                /* \"#utility.yul\":16740:16815   */\n            tag_203:\n                /* \"#utility.yul\":16783:16786   */\n              0x00\n                /* \"#utility.yul\":16804:16809   */\n              dup2\n                /* \"#utility.yul\":16797:16809   */\n              swap1\n              pop\n                /* \"#utility.yul\":16740:16815   */\n              swap2\n              swap1\n              pop\n              jump\t// out\n                /* \"#utility.yul\":16821:17090   */\n            tag_204:\n                /* \"#utility.yul\":16931:16970   */\n              tag_391\n                /* \"#utility.yul\":16962:16969   */\n              dup4\n                /* \"#utility.yul\":16931:16970   */\n              tag_202\n              jump\t// in\n            tag_391:\n                /* \"#utility.yul\":16992:17083   */\n              tag_392\n                /* \"#utility.yul\":17041:17082   */\n              tag_393\n                /* \"#utility.yul\":17065:17081   */\n              dup3\n                /* \"#utility.yul\":17041:17082   */\n              tag_203\n              jump\t// in\n            tag_393:\n                /* \"#utility.yul\":17033:17039   */\n              dup5\n                /* \"#utility.yul\":17026:17030   */\n              dup5\n                /* \"#utility.yul\":17020:17031   */\n              sload\n                /* \"#utility.yul\":16992:17083   */\n              tag_199\n              jump\t// in\n            tag_392:\n                /* \"#utility.yul\":16986:16990   */\n              dup3\n                /* \"#utility.yul\":16979:17084   */\n              sstore\n                /* \"#utility.yul\":16897:17090   */\n              pop\n                /* \"#utility.yul\":16821:17090   */\n              pop\n              pop\n              pop\n              jump\t// out\n                /* \"#utility.yul\":17096:17169   */\n            tag_205:\n                /* \"#utility.yul\":17141:17144   */\n              0x00\n                /* \"#utility.yul\":17096:17169   */\n              swap1\n              jump\t// out\n                /* \"#utility.yul\":17175:17364   */\n            tag_206:\n                /* \"#utility.yul\":17252:17284   */\n              tag_396\n              tag_205\n              jump\t// in\n            tag_396:\n                /* \"#utility.yul\":17293:17358   */\n              tag_397\n                /* \"#utility.yul\":17351:17357   */\n              dup2\n                /* \"#utility.yul\":17343:17349   */\n              dup5\n                /* \"#utility.yul\":17337:17341   */\n              dup5\n                /* \"#utility.yul\":17293:17358   */\n              tag_204\n              jump\t// in\n            tag_397:\n                /* \"#utility.yul\":17228:17364   */\n              pop\n                /* \"#utility.yul\":17175:17364   */\n              pop\n              pop\n              jump\t// out\n                /* \"#utility.yul\":17370:17556   */\n            tag_207:\n                /* \"#utility.yul\":17430:17550   */\n            tag_399:\n                /* \"#utility.yul\":17447:17450   */\n              dup2\n                /* \"#utility.yul\":17440:17445   */\n              dup2\n                /* \"#utility.yul\":17437:17451   */\n              lt\n                /* \"#utility.yul\":17430:17550   */\n              iszero\n              tag_401\n              jumpi\n                /* \"#utility.yul\":17501:17540   */\n              tag_402\n                /* \"#utility.yul\":17538:17539   */\n              0x00\n                /* \"#utility.yul\":17531:17536   */\n              dup3\n                /* \"#utility.yul\":17501:17540   */\n              tag_206\n              jump\t// in\n            tag_402:\n                /* \"#utility.yul\":17474:17475   */\n              0x01\n                /* \"#utility.yul\":17467:17472   */\n              dup2\n                /* \"#utility.yul\":17463:17476   */\n              add\n                /* \"#utility.yul\":17454:17476   */\n              swap1\n              pop\n                /* \"#utility.yul\":17430:17550   */\n              jump(tag_399)\n            tag_401:\n                /* \"#utility.yul\":17370:17556   */\n              pop\n              pop\n              jump\t// out\n                /* \"#utility.yul\":17562:18105   */\n            tag_208:\n                /* \"#utility.yul\":17663:17665   */\n              0x1f\n                /* \"#utility.yul\":17658:17661   */\n              dup3\n                /* \"#utility.yul\":17655:17666   */\n              gt\n                /* \"#utility.yul\":17652:18098   */\n              iszero\n              tag_404\n              jumpi\n                /* \"#utility.yul\":17697:17735   */\n              tag_405\n                /* \"#utility.yul\":17729:17734   */\n              dup2\n                /* \"#utility.yul\":17697:17735   */\n              tag_196\n              jump\t// in\n            tag_405:\n                /* \"#utility.yul\":17781:17810   */\n              tag_406\n                /* \"#utility.yul\":17799:17809   */\n              dup5\n                /* \"#utility.yul\":17781:17810   */\n              tag_197\n              jump\t// in\n            tag_406:\n                /* \"#utility.yul\":17771:17779   */\n              dup2\n                /* \"#utility.yul\":17767:17811   */\n              add\n                /* \"#utility.yul\":17964:17966   */\n              0x20\n                /* \"#utility.yul\":17952:17962   */\n              dup6\n                /* \"#utility.yul\":17949:17967   */\n              lt\n                /* \"#utility.yul\":17946:17995   */\n              iszero\n              tag_407\n              jumpi\n                /* \"#utility.yul\":17985:17993   */\n              dup2\n                /* \"#utility.yul\":17970:17993   */\n              swap1\n              pop\n                /* \"#utility.yul\":17946:17995   */\n            tag_407:\n                /* \"#utility.yul\":18008:18088   */\n              tag_408\n                /* \"#utility.yul\":18064:18086   */\n              tag_409\n                /* \"#utility.yul\":18082:18085   */\n              dup6\n                /* \"#utility.yul\":18064:18086   */\n              tag_197\n              jump\t// in\n            tag_409:\n                /* \"#utility.yul\":18054:18062   */\n              dup4\n                /* \"#utility.yul\":18050:18087   */\n              add\n                /* \"#utility.yul\":18037:18048   */\n              dup3\n                /* \"#utility.yul\":18008:18088   */\n              tag_207\n              jump\t// in\n            tag_408:\n                /* \"#utility.yul\":17667:18098   */\n              pop\n              pop\n                /* \"#utility.yul\":17652:18098   */\n            tag_404:\n                /* \"#utility.yul\":17562:18105   */\n              pop\n              pop\n              pop\n              jump\t// out\n                /* \"#utility.yul\":18111:18228   */\n            tag_209:\n                /* \"#utility.yul\":18165:18173   */\n              0x00\n                /* \"#utility.yul\":18215:18220   */\n              dup3\n                /* \"#utility.yul\":18209:18213   */\n              dup3\n                /* \"#utility.yul\":18205:18221   */\n              shr\n                /* \"#utility.yul\":18184:18221   */\n              swap1\n              pop\n                /* \"#utility.yul\":18111:18228   */\n              swap3\n              swap2\n              pop\n              pop\n              jump\t// out\n                /* \"#utility.yul\":18234:18403   */\n            tag_210:\n                /* \"#utility.yul\":18278:18284   */\n              0x00\n                /* \"#utility.yul\":18311:18362   */\n              tag_412\n                /* \"#utility.yul\":18359:18360   */\n              0x00\n                /* \"#utility.yul\":18355:18361   */\n              not\n                /* \"#utility.yul\":18347:18352   */\n              dup5\n                /* \"#utility.yul\":18344:18345   */\n              0x08\n                /* \"#utility.yul\":18340:18353   */\n              mul\n                /* \"#utility.yul\":18311:18362   */\n              tag_209\n              jump\t// in\n            tag_412:\n                /* \"#utility.yul\":18307:18363   */\n              not\n                /* \"#utility.yul\":18392:18396   */\n              dup1\n                /* \"#utility.yul\":18386:18390   */\n              dup4\n                /* \"#utility.yul\":18382:18397   */\n              and\n                /* \"#utility.yul\":18372:18397   */\n              swap2\n              pop\n                /* \"#utility.yul\":18285:18403   */\n              pop\n                /* \"#utility.yul\":18234:18403   */\n              swap3\n              swap2\n              pop\n              pop\n              jump\t// out\n                /* \"#utility.yul\":18408:18703   */\n            tag_211:\n                /* \"#utility.yul\":18484:18488   */\n              0x00\n                /* \"#utility.yul\":18630:18659   */\n              tag_414\n                /* \"#utility.yul\":18655:18658   */\n              dup4\n                /* \"#utility.yul\":18649:18653   */\n              dup4\n                /* \"#utility.yul\":18630:18659   */\n              tag_210\n              jump\t// in\n            tag_414:\n                /* \"#utility.yul\":18622:18659   */\n              swap2\n              pop\n                /* \"#utility.yul\":18692:18695   */\n              dup3\n                /* \"#utility.yul\":18689:18690   */\n              0x02\n                /* \"#utility.yul\":18685:18696   */\n              mul\n                /* \"#utility.yul\":18679:18683   */\n              dup3\n                /* \"#utility.yul\":18676:18697   */\n              or\n                /* \"#utility.yul\":18668:18697   */\n              swap1\n              pop\n                /* \"#utility.yul\":18408:18703   */\n              swap3\n              swap2\n              pop\n              pop\n              jump\t// out\n                /* \"#utility.yul\":18708:20103   */\n            tag_74:\n                /* \"#utility.yul\":18825:18862   */\n              tag_416\n                /* \"#utility.yul\":18858:18861   */\n              dup3\n                /* \"#utility.yul\":18825:18862   */\n              tag_185\n              jump\t// in\n            tag_416:\n                /* \"#utility.yul\":18927:18945   */\n              0xffffffffffffffff\n                /* \"#utility.yul\":18919:18925   */\n              dup2\n                /* \"#utility.yul\":18916:18946   */\n              gt\n                /* \"#utility.yul\":18913:18969   */\n              iszero\n              tag_417\n              jumpi\n                /* \"#utility.yul\":18949:18967   */\n              tag_418\n              tag_169\n              jump\t// in\n            tag_418:\n                /* \"#utility.yul\":18913:18969   */\n            tag_417:\n                /* \"#utility.yul\":18993:19031   */\n              tag_419\n                /* \"#utility.yul\":19025:19029   */\n              dup3\n                /* \"#utility.yul\":19019:19030   */\n              sload\n                /* \"#utility.yul\":18993:19031   */\n              tag_127\n              jump\t// in\n            tag_419:\n                /* \"#utility.yul\":19078:19145   */\n              tag_420\n                /* \"#utility.yul\":19138:19144   */\n              dup3\n                /* \"#utility.yul\":19130:19136   */\n              dup3\n                /* \"#utility.yul\":19124:19128   */\n              dup6\n                /* \"#utility.yul\":19078:19145   */\n              tag_208\n              jump\t// in\n            tag_420:\n                /* \"#utility.yul\":19172:19173   */\n              0x00\n                /* \"#utility.yul\":19196:19200   */\n              0x20\n                /* \"#utility.yul\":19183:19200   */\n              swap1\n              pop\n                /* \"#utility.yul\":19228:19230   */\n              0x1f\n                /* \"#utility.yul\":19220:19226   */\n              dup4\n                /* \"#utility.yul\":19217:19231   */\n              gt\n                /* \"#utility.yul\":19245:19246   */\n              0x01\n                /* \"#utility.yul\":19240:19858   */\n              dup2\n              eq\n              tag_422\n              jumpi\n                /* \"#utility.yul\":19902:19903   */\n              0x00\n                /* \"#utility.yul\":19919:19925   */\n              dup5\n                /* \"#utility.yul\":19916:19993   */\n              iszero\n              tag_423\n              jumpi\n                /* \"#utility.yul\":19968:19977   */\n              dup3\n                /* \"#utility.yul\":19963:19966   */\n              dup8\n                /* \"#utility.yul\":19959:19978   */\n              add\n                /* \"#utility.yul\":19953:19979   */\n              mload\n                /* \"#utility.yul\":19944:19979   */\n              swap1\n              pop\n                /* \"#utility.yul\":19916:19993   */\n            tag_423:\n                /* \"#utility.yul\":20019:20086   */\n              tag_424\n                /* \"#utility.yul\":20079:20085   */\n              dup6\n                /* \"#utility.yul\":20072:20077   */\n              dup3\n                /* \"#utility.yul\":20019:20086   */\n              tag_211\n              jump\t// in\n            tag_424:\n                /* \"#utility.yul\":20013:20017   */\n              dup7\n                /* \"#utility.yul\":20006:20087   */\n              sstore\n                /* \"#utility.yul\":19875:20097   */\n              pop\n                /* \"#utility.yul\":19210:20097   */\n              jump(tag_421)\n                /* \"#utility.yul\":19240:19858   */\n            tag_422:\n                /* \"#utility.yul\":19292:19296   */\n              0x1f\n                /* \"#utility.yul\":19288:19297   */\n              not\n                /* \"#utility.yul\":19280:19286   */\n              dup5\n                /* \"#utility.yul\":19276:19298   */\n              and\n                /* \"#utility.yul\":19326:19363   */\n              tag_425\n                /* \"#utility.yul\":19358:19362   */\n              dup7\n                /* \"#utility.yul\":19326:19363   */\n              tag_196\n              jump\t// in\n            tag_425:\n                /* \"#utility.yul\":19385:19386   */\n              0x00\n                /* \"#utility.yul\":19399:19607   */\n            tag_426:\n                /* \"#utility.yul\":19413:19420   */\n              dup3\n                /* \"#utility.yul\":19410:19411   */\n              dup2\n                /* \"#utility.yul\":19407:19421   */\n              lt\n                /* \"#utility.yul\":19399:19607   */\n              iszero\n              tag_428\n              jumpi\n                /* \"#utility.yul\":19492:19501   */\n              dup5\n                /* \"#utility.yul\":19487:19490   */\n              dup10\n                /* \"#utility.yul\":19483:19502   */\n              add\n                /* \"#utility.yul\":19477:19503   */\n              mload\n                /* \"#utility.yul\":19469:19475   */\n              dup3\n                /* \"#utility.yul\":19462:19504   */\n              sstore\n                /* \"#utility.yul\":19543:19544   */\n              0x01\n                /* \"#utility.yul\":19535:19541   */\n              dup3\n                /* \"#utility.yul\":19531:19545   */\n              add\n                /* \"#utility.yul\":19521:19545   */\n              swap2\n              pop\n                /* \"#utility.yul\":19590:19592   */\n              0x20\n                /* \"#utility.yul\":19579:19588   */\n              dup6\n                /* \"#utility.yul\":19575:19593   */\n              add\n                /* \"#utility.yul\":19562:19593   */\n              swap5\n              pop\n                /* \"#utility.yul\":19436:19440   */\n              0x20\n                /* \"#utility.yul\":19433:19434   */\n              dup2\n                /* \"#utility.yul\":19429:19441   */\n              add\n                /* \"#utility.yul\":19424:19441   */\n              swap1\n              pop\n                /* \"#utility.yul\":19399:19607   */\n              jump(tag_426)\n            tag_428:\n                /* \"#utility.yul\":19635:19641   */\n              dup7\n                /* \"#utility.yul\":19626:19633   */\n              dup4\n                /* \"#utility.yul\":19623:19642   */\n              lt\n                /* \"#utility.yul\":19620:19799   */\n              iszero\n              tag_429\n              jumpi\n                /* \"#utility.yul\":19693:19702   */\n              dup5\n                /* \"#utility.yul\":19688:19691   */\n              dup10\n                /* \"#utility.yul\":19684:19703   */\n              add\n                /* \"#utility.yul\":19678:19704   */\n              mload\n                /* \"#utility.yul\":19736:19784   */\n              tag_430\n                /* \"#utility.yul\":19778:19782   */\n              0x1f\n                /* \"#utility.yul\":19770:19776   */\n              dup10\n                /* \"#utility.yul\":19766:19783   */\n              and\n                /* \"#utility.yul\":19755:19764   */\n              dup3\n                /* \"#utility.yul\":19736:19784   */\n              tag_210\n              jump\t// in\n            tag_430:\n                /* \"#utility.yul\":19728:19734   */\n              dup4\n                /* \"#utility.yul\":19721:19785   */\n              sstore\n                /* \"#utility.yul\":19643:19799   */\n              pop\n                /* \"#utility.yul\":19620:19799   */\n            tag_429:\n                /* \"#utility.yul\":19845:19846   */\n              0x01\n                /* \"#utility.yul\":19841:19842   */\n              0x02\n                /* \"#utility.yul\":19833:19839   */\n              dup9\n                /* \"#utility.yul\":19829:19843   */\n              mul\n                /* \"#utility.yul\":19825:19847   */\n              add\n                /* \"#utility.yul\":19819:19823   */\n              dup9\n                /* \"#utility.yul\":19812:19848   */\n              sstore\n                /* \"#utility.yul\":19247:19858   */\n              pop\n              pop\n              pop\n                /* \"#utility.yul\":19210:20097   */\n            tag_421:\n              pop\n                /* \"#utility.yul\":18800:20103   */\n              pop\n              pop\n              pop\n                /* \"#utility.yul\":18708:20103   */\n              pop\n              pop\n              jump\t// out\n                /* \"#utility.yul\":20109:20281   */\n            tag_212:\n                /* \"#utility.yul\":20249:20273   */\n              0x417272617973206c656e677468206d69736d6174636800000000000000000000\n                /* \"#utility.yul\":20245:20246   */\n              0x00\n                /* \"#utility.yul\":20237:20243   */\n              dup3\n                /* \"#utility.yul\":20233:20247   */\n              add\n                /* \"#utility.yul\":20226:20274   */\n              mstore\n                /* \"#utility.yul\":20109:20281   */\n              pop\n              jump\t// out\n                /* \"#utility.yul\":20287:20653   */\n            tag_213:\n                /* \"#utility.yul\":20429:20432   */\n              0x00\n                /* \"#utility.yul\":20450:20517   */\n              tag_433\n                /* \"#utility.yul\":20514:20516   */\n              0x16\n                /* \"#utility.yul\":20509:20512   */\n              dup4\n                /* \"#utility.yul\":20450:20517   */\n              tag_186\n              jump\t// in\n            tag_433:\n                /* \"#utility.yul\":20443:20517   */\n              swap2\n              pop\n                /* \"#utility.yul\":20526:20619   */\n              tag_434\n                /* \"#utility.yul\":20615:20618   */\n              dup3\n                /* \"#utility.yul\":20526:20619   */\n              tag_212\n              jump\t// in\n            tag_434:\n                /* \"#utility.yul\":20644:20646   */\n              0x20\n                /* \"#utility.yul\":20639:20642   */\n              dup3\n                /* \"#utility.yul\":20635:20647   */\n              add\n                /* \"#utility.yul\":20628:20647   */\n              swap1\n              pop\n                /* \"#utility.yul\":20287:20653   */\n              swap2\n              swap1\n              pop\n              jump\t// out\n                /* \"#utility.yul\":20659:21078   */\n            tag_81:\n                /* \"#utility.yul\":20825:20829   */\n              0x00\n                /* \"#utility.yul\":20863:20865   */\n              0x20\n                /* \"#utility.yul\":20852:20861   */\n              dup3\n                /* \"#utility.yul\":20848:20866   */\n              add\n                /* \"#utility.yul\":20840:20866   */\n              swap1\n              pop\n                /* \"#utility.yul\":20912:20921   */\n              dup2\n                /* \"#utility.yul\":20906:20910   */\n              dup2\n                /* \"#utility.yul\":20902:20922   */\n              sub\n                /* \"#utility.yul\":20898:20899   */\n              0x00\n                /* \"#utility.yul\":20887:20896   */\n              dup4\n                /* \"#utility.yul\":20883:20900   */\n              add\n                /* \"#utility.yul\":20876:20923   */\n              mstore\n                /* \"#utility.yul\":20940:21071   */\n              tag_436\n                /* \"#utility.yul\":21066:21070   */\n              dup2\n                /* \"#utility.yul\":20940:21071   */\n              tag_213\n              jump\t// in\n            tag_436:\n                /* \"#utility.yul\":20932:21071   */\n              swap1\n              pop\n                /* \"#utility.yul\":20659:21078   */\n              swap2\n              swap1\n              pop\n              jump\t// out\n                /* \"#utility.yul\":21084:21264   */\n            tag_88:\n                /* \"#utility.yul\":21132:21209   */\n              0x4e487b7100000000000000000000000000000000000000000000000000000000\n                /* \"#utility.yul\":21129:21130   */\n              0x00\n                /* \"#utility.yul\":21122:21210   */\n              mstore\n                /* \"#utility.yul\":21229:21233   */\n              0x32\n                /* \"#utility.yul\":21226:21227   */\n              0x04\n                /* \"#utility.yul\":21219:21234   */\n              mstore\n                /* \"#utility.yul\":21253:21257   */\n              0x24\n                /* \"#utility.yul\":21250:21251   */\n              0x00\n                /* \"#utility.yul\":21243:21258   */\n              revert\n\n            auxdata: 0xa2646970667358221220e2081aeb8988363944ade82f65e15891e177373643cc8cab57361f1cdce0f80d64736f6c63430008180033\n        }\n    }\n\n    auxdata: 0xa2646970667358221220672a1465af01042bfbd6d1d0036c8525e3dc56a23038f40c9859d6d0cbc45a6364736f6c63430008180033\n}\n","bytecode":{"linkReferences":{},"object":"608060405234801561000f575f80fd5b506120ba8061001d5f395ff3fe608060405234801561000f575f80fd5b506004361061003f575f3560e01c806308ac800c1461004357806380b29bec14610073578063c0900bea1461008f575b5f80fd5b61005d60048036038101906100589190610411565b6100c0565b60405161006a9190610497565b60405180910390f35b61008d600480360381019061008891906104b0565b610108565b005b6100a960048036038101906100a49190610411565b6101db565b6040516100b79291906105a0565b60405180910390f35b5f80826040516100d09190610608565b90815260200160405180910390206001015f9054906101000a900473ffffffffffffffffffffffffffffffffffffffff169050919050565b5f604051610115906102b7565b604051809103905ff08015801561012e573d5f803e3d5ffd5b50905060405180604001604052808481526020018273ffffffffffffffffffffffffffffffffffffffff168152505f8360405161016b9190610608565b90815260200160405180910390205f820151815f01908161018c9190610821565b506020820151816001015f6101000a81548173ffffffffffffffffffffffffffffffffffffffff021916908373ffffffffffffffffffffffffffffffffffffffff160217905550905050505050565b5f818051602081018201805184825260208301602085012081835280955050505050505f91509050805f0180546102119061064b565b80601f016020809104026020016040519081016040528092919081815260200182805461023d9061064b565b80156102885780601f1061025f57610100808354040283529160200191610288565b820191905f5260205f20905b81548152906001019060200180831161026b57829003601f168201915b505050505090806001015f9054906101000a900473ffffffffffffffffffffffffffffffffffffffff16905082565b611794806108f183390190565b5f604051905090565b5f80fd5b5f80fd5b5f80fd5b5f80fd5b5f601f19601f8301169050919050565b7f4e487b71000000000000000000000000000000000000000000000000000000005f52604160045260245ffd5b610323826102dd565b810181811067ffffffffffffffff82111715610342576103416102ed565b5b80604052505050565b5f6103546102c4565b9050610360828261031a565b919050565b5f67ffffffffffffffff82111561037f5761037e6102ed565b5b610388826102dd565b9050602081019050919050565b828183375f83830152505050565b5f6103b56103b084610365565b61034b565b9050828152602081018484840111156103d1576103d06102d9565b5b6103dc848285610395565b509392505050565b5f82601f8301126103f8576103f76102d5565b5b81356104088482602086016103a3565b91505092915050565b5f60208284031215610426576104256102cd565b5b5f82013567ffffffffffffffff811115610443576104426102d1565b5b61044f848285016103e4565b91505092915050565b5f73ffffffffffffffffffffffffffffffffffffffff82169050919050565b5f61048182610458565b9050919050565b61049181610477565b82525050565b5f6020820190506104aa5f830184610488565b92915050565b5f80604083850312156104c6576104c56102cd565b5b5f83013567ffffffffffffffff8111156104e3576104e26102d1565b5b6104ef858286016103e4565b925050602083013567ffffffffffffffff8111156105105761050f6102d1565b5b61051c858286016103e4565b9150509250929050565b5f81519050919050565b5f82825260208201905092915050565b5f5b8381101561055d578082015181840152602081019050610542565b5f8484015250505050565b5f61057282610526565b61057c8185610530565b935061058c818560208601610540565b610595816102dd565b840191505092915050565b5f6040820190508181035f8301526105b88185610568565b90506105c76020830184610488565b9392505050565b5f81905092915050565b5f6105e282610526565b6105ec81856105ce565b93506105fc818560208601610540565b80840191505092915050565b5f61061382846105d8565b915081905092915050565b7f4e487b71000000000000000000000000000000000000000000000000000000005f52602260045260245ffd5b5f600282049050600182168061066257607f821691505b6020821081036106755761067461061e565b5b50919050565b5f819050815f5260205f209050919050565b5f6020601f8301049050919050565b5f82821b905092915050565b5f600883026106d77fffffffffffffffffffffffffffffffffffffffffffffffffffffffffffffffff8261069c565b6106e1868361069c565b95508019841693508086168417925050509392505050565b5f819050919050565b5f819050919050565b5f61072561072061071b846106f9565b610702565b6106f9565b9050919050565b5f819050919050565b61073e8361070b565b61075261074a8261072c565b8484546106a8565b825550505050565b5f90565b61076661075a565b610771818484610735565b505050565b5b81811015610794576107895f8261075e565b600181019050610777565b5050565b601f8211156107d9576107aa8161067b565b6107b38461068d565b810160208510156107c2578190505b6107d66107ce8561068d565b830182610776565b50505b505050565b5f82821c905092915050565b5f6107f95f19846008026107de565b1980831691505092915050565b5f61081183836107ea565b9150826002028217905092915050565b61082a82610526565b67ffffffffffffffff811115610843576108426102ed565b5b61084d825461064b565b610858828285610798565b5f60209050601f831160018114610889575f8415610877578287015190505b6108818582610806565b8655506108e8565b601f1984166108978661067b565b5f5b828110156108be57848901518255600182019150602085019450602081019050610899565b868310156108db57848901516108d7601f8916826107ea565b8355505b6001600288020188555050505b50505050505056fe608060405234801561000f575f80fd5b506117778061001d5f395ff3fe608060405234801561000f575f80fd5b50600436106100b2575f3560e01c80639ab1a6cc1161006f5780639ab1a6cc14610172578063b15bf255146101a2578063c0effb7d146101d6578063d8ce6572146101f2578063e47766ff14610223578063ea42c7ef1461023f576100b2565b80630e34b00e146100b657806319fd360c146100d2578063220f8ade146100ee57806367027df61461011e578063733a744a1461013a5780637f975a3714610156575b5f80fd5b6100d060048036038101906100cb9190610d96565b610270565b005b6100ec60048036038101906100e79190610f1c565b610388565b005b61010860048036038101906101039190610ff9565b610450565b604051610115919061106d565b60405180910390f35b61013860048036038101906101339190611086565b61051f565b005b610154600480360381019061014f91906110fc565b6105be565b005b610170600480360381019061016b9190610ff9565b6105fd565b005b61018c60048036038101906101879190611143565b6106ec565b604051610199919061106d565b60405180910390f35b6101bc60048036038101906101b79190611143565b610721565b6040516101cd959493929190611213565b60405180910390f35b6101f060048036038101906101eb9190611279565b610919565b005b61020c60048036038101906102079190611143565b6109fa565b60405161021a9291906112ef565b60405180910390f35b61023d60048036038101906102389190611143565b610ac3565b005b61025960048036038101906102549190611143565b610b6c565b60405161026792919061135c565b60405180910390f35b5f151560028460405161028391906113c4565b90815260200160405180910390206003015f9054906101000a900460ff161515146102ac575f80fd5b6040518060a001604052808481526020018381526020018281526020016001151581526020015f63ffffffff168152506002846040516102ec91906113c4565b90815260200160405180910390205f820151815f01908161030d91906115dd565b50602082015181600101908161032391906115dd565b50604082015181600201908161033991906115dd565b506060820151816003015f6101000a81548160ff02191690831515021790555060808201518160030160016101000a81548163ffffffff021916908363ffffffff160217905550905050505050565b8151835114801561039a575080518251145b6103d9576040517f08c379a00000000000000000000000000000000000000000000000000000000081526004016103d0906116f6565b60405180910390fd5b5f5b835181101561044a5761043d8482815181106103fa576103f9611714565b5b602002602001015184838151811061041557610414611714565b5b60200260200101518484815181106104305761042f611714565b5b6020026020010151610270565b80806001019150506103db565b50505050565b5f600115155f8460405161046491906113c4565b90815260200160405180910390206001015f9054906101000a900460ff1615151480156104bf5750600115156001846040516104a091906113c4565b90815260200160405180910390205f9054906101000a900460ff161515145b801561050757508163ffffffff166002846040516104dd91906113c4565b908152602001604051809103902060030160019054906101000a900463ffffffff1663ffffffff16145b156105155760019050610519565b5f90505b92915050565b8051825114610563576040517f08c379a000000000000000000000000000000000000000000000000000000000815260040161055a906116f6565b60405180910390fd5b5f5b82518110156105b9576105ac83828151811061058457610583611714565b5b602002602001015183838151811061059f5761059e611714565b5b6020026020010151610919565b8080600101915050610565565b505050565b5f5b81518110156105f9576105ec8282815181106105df576105de611714565b5b6020026020010151610ac3565b80806001019150506105c0565b5050565b6001151560028360405161061191906113c4565b90815260200160405180910390206003015f9054906101000a900460ff1615151461063a575f80fd5b5f151560018360405161064d91906113c4565b90815260200160405180910390205f9054906101000a900460ff16151514610673575f80fd5b6001808360405161068491906113c4565b90815260200160405180910390205f6101000a81548160ff021916908315150217905550806002836040516106b991906113c4565b908152602001604051809103902060030160016101000a81548163ffffffff021916908363ffffffff1602179055505050565b6001818051602081018201805184825260208301602085012081835280955050505050505f915054906101000a900460ff1681565b6002818051602081018201805184825260208301602085012081835280955050505050505f91509050805f01805461075890611407565b80601f016020809104026020016040519081016040528092919081815260200182805461078490611407565b80156107cf5780601f106107a6576101008083540402835291602001916107cf565b820191905f5260205f20905b8154815290600101906020018083116107b257829003601f168201915b5050505050908060010180546107e490611407565b80601f016020809104026020016040519081016040528092919081815260200182805461081090611407565b801561085b5780601f106108325761010080835404028352916020019161085b565b820191905f5260205f20905b81548152906001019060200180831161083e57829003601f168201915b50505050509080600201805461087090611407565b80601f016020809104026020016040519081016040528092919081815260200182805461089c90611407565b80156108e75780601f106108be576101008083540402835291602001916108e7565b820191905f5260205f20905b8154815290600101906020018083116108ca57829003601f168201915b505050505090806003015f9054906101000a900460ff16908060030160019054906101000a900463ffffffff16905085565b6001151560028360405161092d91906113c4565b90815260200160405180910390206003015f9054906101000a900460ff16151514610956575f80fd5b5f15155f8360405161096891906113c4565b90815260200160405180910390206001015f9054906101000a900460ff16151514610991575f80fd5b805f836040516109a191906113c4565b90815260200160405180910390205f0190816109bd91906115dd565b5060015f836040516109cf91906113c4565b90815260200160405180910390206001015f6101000a81548160ff0219169083151502179055505050565b5f818051602081018201805184825260208301602085012081835280955050505050505f91509050805f018054610a3090611407565b80601f0160208091040260200160405190810160405280929190818152602001828054610a5c90611407565b8015610aa75780601f10610a7e57610100808354040283529160200191610aa7565b820191905f5260205f20905b815481529060010190602001808311610a8a57829003601f168201915b505050505090806001015f9054906101000a900460ff16905082565b60405180604001604052808281526020013373ffffffffffffffffffffffffffffffffffffffff16815250600382604051610afe91906113c4565b90815260200160405180910390205f820151815f019081610b1f91906115dd565b506020820151816001015f6101000a81548173ffffffffffffffffffffffffffffffffffffffff021916908373ffffffffffffffffffffffffffffffffffffffff16021790555090505050565b6003818051602081018201805184825260208301602085012081835280955050505050505f91509050805f018054610ba390611407565b80601f0160208091040260200160405190810160405280929190818152602001828054610bcf90611407565b8015610c1a5780601f10610bf157610100808354040283529160200191610c1a565b820191905f5260205f20905b815481529060010190602001808311610bfd57829003601f168201915b505050505090806001015f9054906101000a900473ffffffffffffffffffffffffffffffffffffffff16905082565b5f604051905090565b5f80fd5b5f80fd5b5f80fd5b5f80fd5b5f601f19601f8301169050919050565b7f4e487b71000000000000000000000000000000000000000000000000000000005f52604160045260245ffd5b610ca882610c62565b810181811067ffffffffffffffff82111715610cc757610cc6610c72565b5b80604052505050565b5f610cd9610c49565b9050610ce58282610c9f565b919050565b5f67ffffffffffffffff821115610d0457610d03610c72565b5b610d0d82610c62565b9050602081019050919050565b828183375f83830152505050565b5f610d3a610d3584610cea565b610cd0565b905082815260208101848484011115610d5657610d55610c5e565b5b610d61848285610d1a565b509392505050565b5f82601f830112610d7d57610d7c610c5a565b5b8135610d8d848260208601610d28565b91505092915050565b5f805f60608486031215610dad57610dac610c52565b5b5f84013567ffffffffffffffff811115610dca57610dc9610c56565b5b610dd686828701610d69565b935050602084013567ffffffffffffffff811115610df757610df6610c56565b5b610e0386828701610d69565b925050604084013567ffffffffffffffff811115610e2457610e23610c56565b5b610e3086828701610d69565b9150509250925092565b5f67ffffffffffffffff821115610e5457610e53610c72565b5b602082029050602081019050919050565b5f80fd5b5f610e7b610e7684610e3a565b610cd0565b90508083825260208201905060208402830185811115610e9e57610e9d610e65565b5b835b81811015610ee557803567ffffffffffffffff811115610ec357610ec2610c5a565b5b808601610ed08982610d69565b85526020850194505050602081019050610ea0565b5050509392505050565b5f82601f830112610f0357610f02610c5a565b5b8135610f13848260208601610e69565b91505092915050565b5f805f60608486031215610f3357610f32610c52565b5b5f84013567ffffffffffffffff811115610f5057610f4f610c56565b5b610f5c86828701610eef565b935050602084013567ffffffffffffffff811115610f7d57610f7c610c56565b5b610f8986828701610eef565b925050604084013567ffffffffffffffff811115610faa57610fa9610c56565b5b610fb686828701610eef565b9150509250925092565b5f63ffffffff82169050919050565b610fd881610fc0565b8114610fe2575f80fd5b50565b5f81359050610ff381610fcf565b92915050565b5f806040838503121561100f5761100e610c52565b5b5f83013567ffffffffffffffff81111561102c5761102b610c56565b5b61103885828601610d69565b925050602061104985828601610fe5565b9150509250929050565b5f8115159050919050565b61106781611053565b82525050565b5f6020820190506110805f83018461105e565b92915050565b5f806040838503121561109c5761109b610c52565b5b5f83013567ffffffffffffffff8111156110b9576110b8610c56565b5b6110c585828601610eef565b925050602083013567ffffffffffffffff8111156110e6576110e5610c56565b5b6110f285828601610eef565b9150509250929050565b5f6020828403121561111157611110610c52565b5b5f82013567ffffffffffffffff81111561112e5761112d610c56565b5b61113a84828501610eef565b91505092915050565b5f6020828403121561115857611157610c52565b5b5f82013567ffffffffffffffff81111561117557611174610c56565b5b61118184828501610d69565b91505092915050565b5f81519050919050565b5f82825260208201905092915050565b5f5b838110156111c15780820151818401526020810190506111a6565b5f8484015250505050565b5f6111d68261118a565b6111e08185611194565b93506111f08185602086016111a4565b6111f981610c62565b840191505092915050565b61120d81610fc0565b82525050565b5f60a0820190508181035f83015261122b81886111cc565b9050818103602083015261123f81876111cc565b9050818103604083015261125381866111cc565b9050611262606083018561105e565b61126f6080830184611204565b9695505050505050565b5f806040838503121561128f5761128e610c52565b5b5f83013567ffffffffffffffff8111156112ac576112ab610c56565b5b6112b885828601610d69565b925050602083013567ffffffffffffffff8111156112d9576112d8610c56565b5b6112e585828601610d69565b9150509250929050565b5f6040820190508181035f83015261130781856111cc565b9050611316602083018461105e565b9392505050565b5f73ffffffffffffffffffffffffffffffffffffffff82169050919050565b5f6113468261131d565b9050919050565b6113568161133c565b82525050565b5f6040820190508181035f83015261137481856111cc565b9050611383602083018461134d565b9392505050565b5f81905092915050565b5f61139e8261118a565b6113a8818561138a565b93506113b88185602086016111a4565b80840191505092915050565b5f6113cf8284611394565b915081905092915050565b7f4e487b71000000000000000000000000000000000000000000000000000000005f52602260045260245ffd5b5f600282049050600182168061141e57607f821691505b602082108103611431576114306113da565b5b50919050565b5f819050815f5260205f209050919050565b5f6020601f8301049050919050565b5f82821b905092915050565b5f600883026114937fffffffffffffffffffffffffffffffffffffffffffffffffffffffffffffffff82611458565b61149d8683611458565b95508019841693508086168417925050509392505050565b5f819050919050565b5f819050919050565b5f6114e16114dc6114d7846114b5565b6114be565b6114b5565b9050919050565b5f819050919050565b6114fa836114c7565b61150e611506826114e8565b848454611464565b825550505050565b5f90565b611522611516565b61152d8184846114f1565b505050565b5b81811015611550576115455f8261151a565b600181019050611533565b5050565b601f8211156115955761156681611437565b61156f84611449565b8101602085101561157e578190505b61159261158a85611449565b830182611532565b50505b505050565b5f82821c905092915050565b5f6115b55f198460080261159a565b1980831691505092915050565b5f6115cd83836115a6565b9150826002028217905092915050565b6115e68261118a565b67ffffffffffffffff8111156115ff576115fe610c72565b5b6116098254611407565b611614828285611554565b5f60209050601f831160018114611645575f8415611633578287015190505b61163d85826115c2565b8655506116a4565b601f19841661165386611437565b5f5b8281101561167a57848901518255600182019150602085019450602081019050611655565b868310156116975784890151611693601f8916826115a6565b8355505b6001600288020188555050505b505050505050565b7f417272617973206c656e677468206d69736d61746368000000000000000000005f82015250565b5f6116e0601683611194565b91506116eb826116ac565b602082019050919050565b5f6020820190508181035f83015261170d816116d4565b9050919050565b7f4e487b71000000000000000000000000000000000000000000000000000000005f52603260045260245ffdfea2646970667358221220e2081aeb8988363944ade82f65e15891e177373643cc8cab57361f1cdce0f80d64736f6c63430008180033a2646970667358221220672a1465af01042bfbd6d1d0036c8525e3dc56a23038f40c9859d6d0cbc45a6364736f6c63430008180033","opcodes":"PUSH1 0x80 PUSH1 0x40 MSTORE CALLVALUE DUP1 ISZERO PUSH2 0xF JUMPI PUSH0 DUP1 REVERT JUMPDEST POP PUSH2 0x20BA DUP1 PUSH2 0x1D PUSH0 CODECOPY PUSH0 RETURN INVALID PUSH1 0x80 PUSH1 0x40 MSTORE CALLVALUE DUP1 ISZERO PUSH2 0xF JUMPI PUSH0 DUP1 REVERT JUMPDEST POP PUSH1 0x4 CALLDATASIZE LT PUSH2 0x3F JUMPI PUSH0 CALLDATALOAD PUSH1 0xE0 SHR DUP1 PUSH4 0x8AC800C EQ PUSH2 0x43 JUMPI DUP1 PUSH4 0x80B29BEC EQ PUSH2 0x73 JUMPI DUP1 PUSH4 0xC0900BEA EQ PUSH2 0x8F JUMPI JUMPDEST PUSH0 DUP1 REVERT JUMPDEST PUSH2 0x5D PUSH1 0x4 DUP1 CALLDATASIZE SUB DUP2 ADD SWAP1 PUSH2 0x58 SWAP2 SWAP1 PUSH2 0x411 JUMP JUMPDEST PUSH2 0xC0 JUMP JUMPDEST PUSH1 0x40 MLOAD PUSH2 0x6A SWAP2 SWAP1 PUSH2 0x497 JUMP JUMPDEST PUSH1 0x40 MLOAD DUP1 SWAP2 SUB SWAP1 RETURN JUMPDEST PUSH2 0x8D PUSH1 0x4 DUP1 CALLDATASIZE SUB DUP2 ADD SWAP1 PUSH2 0x88 SWAP2 SWAP1 PUSH2 0x4B0 JUMP JUMPDEST PUSH2 0x108 JUMP JUMPDEST STOP JUMPDEST PUSH2 0xA9 PUSH1 0x4 DUP1 CALLDATASIZE SUB DUP2 ADD SWAP1 PUSH2 0xA4 SWAP2 SWAP1 PUSH2 0x411 JUMP JUMPDEST PUSH2 0x1DB JUMP JUMPDEST PUSH1 0x40 MLOAD PUSH2 0xB7 SWAP3 SWAP2 SWAP1 PUSH2 0x5A0 JUMP JUMPDEST PUSH1 0x40 MLOAD DUP1 SWAP2 SUB SWAP1 RETURN JUMPDEST PUSH0 DUP1 DUP3 PUSH1 0x40 MLOAD PUSH2 0xD0 SWAP2 SWAP1 PUSH2 0x608 JUMP JUMPDEST SWAP1 DUP2 MSTORE PUSH1 0x20 ADD PUSH1 0x40 MLOAD DUP1 SWAP2 SUB SWAP1 KECCAK256 PUSH1 0x1 ADD PUSH0 SWAP1 SLOAD SWAP1 PUSH2 0x100 EXP SWAP1 DIV PUSH20 0xFFFFFFFFFFFFFFFFFFFFFFFFFFFFFFFFFFFFFFFF AND SWAP1 POP SWAP2 SWAP1 POP JUMP JUMPDEST PUSH0 PUSH1 0x40 MLOAD PUSH2 0x115 SWAP1 PUSH2 0x2B7 JUMP JUMPDEST PUSH1 0x40 MLOAD DUP1 SWAP2 SUB SWAP1 PUSH0 CREATE DUP1 ISZERO DUP1 ISZERO PUSH2 0x12E JUMPI RETURNDATASIZE PUSH0 DUP1 RETURNDATACOPY RETURNDATASIZE PUSH0 REVERT JUMPDEST POP SWAP1 POP PUSH1 0x40 MLOAD DUP1 PUSH1 0x40 ADD PUSH1 0x40 MSTORE DUP1 DUP5 DUP2 MSTORE PUSH1 0x20 ADD DUP3 PUSH20 0xFFFFFFFFFFFFFFFFFFFFFFFFFFFFFFFFFFFFFFFF AND DUP2 MSTORE POP PUSH0 DUP4 PUSH1 0x40 MLOAD PUSH2 0x16B SWAP2 SWAP1 PUSH2 0x608 JUMP JUMPDEST SWAP1 DUP2 MSTORE PUSH1 0x20 ADD PUSH1 0x40 MLOAD DUP1 SWAP2 SUB SWAP1 KECCAK256 PUSH0 DUP3 ADD MLOAD DUP2 PUSH0 ADD SWAP1 DUP2 PUSH2 0x18C SWAP2 SWAP1 PUSH2 0x821 JUMP JUMPDEST POP PUSH1 0x20 DUP3 ADD MLOAD DUP2 PUSH1 0x1 ADD PUSH0 PUSH2 0x100 EXP DUP2 SLOAD DUP2 PUSH20 0xFFFFFFFFFFFFFFFFFFFFFFFFFFFFFFFFFFFFFFFF MUL NOT AND SWAP1 DUP4 PUSH20 0xFFFFFFFFFFFFFFFFFFFFFFFFFFFFFFFFFFFFFFFF AND MUL OR SWAP1 SSTORE POP SWAP1 POP POP POP POP POP JUMP JUMPDEST PUSH0 DUP2 DUP1 MLOAD PUSH1 0x20 DUP2 ADD DUP3 ADD DUP1 MLOAD DUP5 DUP3 MSTORE PUSH1 0x20 DUP4 ADD PUSH1 0x20 DUP6 ADD KECCAK256 DUP2 DUP4 MSTORE DUP1 SWAP6 POP POP POP POP POP POP PUSH0 SWAP2 POP SWAP1 POP DUP1 PUSH0 ADD DUP1 SLOAD PUSH2 0x211 SWAP1 PUSH2 0x64B JUMP JUMPDEST DUP1 PUSH1 0x1F ADD PUSH1 0x20 DUP1 SWAP2 DIV MUL PUSH1 0x20 ADD PUSH1 0x40 MLOAD SWAP1 DUP2 ADD PUSH1 0x40 MSTORE DUP1 SWAP3 SWAP2 SWAP1 DUP2 DUP2 MSTORE PUSH1 0x20 ADD DUP3 DUP1 SLOAD PUSH2 0x23D SWAP1 PUSH2 0x64B JUMP JUMPDEST DUP1 ISZERO PUSH2 0x288 JUMPI DUP1 PUSH1 0x1F LT PUSH2 0x25F JUMPI PUSH2 0x100 DUP1 DUP4 SLOAD DIV MUL DUP4 MSTORE SWAP2 PUSH1 0x20 ADD SWAP2 PUSH2 0x288 JUMP JUMPDEST DUP3 ADD SWAP2 SWAP1 PUSH0 MSTORE PUSH1 0x20 PUSH0 KECCAK256 SWAP1 JUMPDEST DUP2 SLOAD DUP2 MSTORE SWAP1 PUSH1 0x1 ADD SWAP1 PUSH1 0x20 ADD DUP1 DUP4 GT PUSH2 0x26B JUMPI DUP3 SWAP1 SUB PUSH1 0x1F AND DUP3 ADD SWAP2 JUMPDEST POP POP POP POP POP SWAP1 DUP1 PUSH1 0x1 ADD PUSH0 SWAP1 SLOAD SWAP1 PUSH2 0x100 EXP SWAP1 DIV PUSH20 0xFFFFFFFFFFFFFFFFFFFFFFFFFFFFFFFFFFFFFFFF AND SWAP1 POP DUP3 JUMP JUMPDEST PUSH2 0x1794 DUP1 PUSH2 0x8F1 DUP4 CODECOPY ADD SWAP1 JUMP JUMPDEST PUSH0 PUSH1 0x40 MLOAD SWAP1 POP SWAP1 JUMP JUMPDEST PUSH0 DUP1 REVERT JUMPDEST PUSH0 DUP1 REVERT JUMPDEST PUSH0 DUP1 REVERT JUMPDEST PUSH0 DUP1 REVERT JUMPDEST PUSH0 PUSH1 0x1F NOT PUSH1 0x1F DUP4 ADD AND SWAP1 POP SWAP2 SWAP1 POP JUMP JUMPDEST PUSH32 0x4E487B7100000000000000000000000000000000000000000000000000000000 PUSH0 MSTORE PUSH1 0x41 PUSH1 0x4 MSTORE PUSH1 0x24 PUSH0 REVERT JUMPDEST PUSH2 0x323 DUP3 PUSH2 0x2DD JUMP JUMPDEST DUP2 ADD DUP2 DUP2 LT PUSH8 0xFFFFFFFFFFFFFFFF DUP3 GT OR ISZERO PUSH2 0x342 JUMPI PUSH2 0x341 PUSH2 0x2ED JUMP JUMPDEST JUMPDEST DUP1 PUSH1 0x40 MSTORE POP POP POP JUMP JUMPDEST PUSH0 PUSH2 0x354 PUSH2 0x2C4 JUMP JUMPDEST SWAP1 POP PUSH2 0x360 DUP3 DUP3 PUSH2 0x31A JUMP JUMPDEST SWAP2 SWAP1 POP JUMP JUMPDEST PUSH0 PUSH8 0xFFFFFFFFFFFFFFFF DUP3 GT ISZERO PUSH2 0x37F JUMPI PUSH2 0x37E PUSH2 0x2ED JUMP JUMPDEST JUMPDEST PUSH2 0x388 DUP3 PUSH2 0x2DD JUMP JUMPDEST SWAP1 POP PUSH1 0x20 DUP2 ADD SWAP1 POP SWAP2 SWAP1 POP JUMP JUMPDEST DUP3 DUP2 DUP4 CALLDATACOPY PUSH0 DUP4 DUP4 ADD MSTORE POP POP POP JUMP JUMPDEST PUSH0 PUSH2 0x3B5 PUSH2 0x3B0 DUP5 PUSH2 0x365 JUMP JUMPDEST PUSH2 0x34B JUMP JUMPDEST SWAP1 POP DUP3 DUP2 MSTORE PUSH1 0x20 DUP2 ADD DUP5 DUP5 DUP5 ADD GT ISZERO PUSH2 0x3D1 JUMPI PUSH2 0x3D0 PUSH2 0x2D9 JUMP JUMPDEST JUMPDEST PUSH2 0x3DC DUP5 DUP3 DUP6 PUSH2 0x395 JUMP JUMPDEST POP SWAP4 SWAP3 POP POP POP JUMP JUMPDEST PUSH0 DUP3 PUSH1 0x1F DUP4 ADD SLT PUSH2 0x3F8 JUMPI PUSH2 0x3F7 PUSH2 0x2D5 JUMP JUMPDEST JUMPDEST DUP2 CALLDATALOAD PUSH2 0x408 DUP5 DUP3 PUSH1 0x20 DUP7 ADD PUSH2 0x3A3 JUMP JUMPDEST SWAP2 POP POP SWAP3 SWAP2 POP POP JUMP JUMPDEST PUSH0 PUSH1 0x20 DUP3 DUP5 SUB SLT ISZERO PUSH2 0x426 JUMPI PUSH2 0x425 PUSH2 0x2CD JUMP JUMPDEST JUMPDEST PUSH0 DUP3 ADD CALLDATALOAD PUSH8 0xFFFFFFFFFFFFFFFF DUP2 GT ISZERO PUSH2 0x443 JUMPI PUSH2 0x442 PUSH2 0x2D1 JUMP JUMPDEST JUMPDEST PUSH2 0x44F DUP5 DUP3 DUP6 ADD PUSH2 0x3E4 JUMP JUMPDEST SWAP2 POP POP SWAP3 SWAP2 POP POP JUMP JUMPDEST PUSH0 PUSH20 0xFFFFFFFFFFFFFFFFFFFFFFFFFFFFFFFFFFFFFFFF DUP3 AND SWAP1 POP SWAP2 SWAP1 POP JUMP JUMPDEST PUSH0 PUSH2 0x481 DUP3 PUSH2 0x458 JUMP JUMPDEST SWAP1 POP SWAP2 SWAP1 POP JUMP JUMPDEST PUSH2 0x491 DUP2 PUSH2 0x477 JUMP JUMPDEST DUP3 MSTORE POP POP JUMP JUMPDEST PUSH0 PUSH1 0x20 DUP3 ADD SWAP1 POP PUSH2 0x4AA PUSH0 DUP4 ADD DUP5 PUSH2 0x488 JUMP JUMPDEST SWAP3 SWAP2 POP POP JUMP JUMPDEST PUSH0 DUP1 PUSH1 0x40 DUP4 DUP6 SUB SLT ISZERO PUSH2 0x4C6 JUMPI PUSH2 0x4C5 PUSH2 0x2CD JUMP JUMPDEST JUMPDEST PUSH0 DUP4 ADD CALLDATALOAD PUSH8 0xFFFFFFFFFFFFFFFF DUP2 GT ISZERO PUSH2 0x4E3 JUMPI PUSH2 0x4E2 PUSH2 0x2D1 JUMP JUMPDEST JUMPDEST PUSH2 0x4EF DUP6 DUP3 DUP7 ADD PUSH2 0x3E4 JUMP JUMPDEST SWAP3 POP POP PUSH1 0x20 DUP4 ADD CALLDATALOAD PUSH8 0xFFFFFFFFFFFFFFFF DUP2 GT ISZERO PUSH2 0x510 JUMPI PUSH2 0x50F PUSH2 0x2D1 JUMP JUMPDEST JUMPDEST PUSH2 0x51C DUP6 DUP3 DUP7 ADD PUSH2 0x3E4 JUMP JUMPDEST SWAP2 POP POP SWAP3 POP SWAP3 SWAP1 POP JUMP JUMPDEST PUSH0 DUP2 MLOAD SWAP1 POP SWAP2 SWAP1 POP JUMP JUMPDEST PUSH0 DUP3 DUP3 MSTORE PUSH1 0x20 DUP3 ADD SWAP1 POP SWAP3 SWAP2 POP POP JUMP JUMPDEST PUSH0 JUMPDEST DUP4 DUP2 LT ISZERO PUSH2 0x55D JUMPI DUP1 DUP3 ADD MLOAD DUP2 DUP5 ADD MSTORE PUSH1 0x20 DUP2 ADD SWAP1 POP PUSH2 0x542 JUMP JUMPDEST PUSH0 DUP5 DUP5 ADD MSTORE POP POP POP POP JUMP JUMPDEST PUSH0 PUSH2 0x572 DUP3 PUSH2 0x526 JUMP JUMPDEST PUSH2 0x57C DUP2 DUP6 PUSH2 0x530 JUMP JUMPDEST SWAP4 POP PUSH2 0x58C DUP2 DUP6 PUSH1 0x20 DUP7 ADD PUSH2 0x540 JUMP JUMPDEST PUSH2 0x595 DUP2 PUSH2 0x2DD JUMP JUMPDEST DUP5 ADD SWAP2 POP POP SWAP3 SWAP2 POP POP JUMP JUMPDEST PUSH0 PUSH1 0x40 DUP3 ADD SWAP1 POP DUP2 DUP2 SUB PUSH0 DUP4 ADD MSTORE PUSH2 0x5B8 DUP2 DUP6 PUSH2 0x568 JUMP JUMPDEST SWAP1 POP PUSH2 0x5C7 PUSH1 0x20 DUP4 ADD DUP5 PUSH2 0x488 JUMP JUMPDEST SWAP4 SWAP3 POP POP POP JUMP JUMPDEST PUSH0 DUP2 SWAP1 POP SWAP3 SWAP2 POP POP JUMP JUMPDEST PUSH0 PUSH2 0x5E2 DUP3 PUSH2 0x526 JUMP JUMPDEST PUSH2 0x5EC DUP2 DUP6 PUSH2 0x5CE JUMP JUMPDEST SWAP4 POP PUSH2 0x5FC DUP2 DUP6 PUSH1 0x20 DUP7 ADD PUSH2 0x540 JUMP JUMPDEST DUP1 DUP5 ADD SWAP2 POP POP SWAP3 SWAP2 POP POP JUMP JUMPDEST PUSH0 PUSH2 0x613 DUP3 DUP5 PUSH2 0x5D8 JUMP JUMPDEST SWAP2 POP DUP2 SWAP1 POP SWAP3 SWAP2 POP POP JUMP JUMPDEST PUSH32 0x4E487B7100000000000000000000000000000000000000000000000000000000 PUSH0 MSTORE PUSH1 0x22 PUSH1 0x4 MSTORE PUSH1 0x24 PUSH0 REVERT JUMPDEST PUSH0 PUSH1 0x2 DUP3 DIV SWAP1 POP PUSH1 0x1 DUP3 AND DUP1 PUSH2 0x662 JUMPI PUSH1 0x7F DUP3 AND SWAP2 POP JUMPDEST PUSH1 0x20 DUP3 LT DUP2 SUB PUSH2 0x675 JUMPI PUSH2 0x674 PUSH2 0x61E JUMP JUMPDEST JUMPDEST POP SWAP2 SWAP1 POP JUMP JUMPDEST PUSH0 DUP2 SWAP1 POP DUP2 PUSH0 MSTORE PUSH1 0x20 PUSH0 KECCAK256 SWAP1 POP SWAP2 SWAP1 POP JUMP JUMPDEST PUSH0 PUSH1 0x20 PUSH1 0x1F DUP4 ADD DIV SWAP1 POP SWAP2 SWAP1 POP JUMP JUMPDEST PUSH0 DUP3 DUP3 SHL SWAP1 POP SWAP3 SWAP2 POP POP JUMP JUMPDEST PUSH0 PUSH1 0x8 DUP4 MUL PUSH2 0x6D7 PUSH32 0xFFFFFFFFFFFFFFFFFFFFFFFFFFFFFFFFFFFFFFFFFFFFFFFFFFFFFFFFFFFFFFFF DUP3 PUSH2 0x69C JUMP JUMPDEST PUSH2 0x6E1 DUP7 DUP4 PUSH2 0x69C JUMP JUMPDEST SWAP6 POP DUP1 NOT DUP5 AND SWAP4 POP DUP1 DUP7 AND DUP5 OR SWAP3 POP POP POP SWAP4 SWAP3 POP POP POP JUMP JUMPDEST PUSH0 DUP2 SWAP1 POP SWAP2 SWAP1 POP JUMP JUMPDEST PUSH0 DUP2 SWAP1 POP SWAP2 SWAP1 POP JUMP JUMPDEST PUSH0 PUSH2 0x725 PUSH2 0x720 PUSH2 0x71B DUP5 PUSH2 0x6F9 JUMP JUMPDEST PUSH2 0x702 JUMP JUMPDEST PUSH2 0x6F9 JUMP JUMPDEST SWAP1 POP SWAP2 SWAP1 POP JUMP JUMPDEST PUSH0 DUP2 SWAP1 POP SWAP2 SWAP1 POP JUMP JUMPDEST PUSH2 0x73E DUP4 PUSH2 0x70B JUMP JUMPDEST PUSH2 0x752 PUSH2 0x74A DUP3 PUSH2 0x72C JUMP JUMPDEST DUP5 DUP5 SLOAD PUSH2 0x6A8 JUMP JUMPDEST DUP3 SSTORE POP POP POP POP JUMP JUMPDEST PUSH0 SWAP1 JUMP JUMPDEST PUSH2 0x766 PUSH2 0x75A JUMP JUMPDEST PUSH2 0x771 DUP2 DUP5 DUP5 PUSH2 0x735 JUMP JUMPDEST POP POP POP JUMP JUMPDEST JUMPDEST DUP2 DUP2 LT ISZERO PUSH2 0x794 JUMPI PUSH2 0x789 PUSH0 DUP3 PUSH2 0x75E JUMP JUMPDEST PUSH1 0x1 DUP2 ADD SWAP1 POP PUSH2 0x777 JUMP JUMPDEST POP POP JUMP JUMPDEST PUSH1 0x1F DUP3 GT ISZERO PUSH2 0x7D9 JUMPI PUSH2 0x7AA DUP2 PUSH2 0x67B JUMP JUMPDEST PUSH2 0x7B3 DUP5 PUSH2 0x68D JUMP JUMPDEST DUP2 ADD PUSH1 0x20 DUP6 LT ISZERO PUSH2 0x7C2 JUMPI DUP2 SWAP1 POP JUMPDEST PUSH2 0x7D6 PUSH2 0x7CE DUP6 PUSH2 0x68D JUMP JUMPDEST DUP4 ADD DUP3 PUSH2 0x776 JUMP JUMPDEST POP POP JUMPDEST POP POP POP JUMP JUMPDEST PUSH0 DUP3 DUP3 SHR SWAP1 POP SWAP3 SWAP2 POP POP JUMP JUMPDEST PUSH0 PUSH2 0x7F9 PUSH0 NOT DUP5 PUSH1 0x8 MUL PUSH2 0x7DE JUMP JUMPDEST NOT DUP1 DUP4 AND SWAP2 POP POP SWAP3 SWAP2 POP POP JUMP JUMPDEST PUSH0 PUSH2 0x811 DUP4 DUP4 PUSH2 0x7EA JUMP JUMPDEST SWAP2 POP DUP3 PUSH1 0x2 MUL DUP3 OR SWAP1 POP SWAP3 SWAP2 POP POP JUMP JUMPDEST PUSH2 0x82A DUP3 PUSH2 0x526 JUMP JUMPDEST PUSH8 0xFFFFFFFFFFFFFFFF DUP2 GT ISZERO PUSH2 0x843 JUMPI PUSH2 0x842 PUSH2 0x2ED JUMP JUMPDEST JUMPDEST PUSH2 0x84D DUP3 SLOAD PUSH2 0x64B JUMP JUMPDEST PUSH2 0x858 DUP3 DUP3 DUP6 PUSH2 0x798 JUMP JUMPDEST PUSH0 PUSH1 0x20 SWAP1 POP PUSH1 0x1F DUP4 GT PUSH1 0x1 DUP2 EQ PUSH2 0x889 JUMPI PUSH0 DUP5 ISZERO PUSH2 0x877 JUMPI DUP3 DUP8 ADD MLOAD SWAP1 POP JUMPDEST PUSH2 0x881 DUP6 DUP3 PUSH2 0x806 JUMP JUMPDEST DUP7 SSTORE POP PUSH2 0x8E8 JUMP JUMPDEST PUSH1 0x1F NOT DUP5 AND PUSH2 0x897 DUP7 PUSH2 0x67B JUMP JUMPDEST PUSH0 JUMPDEST DUP3 DUP2 LT ISZERO PUSH2 0x8BE JUMPI DUP5 DUP10 ADD MLOAD DUP3 SSTORE PUSH1 0x1 DUP3 ADD SWAP2 POP PUSH1 0x20 DUP6 ADD SWAP5 POP PUSH1 0x20 DUP2 ADD SWAP1 POP PUSH2 0x899 JUMP JUMPDEST DUP7 DUP4 LT ISZERO PUSH2 0x8DB JUMPI DUP5 DUP10 ADD MLOAD PUSH2 0x8D7 PUSH1 0x1F DUP10 AND DUP3 PUSH2 0x7EA JUMP JUMPDEST DUP4 SSTORE POP JUMPDEST PUSH1 0x1 PUSH1 0x2 DUP9 MUL ADD DUP9 SSTORE POP POP POP JUMPDEST POP POP POP POP POP POP JUMP INVALID PUSH1 0x80 PUSH1 0x40 MSTORE CALLVALUE DUP1 ISZERO PUSH2 0xF JUMPI PUSH0 DUP1 REVERT JUMPDEST POP PUSH2 0x1777 DUP1 PUSH2 0x1D PUSH0 CODECOPY PUSH0 RETURN INVALID PUSH1 0x80 PUSH1 0x40 MSTORE CALLVALUE DUP1 ISZERO PUSH2 0xF JUMPI PUSH0 DUP1 REVERT JUMPDEST POP PUSH1 0x4 CALLDATASIZE LT PUSH2 0xB2 JUMPI PUSH0 CALLDATALOAD PUSH1 0xE0 SHR DUP1 PUSH4 0x9AB1A6CC GT PUSH2 0x6F JUMPI DUP1 PUSH4 0x9AB1A6CC EQ PUSH2 0x172 JUMPI DUP1 PUSH4 0xB15BF255 EQ PUSH2 0x1A2 JUMPI DUP1 PUSH4 0xC0EFFB7D EQ PUSH2 0x1D6 JUMPI DUP1 PUSH4 0xD8CE6572 EQ PUSH2 0x1F2 JUMPI DUP1 PUSH4 0xE47766FF EQ PUSH2 0x223 JUMPI DUP1 PUSH4 0xEA42C7EF EQ PUSH2 0x23F JUMPI PUSH2 0xB2 JUMP JUMPDEST DUP1 PUSH4 0xE34B00E EQ PUSH2 0xB6 JUMPI DUP1 PUSH4 0x19FD360C EQ PUSH2 0xD2 JUMPI DUP1 PUSH4 0x220F8ADE EQ PUSH2 0xEE JUMPI DUP1 PUSH4 0x67027DF6 EQ PUSH2 0x11E JUMPI DUP1 PUSH4 0x733A744A EQ PUSH2 0x13A JUMPI DUP1 PUSH4 0x7F975A37 EQ PUSH2 0x156 JUMPI JUMPDEST PUSH0 DUP1 REVERT JUMPDEST PUSH2 0xD0 PUSH1 0x4 DUP1 CALLDATASIZE SUB DUP2 ADD SWAP1 PUSH2 0xCB SWAP2 SWAP1 PUSH2 0xD96 JUMP JUMPDEST PUSH2 0x270 JUMP JUMPDEST STOP JUMPDEST PUSH2 0xEC PUSH1 0x4 DUP1 CALLDATASIZE SUB DUP2 ADD SWAP1 PUSH2 0xE7 SWAP2 SWAP1 PUSH2 0xF1C JUMP JUMPDEST PUSH2 0x388 JUMP JUMPDEST STOP JUMPDEST PUSH2 0x108 PUSH1 0x4 DUP1 CALLDATASIZE SUB DUP2 ADD SWAP1 PUSH2 0x103 SWAP2 SWAP1 PUSH2 0xFF9 JUMP JUMPDEST PUSH2 0x450 JUMP JUMPDEST PUSH1 0x40 MLOAD PUSH2 0x115 SWAP2 SWAP1 PUSH2 0x106D JUMP JUMPDEST PUSH1 0x40 MLOAD DUP1 SWAP2 SUB SWAP1 RETURN JUMPDEST PUSH2 0x138 PUSH1 0x4 DUP1 CALLDATASIZE SUB DUP2 ADD SWAP1 PUSH2 0x133 SWAP2 SWAP1 PUSH2 0x1086 JUMP JUMPDEST PUSH2 0x51F JUMP JUMPDEST STOP JUMPDEST PUSH2 0x154 PUSH1 0x4 DUP1 CALLDATASIZE SUB DUP2 ADD SWAP1 PUSH2 0x14F SWAP2 SWAP1 PUSH2 0x10FC JUMP JUMPDEST PUSH2 0x5BE JUMP JUMPDEST STOP JUMPDEST PUSH2 0x170 PUSH1 0x4 DUP1 CALLDATASIZE SUB DUP2 ADD SWAP1 PUSH2 0x16B SWAP2 SWAP1 PUSH2 0xFF9 JUMP JUMPDEST PUSH2 0x5FD JUMP JUMPDEST STOP JUMPDEST PUSH2 0x18C PUSH1 0x4 DUP1 CALLDATASIZE SUB DUP2 ADD SWAP1 PUSH2 0x187 SWAP2 SWAP1 PUSH2 0x1143 JUMP JUMPDEST PUSH2 0x6EC JUMP JUMPDEST PUSH1 0x40 MLOAD PUSH2 0x199 SWAP2 SWAP1 PUSH2 0x106D JUMP JUMPDEST PUSH1 0x40 MLOAD DUP1 SWAP2 SUB SWAP1 RETURN JUMPDEST PUSH2 0x1BC PUSH1 0x4 DUP1 CALLDATASIZE SUB DUP2 ADD SWAP1 PUSH2 0x1B7 SWAP2 SWAP1 PUSH2 0x1143 JUMP JUMPDEST PUSH2 0x721 JUMP JUMPDEST PUSH1 0x40 MLOAD PUSH2 0x1CD SWAP6 SWAP5 SWAP4 SWAP3 SWAP2 SWAP1 PUSH2 0x1213 JUMP JUMPDEST PUSH1 0x40 MLOAD DUP1 SWAP2 SUB SWAP1 RETURN JUMPDEST PUSH2 0x1F0 PUSH1 0x4 DUP1 CALLDATASIZE SUB DUP2 ADD SWAP1 PUSH2 0x1EB SWAP2 SWAP1 PUSH2 0x1279 JUMP JUMPDEST PUSH2 0x919 JUMP JUMPDEST STOP JUMPDEST PUSH2 0x20C PUSH1 0x4 DUP1 CALLDATASIZE SUB DUP2 ADD SWAP1 PUSH2 0x207 SWAP2 SWAP1 PUSH2 0x1143 JUMP JUMPDEST PUSH2 0x9FA JUMP JUMPDEST PUSH1 0x40 MLOAD PUSH2 0x21A SWAP3 SWAP2 SWAP1 PUSH2 0x12EF JUMP JUMPDEST PUSH1 0x40 MLOAD DUP1 SWAP2 SUB SWAP1 RETURN JUMPDEST PUSH2 0x23D PUSH1 0x4 DUP1 CALLDATASIZE SUB DUP2 ADD SWAP1 PUSH2 0x238 SWAP2 SWAP1 PUSH2 0x1143 JUMP JUMPDEST PUSH2 0xAC3 JUMP JUMPDEST STOP JUMPDEST PUSH2 0x259 PUSH1 0x4 DUP1 CALLDATASIZE SUB DUP2 ADD SWAP1 PUSH2 0x254 SWAP2 SWAP1 PUSH2 0x1143 JUMP JUMPDEST PUSH2 0xB6C JUMP JUMPDEST PUSH1 0x40 MLOAD PUSH2 0x267 SWAP3 SWAP2 SWAP1 PUSH2 0x135C JUMP JUMPDEST PUSH1 0x40 MLOAD DUP1 SWAP2 SUB SWAP1 RETURN JUMPDEST PUSH0 ISZERO ISZERO PUSH1 0x2 DUP5 PUSH1 0x40 MLOAD PUSH2 0x283 SWAP2 SWAP1 PUSH2 0x13C4 JUMP JUMPDEST SWAP1 DUP2 MSTORE PUSH1 0x20 ADD PUSH1 0x40 MLOAD DUP1 SWAP2 SUB SWAP1 KECCAK256 PUSH1 0x3 ADD PUSH0 SWAP1 SLOAD SWAP1 PUSH2 0x100 EXP SWAP1 DIV PUSH1 0xFF AND ISZERO ISZERO EQ PUSH2 0x2AC JUMPI PUSH0 DUP1 REVERT JUMPDEST PUSH1 0x40 MLOAD DUP1 PUSH1 0xA0 ADD PUSH1 0x40 MSTORE DUP1 DUP5 DUP2 MSTORE PUSH1 0x20 ADD DUP4 DUP2 MSTORE PUSH1 0x20 ADD DUP3 DUP2 MSTORE PUSH1 0x20 ADD PUSH1 0x1 ISZERO ISZERO DUP2 MSTORE PUSH1 0x20 ADD PUSH0 PUSH4 0xFFFFFFFF AND DUP2 MSTORE POP PUSH1 0x2 DUP5 PUSH1 0x40 MLOAD PUSH2 0x2EC SWAP2 SWAP1 PUSH2 0x13C4 JUMP JUMPDEST SWAP1 DUP2 MSTORE PUSH1 0x20 ADD PUSH1 0x40 MLOAD DUP1 SWAP2 SUB SWAP1 KECCAK256 PUSH0 DUP3 ADD MLOAD DUP2 PUSH0 ADD SWAP1 DUP2 PUSH2 0x30D SWAP2 SWAP1 PUSH2 0x15DD JUMP JUMPDEST POP PUSH1 0x20 DUP3 ADD MLOAD DUP2 PUSH1 0x1 ADD SWAP1 DUP2 PUSH2 0x323 SWAP2 SWAP1 PUSH2 0x15DD JUMP JUMPDEST POP PUSH1 0x40 DUP3 ADD MLOAD DUP2 PUSH1 0x2 ADD SWAP1 DUP2 PUSH2 0x339 SWAP2 SWAP1 PUSH2 0x15DD JUMP JUMPDEST POP PUSH1 0x60 DUP3 ADD MLOAD DUP2 PUSH1 0x3 ADD PUSH0 PUSH2 0x100 EXP DUP2 SLOAD DUP2 PUSH1 0xFF MUL NOT AND SWAP1 DUP4 ISZERO ISZERO MUL OR SWAP1 SSTORE POP PUSH1 0x80 DUP3 ADD MLOAD DUP2 PUSH1 0x3 ADD PUSH1 0x1 PUSH2 0x100 EXP DUP2 SLOAD DUP2 PUSH4 0xFFFFFFFF MUL NOT AND SWAP1 DUP4 PUSH4 0xFFFFFFFF AND MUL OR SWAP1 SSTORE POP SWAP1 POP POP POP POP POP JUMP JUMPDEST DUP2 MLOAD DUP4 MLOAD EQ DUP1 ISZERO PUSH2 0x39A JUMPI POP DUP1 MLOAD DUP3 MLOAD EQ JUMPDEST PUSH2 0x3D9 JUMPI PUSH1 0x40 MLOAD PUSH32 0x8C379A000000000000000000000000000000000000000000000000000000000 DUP2 MSTORE PUSH1 0x4 ADD PUSH2 0x3D0 SWAP1 PUSH2 0x16F6 JUMP JUMPDEST PUSH1 0x40 MLOAD DUP1 SWAP2 SUB SWAP1 REVERT JUMPDEST PUSH0 JUMPDEST DUP4 MLOAD DUP2 LT ISZERO PUSH2 0x44A JUMPI PUSH2 0x43D DUP5 DUP3 DUP2 MLOAD DUP2 LT PUSH2 0x3FA JUMPI PUSH2 0x3F9 PUSH2 0x1714 JUMP JUMPDEST JUMPDEST PUSH1 0x20 MUL PUSH1 0x20 ADD ADD MLOAD DUP5 DUP4 DUP2 MLOAD DUP2 LT PUSH2 0x415 JUMPI PUSH2 0x414 PUSH2 0x1714 JUMP JUMPDEST JUMPDEST PUSH1 0x20 MUL PUSH1 0x20 ADD ADD MLOAD DUP5 DUP5 DUP2 MLOAD DUP2 LT PUSH2 0x430 JUMPI PUSH2 0x42F PUSH2 0x1714 JUMP JUMPDEST JUMPDEST PUSH1 0x20 MUL PUSH1 0x20 ADD ADD MLOAD PUSH2 0x270 JUMP JUMPDEST DUP1 DUP1 PUSH1 0x1 ADD SWAP2 POP POP PUSH2 0x3DB JUMP JUMPDEST POP POP POP POP JUMP JUMPDEST PUSH0 PUSH1 0x1 ISZERO ISZERO PUSH0 DUP5 PUSH1 0x40 MLOAD PUSH2 0x464 SWAP2 SWAP1 PUSH2 0x13C4 JUMP JUMPDEST SWAP1 DUP2 MSTORE PUSH1 0x20 ADD PUSH1 0x40 MLOAD DUP1 SWAP2 SUB SWAP1 KECCAK256 PUSH1 0x1 ADD PUSH0 SWAP1 SLOAD SWAP1 PUSH2 0x100 EXP SWAP1 DIV PUSH1 0xFF AND ISZERO ISZERO EQ DUP1 ISZERO PUSH2 0x4BF JUMPI POP PUSH1 0x1 ISZERO ISZERO PUSH1 0x1 DUP5 PUSH1 0x40 MLOAD PUSH2 0x4A0 SWAP2 SWAP1 PUSH2 0x13C4 JUMP JUMPDEST SWAP1 DUP2 MSTORE PUSH1 0x20 ADD PUSH1 0x40 MLOAD DUP1 SWAP2 SUB SWAP1 KECCAK256 PUSH0 SWAP1 SLOAD SWAP1 PUSH2 0x100 EXP SWAP1 DIV PUSH1 0xFF AND ISZERO ISZERO EQ JUMPDEST DUP1 ISZERO PUSH2 0x507 JUMPI POP DUP2 PUSH4 0xFFFFFFFF AND PUSH1 0x2 DUP5 PUSH1 0x40 MLOAD PUSH2 0x4DD SWAP2 SWAP1 PUSH2 0x13C4 JUMP JUMPDEST SWAP1 DUP2 MSTORE PUSH1 0x20 ADD PUSH1 0x40 MLOAD DUP1 SWAP2 SUB SWAP1 KECCAK256 PUSH1 0x3 ADD PUSH1 0x1 SWAP1 SLOAD SWAP1 PUSH2 0x100 EXP SWAP1 DIV PUSH4 0xFFFFFFFF AND PUSH4 0xFFFFFFFF AND EQ JUMPDEST ISZERO PUSH2 0x515 JUMPI PUSH1 0x1 SWAP1 POP PUSH2 0x519 JUMP JUMPDEST PUSH0 SWAP1 POP JUMPDEST SWAP3 SWAP2 POP POP JUMP JUMPDEST DUP1 MLOAD DUP3 MLOAD EQ PUSH2 0x563 JUMPI PUSH1 0x40 MLOAD PUSH32 0x8C379A000000000000000000000000000000000000000000000000000000000 DUP2 MSTORE PUSH1 0x4 ADD PUSH2 0x55A SWAP1 PUSH2 0x16F6 JUMP JUMPDEST PUSH1 0x40 MLOAD DUP1 SWAP2 SUB SWAP1 REVERT JUMPDEST PUSH0 JUMPDEST DUP3 MLOAD DUP2 LT ISZERO PUSH2 0x5B9 JUMPI PUSH2 0x5AC DUP4 DUP3 DUP2 MLOAD DUP2 LT PUSH2 0x584 JUMPI PUSH2 0x583 PUSH2 0x1714 JUMP JUMPDEST JUMPDEST PUSH1 0x20 MUL PUSH1 0x20 ADD ADD MLOAD DUP4 DUP4 DUP2 MLOAD DUP2 LT PUSH2 0x59F JUMPI PUSH2 0x59E PUSH2 0x1714 JUMP JUMPDEST JUMPDEST PUSH1 0x20 MUL PUSH1 0x20 ADD ADD MLOAD PUSH2 0x919 JUMP JUMPDEST DUP1 DUP1 PUSH1 0x1 ADD SWAP2 POP POP PUSH2 0x565 JUMP JUMPDEST POP POP POP JUMP JUMPDEST PUSH0 JUMPDEST DUP2 MLOAD DUP2 LT ISZERO PUSH2 0x5F9 JUMPI PUSH2 0x5EC DUP3 DUP3 DUP2 MLOAD DUP2 LT PUSH2 0x5DF JUMPI PUSH2 0x5DE PUSH2 0x1714 JUMP JUMPDEST JUMPDEST PUSH1 0x20 MUL PUSH1 0x20 ADD ADD MLOAD PUSH2 0xAC3 JUMP JUMPDEST DUP1 DUP1 PUSH1 0x1 ADD SWAP2 POP POP PUSH2 0x5C0 JUMP JUMPDEST POP POP JUMP JUMPDEST PUSH1 0x1 ISZERO ISZERO PUSH1 0x2 DUP4 PUSH1 0x40 MLOAD PUSH2 0x611 SWAP2 SWAP1 PUSH2 0x13C4 JUMP JUMPDEST SWAP1 DUP2 MSTORE PUSH1 0x20 ADD PUSH1 0x40 MLOAD DUP1 SWAP2 SUB SWAP1 KECCAK256 PUSH1 0x3 ADD PUSH0 SWAP1 SLOAD SWAP1 PUSH2 0x100 EXP SWAP1 DIV PUSH1 0xFF AND ISZERO ISZERO EQ PUSH2 0x63A JUMPI PUSH0 DUP1 REVERT JUMPDEST PUSH0 ISZERO ISZERO PUSH1 0x1 DUP4 PUSH1 0x40 MLOAD PUSH2 0x64D SWAP2 SWAP1 PUSH2 0x13C4 JUMP JUMPDEST SWAP1 DUP2 MSTORE PUSH1 0x20 ADD PUSH1 0x40 MLOAD DUP1 SWAP2 SUB SWAP1 KECCAK256 PUSH0 SWAP1 SLOAD SWAP1 PUSH2 0x100 EXP SWAP1 DIV PUSH1 0xFF AND ISZERO ISZERO EQ PUSH2 0x673 JUMPI PUSH0 DUP1 REVERT JUMPDEST PUSH1 0x1 DUP1 DUP4 PUSH1 0x40 MLOAD PUSH2 0x684 SWAP2 SWAP1 PUSH2 0x13C4 JUMP JUMPDEST SWAP1 DUP2 MSTORE PUSH1 0x20 ADD PUSH1 0x40 MLOAD DUP1 SWAP2 SUB SWAP1 KECCAK256 PUSH0 PUSH2 0x100 EXP DUP2 SLOAD DUP2 PUSH1 0xFF MUL NOT AND SWAP1 DUP4 ISZERO ISZERO MUL OR SWAP1 SSTORE POP DUP1 PUSH1 0x2 DUP4 PUSH1 0x40 MLOAD PUSH2 0x6B9 SWAP2 SWAP1 PUSH2 0x13C4 JUMP JUMPDEST SWAP1 DUP2 MSTORE PUSH1 0x20 ADD PUSH1 0x40 MLOAD DUP1 SWAP2 SUB SWAP1 KECCAK256 PUSH1 0x3 ADD PUSH1 0x1 PUSH2 0x100 EXP DUP2 SLOAD DUP2 PUSH4 0xFFFFFFFF MUL NOT AND SWAP1 DUP4 PUSH4 0xFFFFFFFF AND MUL OR SWAP1 SSTORE POP POP POP JUMP JUMPDEST PUSH1 0x1 DUP2 DUP1 MLOAD PUSH1 0x20 DUP2 ADD DUP3 ADD DUP1 MLOAD DUP5 DUP3 MSTORE PUSH1 0x20 DUP4 ADD PUSH1 0x20 DUP6 ADD KECCAK256 DUP2 DUP4 MSTORE DUP1 SWAP6 POP POP POP POP POP POP PUSH0 SWAP2 POP SLOAD SWAP1 PUSH2 0x100 EXP SWAP1 DIV PUSH1 0xFF AND DUP2 JUMP JUMPDEST PUSH1 0x2 DUP2 DUP1 MLOAD PUSH1 0x20 DUP2 ADD DUP3 ADD DUP1 MLOAD DUP5 DUP3 MSTORE PUSH1 0x20 DUP4 ADD PUSH1 0x20 DUP6 ADD KECCAK256 DUP2 DUP4 MSTORE DUP1 SWAP6 POP POP POP POP POP POP PUSH0 SWAP2 POP SWAP1 POP DUP1 PUSH0 ADD DUP1 SLOAD PUSH2 0x758 SWAP1 PUSH2 0x1407 JUMP JUMPDEST DUP1 PUSH1 0x1F ADD PUSH1 0x20 DUP1 SWAP2 DIV MUL PUSH1 0x20 ADD PUSH1 0x40 MLOAD SWAP1 DUP2 ADD PUSH1 0x40 MSTORE DUP1 SWAP3 SWAP2 SWAP1 DUP2 DUP2 MSTORE PUSH1 0x20 ADD DUP3 DUP1 SLOAD PUSH2 0x784 SWAP1 PUSH2 0x1407 JUMP JUMPDEST DUP1 ISZERO PUSH2 0x7CF JUMPI DUP1 PUSH1 0x1F LT PUSH2 0x7A6 JUMPI PUSH2 0x100 DUP1 DUP4 SLOAD DIV MUL DUP4 MSTORE SWAP2 PUSH1 0x20 ADD SWAP2 PUSH2 0x7CF JUMP JUMPDEST DUP3 ADD SWAP2 SWAP1 PUSH0 MSTORE PUSH1 0x20 PUSH0 KECCAK256 SWAP1 JUMPDEST DUP2 SLOAD DUP2 MSTORE SWAP1 PUSH1 0x1 ADD SWAP1 PUSH1 0x20 ADD DUP1 DUP4 GT PUSH2 0x7B2 JUMPI DUP3 SWAP1 SUB PUSH1 0x1F AND DUP3 ADD SWAP2 JUMPDEST POP POP POP POP POP SWAP1 DUP1 PUSH1 0x1 ADD DUP1 SLOAD PUSH2 0x7E4 SWAP1 PUSH2 0x1407 JUMP JUMPDEST DUP1 PUSH1 0x1F ADD PUSH1 0x20 DUP1 SWAP2 DIV MUL PUSH1 0x20 ADD PUSH1 0x40 MLOAD SWAP1 DUP2 ADD PUSH1 0x40 MSTORE DUP1 SWAP3 SWAP2 SWAP1 DUP2 DUP2 MSTORE PUSH1 0x20 ADD DUP3 DUP1 SLOAD PUSH2 0x810 SWAP1 PUSH2 0x1407 JUMP JUMPDEST DUP1 ISZERO PUSH2 0x85B JUMPI DUP1 PUSH1 0x1F LT PUSH2 0x832 JUMPI PUSH2 0x100 DUP1 DUP4 SLOAD DIV MUL DUP4 MSTORE SWAP2 PUSH1 0x20 ADD SWAP2 PUSH2 0x85B JUMP JUMPDEST DUP3 ADD SWAP2 SWAP1 PUSH0 MSTORE PUSH1 0x20 PUSH0 KECCAK256 SWAP1 JUMPDEST DUP2 SLOAD DUP2 MSTORE SWAP1 PUSH1 0x1 ADD SWAP1 PUSH1 0x20 ADD DUP1 DUP4 GT PUSH2 0x83E JUMPI DUP3 SWAP1 SUB PUSH1 0x1F AND DUP3 ADD SWAP2 JUMPDEST POP POP POP POP POP SWAP1 DUP1 PUSH1 0x2 ADD DUP1 SLOAD PUSH2 0x870 SWAP1 PUSH2 0x1407 JUMP JUMPDEST DUP1 PUSH1 0x1F ADD PUSH1 0x20 DUP1 SWAP2 DIV MUL PUSH1 0x20 ADD PUSH1 0x40 MLOAD SWAP1 DUP2 ADD PUSH1 0x40 MSTORE DUP1 SWAP3 SWAP2 SWAP1 DUP2 DUP2 MSTORE PUSH1 0x20 ADD DUP3 DUP1 SLOAD PUSH2 0x89C SWAP1 PUSH2 0x1407 JUMP JUMPDEST DUP1 ISZERO PUSH2 0x8E7 JUMPI DUP1 PUSH1 0x1F LT PUSH2 0x8BE JUMPI PUSH2 0x100 DUP1 DUP4 SLOAD DIV MUL DUP4 MSTORE SWAP2 PUSH1 0x20 ADD SWAP2 PUSH2 0x8E7 JUMP JUMPDEST DUP3 ADD SWAP2 SWAP1 PUSH0 MSTORE PUSH1 0x20 PUSH0 KECCAK256 SWAP1 JUMPDEST DUP2 SLOAD DUP2 MSTORE SWAP1 PUSH1 0x1 ADD SWAP1 PUSH1 0x20 ADD DUP1 DUP4 GT PUSH2 0x8CA JUMPI DUP3 SWAP1 SUB PUSH1 0x1F AND DUP3 ADD SWAP2 JUMPDEST POP POP POP POP POP SWAP1 DUP1 PUSH1 0x3 ADD PUSH0 SWAP1 SLOAD SWAP1 PUSH2 0x100 EXP SWAP1 DIV PUSH1 0xFF AND SWAP1 DUP1 PUSH1 0x3 ADD PUSH1 0x1 SWAP1 SLOAD SWAP1 PUSH2 0x100 EXP SWAP1 DIV PUSH4 0xFFFFFFFF AND SWAP1 POP DUP6 JUMP JUMPDEST PUSH1 0x1 ISZERO ISZERO PUSH1 0x2 DUP4 PUSH1 0x40 MLOAD PUSH2 0x92D SWAP2 SWAP1 PUSH2 0x13C4 JUMP JUMPDEST SWAP1 DUP2 MSTORE PUSH1 0x20 ADD PUSH1 0x40 MLOAD DUP1 SWAP2 SUB SWAP1 KECCAK256 PUSH1 0x3 ADD PUSH0 SWAP1 SLOAD SWAP1 PUSH2 0x100 EXP SWAP1 DIV PUSH1 0xFF AND ISZERO ISZERO EQ PUSH2 0x956 JUMPI PUSH0 DUP1 REVERT JUMPDEST PUSH0 ISZERO ISZERO PUSH0 DUP4 PUSH1 0x40 MLOAD PUSH2 0x968 SWAP2 SWAP1 PUSH2 0x13C4 JUMP JUMPDEST SWAP1 DUP2 MSTORE PUSH1 0x20 ADD PUSH1 0x40 MLOAD DUP1 SWAP2 SUB SWAP1 KECCAK256 PUSH1 0x1 ADD PUSH0 SWAP1 SLOAD SWAP1 PUSH2 0x100 EXP SWAP1 DIV PUSH1 0xFF AND ISZERO ISZERO EQ PUSH2 0x991 JUMPI PUSH0 DUP1 REVERT JUMPDEST DUP1 PUSH0 DUP4 PUSH1 0x40 MLOAD PUSH2 0x9A1 SWAP2 SWAP1 PUSH2 0x13C4 JUMP JUMPDEST SWAP1 DUP2 MSTORE PUSH1 0x20 ADD PUSH1 0x40 MLOAD DUP1 SWAP2 SUB SWAP1 KECCAK256 PUSH0 ADD SWAP1 DUP2 PUSH2 0x9BD SWAP2 SWAP1 PUSH2 0x15DD JUMP JUMPDEST POP PUSH1 0x1 PUSH0 DUP4 PUSH1 0x40 MLOAD PUSH2 0x9CF SWAP2 SWAP1 PUSH2 0x13C4 JUMP JUMPDEST SWAP1 DUP2 MSTORE PUSH1 0x20 ADD PUSH1 0x40 MLOAD DUP1 SWAP2 SUB SWAP1 KECCAK256 PUSH1 0x1 ADD PUSH0 PUSH2 0x100 EXP DUP2 SLOAD DUP2 PUSH1 0xFF MUL NOT AND SWAP1 DUP4 ISZERO ISZERO MUL OR SWAP1 SSTORE POP POP POP JUMP JUMPDEST PUSH0 DUP2 DUP1 MLOAD PUSH1 0x20 DUP2 ADD DUP3 ADD DUP1 MLOAD DUP5 DUP3 MSTORE PUSH1 0x20 DUP4 ADD PUSH1 0x20 DUP6 ADD KECCAK256 DUP2 DUP4 MSTORE DUP1 SWAP6 POP POP POP POP POP POP PUSH0 SWAP2 POP SWAP1 POP DUP1 PUSH0 ADD DUP1 SLOAD PUSH2 0xA30 SWAP1 PUSH2 0x1407 JUMP JUMPDEST DUP1 PUSH1 0x1F ADD PUSH1 0x20 DUP1 SWAP2 DIV MUL PUSH1 0x20 ADD PUSH1 0x40 MLOAD SWAP1 DUP2 ADD PUSH1 0x40 MSTORE DUP1 SWAP3 SWAP2 SWAP1 DUP2 DUP2 MSTORE PUSH1 0x20 ADD DUP3 DUP1 SLOAD PUSH2 0xA5C SWAP1 PUSH2 0x1407 JUMP JUMPDEST DUP1 ISZERO PUSH2 0xAA7 JUMPI DUP1 PUSH1 0x1F LT PUSH2 0xA7E JUMPI PUSH2 0x100 DUP1 DUP4 SLOAD DIV MUL DUP4 MSTORE SWAP2 PUSH1 0x20 ADD SWAP2 PUSH2 0xAA7 JUMP JUMPDEST DUP3 ADD SWAP2 SWAP1 PUSH0 MSTORE PUSH1 0x20 PUSH0 KECCAK256 SWAP1 JUMPDEST DUP2 SLOAD DUP2 MSTORE SWAP1 PUSH1 0x1 ADD SWAP1 PUSH1 0x20 ADD DUP1 DUP4 GT PUSH2 0xA8A JUMPI DUP3 SWAP1 SUB PUSH1 0x1F AND DUP3 ADD SWAP2 JUMPDEST POP POP POP POP POP SWAP1 DUP1 PUSH1 0x1 ADD PUSH0 SWAP1 SLOAD SWAP1 PUSH2 0x100 EXP SWAP1 DIV PUSH1 0xFF AND SWAP1 POP DUP3 JUMP JUMPDEST PUSH1 0x40 MLOAD DUP1 PUSH1 0x40 ADD PUSH1 0x40 MSTORE DUP1 DUP3 DUP2 MSTORE PUSH1 0x20 ADD CALLER PUSH20 0xFFFFFFFFFFFFFFFFFFFFFFFFFFFFFFFFFFFFFFFF AND DUP2 MSTORE POP PUSH1 0x3 DUP3 PUSH1 0x40 MLOAD PUSH2 0xAFE SWAP2 SWAP1 PUSH2 0x13C4 JUMP JUMPDEST SWAP1 DUP2 MSTORE PUSH1 0x20 ADD PUSH1 0x40 MLOAD DUP1 SWAP2 SUB SWAP1 KECCAK256 PUSH0 DUP3 ADD MLOAD DUP2 PUSH0 ADD SWAP1 DUP2 PUSH2 0xB1F SWAP2 SWAP1 PUSH2 0x15DD JUMP JUMPDEST POP PUSH1 0x20 DUP3 ADD MLOAD DUP2 PUSH1 0x1 ADD PUSH0 PUSH2 0x100 EXP DUP2 SLOAD DUP2 PUSH20 0xFFFFFFFFFFFFFFFFFFFFFFFFFFFFFFFFFFFFFFFF MUL NOT AND SWAP1 DUP4 PUSH20 0xFFFFFFFFFFFFFFFFFFFFFFFFFFFFFFFFFFFFFFFF AND MUL OR SWAP1 SSTORE POP SWAP1 POP POP POP JUMP JUMPDEST PUSH1 0x3 DUP2 DUP1 MLOAD PUSH1 0x20 DUP2 ADD DUP3 ADD DUP1 MLOAD DUP5 DUP3 MSTORE PUSH1 0x20 DUP4 ADD PUSH1 0x20 DUP6 ADD KECCAK256 DUP2 DUP4 MSTORE DUP1 SWAP6 POP POP POP POP POP POP PUSH0 SWAP2 POP SWAP1 POP DUP1 PUSH0 ADD DUP1 SLOAD PUSH2 0xBA3 SWAP1 PUSH2 0x1407 JUMP JUMPDEST DUP1 PUSH1 0x1F ADD PUSH1 0x20 DUP1 SWAP2 DIV MUL PUSH1 0x20 ADD PUSH1 0x40 MLOAD SWAP1 DUP2 ADD PUSH1 0x40 MSTORE DUP1 SWAP3 SWAP2 SWAP1 DUP2 DUP2 MSTORE PUSH1 0x20 ADD DUP3 DUP1 SLOAD PUSH2 0xBCF SWAP1 PUSH2 0x1407 JUMP JUMPDEST DUP1 ISZERO PUSH2 0xC1A JUMPI DUP1 PUSH1 0x1F LT PUSH2 0xBF1 JUMPI PUSH2 0x100 DUP1 DUP4 SLOAD DIV MUL DUP4 MSTORE SWAP2 PUSH1 0x20 ADD SWAP2 PUSH2 0xC1A JUMP JUMPDEST DUP3 ADD SWAP2 SWAP1 PUSH0 MSTORE PUSH1 0x20 PUSH0 KECCAK256 SWAP1 JUMPDEST DUP2 SLOAD DUP2 MSTORE SWAP1 PUSH1 0x1 ADD SWAP1 PUSH1 0x20 ADD DUP1 DUP4 GT PUSH2 0xBFD JUMPI DUP3 SWAP1 SUB PUSH1 0x1F AND DUP3 ADD SWAP2 JUMPDEST POP POP POP POP POP SWAP1 DUP1 PUSH1 0x1 ADD PUSH0 SWAP1 SLOAD SWAP1 PUSH2 0x100 EXP SWAP1 DIV PUSH20 0xFFFFFFFFFFFFFFFFFFFFFFFFFFFFFFFFFFFFFFFF AND SWAP1 POP DUP3 JUMP JUMPDEST PUSH0 PUSH1 0x40 MLOAD SWAP1 POP SWAP1 JUMP JUMPDEST PUSH0 DUP1 REVERT JUMPDEST PUSH0 DUP1 REVERT JUMPDEST PUSH0 DUP1 REVERT JUMPDEST PUSH0 DUP1 REVERT JUMPDEST PUSH0 PUSH1 0x1F NOT PUSH1 0x1F DUP4 ADD AND SWAP1 POP SWAP2 SWAP1 POP JUMP JUMPDEST PUSH32 0x4E487B7100000000000000000000000000000000000000000000000000000000 PUSH0 MSTORE PUSH1 0x41 PUSH1 0x4 MSTORE PUSH1 0x24 PUSH0 REVERT JUMPDEST PUSH2 0xCA8 DUP3 PUSH2 0xC62 JUMP JUMPDEST DUP2 ADD DUP2 DUP2 LT PUSH8 0xFFFFFFFFFFFFFFFF DUP3 GT OR ISZERO PUSH2 0xCC7 JUMPI PUSH2 0xCC6 PUSH2 0xC72 JUMP JUMPDEST JUMPDEST DUP1 PUSH1 0x40 MSTORE POP POP POP JUMP JUMPDEST PUSH0 PUSH2 0xCD9 PUSH2 0xC49 JUMP JUMPDEST SWAP1 POP PUSH2 0xCE5 DUP3 DUP3 PUSH2 0xC9F JUMP JUMPDEST SWAP2 SWAP1 POP JUMP JUMPDEST PUSH0 PUSH8 0xFFFFFFFFFFFFFFFF DUP3 GT ISZERO PUSH2 0xD04 JUMPI PUSH2 0xD03 PUSH2 0xC72 JUMP JUMPDEST JUMPDEST PUSH2 0xD0D DUP3 PUSH2 0xC62 JUMP JUMPDEST SWAP1 POP PUSH1 0x20 DUP2 ADD SWAP1 POP SWAP2 SWAP1 POP JUMP JUMPDEST DUP3 DUP2 DUP4 CALLDATACOPY PUSH0 DUP4 DUP4 ADD MSTORE POP POP POP JUMP JUMPDEST PUSH0 PUSH2 0xD3A PUSH2 0xD35 DUP5 PUSH2 0xCEA JUMP JUMPDEST PUSH2 0xCD0 JUMP JUMPDEST SWAP1 POP DUP3 DUP2 MSTORE PUSH1 0x20 DUP2 ADD DUP5 DUP5 DUP5 ADD GT ISZERO PUSH2 0xD56 JUMPI PUSH2 0xD55 PUSH2 0xC5E JUMP JUMPDEST JUMPDEST PUSH2 0xD61 DUP5 DUP3 DUP6 PUSH2 0xD1A JUMP JUMPDEST POP SWAP4 SWAP3 POP POP POP JUMP JUMPDEST PUSH0 DUP3 PUSH1 0x1F DUP4 ADD SLT PUSH2 0xD7D JUMPI PUSH2 0xD7C PUSH2 0xC5A JUMP JUMPDEST JUMPDEST DUP2 CALLDATALOAD PUSH2 0xD8D DUP5 DUP3 PUSH1 0x20 DUP7 ADD PUSH2 0xD28 JUMP JUMPDEST SWAP2 POP POP SWAP3 SWAP2 POP POP JUMP JUMPDEST PUSH0 DUP1 PUSH0 PUSH1 0x60 DUP5 DUP7 SUB SLT ISZERO PUSH2 0xDAD JUMPI PUSH2 0xDAC PUSH2 0xC52 JUMP JUMPDEST JUMPDEST PUSH0 DUP5 ADD CALLDATALOAD PUSH8 0xFFFFFFFFFFFFFFFF DUP2 GT ISZERO PUSH2 0xDCA JUMPI PUSH2 0xDC9 PUSH2 0xC56 JUMP JUMPDEST JUMPDEST PUSH2 0xDD6 DUP7 DUP3 DUP8 ADD PUSH2 0xD69 JUMP JUMPDEST SWAP4 POP POP PUSH1 0x20 DUP5 ADD CALLDATALOAD PUSH8 0xFFFFFFFFFFFFFFFF DUP2 GT ISZERO PUSH2 0xDF7 JUMPI PUSH2 0xDF6 PUSH2 0xC56 JUMP JUMPDEST JUMPDEST PUSH2 0xE03 DUP7 DUP3 DUP8 ADD PUSH2 0xD69 JUMP JUMPDEST SWAP3 POP POP PUSH1 0x40 DUP5 ADD CALLDATALOAD PUSH8 0xFFFFFFFFFFFFFFFF DUP2 GT ISZERO PUSH2 0xE24 JUMPI PUSH2 0xE23 PUSH2 0xC56 JUMP JUMPDEST JUMPDEST PUSH2 0xE30 DUP7 DUP3 DUP8 ADD PUSH2 0xD69 JUMP JUMPDEST SWAP2 POP POP SWAP3 POP SWAP3 POP SWAP3 JUMP JUMPDEST PUSH0 PUSH8 0xFFFFFFFFFFFFFFFF DUP3 GT ISZERO PUSH2 0xE54 JUMPI PUSH2 0xE53 PUSH2 0xC72 JUMP JUMPDEST JUMPDEST PUSH1 0x20 DUP3 MUL SWAP1 POP PUSH1 0x20 DUP2 ADD SWAP1 POP SWAP2 SWAP1 POP JUMP JUMPDEST PUSH0 DUP1 REVERT JUMPDEST PUSH0 PUSH2 0xE7B PUSH2 0xE76 DUP5 PUSH2 0xE3A JUMP JUMPDEST PUSH2 0xCD0 JUMP JUMPDEST SWAP1 POP DUP1 DUP4 DUP3 MSTORE PUSH1 0x20 DUP3 ADD SWAP1 POP PUSH1 0x20 DUP5 MUL DUP4 ADD DUP6 DUP2 GT ISZERO PUSH2 0xE9E JUMPI PUSH2 0xE9D PUSH2 0xE65 JUMP JUMPDEST JUMPDEST DUP4 JUMPDEST DUP2 DUP2 LT ISZERO PUSH2 0xEE5 JUMPI DUP1 CALLDATALOAD PUSH8 0xFFFFFFFFFFFFFFFF DUP2 GT ISZERO PUSH2 0xEC3 JUMPI PUSH2 0xEC2 PUSH2 0xC5A JUMP JUMPDEST JUMPDEST DUP1 DUP7 ADD PUSH2 0xED0 DUP10 DUP3 PUSH2 0xD69 JUMP JUMPDEST DUP6 MSTORE PUSH1 0x20 DUP6 ADD SWAP5 POP POP POP PUSH1 0x20 DUP2 ADD SWAP1 POP PUSH2 0xEA0 JUMP JUMPDEST POP POP POP SWAP4 SWAP3 POP POP POP JUMP JUMPDEST PUSH0 DUP3 PUSH1 0x1F DUP4 ADD SLT PUSH2 0xF03 JUMPI PUSH2 0xF02 PUSH2 0xC5A JUMP JUMPDEST JUMPDEST DUP2 CALLDATALOAD PUSH2 0xF13 DUP5 DUP3 PUSH1 0x20 DUP7 ADD PUSH2 0xE69 JUMP JUMPDEST SWAP2 POP POP SWAP3 SWAP2 POP POP JUMP JUMPDEST PUSH0 DUP1 PUSH0 PUSH1 0x60 DUP5 DUP7 SUB SLT ISZERO PUSH2 0xF33 JUMPI PUSH2 0xF32 PUSH2 0xC52 JUMP JUMPDEST JUMPDEST PUSH0 DUP5 ADD CALLDATALOAD PUSH8 0xFFFFFFFFFFFFFFFF DUP2 GT ISZERO PUSH2 0xF50 JUMPI PUSH2 0xF4F PUSH2 0xC56 JUMP JUMPDEST JUMPDEST PUSH2 0xF5C DUP7 DUP3 DUP8 ADD PUSH2 0xEEF JUMP JUMPDEST SWAP4 POP POP PUSH1 0x20 DUP5 ADD CALLDATALOAD PUSH8 0xFFFFFFFFFFFFFFFF DUP2 GT ISZERO PUSH2 0xF7D JUMPI PUSH2 0xF7C PUSH2 0xC56 JUMP JUMPDEST JUMPDEST PUSH2 0xF89 DUP7 DUP3 DUP8 ADD PUSH2 0xEEF JUMP JUMPDEST SWAP3 POP POP PUSH1 0x40 DUP5 ADD CALLDATALOAD PUSH8 0xFFFFFFFFFFFFFFFF DUP2 GT ISZERO PUSH2 0xFAA JUMPI PUSH2 0xFA9 PUSH2 0xC56 JUMP JUMPDEST JUMPDEST PUSH2 0xFB6 DUP7 DUP3 DUP8 ADD PUSH2 0xEEF JUMP JUMPDEST SWAP2 POP POP SWAP3 POP SWAP3 POP SWAP3 JUMP JUMPDEST PUSH0 PUSH4 0xFFFFFFFF DUP3 AND SWAP1 POP SWAP2 SWAP1 POP JUMP JUMPDEST PUSH2 0xFD8 DUP2 PUSH2 0xFC0 JUMP JUMPDEST DUP2 EQ PUSH2 0xFE2 JUMPI PUSH0 DUP1 REVERT JUMPDEST POP JUMP JUMPDEST PUSH0 DUP2 CALLDATALOAD SWAP1 POP PUSH2 0xFF3 DUP2 PUSH2 0xFCF JUMP JUMPDEST SWAP3 SWAP2 POP POP JUMP JUMPDEST PUSH0 DUP1 PUSH1 0x40 DUP4 DUP6 SUB SLT ISZERO PUSH2 0x100F JUMPI PUSH2 0x100E PUSH2 0xC52 JUMP JUMPDEST JUMPDEST PUSH0 DUP4 ADD CALLDATALOAD PUSH8 0xFFFFFFFFFFFFFFFF DUP2 GT ISZERO PUSH2 0x102C JUMPI PUSH2 0x102B PUSH2 0xC56 JUMP JUMPDEST JUMPDEST PUSH2 0x1038 DUP6 DUP3 DUP7 ADD PUSH2 0xD69 JUMP JUMPDEST SWAP3 POP POP PUSH1 0x20 PUSH2 0x1049 DUP6 DUP3 DUP7 ADD PUSH2 0xFE5 JUMP JUMPDEST SWAP2 POP POP SWAP3 POP SWAP3 SWAP1 POP JUMP JUMPDEST PUSH0 DUP2 ISZERO ISZERO SWAP1 POP SWAP2 SWAP1 POP JUMP JUMPDEST PUSH2 0x1067 DUP2 PUSH2 0x1053 JUMP JUMPDEST DUP3 MSTORE POP POP JUMP JUMPDEST PUSH0 PUSH1 0x20 DUP3 ADD SWAP1 POP PUSH2 0x1080 PUSH0 DUP4 ADD DUP5 PUSH2 0x105E JUMP JUMPDEST SWAP3 SWAP2 POP POP JUMP JUMPDEST PUSH0 DUP1 PUSH1 0x40 DUP4 DUP6 SUB SLT ISZERO PUSH2 0x109C JUMPI PUSH2 0x109B PUSH2 0xC52 JUMP JUMPDEST JUMPDEST PUSH0 DUP4 ADD CALLDATALOAD PUSH8 0xFFFFFFFFFFFFFFFF DUP2 GT ISZERO PUSH2 0x10B9 JUMPI PUSH2 0x10B8 PUSH2 0xC56 JUMP JUMPDEST JUMPDEST PUSH2 0x10C5 DUP6 DUP3 DUP7 ADD PUSH2 0xEEF JUMP JUMPDEST SWAP3 POP POP PUSH1 0x20 DUP4 ADD CALLDATALOAD PUSH8 0xFFFFFFFFFFFFFFFF DUP2 GT ISZERO PUSH2 0x10E6 JUMPI PUSH2 0x10E5 PUSH2 0xC56 JUMP JUMPDEST JUMPDEST PUSH2 0x10F2 DUP6 DUP3 DUP7 ADD PUSH2 0xEEF JUMP JUMPDEST SWAP2 POP POP SWAP3 POP SWAP3 SWAP1 POP JUMP JUMPDEST PUSH0 PUSH1 0x20 DUP3 DUP5 SUB SLT ISZERO PUSH2 0x1111 JUMPI PUSH2 0x1110 PUSH2 0xC52 JUMP JUMPDEST JUMPDEST PUSH0 DUP3 ADD CALLDATALOAD PUSH8 0xFFFFFFFFFFFFFFFF DUP2 GT ISZERO PUSH2 0x112E JUMPI PUSH2 0x112D PUSH2 0xC56 JUMP JUMPDEST JUMPDEST PUSH2 0x113A DUP5 DUP3 DUP6 ADD PUSH2 0xEEF JUMP JUMPDEST SWAP2 POP POP SWAP3 SWAP2 POP POP JUMP JUMPDEST PUSH0 PUSH1 0x20 DUP3 DUP5 SUB SLT ISZERO PUSH2 0x1158 JUMPI PUSH2 0x1157 PUSH2 0xC52 JUMP JUMPDEST JUMPDEST PUSH0 DUP3 ADD CALLDATALOAD PUSH8 0xFFFFFFFFFFFFFFFF DUP2 GT ISZERO PUSH2 0x1175 JUMPI PUSH2 0x1174 PUSH2 0xC56 JUMP JUMPDEST JUMPDEST PUSH2 0x1181 DUP5 DUP3 DUP6 ADD PUSH2 0xD69 JUMP JUMPDEST SWAP2 POP POP SWAP3 SWAP2 POP POP JUMP JUMPDEST PUSH0 DUP2 MLOAD SWAP1 POP SWAP2 SWAP1 POP JUMP JUMPDEST PUSH0 DUP3 DUP3 MSTORE PUSH1 0x20 DUP3 ADD SWAP1 POP SWAP3 SWAP2 POP POP JUMP JUMPDEST PUSH0 JUMPDEST DUP4 DUP2 LT ISZERO PUSH2 0x11C1 JUMPI DUP1 DUP3 ADD MLOAD DUP2 DUP5 ADD MSTORE PUSH1 0x20 DUP2 ADD SWAP1 POP PUSH2 0x11A6 JUMP JUMPDEST PUSH0 DUP5 DUP5 ADD MSTORE POP POP POP POP JUMP JUMPDEST PUSH0 PUSH2 0x11D6 DUP3 PUSH2 0x118A JUMP JUMPDEST PUSH2 0x11E0 DUP2 DUP6 PUSH2 0x1194 JUMP JUMPDEST SWAP4 POP PUSH2 0x11F0 DUP2 DUP6 PUSH1 0x20 DUP7 ADD PUSH2 0x11A4 JUMP JUMPDEST PUSH2 0x11F9 DUP2 PUSH2 0xC62 JUMP JUMPDEST DUP5 ADD SWAP2 POP POP SWAP3 SWAP2 POP POP JUMP JUMPDEST PUSH2 0x120D DUP2 PUSH2 0xFC0 JUMP JUMPDEST DUP3 MSTORE POP POP JUMP JUMPDEST PUSH0 PUSH1 0xA0 DUP3 ADD SWAP1 POP DUP2 DUP2 SUB PUSH0 DUP4 ADD MSTORE PUSH2 0x122B DUP2 DUP9 PUSH2 0x11CC JUMP JUMPDEST SWAP1 POP DUP2 DUP2 SUB PUSH1 0x20 DUP4 ADD MSTORE PUSH2 0x123F DUP2 DUP8 PUSH2 0x11CC JUMP JUMPDEST SWAP1 POP DUP2 DUP2 SUB PUSH1 0x40 DUP4 ADD MSTORE PUSH2 0x1253 DUP2 DUP7 PUSH2 0x11CC JUMP JUMPDEST SWAP1 POP PUSH2 0x1262 PUSH1 0x60 DUP4 ADD DUP6 PUSH2 0x105E JUMP JUMPDEST PUSH2 0x126F PUSH1 0x80 DUP4 ADD DUP5 PUSH2 0x1204 JUMP JUMPDEST SWAP7 SWAP6 POP POP POP POP POP POP JUMP JUMPDEST PUSH0 DUP1 PUSH1 0x40 DUP4 DUP6 SUB SLT ISZERO PUSH2 0x128F JUMPI PUSH2 0x128E PUSH2 0xC52 JUMP JUMPDEST JUMPDEST PUSH0 DUP4 ADD CALLDATALOAD PUSH8 0xFFFFFFFFFFFFFFFF DUP2 GT ISZERO PUSH2 0x12AC JUMPI PUSH2 0x12AB PUSH2 0xC56 JUMP JUMPDEST JUMPDEST PUSH2 0x12B8 DUP6 DUP3 DUP7 ADD PUSH2 0xD69 JUMP JUMPDEST SWAP3 POP POP PUSH1 0x20 DUP4 ADD CALLDATALOAD PUSH8 0xFFFFFFFFFFFFFFFF DUP2 GT ISZERO PUSH2 0x12D9 JUMPI PUSH2 0x12D8 PUSH2 0xC56 JUMP JUMPDEST JUMPDEST PUSH2 0x12E5 DUP6 DUP3 DUP7 ADD PUSH2 0xD69 JUMP JUMPDEST SWAP2 POP POP SWAP3 POP SWAP3 SWAP1 POP JUMP JUMPDEST PUSH0 PUSH1 0x40 DUP3 ADD SWAP1 POP DUP2 DUP2 SUB PUSH0 DUP4 ADD MSTORE PUSH2 0x1307 DUP2 DUP6 PUSH2 0x11CC JUMP JUMPDEST SWAP1 POP PUSH2 0x1316 PUSH1 0x20 DUP4 ADD DUP5 PUSH2 0x105E JUMP JUMPDEST SWAP4 SWAP3 POP POP POP JUMP JUMPDEST PUSH0 PUSH20 0xFFFFFFFFFFFFFFFFFFFFFFFFFFFFFFFFFFFFFFFF DUP3 AND SWAP1 POP SWAP2 SWAP1 POP JUMP JUMPDEST PUSH0 PUSH2 0x1346 DUP3 PUSH2 0x131D JUMP JUMPDEST SWAP1 POP SWAP2 SWAP1 POP JUMP JUMPDEST PUSH2 0x1356 DUP2 PUSH2 0x133C JUMP JUMPDEST DUP3 MSTORE POP POP JUMP JUMPDEST PUSH0 PUSH1 0x40 DUP3 ADD SWAP1 POP DUP2 DUP2 SUB PUSH0 DUP4 ADD MSTORE PUSH2 0x1374 DUP2 DUP6 PUSH2 0x11CC JUMP JUMPDEST SWAP1 POP PUSH2 0x1383 PUSH1 0x20 DUP4 ADD DUP5 PUSH2 0x134D JUMP JUMPDEST SWAP4 SWAP3 POP POP POP JUMP JUMPDEST PUSH0 DUP2 SWAP1 POP SWAP3 SWAP2 POP POP JUMP JUMPDEST PUSH0 PUSH2 0x139E DUP3 PUSH2 0x118A JUMP JUMPDEST PUSH2 0x13A8 DUP2 DUP6 PUSH2 0x138A JUMP JUMPDEST SWAP4 POP PUSH2 0x13B8 DUP2 DUP6 PUSH1 0x20 DUP7 ADD PUSH2 0x11A4 JUMP JUMPDEST DUP1 DUP5 ADD SWAP2 POP POP SWAP3 SWAP2 POP POP JUMP JUMPDEST PUSH0 PUSH2 0x13CF DUP3 DUP5 PUSH2 0x1394 JUMP JUMPDEST SWAP2 POP DUP2 SWAP1 POP SWAP3 SWAP2 POP POP JUMP JUMPDEST PUSH32 0x4E487B7100000000000000000000000000000000000000000000000000000000 PUSH0 MSTORE PUSH1 0x22 PUSH1 0x4 MSTORE PUSH1 0x24 PUSH0 REVERT JUMPDEST PUSH0 PUSH1 0x2 DUP3 DIV SWAP1 POP PUSH1 0x1 DUP3 AND DUP1 PUSH2 0x141E JUMPI PUSH1 0x7F DUP3 AND SWAP2 POP JUMPDEST PUSH1 0x20 DUP3 LT DUP2 SUB PUSH2 0x1431 JUMPI PUSH2 0x1430 PUSH2 0x13DA JUMP JUMPDEST JUMPDEST POP SWAP2 SWAP1 POP JUMP JUMPDEST PUSH0 DUP2 SWAP1 POP DUP2 PUSH0 MSTORE PUSH1 0x20 PUSH0 KECCAK256 SWAP1 POP SWAP2 SWAP1 POP JUMP JUMPDEST PUSH0 PUSH1 0x20 PUSH1 0x1F DUP4 ADD DIV SWAP1 POP SWAP2 SWAP1 POP JUMP JUMPDEST PUSH0 DUP3 DUP3 SHL SWAP1 POP SWAP3 SWAP2 POP POP JUMP JUMPDEST PUSH0 PUSH1 0x8 DUP4 MUL PUSH2 0x1493 PUSH32 0xFFFFFFFFFFFFFFFFFFFFFFFFFFFFFFFFFFFFFFFFFFFFFFFFFFFFFFFFFFFFFFFF DUP3 PUSH2 0x1458 JUMP JUMPDEST PUSH2 0x149D DUP7 DUP4 PUSH2 0x1458 JUMP JUMPDEST SWAP6 POP DUP1 NOT DUP5 AND SWAP4 POP DUP1 DUP7 AND DUP5 OR SWAP3 POP POP POP SWAP4 SWAP3 POP POP POP JUMP JUMPDEST PUSH0 DUP2 SWAP1 POP SWAP2 SWAP1 POP JUMP JUMPDEST PUSH0 DUP2 SWAP1 POP SWAP2 SWAP1 POP JUMP JUMPDEST PUSH0 PUSH2 0x14E1 PUSH2 0x14DC PUSH2 0x14D7 DUP5 PUSH2 0x14B5 JUMP JUMPDEST PUSH2 0x14BE JUMP JUMPDEST PUSH2 0x14B5 JUMP JUMPDEST SWAP1 POP SWAP2 SWAP1 POP JUMP JUMPDEST PUSH0 DUP2 SWAP1 POP SWAP2 SWAP1 POP JUMP JUMPDEST PUSH2 0x14FA DUP4 PUSH2 0x14C7 JUMP JUMPDEST PUSH2 0x150E PUSH2 0x1506 DUP3 PUSH2 0x14E8 JUMP JUMPDEST DUP5 DUP5 SLOAD PUSH2 0x1464 JUMP JUMPDEST DUP3 SSTORE POP POP POP POP JUMP JUMPDEST PUSH0 SWAP1 JUMP JUMPDEST PUSH2 0x1522 PUSH2 0x1516 JUMP JUMPDEST PUSH2 0x152D DUP2 DUP5 DUP5 PUSH2 0x14F1 JUMP JUMPDEST POP POP POP JUMP JUMPDEST JUMPDEST DUP2 DUP2 LT ISZERO PUSH2 0x1550 JUMPI PUSH2 0x1545 PUSH0 DUP3 PUSH2 0x151A JUMP JUMPDEST PUSH1 0x1 DUP2 ADD SWAP1 POP PUSH2 0x1533 JUMP JUMPDEST POP POP JUMP JUMPDEST PUSH1 0x1F DUP3 GT ISZERO PUSH2 0x1595 JUMPI PUSH2 0x1566 DUP2 PUSH2 0x1437 JUMP JUMPDEST PUSH2 0x156F DUP5 PUSH2 0x1449 JUMP JUMPDEST DUP2 ADD PUSH1 0x20 DUP6 LT ISZERO PUSH2 0x157E JUMPI DUP2 SWAP1 POP JUMPDEST PUSH2 0x1592 PUSH2 0x158A DUP6 PUSH2 0x1449 JUMP JUMPDEST DUP4 ADD DUP3 PUSH2 0x1532 JUMP JUMPDEST POP POP JUMPDEST POP POP POP JUMP JUMPDEST PUSH0 DUP3 DUP3 SHR SWAP1 POP SWAP3 SWAP2 POP POP JUMP JUMPDEST PUSH0 PUSH2 0x15B5 PUSH0 NOT DUP5 PUSH1 0x8 MUL PUSH2 0x159A JUMP JUMPDEST NOT DUP1 DUP4 AND SWAP2 POP POP SWAP3 SWAP2 POP POP JUMP JUMPDEST PUSH0 PUSH2 0x15CD DUP4 DUP4 PUSH2 0x15A6 JUMP JUMPDEST SWAP2 POP DUP3 PUSH1 0x2 MUL DUP3 OR SWAP1 POP SWAP3 SWAP2 POP POP JUMP JUMPDEST PUSH2 0x15E6 DUP3 PUSH2 0x118A JUMP JUMPDEST PUSH8 0xFFFFFFFFFFFFFFFF DUP2 GT ISZERO PUSH2 0x15FF JUMPI PUSH2 0x15FE PUSH2 0xC72 JUMP JUMPDEST JUMPDEST PUSH2 0x1609 DUP3 SLOAD PUSH2 0x1407 JUMP JUMPDEST PUSH2 0x1614 DUP3 DUP3 DUP6 PUSH2 0x1554 JUMP JUMPDEST PUSH0 PUSH1 0x20 SWAP1 POP PUSH1 0x1F DUP4 GT PUSH1 0x1 DUP2 EQ PUSH2 0x1645 JUMPI PUSH0 DUP5 ISZERO PUSH2 0x1633 JUMPI DUP3 DUP8 ADD MLOAD SWAP1 POP JUMPDEST PUSH2 0x163D DUP6 DUP3 PUSH2 0x15C2 JUMP JUMPDEST DUP7 SSTORE POP PUSH2 0x16A4 JUMP JUMPDEST PUSH1 0x1F NOT DUP5 AND PUSH2 0x1653 DUP7 PUSH2 0x1437 JUMP JUMPDEST PUSH0 JUMPDEST DUP3 DUP2 LT ISZERO PUSH2 0x167A JUMPI DUP5 DUP10 ADD MLOAD DUP3 SSTORE PUSH1 0x1 DUP3 ADD SWAP2 POP PUSH1 0x20 DUP6 ADD SWAP5 POP PUSH1 0x20 DUP2 ADD SWAP1 POP PUSH2 0x1655 JUMP JUMPDEST DUP7 DUP4 LT ISZERO PUSH2 0x1697 JUMPI DUP5 DUP10 ADD MLOAD PUSH2 0x1693 PUSH1 0x1F DUP10 AND DUP3 PUSH2 0x15A6 JUMP JUMPDEST DUP4 SSTORE POP JUMPDEST PUSH1 0x1 PUSH1 0x2 DUP9 MUL ADD DUP9 SSTORE POP POP POP JUMPDEST POP POP POP POP POP POP JUMP JUMPDEST PUSH32 0x417272617973206C656E677468206D69736D6174636800000000000000000000 PUSH0 DUP3 ADD MSTORE POP JUMP JUMPDEST PUSH0 PUSH2 0x16E0 PUSH1 0x16 DUP4 PUSH2 0x1194 JUMP JUMPDEST SWAP2 POP PUSH2 0x16EB DUP3 PUSH2 0x16AC JUMP JUMPDEST PUSH1 0x20 DUP3 ADD SWAP1 POP SWAP2 SWAP1 POP JUMP JUMPDEST PUSH0 PUSH1 0x20 DUP3 ADD SWAP1 POP DUP2 DUP2 SUB PUSH0 DUP4 ADD MSTORE PUSH2 0x170D DUP2 PUSH2 0x16D4 JUMP JUMPDEST SWAP1 POP SWAP2 SWAP1 POP JUMP JUMPDEST PUSH32 0x4E487B7100000000000000000000000000000000000000000000000000000000 PUSH0 MSTORE PUSH1 0x32 PUSH1 0x4 MSTORE PUSH1 0x24 PUSH0 REVERT INVALID LOG2 PUSH5 0x6970667358 0x22 SLT KECCAK256 0xE2 ADDMOD BYTE 0xEB DUP10 DUP9 CALLDATASIZE CODECOPY PREVRANDAO 0xAD 0xE8 0x2F PUSH6 0xE15891E17737 CALLDATASIZE NUMBER 0xCC DUP13 0xAB JUMPI CALLDATASIZE 0x1F SHR 0xDC 0xE0 0xF8 0xD PUSH5 0x736F6C6343 STOP ADDMOD XOR STOP CALLER LOG2 PUSH5 0x6970667358 0x22 SLT KECCAK256 PUSH8 0x2A1465AF01042BFB 0xD6 0xD1 0xD0 SUB PUSH13 0x8525E3DC56A23038F40C9859D6 0xD0 0xCB 0xC4 GAS PUSH4 0x64736F6C PUSH4 0x43000818 STOP CALLER "},"gasEstimates":{"creation":{"codeDepositCost":"1675600","executionCost":"1755","totalCost":"1677355"},"external":{"createManufacturer(string,string)":"infinite","getManufacturerInstance(string)":"infinite","manufacturersField(string)":"infinite"}},"methodIdentifiers":{"createManufacturer(string,string)":"80b29bec","getManufacturerInstance(string)":"08ac800c","manufacturersField(string)":"c0900bea"}},"storageLayout":{"storage":[{"astId":11,"contract":"FakeProdIden.sol:manufacturerFactory","label":"manufacturersField","offset":0,"slot":"0","type":"t_mapping(t_string_memory_ptr,t_struct(manufacturer)6_storage)"}],"types":{"t_address":{"encoding":"inplace","label":"address","numberOfBytes":"20"},"t_mapping(t_string_memory_ptr,t_struct(manufacturer)6_storage)":{"encoding":"mapping","key":"t_string_memory_ptr","label":"mapping(string => struct manufacturerFactory.manufacturer)","numberOfBytes":"32","value":"t_struct(manufacturer)6_storage"},"t_string_memory_ptr":{"encoding":"bytes","label":"string","numberOfBytes":"32"},"t_string_storage":{"encoding":"bytes","label":"string","numberOfBytes":"32"},"t_struct(manufacturer)6_storage":{"encoding":"inplace","label":"struct manufacturerFactory.manufacturer","members":[{"astId":3,"contract":"FakeProdIden.sol:manufacturerFactory","label":"id","offset":0,"slot":"0","type":"t_string_storage"},{"astId":5,"contract":"FakeProdIden.sol:manufacturerFactory","label":"instance","offset":0,"slot":"1","type":"t_address"}],"numberOfBytes":"64"}}},"userdoc":{"kind":"user","methods":{},"version":1}}